:020000040800F2
:100000000080012059070008AD070008AD0700086F
:10001000AD070008AD070008AD07000800000000AC
:10002000000000000000000000000000AD07000814
:10003000AD07000800000000AD070008AD0700088C
:10004000AD070008AD070008AD070008AD070008C0
:10005000AD070008AD070008AD070008AD070008B0
:10006000AD070008AD070008AD070008AD070008A0
:10007000AD070008AD070008AD070008AD07000890
:10008000AD070008AD070008AD070008000000003C
:10009000000000000000000000000000AD070008A4
:1000A000AD070008AD070008AD070008AD07000860
:1000B000AD070008AD070008AD070008AD07000850
:1000C000AD070008AD070008AD070008AD07000840
:1000D000AD070008AD070008AD07000800000000EC
:1000E000AD070008AD070008AD07000800000000DC
:1000F000000000000000000000000000AD07000844
:1001000000000000AD070008AD070008AD070008BB
:1001100000000000000000000000000000000000DF
:10012000AD070008AD070008AD070008AD070008DF
:10013000AD07000800000000000000000000000003
:10014000000000000000000000000000AD070008F3
:10015000AD070008AD070008AD070008AD070008AF
:10016000AD070008AD070008000000000000000017
:10017000000000000000000000000000000000007F
:1001800000000000AD0700080000000000000000B3
:10019000AD07000810B5054C237833B9044810B1F9
:1001A0000448AFF300800121217010BD200200201F
:1001B00000000000A884000808B5064B1BB10648E3
:1001C0000649AFF300800648016811B1054A02B143
:1001D000904708BD00000000A88400082402002009
:1001E0001C02002000000000154B002B08BF134B21
:1001F0009D46A3F5803A00218B460F461348144ACA
:10020000121A05F0E2FD0F4B002B00D098470E4B61
:10021000002B00D098470020002104460D46002006
:100220000C490022002305F081F905F0E3FC20468B
:10023000294600F05DFA05F095F900BF00000800BE
:1002400000800120000000000000000020020020CB
:100250001C0E00203959000800B585B072B6052182
:10026000684603F037FB10E0039B019A1A60962062
:1002700003F05CFC9DF90030013310D0019A039B20
:1002800012041A60962003F051FC9DF900300133EE
:10029000EAD106480649342203F0ECFAE4E70348C1
:1002A0000349342203F0E6FAE8E700BF707700085C
:1002B000887700080F4A30B493689468B4F1006FEF
:1002C0001A4604D0103030BC42F8201070470A4A59
:1002D00003F5CA7553F8044B42F8044FAB42F9D109
:1002E0004FF00052034B10309A6030BC42F820109F
:1002F000704700BF00ED00E0FCFFFF1F70B5114C20
:100300002368DA68910715D4DA68520709D56FF0C7
:1003100004020D4E1A615D6A3368EB1AB3F57A7FF9
:1003200000D270BD00F060FA2368356005F57A757B
:100330009D6370BD6FF002021A6103F0D7FB236862
:10034000E2E700BF000D00203C020020244B30B546
:100350001A6C244C42F008021A641A6C83B002F042
:1003600008020192019A1A6A42F008021A621A6A95
:1003700022F008021A6201F033FC1B4A1B4B126880
:100380001B492160A3FB0212920C0025013A4FF099
:10039000FF3320466260E3602561A560656101F07E
:1003A0002FFA32201349FFF785FF134B4FF48022B9
:1003B0005A602946204601F091F92046042101F0B7
:1003C0008DF923680D495A6A0A6002F57A729A63B8
:1003D000DA68284642F00402DA6003B030BD00BF9C
:1003E00000380240000D00209C01002083DE1B43EA
:1003F000000C0040FD02000800E100E03C0200208B
:1004000008B501F0EDFBBDE8084000F0D3B900BF2E
:10041000036870B51B690021012204469847431CFC
:1004200005460ED0236820461B690021022298470A
:100430002368064629461B69204600229847304615
:1004400070BD70BD084B094A026010B403F580719D
:10045000002453F8042B824208BF43F8044C8B421B
:10046000F7D15DF8044B704740020020187800086F
:100470000A4B0B4A10B503F5807104460260002058
:1004800053F8042B944208BF43F8040C8B42F7D175
:10049000204604F0B1F8204610BD00BF4002002005
:1004A0001878000802480221032202F07DBE00BF36
:1004B000C00D0020F0B50E4685B03549054605F063
:1004C00076FE20B9334B1B6863B105B0F0BD2846FA
:1004D000314905F06CFE78B92E4B1B6843B1012001
:1004E00005B0F0BD0190FFF7DDFF019805B0F0BD4C
:1004F000FFF7D8FF0120E8E72846284905F057FE16
:1005000010B3274B002402E00134402C21D053F8D3
:10051000040F0028F8D12B783A2B32D0294602A8B4
:1005200002F012FF02A802F061FF90B102A802F0EF
:1005300045FF88B102A802F04BFF03464BB1194AB0
:10054000E01C42F82430C0E7124B1B68ABB102201C
:10055000BBE74FF0FF30B8E702A802F023FF0546E3
:100560000028F6D0036802A89F6802F019FF3246FF
:1005700001462846B8470346E0E7FFF793FF02200D
:10058000A3E72846084902AA05F0A0FD029BD5E78B
:10059000F8770008240A002008780008007800088E
:1005A0003C0200204002002040780008022808B5E4
:1005B0000BDDC21E074B53F82200002143F8221026
:1005C00028B103685B68984708BD002008BD4FF05C
:1005D000FF3008BD40020020022870B50C461646C8
:1005E0000FDC0E4B1B680BB9FFF75CFFA51936B18A
:1005F00014F8011B0A4802F085FEAC42F8D13046DF
:1006000070BD0338074B53F8200018B103681B680E
:10061000984770BD4FF0FF3070BD00BF240A002026
:10062000C00D002040020020022810B50C4609DC55
:100630000D4B1B688BB10D4802F058FE0123207052
:10064000184610BD03380A4B53F8200040B1036828
:100650009B6898470346184610BDFFF723FFEAE75B
:100660004FF0FF33ECE700BF240A0020C00D00204C
:1006700040020020022808B508DD0338064B53F875
:10068000200028B10368DB68984708BD012008BD39
:100690004FF0FF3008BD00BF40020020022808B51F
:1006A00008DD0338064B53F8200028B103681B69A6
:1006B000984708BD002008BD4FF0FF3008BD00BFBF
:1006C00040020020022808B504D84FF400534B60C4
:1006D000002008BD04F040FF092303604FF0FF3005
:1006E00008BD00BF08B5012004F03CFF704700BF03
:1006F00008B5FFF785FEFFF7F9FFBDE8084002F0F7
:10070000B3B800BF074A13681844EFF30881884262
:1007100002D2106018467047034B0C221A604FF04B
:10072000FF30704798010020180E0020074C08B5D4
:1007300023680546986805F02FF82368D86805F007
:100740002BF805B9FEE7FFF787FDFBE70402002061
:10075000002105F0FDBB00BFDFF838D0002100F01C
:1007600004B80D4B5B58435004310C480C4B4218F5
:100770009A42FFF4F6AF0B4A00F003B8002342F8A8
:10078000043B094B9A42FFF4F9AF01F007FBFFF776
:100790002BFD704700800120B484000894010020E4
:1007A00020020020200200201C0E0020FFF7FEBFC8
:1007B000704700BF08B50B4B1A6842F400721A600C
:1007C0001A6842F480621A601A6842F480721A60F1
:1007D000032000F0F7F90F20FFF7B8FDFFF7E8FF5F
:1007E000002008BD003C0240024B1A6801321A602A
:1007F000704700BF40030020014B1868704700BFDE
:1008000040030020704700BFF8B50446002800F000
:10081000998090F83D3003F0FF02002B00F08480B7
:10082000494A4A48022384F83D305168236821F43C
:100830004031516055686168294351605E6827699D
:10084000A568E168E26A26F480765E605E6846EA42
:1008500007265E605E6826F040765E605E6835431F
:100860005D609D6825F400659D609D68824245EA53
:10087000010199605DD09868216B20F070609860EC
:10088000986802439A609A6822F040529A609A6887
:100890000A439A609968A069626A21F0020199602E
:1008A000996841EA4001996042BB5A6822F40062AB
:1008B0005A60DD6AE169226A606925F47005DD62CB
:1008C000DD6A013A45EA0252DA629A6822F400725D
:1008D0009A609A6842EA41229A609A6822F4806299
:1008E0009A609968002241EA802001219860226480
:1008F000104684F83C2084F83D10F8BD5A6842F454
:1009000000625A605A6822F460425A6059684FF493
:10091000604090FAA0F0B0FA80F0A26AC0B2013A4A
:1009200082400A435A60C4E780F83C20FFF76AFF20
:1009300076E79A6822F070629A609A6822F04052D4
:100940009A60A7E70120F8BD002301400100000FD5
:1009500030B490F83C3082B00022012B01923DD09F
:1009600090F83D300122222B0CBF3223122380F855
:100970003C20026880F83D309368DB0714D41E49A0
:100980001E4B0C689168A3FB04539B0C03EB4303C1
:1009900041F0010191600193019B2BB1019B013B4F
:1009A0000193019B002BF9D1154B5B68002113F0DB
:1009B0001F0380F83C1006D0124B9A4216D008460E
:1009C00002B030BC7047916811F040500AD1936872
:1009D00043F08043936002B030BC7047022002B005
:1009E00030BC7047184602B030BC7047906810F0B9
:1009F0004050ECD0E3E700BF9C01002083DE1B43A6
:100A0000002301400020014003689A6870B5560534
:100A100005460C4602D59B68D80520D4FFF7ECFEAE
:100A200006462A6801E0611C0CD113689B07FAD5C1
:100A300095F83D30252B0CBF3523152385F83D3027
:100A4000002070BD24B1FFF7D7FE801B8442E8D29E
:100A50000320002385F83D0085F83C3070BD04225A
:100A6000002385F83D2085F83C30012070BD00BF93
:100A70000368D86C704700BFF0B490F83C3082B087
:100A80000022012B019259D00A680123092A144639
:100A900080F83C302BD803688F681E69496802EBE8
:100AA00042054FF0070C0CFA05FC26EA0C061E6105
:100AB0001E6907FA05F5354306291D612DD801EB9E
:100AC00081015E6B05391F258D4026EA05055D63B2
:100AD0005D6B04FA01F12943596337498B423ED0DB
:100AE000002380F83C30184602B0F0BC7047036821
:100AF0008F68DE68496894B204EB44051E3D4FF0F0
:100B0000070C0CFA05FC26EA0C06DE60DE6807FA24
:100B100005F535430629DD60D1D90C2901EB8101AA
:100B200010D81E6B23391F258D4026EA05051D634D
:100B30001D6B04FA01F129431963CEE7022002B0CC
:100B4000F0BC7047DE6A41391F258D4026EA050555
:100B5000DD62DD6A04FA01F12943D962BDE7122A98
:100B600023D0A2F11003012BBAD8144B5968102AD4
:100B700041F400015960B3D1114A03F1467303F502
:100B80002E33126803F28333A3FB02139B0C03EB97
:100B900083035B000193019B002BA1D0019B013BD0
:100BA0000193019B002BF9D19AE7044B5A6842F458
:100BB00080025A6094E700BF0020014000230140FA
:100BC0009C010020074AD1684FF6FF030B4043F019
:100BD000BF6300F0070043F4003343EA0023D3600F
:100BE000704700BF00ED00E02DE9F00FD1F800C024
:100BF0007C4E82B0002303E00133102B00F09C8078
:100C0000012404FA03F202EA0C049442F4D14A6883
:100C100022F01009B9F1020F00F092805D004FF050
:100C20000308D0F800B008FA05F86FEA080802F0E7
:100C3000030A08EA0B0B0AFA05FA09F1FF394BEA35
:100C40000A0AB9F1010FC0F800A040F2A280D0F862
:100C50000C908F6808EA090807FA05F548EA0505C7
:100C6000C560D500C8D5604F7D6C45F480457D6476
:100C7000D7F8448023F0030508F48048CDF80480B9
:100C800005F1804503F003080F2705F59C354FEA71
:100C9000880807FA08FA554FDDF80490D5F808904F
:100CA000B84229EA0A0900F08C8007F58067B8424B
:100CB00000F08A804E4FB84200F08A804D4FB84213
:100CC00000F08B804C4FB8420CBF4FF0040A4FF03D
:100CD000050A0AFA08F848EA0908C5F80880D6F8AB
:100CE0000080E543D7034CBF44EA080805EA08083A
:100CF000C6F80080D6F8048097034CBF44EA080881
:100D000005EA0808C6F80480D6F80880D7024CBF68
:100D100044EA080805EA0808C6F80880D6F80C80F6
:100D2000920203F1010354BF05EA080444EA0804EF
:100D3000102BF4607FF464AF02B0BDE8F00F704791
:100D40004FEAD30800EB880803F00709D8F82070B1
:100D50004FEA89090F2505FA09FB27EA0B0A0F69F3
:100D600007FA09F94AEA0905C8F820505D004FF072
:100D70000308D0F800A008FA05F86FEA080802F0A6
:100D8000030908EA0A0A09FA05F94AEA0909C0F852
:100D90000090D0F80890CF6808EA090907FA05FA28
:100DA00049EA0A09C0F80890D0F804A0C2F3001973
:100DB0002AEA040A09FA03F94AEA0909C0F8049080
:100DC00045E74FF0000886E7012707FA08F882E7B1
:100DD0004FF0020A0AFA08F87DE74FF0030A0AFA10
:100DE00008F878E7003C014000380240000002406B
:100DF00000080240000C024000100240704700BF93
:100E0000F8B50446002869D090F8353003F0FF02A9
:100E1000002B4ED02368324D022284F835201A6808
:100E200022F001021A6000F087FB2E4962682368F5
:100E3000A1FB0061890CAA42596024D85200B0FB82
:100E4000F2F0C0F30B020131032A19628CBF844611
:100E50004FF0040C206AE769E6682169A2696569B8
:100E6000C3F81CC0384331432A4318609960DA60E4
:100E70001868002240F0010001211860A2631046AA
:100E800084F83510F8BD4FF49677174EA56807FB28
:100E900001F1A6FB017189090131196275B902EBF3
:100EA0004202B0FBF2F0C0F30B02A2B94FF0010C0A
:100EB000D0E780F83420FFF7A1FFABE702EB820216
:100EC00002EB8202B0FBF2F0C0F30B02002AEDD07D
:100ED00040F4404CBEE740F4004CBBE70120F8BDB5
:100EE000A086010083DE1B43D34D6210064B1A69B6
:100EF000012922F004021A6103D040BF20BF20BFA5
:100F0000704730BF704700BF00ED00E0F0B50368E8
:100F1000DE0783B0044637D5A54A916801F00C017D
:100F2000042900F0F380916801F00C01082900F019
:100F3000E980A04B9E4D00221A70FFF75DFC41F244
:100F40008836074605E0FFF757FCC01BB04200F2A9
:100F5000C8802B689903F6D4964B22791A7063687F
:100F6000002B00F01181FFF747FC914D074641F23D
:100F7000883605E0FFF740FCC01BB04200F2B180AC
:100F80002B689A03F6D523689F072FD5884A916866
:100F900011F00C0F00F0AC80916801F00C010829F1
:100FA00000F0A280E368002B00F0DD80824B804DD2
:100FB00001221A60FFF720FC064605E0FFF71CFC43
:100FC000801B642800F28D802B68794A9807F5D53C
:100FD0001168F82090FAA0F0B0FA80F02369C0B24E
:100FE00021F0F80183400B43136023681A0720D4D3
:100FF000580734D4A369CBB16D4DAA6802F00C0236
:10100000082A7CD0022B6D4B4FF000021A6000F0D2
:10101000CB80FFF7F1FB2C46054604E0FFF7ECFB25
:10102000401B64285DD823689B01F7D4002003B0DF
:10103000F0BD6369002B73D0614B5D4D01221A60D6
:10104000FFF7DAFB064604E0FFF7D6FB801B6428B7
:1010500047D86B6F9B07F7D523685807CAD5544B01
:10106000584D1A6C42F080521A641B6C03F0805386
:101070000193019B2B6843F480732B60FFF7BCFB4B
:10108000064604E0FFF7B8FB801B642829D82B68CC
:10109000D905F7D54C4B464D00221A70FFF7ACFB33
:1010A00041F28836074604E0FFF7A6FBC01BB042BA
:1010B00017D82B6F9A07F7D4434B227A1A70A3687C
:1010C000002B00F0C780FFF797FB394D074641F230
:1010D00088362B6F9B078DD4FFF78EFBC01BB04269
:1010E000F7D9032003B0F0BD526856023FF55AAF5E
:1010F0002F4A1268950723D5E268012A20D00120E3
:1011000003B0F0BD526855027FF513AF284A12684C
:1011100090037FF539AF6268002A7FF435AFEEE7C0
:10112000274A234D1360FFF767FB064604E0FFF7ED
:1011300063FB801B6428D4D86B6F9F07F7D48BE7C1
:101140001B4AF825106895FAA5F5B5FA85F52269C8
:101150001749EDB220F0F800AA4002430A601A07CE
:101160007FF546AF65E7144A114D1360FFF744FB66
:10117000064604E0FFF740FB801B6428B1D82B68CB
:101180009907F7D4236831E7FFF736FB084D074688
:1011900041F2883604E0FFF72FFBC01BB042A0D815
:1011A0002B689B03F7D4EEE6FFF726FB064612E01A
:1011B00000380240023802400000474260004742C7
:1011C000800E47420070004070380240FFF714FB69
:1011D000801B642885D82B689901F7D447F6C07521
:1011E00095FAA5F5B5FA85F54FF4403191FAA1F1DC
:1011F000B1FA81F14FF0706292FAA2F2B2FA82F281
:10120000A66AD4F824C0D4F820E0E769E06A194B54
:10121000194CEDB276080CFA05F54EEA0707C9B28B
:10122000013E3D43D2B206FA01F100FA02F229432F
:101230001143012261601A60FFF7DEFA054605E0FE
:10124000FFF7DAFA401B64283FF64BAF23689A0198
:10125000F6D5EBE6FFF7D0FA074D074641F28836A0
:101260002B6F98077FF5C6AEFFF7C6FAC01BB042DA
:10127000F6D936E760004742003802407C4B1A68D6
:1012800002F00F028A422DE9F0410C46054609D2D0
:10129000CAB21A701B6803F00F038B4258D00120AA
:1012A000BDE8F08103689A0706D5724A81689068A4
:1012B00020F0F00001439160DF0727D56B68012B18
:1012C00079D09A1E012A6B4A126840F287809107F2
:1012D000E5D5684FBA6822F003021343BB60FFF7FD
:1012E0008BFA6B68012B06467CD0022B00F08880BD
:1012F000032B65D041F2883804E0FFF77DFA801BAC
:10130000404565D8BB6813F00C0FF6D1584BE2B2DC
:101310001A701B6803F00F03A342C0D12B685A0751
:1013200006D5544AE968906820F4E0500143916082
:101330001B0707D54F4B29699A6822F4604242EA9D
:10134000C1029A600F20FFF701F80020BDE8F0818C
:1013500003689F0706D5474A8168906820F0F0002F
:1013600001439160DE07DAD56B68012B56D09A1ED7
:10137000012A404A12682ED9910790D53D4EB26895
:1013800022F003021343B360FFF736FA6B68012BB8
:10139000044648D0022B54D0032B60D041F288374A
:1013A00004E0FFF729FA001BB84211D8B36813F024
:1013B0000C0FF6D1B2E72F4A1268960389D46EE774
:1013C00041F28834BB68FFF717FA801BA042F9D9B5
:1013D0000320BDE8F0819001D0D460E790013FF593
:1013E00078AF5CE741F2883804E0FFF705FA801B2C
:1013F0004045EDD8BB6803F00C03042BF5D185E71D
:1014000041F2883804E0FFF7F7F9801B4045DFD848
:10141000BB6803F00C03082BF5D177E7154A126877
:101420009403ABD43BE741F2883704E0FFF7E4F9DB
:10143000001BB842CCD8B36803F00C03042BF5D1E1
:101440006CE741F2883704E0FFF7D6F9001BB84299
:10145000BED8B36803F00C03082BF5D15EE741F268
:101460008835B368FFF7C8F9001BA842F9D9AFE780
:10147000003C0240003802401E4B9A6802F00C0209
:10148000042A10B432D0082A03D01B485DF8044B5C
:10149000704758685A685C6812F4800F00F03F018A
:1014A00047F6C07292FAA2F2B2FA82F247F6C0731D
:1014B00014BF12481048D2B22340D3400D4AB0FBAB
:1014C000F1F000FB03F052684FF4403393FAA3F3BA
:1014D000B3FA83F302F44032DBB222FA03F30133AE
:1014E0005B00B0FBF3F05DF8044B704703485DF818
:1014F000044B7047003802400024F40000127A00C8
:1015000008B5FFF7B9FF094BF0229B6892FAA2F2E7
:10151000B2FA82F203F0F003D2B223FA02F20449E3
:10152000044B8A5CD040186008BD00BF0038024000
:10153000507800089C01002008B5FFF7E1FF084A39
:101540004FF4E053926893FAA3F3B3FA83F302F4EF
:10155000E052DBB222FA03F3024AD35CD84008BD62
:10156000003802405078000808B5FFF7C9FF084A64
:101570004FF46043926893FAA3F3B3FA83F302F44F
:101580006042DBB222FA03F3024AD35CD84008BDC2
:1015900000380240507800080E4B0F22026010B451
:1015A0009C680D4A04F0030444609C6804F0F00455
:1015B00084609C6804F4E054C4609B685DF8044B4C
:1015C00003F46043DB080361136803F00F030B604F
:1015D000704700BF00380240003C0240036A23F01D
:1015E0000103F0B48F680E680362036A104D42680D
:1015F000846923F0020324F07304A84243EA07033A
:1016000044EA060406D04968426084614163F0BC44
:1016100003627047CF688E694D6923F0080322F496
:1016200040723B43354323F004032A43EBE700BFFA
:1016300000000140036A23F48073F0B48F680E68E1
:101640000362036A114D4268C46923F4007324F0F5
:101650007304A84243EA072344EA060406D0496813
:101660004260C461C163F0BC03627047CF684E69D9
:101670008D6923F4006322F4405243EA072342EACF
:10168000061223F4806342EA0512E8E700000140F5
:10169000036A23F48053F0B48F680E680362026A11
:1016A0000C4D4368C46922F4005224F4E644A84275
:1016B00042EA073244EA062406D049684360C4611E
:1016C0000164F0BC026270474D6923F4804343EA31
:1016D0008513F2E700000140704700BF03680E4A1F
:1016E000186A10B4012404FA01F120EA010018621A
:1016F000186A934241EA0001196207D01A685DF83E
:10170000044B42F0010200201A6070475A6C42F408
:1017100000425A64F2E700BF00000140704700BF7A
:1017200003680E4A186A10B4012404FA01F120EA91
:1017300001001862186A934241EA0001196207D059
:101740001A685DF8044B42F0010200201A607047ED
:101750005A6C42F400425A64F2E700BF00000140B4
:10176000264A0368904230B434D0B0F1804F20D084
:10177000A2F57C4290421CD002F58062904218D0C3
:1017800002F58062904214D002F59A32904214D051
:1017900002F58062904210D002F5806290420CD037
:1017A0008C680A6803600123C462826230BC4361B2
:1017B00070474A6823F070031343CD688C680A6849
:1017C00023F440732B4303600123C462826230BC64
:1017D000436170474C68CA6823F070031C4324F4CB
:1017E0004074224302608B68C3620B6883620B699A
:1017F00003630123436130BC704700BF0000014018
:1018000010B50446B0B190F8393003F0FF0263B16F
:101810002146022351F8040B84F83930FFF7A0FF6A
:10182000012384F83930002010BD80F83820FFF7FC
:1018300053FFEDE7012010BD10B50446B0B190F89C
:10184000393003F0FF0263B12146022351F8040B43
:1018500084F83930FFF784FF012384F83930002001
:1018600010BD80F83820FFF759FFEDE7012010BDCB
:10187000036A23F01003F0B48F680E680362036AF2
:10188000114D4268846923F0200324F4E644A84201
:1018900043EA071344EA062406D04968426084619B
:1018A0008163F0BC03627047CF684E698D6923F095
:1018B000800322F4406243EA071342EA860223F0DF
:1018C000400342EA8502E8E70000014038B590F89D
:1018D0003830012B04460D4628D00121022380F820
:1018E000381080F839300C2A19D8DFE802F00718D0
:1018F00018183418181847181818210029460068B5
:10190000FFF76CFE23682A69996941F00801996123
:10191000996921F00401996199690A439A61012347
:10192000002084F8393084F8380038BD022038BDF2
:1019300029460068FFF7ACFE23682969DA6942F49A
:101940000062DA61DA6922F48062DA61DA6942EA15
:101950000122DA61E3E729460068FFF789FF23687F
:1019600029699A6942F400629A619A6922F4806254
:101970009A619A6942EA01229A61D0E72946006891
:10198000FFF758FE23682A69D96941F00801D96137
:10199000D96921F00401D961D9690A43DA61BEE746
:1019A000036804201A6A00FA01F122EA01021A62AD
:1019B0001A6A114319625A6C42F400425A641A6856
:1019C00042F001021A600020704700BF2DE9F0418B
:1019D0000568C1682B69C269D0F810E0876846695C
:1019E00023F440531943044680692961EB684EEAA9
:1019F000070123F41643314323F00C0311430B4337
:101A0000EB606B6923F440730343B2F5004F6B61E5
:101A1000594B3CD09D4200F08C8003F580639D4281
:101A200000F08780FFF788FD6368544E00EB80006C
:101A30009B0000EB8000B0FBF3F7FFF77DFD6368D0
:101A400000EB80009B0000EB8000B0FBF3F8FFF799
:101A500073FD636800EB800000EB80009B00B0FB2F
:101A6000F3F3A6FB0727A6FB03237F095B0964208A
:101A70003F0100FB13884FEA081808F13208A6FB63
:101A80000836C6F343163743AF60BDE8F0819D4288
:101A90002DD003F580639D4229D0FFF74DFD63688B
:101AA000364E00EB80005B0000EB8000B0FBF3F7EC
:101AB000FFF742FD636800EB80005B0000EB8000F5
:101AC000B0FBF3F8FFF738FDA6FB072763687F0933
:101AD00000EB80003F0100EB80005B00B0FBF3F304
:101AE000A6FB03235B09642202FB1388C3E7FFF70D
:101AF0003BFD6368214E00EB80005B0000EB800043
:101B0000B0FBF3F7FFF730FD636800EB80005B008C
:101B100000EB8000B0FBF3F8FFF726FDA6FB0727DC
:101B200063687F0900EB80003F0100EB80005B00F1
:101B3000D4E7FFF719FD6368104E00EB80009B00AF
:101B400000EB8000B0FBF3F7FFF70EFD636800EBDE
:101B500080009B0000EB8000B0FBF3F8FFF704FD72
:101B6000A6FB072763687F0900EB80003F0100EBBD
:101B700080009B00B2E700BF001001401F85EB51C1
:101B8000704700BF10B5044640B390F8393003F0F9
:101B9000FF02F3B12368022284F83920DA6822F4C4
:101BA0000052DA602046FFF711FF23681A6922F419
:101BB00090421A615A6922F02A025A61D8680022BA
:101BC00040F400500121D860E263104684F83910D7
:101BD00010BD80F83820FFF7D3FFDBE7012010BDF0
:101BE000164B9A6802F00C02042A24D0082A0AD064
:101BF000134A124B13489968134BC1F30311415C0C
:101C0000CA401A607047586859685B6842024CBF06
:101C10000E4A0B4A01F03F01C3F38813B2FBF1F205
:101C200002FB03F2054B5B68C3F3014301335B0026
:101C3000B2FBF3F2DDE7054ADBE700BF0038024004
:101C40000024F400607800089C01002000127A0053
:101C5000224A234B116C70B541F080511164126C13
:101C600094B002F080520192019A1A6822F4404224
:101C700042F400421A601B6803F4404302930123BC
:101C8000029A089300B1052309934FF4A871072322
:101C9000042202244FF48006082508A813930E940A
:101CA0000F96109511911292FFF730F9034610B17B
:101CB000002014B070BD4FF4805221460F2503A8B8
:101CC00004940593079303950692FFF7D7FAD0F192
:101CD000010038BF002014B070BD00BF00380240C2
:101CE00000700040234A244B116CF0B541F0805144
:101CF0001164126C95B002F080520192019A1A6838
:101D000022F4404242F400421A601B6803F440434C
:101D100002934FF0030E1023002404210722012711
:101D200002254FF4A87608A80C931093DDF808C09C
:101D3000CDF820E00B9709940F940E95119612910F
:101D40001392FFF7E3F8034610B1204615B0F0BD3B
:101D50004FF4805229460F2403A804950593079356
:101D600003940692FFF78AFAD0F1010038BF0020F1
:101D700015B0F0BD003802400070004008B50120E9
:101D8000FFF766FF00B108BDFFF762FF0028FAD138
:101D9000FFF7A8FF0028F6D1FEE700BF174B184851
:101DA000D3F8882070B542F47002164CC3F888202E
:101DB0002268154E154D002142F001022260A160FB
:101DC000226822F0847222F48032226066602668E3
:101DD0004FF0006226F480262660E1609A6005607C
:101DE000FEF7E8FCFFF7CAFF236A43F0080323620B
:101DF000236A23F00803236270BD00BF00ED00E0FA
:101E00009C01002000380240103000240024F4001F
:101E100038B5102204460D46002103F0D6FF2046B7
:101E2000294601F057FD204638BD000038B590F92D
:101E30000030013304460D4604D1054805493422DB
:101E400001F018FDE068626805B91204026038BD4F
:101E5000707800088878000810B52021044600F04A
:101E6000FFFE0B2104F10800FFF7D2FF0C2104F163
:101E70001800FFF7CDFF04F128000721FFF7C8FF86
:101E8000002384F83830204610BD10B5044680F891
:101E9000381003291ED8DFE801F002060A1300F10A
:101EA0000800002106E000F1080000210BE000F12D
:101EB00008000121FFF7BAFF04F11800002107E034
:101EC00000F108000121FFF7B1FF04F11800012122
:101ED000FFF7ACFF10BD10B50121044600F128004A
:101EE000FFF7A4FF94F838102046BDE81040FFF734
:101EF000CCBF10B50021044600F10800FFF796FFA3
:101F000004F118000021FFF791FF04F128000021DF
:101F1000FFF78CFF10BD000070B5134E134D144C2D
:101F20002D21304601F0F8FA224629463046114E5E
:101F300002F066FB0621104801F050F82E213046D1
:101F400001F0EAFA22460D4C2946304602F058FBD1
:101F500000212046102203F038FF20460521BDE86D
:101F6000704001F0B7BC00BF54030020A13400084A
:101F700094010020BC030020A8030020440300209B
:101F800070472DE9CF41174604AA1E46012302F8E7
:101F9000041D00933A21804601F04EFA002300937D
:101FA00040463A213A46334601F060FABDE8CF8117
:101FB0007FB500242A263A2103AA0223009405466D
:101FC0008DF80C608DF80D4001F036FA0E238DF877
:101FD0000C303A2103AA0223009428468DF80D40C4
:101FE00001F02AFA01208DF80D00009428463A21CC
:101FF00003AA02238DF80C6001F01EFA7FBD10B514
:10200000044601F0F9F92046FFF7D2FF204610BD43
:1020100013B507230C466A460021FFF7B2FF9DF86F
:1020200004309DF805109DF806009DF8032003EB91
:10203000022200EB01239DF802109DF8010001EB44
:10204000002001B212B21BB207EE101A01EE102AE4
:1020500006EE903ADFED0A7AB8EEC70AF8EEC11A3A
:10206000F8EEE62A60EE270A21EEA72A22EEA73A2A
:10207000C4ED000A84ED012A84ED023A1CBD00BFC4
:102080000000803838B590F90030013304460D4621
:1020900004D105480549342201F0ECFBE068626890
:1020A00005B91204026038BD70780008887800080D
:1020B000F8B50A21044604F12007FFF7A9FE2921FB
:1020C00004F11000FFF7A4FE04F13406384609219C
:1020D000084D00F083FF3046082100F07FFF3846AE
:1020E000294601F027F83046294601F023F820461A
:1020F000F8BD00BF17B7513838B504460D4600216A
:10210000FFF7C0FF04F13400002100F073FE04F17A
:1021100010000121FFF7B6FF04F120002946BDE8B9
:10212000384000F067BE38B504460D4600F1100097
:102130000021FFF7A7FF04F12000002100F05AFE64
:1021400020460121FFF79EFF04F134002946BDE837
:10215000384000F04FBE38B500250446294600F14E
:10216000340000F047FE20460021FFF78BFF04F10A
:102170002000294600F03EFE04F110000021BDE8D9
:102180003840FFF77FBF000010B5DFED1F7ADDEDAF
:10219000030ADFED1E1A20EEA71ADFED1D2A21EE3D
:1021A000212A9DED027A82EE223A044680E80E0052
:1021B00027EE270A80ED043A80ED030A049802F026
:1021C0004FFE0DA3D3E9002302F09EFE0CA3D3E93A
:1021D000002302F0C3FF03F059F9059B606104F589
:1021E0008B620020A065E06520666066A3611060D8
:1021F000204610BDAFF300807B14AE47E17A843FE8
:1022000000000040E17A743F0AD7A33B00401C4421
:1022100000007A43AFF300807FB5054600F1440427
:1022200000F13406A86801A9FFF7F2FE0298019BAD
:1022300044F8183C44F8040D052001F077FCB44242
:10224000F0D17FBD000000007FB5064603460422A2
:10225000996AD86BD9621864043B013AF8D1B06826
:1022600001A9FFF7D5FE019802F0FAFD1AA3D3E900
:10227000002302F049FE0446306A0D4602F0F0FDEC
:1022800017A3D3E9002302F03FFE02460B46204687
:10229000294602F087FC03F0F9F8F061029802F099
:1022A000DFFD0DA3D3E9002302F02EFE0446706B80
:1022B0000D4602F0D5FD0AA3D3E9002302F024FE67
:1022C00002460B462046294602F06CFC03F0DEF87D
:1022D00030637FBDAFF30080B19B674D21D0843F59
:1022E0009161CA7ABFACEF3F2DE9F041064607463F
:1022F000A0F11008306B80F0004002F0B1FD0D46F7
:10230000F169044681F0004002F0AAFD02460B4646
:102310002046294602F07AF900220D4B02F0F4FD26
:1023200009A3D3E9002302F019FF03F0AFF87865A1
:102330003046FFF789FF043F052001F0F7FB4745D2
:10234000D8D1BDE8F08100BFF1D4C853FB210940CA
:1023500000806640AFF3008070B5826C036DC16C85
:10236000446CC2640646436501658464FFF76CFFF4
:10237000306B80F0004002F073FDF369044683F097
:1023800000400D4602F06CFD02460B4620462946F1
:1023900002F03CF90022084B02F0B6FD04A3D3E999
:1023A000002302F0DBFE03F071F8706470BD00BF23
:1023B000F1D4C853FB21094000806640AFF3008090
:1023C00070B504460546A0F1100694ED117AD4EDDF
:1023D000127ADFED090A37EE670A204680EE201AEE
:1023E00085ED1A1AFFF7B8FF043D052001F09EFBAA
:1023F000B542EAD170BD00BF0AD7A33B436E016E60
:10240000C26D8366836D416610B502660446C3657E
:10241000FFF7A2FF94ED117AD4ED127ADFED040AF2
:1024200037EE670A80EE201A84ED161A10BD00BF41
:102430000AD7A33B0023C21804330021B3F5797FE8
:10244000D166F8D1704710B50446FFF7E5FE204687
:10245000FFF74AFF2046FFF7B3FF2046FFF7EAFFEA
:102460000023A365E3652366636604F58B6423603C
:1024700010BD000038B500F254430446F9221D4651
:1024800053F8081C013A012A43F8041DF8D12046EC
:10249000FFF7B4FF94ED167AD5ED007ADFED0A0A66
:1024A00037EE670AB4EEE00AF1EE10FA09DC9FEDB0
:1024B000071AB4EEC10AF1EE10FA02D484ED1B0A39
:1024C00038BD0020E06638BD00401C4600401CC6F8
:1024D000DFED087A0023C218D2ED1B6A9FED067A61
:1024E0000433B3F5797F46EE877AF4D117EE900A7C
:1024F000704700BF000000000AD7A33B90ED1D7A93
:10250000D0ED1C7ADFED060A37EE670ADFED051A1B
:1025100080EE201A31EE212A12EE100A704700BF19
:102520000AD7A33B0000000010B504462DED028B36
:10253000FFF7A0FF2046FFF7CBFF08EE100A20466A
:10254000FFF7DCFFD4ED047A94ED1B7AD4ED036A37
:1025500028EE270A07EE260AD4ED050A06EE100A31
:1025600006EE200A94ED061A04F58B6370EE011A4C
:1025700093ED002ADFED292A01EEE22AB7EE008A68
:10258000B4EEC82AF1EE10FA08DCBFEE008AB4EE11
:10259000482AF1EE10FA58BFB0EE428ABDEEC73AB3
:1025A0001F4813EE101A03F02BFC18EE100A02F06D
:1025B00057FC00221B4B02F0A7FC02F03FFF014634
:1025C000194803F01DFCB5EEC08AF1EE10FA0FDDDC
:1025D000164803F06BFC04F58B6181ED008A18EE60
:1025E000101A2068BDEC028BBDE81040FFF79BBDC0
:1025F00011D50F4803F05AFC04F58B6080ED008A7A
:10260000B0EEC88A206818EE101ABDEC028BBDE847
:102610001040FFF771BDBDEC028B10BD0AD7A33B84
:102620000F79000800408F401E79000829790008C2
:102630003279000800F2544001607047014B03609A
:10264000704700BF4879000808B54B680A6813F066
:10265000010F02D0591041588A5800EB630090478F
:1026600008BD0000034B10B50446036001F0C4FF31
:10267000204610BD48790008054B10B5044603609C
:1026800001F092F8204601F0BBF8204610BD00BFD3
:10269000007C0008034B10B504460360FFF7ECFF15
:1026A000204610BD187C0008084B10B503F1180235
:1026B00003604C3304464265836500F1540001F029
:1026C00003F803482060204610BD00BF507B00087F
:1026D00048790008A0F15800FFF7E6BFA0F15400C8
:1026E000FFF7E2BF38B52048204901F033F8204A0F
:1026F0001368D3F1010038BF0020106058B11D48A5
:1027000001F052F81C4801F04FF81C480021BDE8C8
:102710003840FFF78FBF1A4800F0B6F90546002889
:1027200020D114481749154C8161C562164901F042
:1027300043F82046FFF787FE20461449FFF77AFF4B
:102740000D48134A134B8461C2610562C36241F2B2
:10275000883101F031F810484FF07A51BDE8384027
:1027600000F048BB38BD00BFE804002050790008E5
:1027700000050020B0090020700900200405002099
:1027800060090020E5260008809698000000B44209
:102790002925000849260008A803002038B520484C
:1027A000204900F0D7FF204A1368D3F1010038BF59
:1027B0000020106058B11D4800F0F6FF1C4800F0E2
:1027C000F3FF1C480021BDE83840FFF733BF1A482B
:1027D00000F05AF90546002820D114481749154C35
:1027E0008161C562164900F0E7FF2046FFF72BFE26
:1027F00020461449FFF71EFF0D48134A134B84610E
:10280000C2610562C36241F2883100F0D5FF104811
:102810004FF07A51BDE8384000F0ECBA38BD00BF47
:10282000E80400205079000800050020B0090020CD
:102830007009002004050020600900209D27000881
:10284000809698000000B4C2292500084926000897
:10285000A803002010B50446FFF70EFF204601F044
:10286000CBFE204610BD000008B527484FF4E131EB
:1028700000F0DCFE2548264900F05CFC02212548DA
:10288000FFF703FB2448FFF766FC2448244900F0C7
:1028900065FE2448244900F061FE244800F0F4F865
:1028A000234B01221A602248224B0168F1B193F9AF
:1028B0000030214821490022013302700A7004D1FE
:1028C0001F482049342200F0D5FF1A484168C268E9
:1028D00016480B04136000F0AFF900F01FFD1A4812
:1028E00001F016F9114800F0B7F9DCE793F9002080
:1028F000531C04D112481349342200F0BBFF0D4889
:10290000C16843680B60CEE794040020A803002050
:1029100017B7513858040020100400205403002039
:10292000E5260008BC0300209D2700086009002060
:102930000005002044030020E0090020AC0900202D
:102940007078000888780008CDCCCC3D10B50446DE
:10295000FFF7AAFE204601F04FFE204610BDA0F171
:102960005800F3E7A0F15400F0E710B50446FFF774
:1029700091FE204601F040FE204610BD2DE9F043B7
:10298000294C2A4D2A4FDFF8DC90DFF8DC8085B037
:10299000002302210322204600F0FAFD2A462046A9
:1029A0002449254C01F02CFE192118223846FFF746
:1029B00026FB2A462149384601F022FE4846FFF709
:1029C00077FB4046FFF748FA494642461C4800F06C
:1029D0004DF8204600F030FF00261A4BA661E66253
:1029E0002A4620461849236001F00AFE1748184974
:1029F000184C009000223B460190029103924946F8
:102A000042461548FFF7C0FB204600F015FF134B68
:102A10001349236020462A46A661E66205B0BDE858
:102A2000F04301F0EDBD00BF9404002094010020AC
:102A3000A0090020A9260008B0090020811F000875
:102A400060090020187C000895260008CDCC4C3F7A
:102A500000409CC67009002004050020007C00088E
:102A600079260008100400205804002070B50446A0
:102A70000D461646212100F0F3F8A560E6602046D9
:102A800070BD000000000000F8B507464FF47A76EC
:102A900000240025384600F03BF902F0E1F9024637
:102AA0000B462046294602F07DF8013E04460D46BD
:102AB000F0D100225E4B02F051FB53A3D3E9002377
:102AC00002F022FA02460B4602F06CF850A3D3E95A
:102AD000002304460D4602F09DFC80B1FA2001F06F
:102AE00025F84FF07E51534800F084F9322001F070
:102AF0001DF85048002100F07DF9642010E02046C8
:102B0000294645A3D3E9002302F084FCC0B1204646
:102B100029463FA3D3E9002302F068FC80B1FA20E4
:102B200001F004F84FF07E51424800F063F9322082
:102B300000F0FCFF3F48002100F05CF9642010E049
:102B40002046294636A3D3E9002302F063FCC0B136
:102B50002046294630A3D3E9002302F047FC80B188
:102B6000FA2000F0E3FF4FF07E51324800F042F9C6
:102B7000322000F0DBFF2F48002100F03BF96420F9
:102B800010E02046294626A3D3E9002302F02EFCBC
:102B9000D8B12046294624A3D3E9002302F03AFC09
:102BA00098B1FA2000F0C2FF4FF07E51214800F0AA
:102BB00021F9322000F0BAFF00211E4800F01AF976
:102BC000642000F0B3FF0020F8BD2046294616A37C
:102BD000D3E9002302F00AFC90B1FA2000F0A6FF2E
:102BE0004FF07E51134800F005F94B2000F09EFF96
:102BF0001048002100F0FEF8962000F097FF012019
:102C0000F8BD00BFAFF300806666666666660A4080
:102C10009A99999999990E409A99999999990B40ED
:102C20009A9999999999084033333333333307404C
:102C300000408F40A803002010B50446002105483D
:102C400000F0D8F8A068FFF786FAE068BDE8104009
:102C5000FFF74FB9A8030020C068FFF73CB9000098
:102C600070B50C46054682B02249204600F08AFE27
:102C70002860013037D020461E4900F09DFE431CDD
:102C800006462AD0C6F3C3266E712046194900F0C5
:102C900045FE194A2C711368EBB918492D68486C28
:102CA00001241460164A40F4807053604864496CF3
:102CB000936001F4807101911046019915601361D0
:102CC0009361536293621363D362D3601462D361DE
:102CD0005361FDF799FD02B070BD0A480A493222DE
:102CE00000F0C8FDCEE7094807492E2200F0C2FDDA
:102CF000C1E700BF747F0008E409002000380240EB
:102D00003C0D0020E479000878790008607900081B
:102D100000B5354A01684379116085B00022012170
:102D20000191029203920F2B09D8DFE803F02F32B2
:102D300035383B3E4144474A4D505356590FDFED1D
:102D40002B7A17EE900A05B05DF804FB0F23009371
:102D500069462548FDF790FE2348FDF7F9FD224816
:102D60000A21FDF751FE0028E9D11F48FDF780FE3A
:102D700080B207EE100AF8EE477A9FED1D7A67EEF3
:102D8000877A17EE900A05B05DF804FB00230093E4
:102D9000DEE701230093DBE702230093D8E7032358
:102DA0000093D5E704230093D2E705230093CFE7F0
:102DB00006230093CCE707230093C9E70823009379
:102DC000C6E709230093C3E70A230093C0E70B2358
:102DD0000093BDE70C230093BAE70D230093B7E7F8
:102DE0000E230093B4E700BF3C0D0020000000005C
:102DF0000108803930B507EE901A274A036813603E
:102E0000F5EEC07AF1EE10FA89B004463DD4B7EE83
:102E1000007AF4EE477AF1EE10FAC8BFF0EE477A86
:102E2000D4ED026A227CB8EE667A002367EE277A38
:102E30006020FCEEE77A013AC4ED037ACDED027A28
:102E4000019003930493059306930793032A10D8E4
:102E5000DFE802F01102151304250F4801A92A46E4
:102E6000FEF734FDA0B9637C0B4829464BB1FEF751
:102E700097FD09B030BD0025EFE70C25EDE70825EB
:102E8000EBE7FEF74DFC09B030BDDFED047AC7E794
:102E9000034800F0FBFCE6E7E80900200000000022
:102EA000007A0008F0B58268454D03682B6087B052
:102EB00004460E46002A57D007EE102AF8EE477A4D
:102EC00090ED037AF8EE476AB7EE007AC6EEA77A7D
:102ED000F4EEC77AF1EE10FAC8BF17EE107A45DDAE
:102EE000196A41F211120A402AB9196A40F24442A1
:102EF0000A40002A3DD001A86946FEF74DFB236831
:102F0000304A934245D039D92F4A934207D051D9FC
:102F10002E4A934203D002F58062934222D1FEF7FB
:102F200023FB059A0090731EEB60254B002A39D1D4
:102F3000274AA2FB0010800C01385860002320486B
:102F40002B61AB60FEF778FC10B1224800F09EFCCC
:102F500039462046FFF74EFF2B68A6601A6842F0FC
:102F600001021A6007B0F0BDDFED1B7A17EE907A10
:102F7000B6E71A6822F001021A60BCE7A2F5006207
:102F8000934206D002F58062934202D0B3F1804FA3
:102F9000E8D1FEF7D1FA049A0090731EEB60084B5B
:102FA000002AC5D00A4A4000A2FB0010800C01385C
:102FB0005860C3E7A2F580429342B0D0D2E700BF89
:102FC000E8090020000C004000400140004401409E
:102FD00083DE1B43007A00080000000070B50D4638
:102FE000044688B04849284600F0CCFC20600130F7
:102FF0006FD02846444900F0DFFC431C06466ED0E3
:103000002368424AC6F3C3219342C6F3C0362174F3
:10301000667444D0B3F1804F29D03D4A93424AD1DF
:1030200002F50D32116C41F002011164126C02F0D4
:1030300002020392039A374A934209D1364B5A6CE3
:1030400042F480225A645B6C03F480230793079B4D
:1030500028462D4900F062FC00232571A360E3603F
:10306000204644F62061FFF71DFF08B070BD2A4AD4
:10307000116C41F001011164126C02F00102029224
:10308000029A264A9342D6D1234B5A6C42F400321C
:103090005A645B6C03F400330693069BD8E702F591
:1030A0009C32516C41F001015164526C02F00102FA
:1030B0000192019AE5E71A4A934216D1164B1A6C0F
:1030C00042F004021A641B6C03F004030493049B93
:1030D000BEE7144814492D2200F0CCFB89E71348C1
:1030E0001149312200F0C6FB8AE7114A9342C8D148
:1030F000094B5A6C42F480325A645B6C03F480339F
:103100000593059BA4E700BF887D000800000140EF
:1031100000040040004801400038024000440140E3
:1031200000080040187A0008307A0008E4790008A6
:103130000040014007EE101ADFED047A67EE277AAF
:10314000FDEEE77A17EE901AFFF7ACBE0024744943
:10315000F8B5134B90F9197006688568C468016961
:1031600042691E6001374FF000065D609C60D960C7
:103170001A619E6110D090F9182001320CBF042210
:103180000C225A610648FEF7FDFC00B9F8BD05485F
:10319000BDE8F84000F07ABB08225A61F2E700BFB0
:1031A000800D0020987A0008F0B5044685B00846E6
:1031B0000E463C49154600F0E5FB3B4907462846CC
:1031C00000F0E0FB0146384600F0CAFB411C2060DD
:1031D00061D0364B984247D003F58063984236D091
:1031E000A3F55043984225D030462E4900F096FB77
:1031F00028462D4900F092FB721C03D03046012175
:1032000001F0ECF86B1C03D02846012101F0E6F830
:1032100000234FF41652A260E360236163612676B7
:1032200065762046FFF794FF214A2368934228D011
:1032300005B0F0BD1F4B1A6C42F400321A641B6CCF
:1032400003F4003302930123029A6360CCE7194B25
:103250005A6C42F020025A645B6C03F02003039323
:10326000039B05236360BFE7124B5A6C42F01002C8
:103270005A645B6C03F0100301930023019A6360AE
:10328000B2E70D4B0D4821461C2201241C6002F0C0
:1032900093FD05B0F0BD0A480A49532200F0EAFA4E
:1032A000206896E72C7F0008407D00080010014050
:1032B0000044004000380240240A0020C00D0020D5
:1032C000B07A0008CC7A00088160FFF741BF00BFE8
:1032D00010B4044B44680448196040F824205DF899
:1032E000044B7047480A0020280A0020026813682F
:1032F0009B06FCD5024B50681A60C0F3080070476B
:10330000800D0020026813681B06FCD5024BC1F338
:10331000080151601A607047800D0020084BDA6880
:1033200010B5084C22F0040223600020DA6001216D
:10333000FDF7DCFD2368DA6842F00402DA6010BDB4
:10334000000C00404C0A002038B5002303604360A5
:103350000A782F2A044601D0204638BD4A78002A30
:10336000FAD0481C20604A782F2A14D0B2B18D1CA4
:10337000194600E052B125602A782F2A2B4601F128
:10338000010105F10105F5D10133236001F0D0F809
:103390006060204638BD19460346F5E71146F5E75B
:1033A0000068704710B50446406828B101F0DEF8A7
:1033B000012801D1606810BD002010BD406808B52B
:1033C00028B101F0D3F8D0F1010038BF002008BDCA
:1033D00010B50446406830B101F0C8F818B960680B
:1033E00008B1043810BD002010BD00BF4068003097
:1033F00018BF0120704700BF10B5064B8360002343
:1034000003604360044600F095FE034B20461C60B9
:1034100010BD00BFA0860100880A002038B5054D08
:103420002B688342044603D0816800F03BFD2C608A
:1034300038BD00BF880A00202DE9F04182B01C464B
:103440009DF820500F461646804685F00105FFF78F
:10345000E5FF0095404639463246234600F05AFDC6
:10346000201A18BF012002B0BDE8F0812DE9F0411B
:1034700082B01C469DF820500F461646804685F0C7
:103480000105FFF7CBFF00954046394632462346FB
:1034900000F0B8FD201A18BF012002B0BDE8F0818D
:1034A00010B5044A044640F8142B00F097FC20465F
:1034B00010BD00BF407B000810B5054B044640F826
:1034C000143B00F08BFC204601F096F8204610BD1E
:1034D000407B0008012908B503460AD0022907D11C
:1034E000026D7AB1C06B10B103F14001904708BD85
:1034F00008BD826B5AB1406A0028F8D003F1280158
:10350000904708BDC36B002BF1D0984708BD436AB4
:10351000002BFAD1EBE700BF38B50E4B0360044631
:10352000002303718360C360036103758361C3611A
:1035300080F8203043628363C36303650D462346EE
:10354000054A143000F0A0FB201D294600F0B0F918
:10355000204638BD407B0008D534000839B100232F
:10356000C163036502211430012200F05BBC0A46EE
:103570001430022100F056BC00F060B8A0F15400F5
:10358000FFF7FABF00F05EB8A0F15400FFF7FABFF2
:1035900038B504461D4600F025F8294604F15400CC
:1035A00000F0B6F8054B03F1080103F12002543393
:1035B00021606265A365204638BD00BF487B0008D6
:1035C00001EB410108B5CB002033C1184A6922B193
:1035D000C05808B10431904708BDC358002BFBD038
:1035E000984708BD38B504460E4B0360251D0023DF
:1035F0004FF41650206563602846A360E3602361A2
:103600006361A3612377637723626363A363E364E6
:10361000FFF7CAFD284622460349FFF759FE204618
:1036200038BD00BF48790008C135000838B50446E8
:103630000D460430FFF748FE256538BD0430FFF71E
:1036400055BE00BF10B504300C46FFF75BFE2046A8
:1036500010BD00BF00207047F8B58E18B1420F466C
:1036600005460FD00C4601E0A64209D02B6814F89D
:10367000011B5B6A284698470130F5D1E01BF8BD75
:10368000F01BF8BD0020F8BDF8B58E18B1420F460A
:1036900005460FD00C4603E004F8010BA64207D004
:1036A0002B6828469B6A9847431CF5D1E01BF8BD60
:1036B000F01BF8BD0020F8BD0020704700207047C7
:1036C000002070470020704710B5074B03F1080237
:1036D0003C33044680E80C00406901F0AFFF20460F
:1036E00000F046FF204610BDA87B0008A0F10400B2
:1036F000FFF7EABF10B50446FFF7E6FF204600F0EB
:103700007BFF204610BD00BFA0F10400FFF7F2BF11
:1037100010B584B0044600F05BFF0B4B0B4903F17E
:10372000080000223C3384E80900626101A82246B7
:1037300002F0A8FC064901A802F054F96061FDF707
:1037400007F8204604B010BDA87B000840780008A8
:10375000F07B00080EB430B582B005AB044653F8D8
:10376000045B4069019302F017F829466069019AE9
:1037700003F0C2F902B0BDE8304003B0704700BFAB
:103780004368416910B50446194400F069F8E36ADA
:103790002BB1A06910B104F11C01984710BDA369B9
:1037A000002BFBD0984710BD10B5044600F05EF822
:1037B0000023A361E36210BD38B504460D4600F056
:1037C00055F86561206900F087F941192046BDE888
:1037D000384000F045B800BF08B5C36A014623B1C0
:1037E000806908B11C31984708BD8369002BFBD064
:1037F000984708BD08B503689B68984708BD00BF97
:1038000010B5044B03600446211D006900F040F927
:10381000204610BD307C000810B5064B03600446FE
:10382000211D006900F034F9204600F0E5FE204635
:1038300010BD00BF307C0008074B10B503600023AB
:1038400043608360C360044600F04CF90349206183
:1038500000F0CCF8204610BD307C0008F537000899
:1038600003460A460069191D00F0EEB8011D006903
:1038700000F00EB910B40C46134601462246024829
:103880005DF8044B00F002B8407C00080FB400B5AE
:10389000064B83B004AA1B6852F8041BD868019237
:1038A00003F02AF9012001F05DFE00BF04020020B0
:1038B00038B50D46044600F057F9013509D02046C9
:1038C000002100F06BF920460021BDE8384000F0EF
:1038D00061B938BD38B50D46044600F045F90135EB
:1038E00011D094F9003001330ED06268E3681204FD
:1038F00020461A60012100F051F920460021BDE860
:10390000384000F047B938BD024803493422FFF778
:10391000B1FFEAE77077000888770008431C10B50C
:10392000044619D091F90030581C04D10FE011F968
:103930000C3F5A1C0BD09C42F9D12046896800F0FC
:103940001DFD20460021BDE8104000F047BD0348A2
:10395000BDE81040FFF79ABF10BD00BF747C00089F
:10396000884208B50AD0431C07D0013106D004486C
:10397000FFF78CFF4FF0FF3008BD084608BD00BFC1
:10398000887C000808B5431C0DD091F900305A1C02
:1039900004D109E011F90C3F5A1C05D09842F9D125
:1039A0004868411C00D008BD0248FFF76FFF4FF088
:1039B000FF30F8E79C7C000808B5431C0DD091F956
:1039C00000305A1C04D109E011F90C3F5A1C05D0F3
:1039D0009842F9D18868411C00D008BD0248FFF721
:1039E00055FF4FF0FF30F8E7BC7C000838B503689E
:1039F00004461B680D46984763681D6038BD00BFCC
:103A000038B50368DB680446984763685B6883B130
:103A100022681D6853689847281A002862680CDCE1
:103A200050681168836853600029F0D04068884767
:103A3000EBE723689B68984738BD236852681B6989
:103A40001068984738BD00BF30B583B072B645687E
:103A50000A606C684B608CB12368D31A002B05DABE
:103A60000CE01D68551B002D03DB1C46A368002BD2
:103A7000F7D1A1608B6062B603B030BD03686960A6
:103A80001B6901911046984723460199F2E700BF50
:103A900008B572B643685A688A4211D04AB1936831
:103AA0008B4208D02BB19A688A4205D01346002B6E
:103AB000F9D162B608BD13468A689A6062B608BD3D
:103AC00092685A60036822B110681B69984762B611
:103AD00008BD9B689847ECE708B503685B689847A2
:103AE00008BD00BF00487047F07C00080148FFF7A0
:103AF00087BF00BFF07C000838B5054600F0A8FC81
:103B0000044600F0A5FC001BA842FAD338BD00BF54
:103B100007EE100ADFED047A67EE277AFDEEE77A0A
:103B200017EE900AFFF7E8BF002474494FF47A7348
:103B300003FB00F0FFF7E0BF431C10B5044608D0BC
:103B40002046002100F01AFC04F00F040120A040E0
:103B500010BD034803492722FFF78CFEF0E700BFA2
:103B6000408000085480000870B505464B1C0C4688
:103B700029700DD0C1F3031000F08AFB06462046E1
:103B8000FFF7DAFF06F1100318366860AB60EE60ED
:103B900070BD00BF90F9000000F020BC38B50546AC
:103BA00090F90000431C0C460BD0012C04D00021DE
:103BB000BDE8384000F0E2BB2146BDE8384000F0E7
:103BC000DDBB044804494622FFF754FE95F9000086
:103BD000EBE700BF7077000854800008194B2DE90F
:103BE000F0474FF04C080F4608FB003839B3DFF8B8
:103BF0005890DFF858A0454600240126D8F8003038
:103C000006FA04F21A4215D06B6BD9F81420E96950
:103C100006FA03F313420DD0C9F814306A684AB1AA
:103C200009690B4210464FF00101DAF8003008BF75
:103C3000022198470134BC4205F10405DED1BDE8FC
:103C4000F08700BF940A0020003C0140A80C00202F
:103C500000200121FFF7C2BF01200146FFF7BEBFD0
:103C600002200121FFF7BABF03200121FFF7B6BFF1
:103C700004200121FFF7B2BF05200146FFF7AEBFC8
:103C800006200146FFF7AABF2DE9F04F85B09B46FD
:103C90004B1C0C460546029200F0888001F00F068E
:103CA000731EC1F303100E2B47D8DFE803F04E5705
:103CB000616B0808080808757575757575003C4ACC
:103CC0004FF400074FF0000A4FF005094FF01708B6
:103CD000019200F0DDFA07210390204600F04EFB30
:103CE000019A40461146FCF7E5FA3249324A41F85A
:103CF0002A704C2101FB09F1304F52F8262057F869
:103D000001C02F4B85F800800120904007EB01088F
:103D10004CEA000C0020C5F804902C73A86008EB56
:103D2000820247F801C002991960039BD361C2F86F
:103D300004B0566305B0BDE8F08F4FF0000AD146DD
:103D4000204A40274FF00608C2E71F4A80274FF05D
:103D5000000A4FF001094FF00708B9E71B4A4FF47A
:103D600080774FF0000A4FF002094FF00808AFE7E4
:103D7000174A4FF400774FF0000A4FF003094FF055
:103D80000908A5E7134A4FF480674FF0000A4FF087
:103D900004094FF00A089BE70F4A4FF480774FF071
:103DA000010A4FF006094FF0280891E70846C1E7DD
:103DB000793C000800E100E0BC800008940A002083
:103DC000A80C0020513C0008593C0008613C000848
:103DD000693C0008713C0008813C0008F8B50546C4
:103DE000007B6B680D490E4E00F00F044C2202FB65
:103DF00003F251F82430B158B41801279F4004EB66
:103E0000830321EA07070024B75040B221465C60D3
:103E1000DC615C6300F0B2FAAC60F8BDBC80000805
:103E2000940A002072B1012920D0022919D1836897
:103E300023F00203012B2BD08160072190F90C00A5
:103E400000F09CBA01291BD002290AD1836823F013
:103E50000203012B23D082600C2190F90C0000F0AA
:103E60008DBA0C2190F90C0000F088BA8368023BEF
:103E7000012B0DD98160062190F90C0000F07EBA6B
:103E80008368023B012BE6D8022383600721E9E720
:103E900003238360082190F90C0000F06FBA83605F
:103EA0000621DFE7F8B5174B4A1E9A420F46064631
:103EB00021D8154D34682C6048F2010301E0013B24
:103EC00002D0A2699207FAD40F4C6F6000234FF41E
:103ED000804220466B61AB60EB612B62EB60AB61B3
:103EE0002A61FCF78DFF736823B123681A6842F4D6
:103EF00080621A60F8BD054805496722FFF7BAFCE1
:103F0000D7E700BF7F1A0600DC0D0020FC80000808
:103F10001881000830B404682B4804606FF4806096
:103F20006061206820F4407040F48070206082B0AE
:103F300041F2010001E0013802D06569ED07FAD5D0
:103F40004FF4805001E0013834D06569ED07FAD5AF
:103F500001F0FE0121614FF4805101E0013929D0C7
:103F600060698507FAD561690191A1690191002B0A
:103F700001994FF000050FDD515D216141F2010112
:103F800004E06069400704D401390FD0606900067D
:103F9000F7D501359D42EFD1049B83B123682846B4
:103FA00043F40073236002B030BC7047236843F4CD
:103FB000007323604FF0FF3002B030BC70472846DA
:103FC00002B030BC704700BFDC0D00200068036801
:103FD00071B123F480630360094A41F2010311685F
:103FE00001E0013B08D04A695206FAD500697047E2
:103FF00043F480630360EFE74FF0FF30704700BF8A
:10400000DC0D00202DE9F04307466FF480603C682A
:10401000294D606120682C6020F4407040F480706D
:1040200083B090469946206041F2010501E0013DD0
:1040300002D06369D807FAD54FF4805501E0013DFD
:1040400034D06669F207FAD541F00101C9B22161A5
:104050004FF4805101E0013928D063699B07FAD5FC
:1040600063690193A369019309F1FF35002D019B59
:104070004FF0000408DD38460021FFF7A7FF08F8DD
:1040800004000134AC42F6D10A9B4BB938460121F9
:10409000FFF79CFF08F80400484603B0BDE8F08332
:1040A0003B681A6842F400721A60EFE74FF0FF3085
:1040B00003B0BDE8F08300BFDC0D0020184B196889
:1040C00048F2010301E0013B02D08A699207FAD469
:1040D0000368144A934219D0134A93420CD0134AEE
:1040E000934208D1124B1A6A42F400021A621A6A09
:1040F00022F400021A6270470D4B1A6A42F48002E1
:104100001A621A6A22F480021A627047084B1A6A0D
:1041100042F400121A621A6A22F400121A627047FC
:10412000DC0D00200054004000580040005C0040BE
:1041300000380240F0B5044685B008460E464849AE
:104140001546FFF71FFC474907462846FFF71AFCAC
:1041500001463846FFF704FC431C206079D0034633
:10416000414A934236D0414A934211D0404A934249
:1041700003D1404B1A68002A4ED02046FFF79EFF1D
:1041800020463D49FFF78EFE0023636005B0F0BD79
:104190003A4B1A68002AF0D1394A01211960136C90
:1041A0002F4943F480031364136C03F480030293D8
:1041B0003046029BFFF7B2FB28462A49FFF7AEFBC9
:1041C0003046032100F00AF92846032100F006F9E1
:1041D0002368CBE72B4B1A68002ACED1284A01214D
:1041E0001960136C1E4943F400131364136C03F439
:1041F000001301933046019BFFF790FB28461949B5
:10420000FFF78CFB3046032100F0E8F82846032135
:1042100000F0E4F82368A6E7194A01211960136C3D
:104220000F4943F400031364136C03F40003039376
:104230003046039BFFF772FB28460A49FFF76EFBE7
:104240003046032100F0CAF82846032100F0C6F8E2
:1042500093E70D480D493A22FFF70CFB23687FE7EF
:10426000F87C0008F07E0008005400400058004030
:10427000005C0040B00C0020A0860100B40C0020BF
:1042800000380240AC0C0020808100081881000832
:1042900000B587B0072859D8DFE800F012202E3C7F
:1042A0004A5858042D4B2E481A6B42F080021A636C
:1042B0001B6B03F080030593059B07B05DF804FBBF
:1042C000264B28481A6B42F001021A631B6B03F05D
:1042D00001030093009B07B05DF804FB1F4B2248CD
:1042E0001A6B42F002021A631B6B03F00203019384
:1042F000019B07B05DF804FB184B1C481A6B42F099
:1043000004021A631B6B03F004030293029B07B0C1
:104310005DF804FB114B16481A6B42F008021A6351
:104320001B6B03F008030393039B07B05DF804FBCA
:104330000A4B10481A6B42F010021A631B6B03F011
:1043400010030493049B07B05DF804FB0A48FFF7D1
:104350009DFA002007B05DF804FB00BF0038024062
:10436000001C02400000024000040240000802401D
:10437000000C024000100240CC81000830B5431C04
:1043800087B005460C461CD0C5F30310FFF780FF2D
:1043900005F00F0504F00F0201210D4B01FA05F5A0
:1043A00053F8223001950322C4F3021501A9C4F386
:1043B000C3140293039505940492FCF715FC07B00F
:1043C00030BD044804498122FFF754FADCE700BFFE
:1043D0009881000840800008F081000838B5431C2F
:1043E00004460D4618D0C4F30310FFF751FF04F044
:1043F0000F04C268022D4FEA44044FF0030198BF36
:10440000A54001FA04F422EA0404C460C26888BF2B
:1044100000251543C56038BD02480349A622FFF7B1
:1044200029FAE0E740800008F0810008054B186891
:1044300000B17047044A0549116001221A60FBF778
:1044400085BF00BFF40C0020B80C0020000C004019
:1044500008B5044B1B680BB9FFF7E8FF024B586A1D
:1044600008BD00BFF40C0020000C0040034B1B688B
:104470005863DA6842F00202DA607047B80C002034
:10448000034B1B68DA6822F00202DA60704700BF53
:10449000B80C0020024B1B686FF002021A617047D3
:1044A000B80C00208368094A026053B1084B1A68AF
:1044B000824201D106E01A4653688342FBD1436829
:1044C0005360704742681A60704700BF60820008FE
:1044D000F80C002083680C4A10B50446026053B102
:1044E0000A4B1A68904201D10AE01A4653689C426E
:1044F000FBD163685360204600F07EF8204610BD73
:1045000042681A60F7E700BF60820008F80C0020DC
:10451000054B0273002281600360426019B1034BB6
:104520001A6842601860704760820008F80C00202A
:104530000D4B70B51C6806460D4614B912E0646850
:1045400084B1A36831462A461846002BF7D001F003
:1045500041FE0028F3D1A06801F034FEA842EED15C
:10456000204670BD002070BDF80C0020007B704715
:1045700010B5074B044603F108023433226040F8BB
:10458000043FFFF78FFF2046FBF75CFF204610BD7E
:1045900068820008A0F10400FFF7EABF094B10B5DC
:1045A000044603F108023433226040F8043FFFF769
:1045B00079FF2046FBF746FF204600F01DF8204615
:1045C00010BD00BF68820008A0F10400FFF7E6BF3D
:1045D00010B5074B0446002240F8043BFFF798FF54
:1045E000044B03F10802343384E80C00204610BD6C
:1045F000187800086882000808B101F07DBB704798
:1046000003460846194600F09BBF000000F000B8C2
:104610002DE9F04784B0CDE900239DE88010C7F173
:10462000000900262CF0004849EA070948EAD97930
:10463000C7F6F076B145CDE9022304460D460246A1
:104640000B4645D8C0F1000A21F000494AEA000AA9
:1046500049EADA7AB2453BD80CF1404C0CF5801CA3
:104660005CEA070CDDF804A052D04FEAAA7606F007
:10467000020059EA020240EAD17636D058EA07072A
:1046800040D00021C7F6F071884552D00027C7F608
:10469000F077B94536D0C8EB09084FEA2858B8F189
:1046A0003C0F42DCBAF1000F7DDBDDE9022320463E
:1046B000294600F053FD00F06BFA00F0B5F8012E2A
:1046C0006DD0022E5CD0002E4DD104460D4607E081
:1046D00020462946DDE9022300F064FA04460D462F
:1046E0002046294604B0BDE8F087032EC6D801A2B3
:1046F00052F826F0E1460008E1460008234700088A
:104700001B470008002B2ADB35A5D5E90045E7E764
:1047100004B0BDE8F04700F087B833A5D5E90045FF
:10472000DEE733A5D5E90045DAE72DA1D1E900019F
:10473000C5E7C1453ED0032EA8D801A252F826F005
:104740005947000851470008234700081B47000845
:1047500000244FF00045C3E700240025C0E726A54C
:10476000D5E90045BCE726A3D3E9002300F018FAF9
:104770001FA3D3E9002300F013FA04460D46AFE768
:104780001FA3D3E9002300F00BFA02460B4618A141
:10479000D1E9000100F004FA04460D46A0E7044602
:1047A00001F100459CE718F13C0FBFF67EAF0020F9
:1047B000002184E7032EA5D8DFE806F00E0A0602E2
:1047C00011A5D5E900458BE711A5D5E9004587E797
:1047D00011A5D5E9004583E711A5D5E900457FE797
:1047E000182D4454FB21F93F182D4454FB2109C0D6
:1047F000182D4454FB210940182D4454FB21F9BFC6
:10480000075C143326A6A13CD221337F7CD902C099
:10481000D221337F7CD90240182D4454FB21E9BFBB
:10482000182D4454FB21E93F2DE9F84F4FF6FF7353
:1048300021F00046C4F20F439E4288468A468146D4
:104840001BDD0020C7F6F07086424B4600F3BE80A9
:1048500000F0B98042F2FB18414642F61859CBF6F7
:10486000F978C3F6F971C5F24449BAF1000FC8BF2F
:10487000884648464146BDE8F88F4FF6FF70C3F6BC
:10488000DB70864200F3BC804FF6FF71C3F61F61F8
:104890008E4240F3A4804FF0FF3B4A4643464846D1
:1048A000414600F031FB02460B4606460F4600F03B
:1048B0002BFBA1A3D3E9002304460D4600F024FB03
:1048C0009FA3D3E9002300F06DF922462B4600F0A8
:1048D0001BFB9DA3D3E9002300F064F922462B467D
:1048E00000F012FB9AA3D3E9002300F05BF9224603
:1048F0002B4600F009FB98A3D3E9002300F052F9FE
:1049000022462B4600F000FB95A3D3E9002300F0DC
:1049100049F932463B4600F0F7FA93A3D3E9002366
:1049200006460F462046294600F0EEFA90A3D3E94A
:10493000002300F035F922462B4600F0E5FA8EA35D
:10494000D3E9002300F02CF922462B4600F0DCFAD4
:104950008BA3D3E9002300F023F922462B4600F075
:10496000D3FA89A3D3E9002300F01AF922462B4693
:1049700000F0CAFABBF1FF3F02460B466FD030464B
:10498000394600F00FF943464A4600F0BDFA684C3C
:10499000684A4FEACB0B5C449344DBE9002300F008
:1049A000FFF843464A4600F0FBF802460B46D4E9BE
:1049B000000100F0F5F8BAF1000F8146B4BF01F133
:1049C0000048884655E7002B3FF444AF48464A4626
:1049D0004146434600F0E6F88146884649E752A33F
:1049E000D3E900234846414600F0DCF800230022CA
:1049F000C3F6F07300F018FD00287FF43AAF4AE7E1
:104A0000484600F0C5F84FF6FF72C3F6F2729642C0
:104A100004460D4636DC4FF6FF73C3F6E5739E423F
:104A200064DC02460B4600F0BDF800230022C3F60A
:104A3000F07300F0B5F8002206460F464FF08043B1
:104A40002046294600F0AEF802460B46304639466D
:104A500000F084FB4FF0000B814688461DE730468E
:104A6000394600F09FF84A46434600F04DFA0246A8
:104A70000B464846414600F093F84C464546814671
:104A80008846F6E647F6FF77C4F20307BE4220DC0D
:104A900000230022C3F6F87300F082F800230646D4
:104AA0000F460022C3F6F8732046294600F02CFA80
:104AB00000230022C3F6F07300F074F802460B46A0
:104AC0003046394600F04AFB4FF0020B81468846DB
:104AD000E3E600210020CBF6F07122462B4600F0E1
:104AE0003DFB4FF0030B81468846D6E600230022AB
:104AF000C3F6F07300F054F8002306460F46002278
:104B0000C3F6F0732046294600F04CF802460B46E7
:104B10003046394600F022FB4FF0010B81468846B3
:104B2000BBE600BFAFF300809C7500883CE4377E95
:104B3000C8820008A882000811DA22E33AAD903F4B
:104B4000EB0D76244B7BA93F513DD0A0660DB13FC4
:104B50006E204CC5CD45B73FFF8300922449C23F2C
:104B60000D5555555555D53F2F6C6A2C44B4A2BFF1
:104B70009AFDDE522DDEAD3F6D9A74AFF2B0B33FB9
:104B8000711623FEC671BC3FC4EB98999999C93F31
:104B900021F00041704700BF81F0004102E000BFFA
:104BA00083F0004330B54FEA41044FEA430594EAED
:104BB000050F08BF90EA020F1FBF54EA000C55EA28
:104BC000020C7FEA645C7FEA655C00F0E2804FEAF9
:104BD0005454D4EB5555B8BF6D420CDD2C4480EADB
:104BE000020281EA030382EA000083EA010180EA0B
:104BF000020281EA0303362D88BF30BD11F0004F59
:104C00004FEA01314FF4801C4CEA113102D040428E
:104C100061EB410113F0004F4FEA03334CEA1333C9
:104C200002D0524263EB430394EA050F00F0A780E1
:104C3000A4F10104D5F1200E0DDB02FA0EFC22FADC
:104C400005F2801841F1000103FA0EF2801843FAD0
:104C500005F359410EE0A5F120050EF1200E012AC1
:104C600003FA0EFC28BF4CF0020C43FA05F3C018FF
:104C700051EBE37101F0004507D54FF0000EDCF178
:104C8000000C7EEB00006EEB0101B1F5801F1BD321
:104C9000B1F5001F0CD349085FEA30004FEA3C0C25
:104CA00004F101044FEA445212F5800F80F09A801B
:104CB000BCF1004F08BF5FEA500C50F1000041EB1F
:104CC000045141EA050130BD5FEA4C0C404141EB23
:104CD000010111F4801FA4F10104E9D191F0000F4A
:104CE00004BF01460020B1FA81F308BF2033A3F1CD
:104CF0000B03B3F120020CDA0C3208DD02F1140CC4
:104D0000C2F10C0201FA0CF021FA02F10CE002F1FE
:104D10001402D8BFC2F1200C01FA02F120FA0CFCF7
:104D2000DCBF41EA0C019040E41AA2BF01EB045140
:104D3000294330BD6FEA04041F3C1CDA0C340EDC3E
:104D400004F11404C4F1200220FA04F001FA02F381
:104D500040EA030021FA04F345EA030130BDC4F13F
:104D60000C04C4F1200220FA02F001FA04F340EA34
:104D70000300294630BD21FA04F0294630BD94F0E5
:104D8000000F83F4801306BF81F480110134013DCC
:104D90004EE77FEA645C18BF7FEA655C29D094EA3D
:104DA000050F08BF90EA020F05D054EA000C04BFBB
:104DB0001946104630BD91EA030F1EBF00210020A6
:104DC00030BD5FEA545C05D14000494128BF41F045
:104DD000004130BD14F580043CBF01F5801130BDA9
:104DE00001F0004545F0FE4141F470014FF0000034
:104DF00030BD7FEA645C1ABF194610467FEA655CE5
:104E00001CBF0B46024650EA013406BF52EA033586
:104E100091EA030F41F4002130BD00BF90F0000F74
:104E200004BF0021704730B54FF4806404F13204B0
:104E30004FF000054FF0000150E700BF90F0000F69
:104E400004BF0021704730B54FF4806404F1320490
:104E500010F0004548BF40424FF000013EE700BF60
:104E600042004FEAE2014FEA31014FEA02701FBFF0
:104E700012F07F4393F07F4F81F06051704792F0C2
:104E8000000F14BF93F07F4F704730B54FF460743C
:104E900001F0004521F0004120E700BF50EA010287
:104EA00008BF704730B54FF000050AE050EA010234
:104EB00008BF704730B511F0004502D5404261EBA4
:104EC00041014FF4806404F132045FEA915C3FF4E5
:104ED000DCAE4FF003025FEADC0C18BF03325FEA7E
:104EE000DC0C18BF033202EBDC02C2F1200300FA33
:104EF00003FC20FA02F001FA03FE40EA0E0021FA58
:104F000002F11444C1E600BF70B54FF0FF0C4CF441
:104F1000E06C1CEA11541DBF1CEA135594EA0C0FF7
:104F200095EA0C0F00F0DEF82C4481EA030621EA32
:104F30004C5123EA4C5350EA013518BF52EA03356D
:104F400041F4801143F4801338D0A0FB02CE4FF01F
:104F50000005E1FB02E506F00042E0FB03E54FF04F
:104F60000006E1FB03569CF0000F18BF4EF0010E47
:104F7000A4F1FF04B6F5007F64F5407404D25FEA43
:104F80004E0E6D4146EB060642EAC62141EA5551F6
:104F90004FEAC52040EA5E504FEACE2EB4F1FD0C38
:104FA00088BFBCF5E06F1ED8BEF1004F08BF5FEAB6
:104FB000500E50F1000041EB045170BD06F0004668
:104FC00046EA010140EA020081EA0301B4EB5C0415
:104FD000C2BFD4EB0C0541EA045170BD41F480110D
:104FE0004FF0000E013C00F3AB8014F1360FDEBF32
:104FF000002001F0004170BDC4F10004203C35DA0E
:105000000C341BDC04F11404C4F1200500FA05F390
:1050100020FA04F001FA05F240EA020001F0004231
:1050200021F0004110EBD37021FA04F642EB0601A7
:105030005EEA430E08BF20EAD37070BDC4F10C04D1
:10504000C4F1200500FA04F320FA05F001FA04F295
:1050500040EA020001F0004110EBD37041F1000181
:105060005EEA430E08BF20EAD37070BDC4F120058C
:1050700000FA05F24EEA020E20FA04F301FA05F2F4
:1050800043EA020321FA04F001F0004121FA04F29C
:1050900020EA020000EBD3705EEA430E08BF20EA6C
:1050A000D37070BD94F0000F0FD101F000464000A6
:1050B00041EB010111F4801F08BF013CF7D041EA28
:1050C000060195F0000F18BF704703F0004652002C
:1050D00043EB030313F4801F08BF013DF7D043EAFD
:1050E0000603704794EA0C0F0CEA135518BF95EAB3
:1050F0000C0F0CD050EA410618BF52EA4306D1D13A
:1051000081EA030101F000414FF0000070BD50EA58
:10511000410606BF1046194652EA430619D094EAE2
:105120000C0F02D150EA013613D195EA0C0F05D1CC
:1051300052EA03361CBF104619460AD181EA030120
:1051400001F0004141F0FE4141F470014FF00000D8
:1051500070BD41F0FE4141F4780170BD70B54FF073
:10516000FF0C4CF4E06C1CEA11541DBF1CEA1355F3
:1051700094EA0C0F95EA0C0F00F0A7F8A4EB0504D5
:1051800081EA030E52EA03354FEA013100F08880CC
:105190004FEA03334FF0805545EA131343EA126395
:1051A0004FEA022245EA111545EA10654FEA00264A
:1051B0000EF000419D4208BF964244F1FD0404F503
:1051C000407402D25B084FEA3202B61A65EB03055F
:1051D0005B084FEA32024FF480104FF4002CB6EB1C
:1051E000020E75EB030E22BFB61A754640EA0C009C
:1051F0005B084FEA3202B6EB020E75EB030E22BFDC
:10520000B61A754640EA5C005B084FEA3202B6EB1C
:10521000020E75EB030E22BFB61A754640EA9C00DB
:105220005B084FEA3202B6EB020E75EB030E22BFAB
:10523000B61A754640EADC0055EA060E18D04FEA69
:10524000051545EA16754FEA06164FEAC30343EA09
:1052500052734FEAC2025FEA1C1CC0D111F4801FD6
:105260000BD141EA00014FF000004FF0004CB6E7CF
:1052700011F4801F04BF01430020B4F1FD0C88BF6E
:10528000BCF5E06F3FF6AFAEB5EB030C04BFB6EB79
:10529000020C5FEA500C50F1000041EB045170BD6C
:1052A0000EF0004E4EEA113114EB5C04C2BFD4EB99
:1052B0000C0541EA045170BD41F480114FF0000E1D
:1052C000013C90E645EA060E8DE60CEA135594EA99
:1052D0000C0F08BF95EA0C0F3FF43BAF94EA0C0F9C
:1052E0000AD150EA01347FF434AF95EA0C0F7FF411
:1052F00025AF104619462CE795EA0C0F06D152EA65
:1053000003353FF4FDAE1046194622E750EA410648
:1053100018BF52EA43067FF4C5AE50EA41047FF459
:105320000DAF52EA43057FF4EBAE12E74FF0FF3CBE
:1053300006E000BF4FF0010C02E000BF4FF0010C8F
:105340004DF804CD4FEA410C7FEA6C5C4FEA430C08
:1053500018BF7FEA6C5C1BD001B050EA410C0CBF57
:1053600052EA430C91EA030F02BF90EA020F0020B9
:10537000704710F1000F91EA030F58BF994208BF20
:1053800090422CBFD8176FEAE37040F001007047DD
:105390004FEA410C7FEA6C5C02D150EA013C07D134
:1053A0004FEA430C7FEA6C5CD6D152EA033CD3D07F
:1053B0005DF8040B704700BF8446104662468C4679
:1053C0001946634600E000BF01B5FFF7B7FF0028AC
:1053D00048BF10F1000F01BD4DF808EDFFF7F4FFD5
:1053E0000CBF012000205DF808FB00BF4DF808ED60
:1053F000FFF7EAFF34BF012000205DF808FB00BF83
:105400004DF808EDFFF7E0FF94BF012000205DF8A4
:1054100008FB00BF4DF808EDFFF7CEFF94BF012059
:1054200000205DF808FB00BF4DF808EDFFF7C4FF52
:1054300034BF012000205DF808FB00BF4FEA4102A5
:1054400012F5001215D211D56FF47873B3EB6252D6
:1054500012D94FEAC12343F0004343EA505311F0FD
:10546000004F23FA02F018BF404270474FF000008F
:10547000704750EA013005D111F0004008BF6FF0CD
:10548000004070474FF00000704700BF4FEA4102F4
:10549000B2F1E04324BFB3F5001CDCF1FE5C0DD992
:1054A00001F0004C4FEAC0024CEA5070B2F1004FDC
:1054B00040EB830008BF20F00100704711F0804FDF
:1054C00021D113F13872BCBF01F00040704741F4A4
:1054D00080114FEA5252C2F11802C2F1200C10FAA8
:1054E0000CF320FA02F018BF40F001004FEAC1238C
:1054F0004FEAD32303FA0CFC40EA0C0023FA02F330
:105500004FEA4303CCE77FEA625307D150EA013305
:105510001EBF4FF0FE4040F44000704701F00040D5
:1055200040F0FE4040F40000704700BF10B5034C4F
:1055300014B101F0BDFE10BD204610BDB1720008CF
:1055400030B505460C461346022029462246BDE8E2
:10555000304001F0ADBE0000014B1868704700BF3D
:105560000402002008B5084B04461BB1002101F0DD
:10557000DDFE01E000F0E0F904480068816A01B155
:1055800088472046FBF7D2F82D73000848830008AF
:1055900070B505460C46002947D000F0CBF925B17F
:1055A000AB6913B9284600F05DF92148844201D166
:1055B0006C6808E01F498C4201D1AC6803E01E4AC8
:1055C000944208BFEC68B4F90C605EB328462146EB
:1055D00000F03CF8236B06463BB12846216A984709
:1055E00036EA200628BF4FF0FF36A08900F0800180
:1055F0000AB21AB12846216900F0FEF9616B41B187
:1056000004F14403994202D0284600F0F5F9002045
:105610006063A16C21B1284600F0EEF90021A1647D
:105620000022A28100F087F900E00E46304670BDEE
:10563000E88200080883000828830008024B01461E
:105640001868FFF7A5BF00BF040200200B692DE911
:10565000F04105460C46002B3BD018B1816909B9D1
:1056600000F000F94948844201D16C6808E0484ADA
:10567000944201D1AC6803E0464B9C4208BFEC6801
:10568000A18931B301F0080002B2002A61D1626839
:1056900041F40060002AA08102DC236C002B18DD9D
:1056A000E66AB6B101F4805100200AB22F68286082
:1056B0000AB1626D10E001232846216AB047024614
:1056C000013009D12B683BB11D2B01D0162B1BD10A
:1056D0002F600020BDE8F081A68906F0040001B229
:1056E00029B16368666BD21A0EB1206C121A216A56
:1056F000E66A00232846B047411C0DD12A685AB1FA
:105700001D2A09D0162A07D0A18941F04003A381A0
:105710004FF0FF30BDE8F081A3892169002262606B
:1057200003F48052216011B221B1421C01D12B68D7
:1057300003B96065616B2F600029CAD004F1440091
:10574000814202D0284600F057F900206063BDE88E
:10575000F0812669002EBCD08907236808BF6169E3
:10576000266018BF0021C6EB0308A160B8F1000F46
:10577000AFDDA76A216A284632464346B84700286B
:10578000C2DD3618C0EB0808F0E700BFE882000869
:105790000883000828830008014620B90448054909
:1057A000006800F005BA044B1868FFF74FBF00BF50
:1057B000488300084D56000804020020F8B507464B
:1057C00000F14C0494B1A5686668013E0CD4B5F9AB
:1057D0000C303BB1B5F90E00431C03D038462946C6
:1057E000FFF734FF6835F0E72468EBE7F8BD000009
:1057F000002310B5044603604360836081814366E3
:10580000C2810361436183611946082200F15C0093
:1058100000F0DBFA04480549054A064B2462606241
:10582000A162E262236310BD2161000847610008A4
:1058300083610008A761000870B568254D430E46D6
:1058400005F10C0100F060FA044640B100F10C00D3
:10585000002184E84200A0602A4600F0B6FA204603
:1058600070BD000070B585690446002D22D1124B31
:10587000C5640126836286610565456500F01EF8F2
:105880006060204600F01AF8A060204600F016F88C
:105890000421E0602A466068FFF7AAFFA06809219A
:1058A0003246FFF7A5FFE06812210222BDE87040F2
:1058B000FFF79EBF70BD00BFBD570008F8B51C4B79
:1058C0001E680746B06910B93046FFF7CBFF4C366B
:1058D000B4687168013904D4B4F90C5085B16834E6
:1058E000F8E732680AB13668F2E738460421FFF774
:1058F000A3FF30600028F6D10C243C60044615E07C
:105900004FF6FF730120A081E38165662560A560E5
:10591000656025616561A56104F15C002946082286
:1059200000F053FA6563A563A564E5642046F8BDFD
:10593000488300087047704770B5084B084CE01A60
:10594000841003EB84060025043D1CB17259904776
:10595000013CF9E7BDE8704001F004BF18020020E7
:105960001C020020F7B50F46114601AA054601F0BA
:105970003DFD064608B900242AE02846FFF79EFFB1
:1059800004460028F7D028463946019A4FF4DB73C5
:1059900000F024FA002806DA0025FFF7CBFFA581E6
:1059A000FFF7C9FFE7E7E081A6810A4B0A480B49E8
:1059B0000B4A246206F4807636B26362A062E1622A
:1059C00022632EB1284621460022022300F058F817
:1059D0002046FEBD21610008476100088361000880
:1059E000A76100080A460349034608681946FFF7FD
:1059F000B9BF00BF0402002030B500293CD051F8E7
:105A0000042C0B1F1D49002AB8BF9B180A6812B945
:105A10005A600B6030BD93420ED2196858189042FC
:105A200003D15A5889184268196014485A600360B3
:105A300030BD994203D80A4651680029F9D114684B
:105A400015199D420AD118682318D018884213608E
:105A500012D108681B1813604B680CE002D90C23A4
:105A6000036030BD18681C188C4203D10C6849686B
:105A7000001918605960536030BD00BFFC0C002055
:105A80002DE9F0410C4690461E46054618B1836943
:105A90000BB9FFF7E7FE4348844201D16C6808E088
:105AA00041498C4201D1AC6803E0404A944208BFAE
:105AB000EC68FFF73FFFA78907F48473B3F5847F91
:105AC00003D128462146FFF7C1FDE76A1D20002FBC
:105AD00030D0012E05D0022E33D0002E31D016202A
