:020000040800F2
:100000000080012059070008AD070008AD0700086F
:10001000AD070008AD070008AD07000800000000AC
:10002000000000000000000000000000AD07000814
:10003000AD07000800000000AD070008AD0700088C
:10004000AD070008AD070008AD070008AD070008C0
:10005000AD070008AD070008AD070008AD070008B0
:10006000AD070008AD070008AD070008AD070008A0
:10007000AD070008AD070008AD070008AD07000890
:10008000AD070008AD070008AD070008000000003C
:10009000000000000000000000000000AD070008A4
:1000A000AD070008AD070008AD070008AD07000860
:1000B000AD070008AD070008AD070008AD07000850
:1000C000AD070008AD070008AD070008AD07000840
:1000D000AD070008AD070008AD07000800000000EC
:1000E000AD070008AD070008AD07000800000000DC
:1000F000000000000000000000000000AD07000844
:1001000000000000AD070008AD070008AD070008BB
:1001100000000000000000000000000000000000DF
:10012000AD070008AD070008AD070008AD070008DF
:10013000AD07000800000000000000000000000003
:10014000000000000000000000000000AD070008F3
:10015000AD070008AD070008AD070008AD070008AF
:10016000AD070008AD070008000000000000000017
:10017000000000000000000000000000000000007F
:1001800000000000AD0700080000000000000000B3
:10019000AD07000810B5054C237833B9044810B1F9
:1001A0000448AFF300800121217010BD240200201B
:1001B00000000000908C000808B5064B1BB10648F3
:1001C0000649AFF300800648016811B1054A02B143
:1001D000904708BD00000000908C00082802002015
:1001E0002002002000000000154B002B08BF134B1D
:1001F0009D46A3F5803A00218B460F461348144ACA
:10020000121A06F0B4F90F4B002B00D098470E4B92
:10021000002B00D098470020002104460D46002006
:100220000C490022002305F053FD06F0B5F82046E6
:10023000294600F05DFA05F067FD00BF00000800E8
:1002400000800120000000000000000024020020C7
:100250005C0E0020DD60000800B585B072B6052197
:10026000684603F0F3FC10E0039B019A1A609620A5
:1002700003F018FE9DF90030013310D0019A039B62
:1002800012041A60962003F00DFE9DF90030013330
:10029000EAD106480649342203F0A8FCE4E7034803
:1002A0000349342203F0A2FCE8E700BF147F0008F2
:1002B0002C7F00080F4A30B493689468B4F1006F43
:1002C0001A4604D0103030BC42F8201070470A4A59
:1002D00003F5CA7553F8044B42F8044FAB42F9D109
:1002E0004FF00052034B10309A6030BC42F820109F
:1002F000704700BF00ED00E0FCFFFF1F70B5114C20
:100300002368DA68910715D4DA68520709D56FF0C7
:1003100004020D4E1A615D6A3368EB1AB3F57A7FF9
:1003200000D270BD00F060FA2368356005F57A757B
:100330009D6370BD6FF002021A6103F093FD2368A4
:10034000E2E700BF400D002040020020244B30B502
:100350001A6C244C42F008021A641A6C83B002F042
:1003600008020192019A1A6A42F008021A621A6A95
:1003700022F008021A6201F033FC1B4A1B4B126880
:100380001B492160A3FB0212920C0025013A4FF099
:10039000FF3320466260E3602561A560656101F07E
:1003A0002FFA32201349FFF785FF134B4FF48022B9
:1003B0005A602946204601F091F92046042101F0B7
:1003C0008DF923680D495A6A0A6002F57A729A63B8
:1003D000DA68284642F00402DA6003B030BD00BF9C
:1003E00000380240400D00209C01002083DE1B43AA
:1003F000000C0040FD02000800E100E04002002087
:1004000008B501F0EDFBBDE8084000F0D3B900BF2E
:10041000036870B51B690021012204469847431CFC
:1004200005460ED0236820461B690021022298470A
:100430002368064629461B69204600229847304615
:1004400070BD70BD084B094A026010B403F580719D
:10045000002453F8042B824208BF43F8044C8B421B
:10046000F7D15DF8044B704744020020C07F0008BC
:100470000A4B0B4A10B503F5807104460260002058
:1004800053F8042B944208BF43F8040C8B42F7D175
:10049000204604F06DFA204610BD00BF4402002043
:1004A000C07F000802480221032203F039B800BFD0
:1004B000000E0020F0B50E4685B03549054606F021
:1004C00048FA20B9334B1B6863B105B0F0BD28462C
:1004D000314906F03EFA78B92E4B1B6843B1012032
:1004E00005B0F0BD0190FFF7DDFF019805B0F0BD4C
:1004F000FFF7D8FF0120E8E72846284906F029FA47
:1005000010B3274B002402E00134402C21D053F8D3
:10051000040F0028F8D12B783A2B32D0294602A8B4
:1005200003F0CEF802A803F01DF990B102A803F081
:1005300001F988B102A803F007F903464BB1194A43
:10054000E01C42F82430C0E7124B1B68ABB102201C
:10055000BBE74FF0FF30B8E702A803F0DFF805462D
:100560000028F6D0036802A89F6803F0D5F8324649
:1005700001462846B8470346E0E7FFF793FF02200D
:10058000A3E72846084902AA06F072F9029BD5E7BC
:100590009C7F0008640A0020AC7F0008A47F00084C
:1005A0004002002044020020E87F0008022808B52D
:1005B0000BDDC21E074B53F82200002143F8221026
:1005C00028B103685B68984708BD002008BD4FF05C
:1005D000FF3008BD44020020022870B50C461646C4
:1005E0000FDC0E4B1B680BB9FFF75CFFA51936B18A
:1005F00014F8011B0A4803F041F8AC42F8D1304628
:1006000070BD0338074B53F8200018B103681B680E
:10061000984770BD4FF0FF3070BD00BF640A0020E6
:10062000000E002044020020022810B50C4609DC10
:100630000D4B1B688BB10D4803F014F8012320709B
:10064000184610BD03380A4B53F8200040B1036828
:100650009B6898470346184610BDFFF723FFEAE75B
:100660004FF0FF33ECE700BF640A0020000E0020CB
:1006700044020020022808B508DD0338064B53F871
:10068000200028B10368DB68984708BD012008BD39
:100690004FF0FF3008BD00BF44020020022808B51B
:1006A00008DD0338064B53F8200028B103681B69A6
:1006B000984708BD002008BD4FF0FF3008BD00BFBF
:1006C00044020020022808B504D84FF400534B60C0
:1006D000002008BD05F012FB092303604FF0FF3036
:1006E00008BD00BF08B5012005F00EFB704700BF34
:1006F00008B5FFF785FEFFF7F9FFBDE8084002F0F7
:10070000C7B900BF074A13681844EFF3088188424D
:1007100002D2106018467047034B0C221A604FF04B
:10072000FF30704798010020580E0020074C08B594
:1007300023680546986805F001FC2368D86805F031
:10074000FDFB05B9FEE7FFF787FDFBE70802002088
:10075000002105F0CFBF00BFDFF838D0002100F046
:1007600004B80D4B5B58435004310C480C4B4218F5
:100770009A42FFF4F6AF0B4A00F003B8002342F8A8
:10078000043B094B9A42FFF4F9AF01F007FBFFF776
:100790002BFD7047008001209C8C000894010020F4
:1007A00024020020240200205C0E0020FFF7FEBF80
:1007B000704700BF08B50B4B1A6842F400721A600C
:1007C0001A6842F480621A601A6842F480721A60F1
:1007D000032000F0F7F90F20FFF7B8FDFFF7E8FF5F
:1007E000002008BD003C0240024B1A6801321A602A
:1007F000704700BF44030020014B1868704700BFDA
:1008000044030020704700BFF8B50446002800F0FC
:10081000998090F83D3003F0FF02002B00F08480B7
:10082000494A4A48022384F83D305168236821F43C
:100830004031516055686168294351605E6827699D
:10084000A568E168E26A26F480765E605E6846EA42
:1008500007265E605E6826F040765E605E6835431F
:100860005D609D6825F400659D609D68824245EA53
:10087000010199605DD09868216B20F070609860EC
:10088000986802439A609A6822F040529A609A6887
:100890000A439A609968A069626A21F0020199602E
:1008A000996841EA4001996042BB5A6822F40062AB
:1008B0005A60DD6AE169226A606925F47005DD62CB
:1008C000DD6A013A45EA0252DA629A6822F400725D
:1008D0009A609A6842EA41229A609A6822F4806299
:1008E0009A609968002241EA802001219860226480
:1008F000104684F83C2084F83D10F8BD5A6842F454
:1009000000625A605A6822F460425A6059684FF493
:10091000604090FAA0F0B0FA80F0A26AC0B2013A4A
:1009200082400A435A60C4E780F83C20FFF76AFF20
:1009300076E79A6822F070629A609A6822F04052D4
:100940009A60A7E70120F8BD002301400100000FD5
:1009500030B490F83C3082B00022012B01923DD09F
:1009600090F83D300122222B0CBF3223122380F855
:100970003C20026880F83D309368DB0714D41E49A0
:100980001E4B0C689168A3FB04539B0C03EB4303C1
:1009900041F0010191600193019B2BB1019B013B4F
:1009A0000193019B002BF9D1154B5B68002113F0DB
:1009B0001F0380F83C1006D0124B9A4216D008460E
:1009C00002B030BC7047916811F040500AD1936872
:1009D00043F08043936002B030BC7047022002B005
:1009E00030BC7047184602B030BC7047906810F0B9
:1009F0004050ECD0E3E700BF9C01002083DE1B43A6
:100A0000002301400020014003689A6870B5560534
:100A100005460C4602D59B68D80520D4FFF7ECFEAE
:100A200006462A6801E0611C0CD113689B07FAD5C1
:100A300095F83D30252B0CBF3523152385F83D3027
:100A4000002070BD24B1FFF7D7FE801B8442E8D29E
:100A50000320002385F83D0085F83C3070BD04225A
:100A6000002385F83D2085F83C30012070BD00BF93
:100A70000368D86C704700BFF0B490F83C3082B087
:100A80000022012B019259D00A680123092A144639
:100A900080F83C302BD803688F681E69496802EBE8
:100AA00042054FF0070C0CFA05FC26EA0C061E6105
:100AB0001E6907FA05F5354306291D612DD801EB9E
:100AC00081015E6B05391F258D4026EA05055D63B2
:100AD0005D6B04FA01F12943596337498B423ED0DB
:100AE000002380F83C30184602B0F0BC7047036821
:100AF0008F68DE68496894B204EB44051E3D4FF0F0
:100B0000070C0CFA05FC26EA0C06DE60DE6807FA24
:100B100005F535430629DD60D1D90C2901EB8101AA
:100B200010D81E6B23391F258D4026EA05051D634D
:100B30001D6B04FA01F129431963CEE7022002B0CC
:100B4000F0BC7047DE6A41391F258D4026EA050555
:100B5000DD62DD6A04FA01F12943D962BDE7122A98
:100B600023D0A2F11003012BBAD8144B5968102AD4
:100B700041F400015960B3D1114A03F1467303F502
:100B80002E33126803F28333A3FB02139B0C03EB97
:100B900083035B000193019B002BA1D0019B013BD0
:100BA0000193019B002BF9D19AE7044B5A6842F458
:100BB00080025A6094E700BF0020014000230140FA
:100BC0009C010020074AD1684FF6FF030B4043F019
:100BD000BF6300F0070043F4003343EA0023D3600F
:100BE000704700BF00ED00E02DE9F00FD1F800C024
:100BF0007C4E82B0002303E00133102B00F09C8078
:100C0000012404FA03F202EA0C049442F4D14A6883
:100C100022F01009B9F1020F00F092805D004FF050
:100C20000308D0F800B008FA05F86FEA080802F0E7
:100C3000030A08EA0B0B0AFA05FA09F1FF394BEA35
:100C40000A0AB9F1010FC0F800A040F2A280D0F862
:100C50000C908F6808EA090807FA05F548EA0505C7
:100C6000C560D500C8D5604F7D6C45F480457D6476
:100C7000D7F8448023F0030508F48048CDF80480B9
:100C800005F1804503F003080F2705F59C354FEA71
:100C9000880807FA08FA554FDDF80490D5F808904F
:100CA000B84229EA0A0900F08C8007F58067B8424B
:100CB00000F08A804E4FB84200F08A804D4FB84213
:100CC00000F08B804C4FB8420CBF4FF0040A4FF03D
:100CD000050A0AFA08F848EA0908C5F80880D6F8AB
:100CE0000080E543D7034CBF44EA080805EA08083A
:100CF000C6F80080D6F8048097034CBF44EA080881
:100D000005EA0808C6F80480D6F80880D7024CBF68
:100D100044EA080805EA0808C6F80880D6F80C80F6
:100D2000920203F1010354BF05EA080444EA0804EF
:100D3000102BF4607FF464AF02B0BDE8F00F704791
:100D40004FEAD30800EB880803F00709D8F82070B1
:100D50004FEA89090F2505FA09FB27EA0B0A0F69F3
:100D600007FA09F94AEA0905C8F820505D004FF072
:100D70000308D0F800A008FA05F86FEA080802F0A6
:100D8000030908EA0A0A09FA05F94AEA0909C0F852
:100D90000090D0F80890CF6808EA090907FA05FA28
:100DA00049EA0A09C0F80890D0F804A0C2F3001973
:100DB0002AEA040A09FA03F94AEA0909C0F8049080
:100DC00045E74FF0000886E7012707FA08F882E7B1
:100DD0004FF0020A0AFA08F87DE74FF0030A0AFA10
:100DE00008F878E7003C014000380240000002406B
:100DF00000080240000C024000100240704700BF93
:100E0000F8B50446002869D090F8353003F0FF02A9
:100E1000002B4ED02368324D022284F835201A6808
:100E200022F001021A6000F087FB2E4962682368F5
:100E3000A1FB0061890CAA42596024D85200B0FB82
:100E4000F2F0C0F30B020131032A19628CBF844611
:100E50004FF0040C206AE769E6682169A2696569B8
:100E6000C3F81CC0384331432A4318609960DA60E4
:100E70001868002240F0010001211860A2631046AA
:100E800084F83510F8BD4FF49677174EA56807FB28
:100E900001F1A6FB017189090131196275B902EBF3
:100EA0004202B0FBF2F0C0F30B02A2B94FF0010C0A
:100EB000D0E780F83420FFF7A1FFABE702EB820216
:100EC00002EB8202B0FBF2F0C0F30B02002AEDD07D
:100ED00040F4404CBEE740F4004CBBE70120F8BDB5
:100EE000A086010083DE1B43D34D6210064B1A69B6
:100EF000012922F004021A6103D040BF20BF20BFA5
:100F0000704730BF704700BF00ED00E0F0B50368E8
:100F1000DE0783B0044637D5A54A916801F00C017D
:100F2000042900F0F380916801F00C01082900F019
:100F3000E980A04B9E4D00221A70FFF75DFC41F244
:100F40008836074605E0FFF757FCC01BB04200F2A9
:100F5000C8802B689903F6D4964B22791A7063687F
:100F6000002B00F01181FFF747FC914D074641F23D
:100F7000883605E0FFF740FCC01BB04200F2B180AC
:100F80002B689A03F6D523689F072FD5884A916866
:100F900011F00C0F00F0AC80916801F00C010829F1
:100FA00000F0A280E368002B00F0DD80824B804DD2
:100FB00001221A60FFF720FC064605E0FFF71CFC43
:100FC000801B642800F28D802B68794A9807F5D53C
:100FD0001168F82090FAA0F0B0FA80F02369C0B24E
:100FE00021F0F80183400B43136023681A0720D4D3
:100FF000580734D4A369CBB16D4DAA6802F00C0236
:10100000082A7CD0022B6D4B4FF000021A6000F0D2
:10101000CB80FFF7F1FB2C46054604E0FFF7ECFB25
:10102000401B64285DD823689B01F7D4002003B0DF
:10103000F0BD6369002B73D0614B5D4D01221A60D6
:10104000FFF7DAFB064604E0FFF7D6FB801B6428B7
:1010500047D86B6F9B07F7D523685807CAD5544B01
:10106000584D1A6C42F080521A641B6C03F0805386
:101070000193019B2B6843F480732B60FFF7BCFB4B
:10108000064604E0FFF7B8FB801B642829D82B68CC
:10109000D905F7D54C4B464D00221A70FFF7ACFB33
:1010A00041F28836074604E0FFF7A6FBC01BB042BA
:1010B00017D82B6F9A07F7D4434B227A1A70A3687C
:1010C000002B00F0C780FFF797FB394D074641F230
:1010D00088362B6F9B078DD4FFF78EFBC01BB04269
:1010E000F7D9032003B0F0BD526856023FF55AAF5E
:1010F0002F4A1268950723D5E268012A20D00120E3
:1011000003B0F0BD526855027FF513AF284A12684C
:1011100090037FF539AF6268002A7FF435AFEEE7C0
:10112000274A234D1360FFF767FB064604E0FFF7ED
:1011300063FB801B6428D4D86B6F9F07F7D48BE7C1
:101140001B4AF825106895FAA5F5B5FA85F52269C8
:101150001749EDB220F0F800AA4002430A601A07CE
:101160007FF546AF65E7144A114D1360FFF744FB66
:10117000064604E0FFF740FB801B6428B1D82B68CB
:101180009907F7D4236831E7FFF736FB084D074688
:1011900041F2883604E0FFF72FFBC01BB042A0D815
:1011A0002B689B03F7D4EEE6FFF726FB064612E01A
:1011B00000380240023802400000474260004742C7
:1011C000800E47420070004070380240FFF714FB69
:1011D000801B642885D82B689901F7D447F6C07521
:1011E00095FAA5F5B5FA85F54FF4403191FAA1F1DC
:1011F000B1FA81F14FF0706292FAA2F2B2FA82F281
:10120000A66AD4F824C0D4F820E0E769E06A194B54
:10121000194CEDB276080CFA05F54EEA0707C9B28B
:10122000013E3D43D2B206FA01F100FA02F229432F
:101230001143012261601A60FFF7DEFA054605E0FE
:10124000FFF7DAFA401B64283FF64BAF23689A0198
:10125000F6D5EBE6FFF7D0FA074D074641F28836A0
:101260002B6F98077FF5C6AEFFF7C6FAC01BB042DA
:10127000F6D936E760004742003802407C4B1A68D6
:1012800002F00F028A422DE9F0410C46054609D2D0
:10129000CAB21A701B6803F00F038B4258D00120AA
:1012A000BDE8F08103689A0706D5724A81689068A4
:1012B00020F0F00001439160DF0727D56B68012B18
:1012C00079D09A1E012A6B4A126840F287809107F2
:1012D000E5D5684FBA6822F003021343BB60FFF7FD
:1012E0008BFA6B68012B06467CD0022B00F08880BD
:1012F000032B65D041F2883804E0FFF77DFA801BAC
:10130000404565D8BB6813F00C0FF6D1584BE2B2DC
:101310001A701B6803F00F03A342C0D12B685A0751
:1013200006D5544AE968906820F4E0500143916082
:101330001B0707D54F4B29699A6822F4604242EA9D
:10134000C1029A600F20FFF701F80020BDE8F0818C
:1013500003689F0706D5474A8168906820F0F0002F
:1013600001439160DE07DAD56B68012B56D09A1ED7
:10137000012A404A12682ED9910790D53D4EB26895
:1013800022F003021343B360FFF736FA6B68012BB8
:10139000044648D0022B54D0032B60D041F288374A
:1013A00004E0FFF729FA001BB84211D8B36813F024
:1013B0000C0FF6D1B2E72F4A1268960389D46EE774
:1013C00041F28834BB68FFF717FA801BA042F9D9B5
:1013D0000320BDE8F0819001D0D460E790013FF593
:1013E00078AF5CE741F2883804E0FFF705FA801B2C
:1013F0004045EDD8BB6803F00C03042BF5D185E71D
:1014000041F2883804E0FFF7F7F9801B4045DFD848
:10141000BB6803F00C03082BF5D177E7154A126877
:101420009403ABD43BE741F2883704E0FFF7E4F9DB
:10143000001BB842CCD8B36803F00C03042BF5D1E1
:101440006CE741F2883704E0FFF7D6F9001BB84299
:10145000BED8B36803F00C03082BF5D15EE741F268
:101460008835B368FFF7C8F9001BA842F9D9AFE780
:10147000003C0240003802401E4B9A6802F00C0209
:10148000042A10B432D0082A03D01B485DF8044B5C
:10149000704758685A685C6812F4800F00F03F018A
:1014A00047F6C07292FAA2F2B2FA82F247F6C0731D
:1014B00014BF12481048D2B22340D3400D4AB0FBAB
:1014C000F1F000FB03F052684FF4403393FAA3F3BA
:1014D000B3FA83F302F44032DBB222FA03F30133AE
:1014E0005B00B0FBF3F05DF8044B704703485DF818
:1014F000044B7047003802400024F40000127A00C8
:1015000008B5FFF7B9FF094BF0229B6892FAA2F2E7
:10151000B2FA82F203F0F003D2B223FA02F20449E3
:10152000044B8A5CD040186008BD00BF0038024000
:10153000F87F00089C01002008B5FFF7E1FF084A8A
:101540004FF4E053926893FAA3F3B3FA83F302F4EF
:10155000E052DBB222FA03F3024AD35CD84008BD62
:1015600000380240F87F000808B5FFF7C9FF084AB5
:101570004FF46043926893FAA3F3B3FA83F302F44F
:101580006042DBB222FA03F3024AD35CD84008BDC2
:1015900000380240F87F00080E4B0F22026010B4A2
:1015A0009C680D4A04F0030444609C6804F0F00455
:1015B00084609C6804F4E054C4609B685DF8044B4C
:1015C00003F46043DB080361136803F00F030B604F
:1015D000704700BF00380240003C0240036A23F01D
:1015E0000103F0B48F680E680362036A104D42680D
:1015F000846923F0020324F07304A84243EA07033A
:1016000044EA060406D04968426084614163F0BC44
:1016100003627047CF688E694D6923F0080322F496
:1016200040723B43354323F004032A43EBE700BFFA
:1016300000000140036A23F48073F0B48F680E68E1
:101640000362036A114D4268C46923F4007324F0F5
:101650007304A84243EA072344EA060406D0496813
:101660004260C461C163F0BC03627047CF684E69D9
:101670008D6923F4006322F4405243EA072342EACF
:10168000061223F4806342EA0512E8E700000140F5
:10169000036A23F48053F0B48F680E680362026A11
:1016A0000C4D4368C46922F4005224F4E644A84275
:1016B00042EA073244EA062406D049684360C4611E
:1016C0000164F0BC026270474D6923F4804343EA31
:1016D0008513F2E700000140704700BF03680E4A1F
:1016E000186A10B4012404FA01F120EA010018621A
:1016F000186A934241EA0001196207D01A685DF83E
:10170000044B42F0010200201A6070475A6C42F408
:1017100000425A64F2E700BF00000140704700BF7A
:1017200003680E4A186A10B4012404FA01F120EA91
:1017300001001862186A934241EA0001196207D059
:101740001A685DF8044B42F0010200201A607047ED
:101750005A6C42F400425A64F2E700BF00000140B4
:10176000264A0368904230B434D0B0F1804F20D084
:10177000A2F57C4290421CD002F58062904218D0C3
:1017800002F58062904214D002F59A32904214D051
:1017900002F58062904210D002F5806290420CD037
:1017A0008C680A6803600123C462826230BC4361B2
:1017B00070474A6823F070031343CD688C680A6849
:1017C00023F440732B4303600123C462826230BC64
:1017D000436170474C68CA6823F070031C4324F4CB
:1017E0004074224302608B68C3620B6883620B699A
:1017F00003630123436130BC704700BF0000014018
:1018000010B50446B0B190F8393003F0FF0263B16F
:101810002146022351F8040B84F83930FFF7A0FF6A
:10182000012384F83930002010BD80F83820FFF7FC
:1018300053FFEDE7012010BD10B50446B0B190F89C
:10184000393003F0FF0263B12146022351F8040B43
:1018500084F83930FFF784FF012384F83930002001
:1018600010BD80F83820FFF759FFEDE7012010BDCB
:10187000036A23F01003F0B48F680E680362036AF2
:10188000114D4268846923F0200324F4E644A84201
:1018900043EA071344EA062406D04968426084619B
:1018A0008163F0BC03627047CF684E698D6923F095
:1018B000800322F4406243EA071342EA860223F0DF
:1018C000400342EA8502E8E70000014038B590F89D
:1018D0003830012B04460D4628D00121022380F820
:1018E000381080F839300C2A19D8DFE802F00718D0
:1018F00018183418181847181818210029460068B5
:10190000FFF76CFE23682A69996941F00801996123
:10191000996921F00401996199690A439A61012347
:10192000002084F8393084F8380038BD022038BDF2
:1019300029460068FFF7ACFE23682969DA6942F49A
:101940000062DA61DA6922F48062DA61DA6942EA15
:101950000122DA61E3E729460068FFF789FF23687F
:1019600029699A6942F400629A619A6922F4806254
:101970009A619A6942EA01229A61D0E72946006891
:10198000FFF758FE23682A69D96941F00801D96137
:10199000D96921F00401D961D9690A43DA61BEE746
:1019A000036804201A6A00FA01F122EA01021A62AD
:1019B0001A6A114319625A6C42F400425A641A6856
:1019C00042F001021A600020704700BF2DE9F0418B
:1019D0000568C1682B69C269D0F810E0876846695C
:1019E00023F440531943044680692961EB684EEAA9
:1019F000070123F41643314323F00C0311430B4337
:101A0000EB606B6923F440730343B2F5004F6B61E5
:101A1000594B3CD09D4200F08C8003F580639D4281
:101A200000F08780FFF788FD6368544E00EB80006C
:101A30009B0000EB8000B0FBF3F7FFF77DFD6368D0
:101A400000EB80009B0000EB8000B0FBF3F8FFF799
:101A500073FD636800EB800000EB80009B00B0FB2F
:101A6000F3F3A6FB0727A6FB03237F095B0964208A
:101A70003F0100FB13884FEA081808F13208A6FB63
:101A80000836C6F343163743AF60BDE8F0819D4288
:101A90002DD003F580639D4229D0FFF74DFD63688B
:101AA000364E00EB80005B0000EB8000B0FBF3F7EC
:101AB000FFF742FD636800EB80005B0000EB8000F5
:101AC000B0FBF3F8FFF738FDA6FB072763687F0933
:101AD00000EB80003F0100EB80005B00B0FBF3F304
:101AE000A6FB03235B09642202FB1388C3E7FFF70D
:101AF0003BFD6368214E00EB80005B0000EB800043
:101B0000B0FBF3F7FFF730FD636800EB80005B008C
:101B100000EB8000B0FBF3F8FFF726FDA6FB0727DC
:101B200063687F0900EB80003F0100EB80005B00F1
:101B3000D4E7FFF719FD6368104E00EB80009B00AF
:101B400000EB8000B0FBF3F7FFF70EFD636800EBDE
:101B500080009B0000EB8000B0FBF3F8FFF704FD72
:101B6000A6FB072763687F0900EB80003F0100EBBD
:101B700080009B00B2E700BF001001401F85EB51C1
:101B8000704700BF10B5044640B390F8393003F0F9
:101B9000FF02F3B12368022284F83920DA6822F4C4
:101BA0000052DA602046FFF711FF23681A6922F419
:101BB00090421A615A6922F02A025A61D8680022BA
:101BC00040F400500121D860E263104684F83910D7
:101BD00010BD80F83820FFF7D3FFDBE7012010BDF0
:101BE000164B9A6802F00C02042A24D0082A0AD064
:101BF000134A124B13489968134BC1F30311415C0C
:101C0000CA401A607047586859685B6842024CBF06
:101C10000E4A0B4A01F03F01C3F38813B2FBF1F205
:101C200002FB03F2054B5B68C3F3014301335B0026
:101C3000B2FBF3F2DDE7054ADBE700BF0038024004
:101C40000024F400088000089C01002000127A00A3
:101C5000224A234B116C70B541F080511164126C13
:101C600094B002F080520192019A1A6822F4404224
:101C700042F400421A601B6803F4404302930123BC
:101C8000029A089300B1052309934FF4A871072322
:101C9000042202244FF48006082508A813930E940A
:101CA0000F96109511911292FFF730F9034610B17B
:101CB000002014B070BD4FF4805221460F2503A8B8
:101CC00004940593079303950692FFF7D7FAD0F192
:101CD000010038BF002014B070BD00BF00380240C2
:101CE00000700040234A244B116CF0B541F0805144
:101CF0001164126C95B002F080520192019A1A6838
:101D000022F4404242F400421A601B6803F440434C
:101D100002934FF0030E1023002404210722012711
:101D200002254FF4A87608A80C931093DDF808C09C
:101D3000CDF820E00B9709940F940E95119612910F
:101D40001392FFF7E3F8034610B1204615B0F0BD3B
:101D50004FF4805229460F2403A804950593079356
:101D600003940692FFF78AFAD0F1010038BF0020F1
:101D700015B0F0BD003802400070004008B50120E9
:101D8000FFF766FF00B108BDFFF762FF0028FAD138
:101D9000FFF7A8FF0028F6D1FEE700BF174B184851
:101DA000D3F8882070B542F47002164CC3F888202E
:101DB0002268154E154D002142F001022260A160FB
:101DC000226822F0847222F48032226066602668E3
:101DD0004FF0006226F480262660E1609A6005607C
:101DE000FEF7E8FCFFF7CAFF236A43F0080323620B
:101DF000236A23F00803236270BD00BF00ED00E0FA
:101E00009C01002000380240103000240024F4001F
:101E100038B5102204460D46002104F0A8FB2046E8
:101E2000294601F013FF204638BD000038B590F96F
:101E30000030013304460D4604D1054805493422DB
:101E400001F0D4FEE068626805B91204026038BD92
:101E5000188000083080000810B52021044601F0E9
:101E6000BBF80B2104F10800FFF7D2FF0C2104F1AD
:101E70001800FFF7CDFF04F128000721FFF7C8FF86
:101E8000002384F83830204610BD10B5044680F891
:101E9000381003291ED8DFE801F002060A1300F10A
:101EA0000800002106E000F1080000210BE000F12D
:101EB00008000121FFF7BAFF04F11800002107E034
:101EC00000F108000121FFF7B1FF04F11800012122
:101ED000FFF7ACFF10BD10B50121044600F128004A
:101EE000FFF7A4FF94F838102046BDE81040FFF734
:101EF000CCBF10B50021044600F10800FFF796FFA3
:101F000004F118000021FFF791FF04F128000021DF
:101F1000FFF78CFF10BD000070B5134E134D144C2D
:101F20002D21304601F0B4FC224629463046114EA0
:101F300002F022FD0621104801F00CFA2E21304655
:101F400001F0A6FC22460D4C2946304602F014FD55
:101F500000212046102204F00AFB20460521BDE89E
:101F6000704001F073BE00BF58030020193800080C
:101F700094010020C0030020AC030020480300208F
:101F800070472DE9CF41174604AA1E46012302F8E7
:101F9000041D00933A21804601F00AFC00230093BF
:101FA00040463A213A46334601F01CFCBDE8CF8159
:101FB0007FB500242A263A2103AA0223009405466D
:101FC0008DF80C608DF80D4001F0F2FB0E238DF8BA
:101FD0000C303A2103AA0223009428468DF80D40C4
:101FE00001F0E6FB01208DF80D00009428463A210F
:101FF00003AA02238DF80C6001F0DAFB7FBD10B557
:10200000044601F0B5FB2046FFF7D2FF204610BD85
:1020100013B507230C466A460021FFF7B2FF9DF86F
:1020200004309DF805109DF806009DF8032003EB91
:10203000022200EB01239DF802109DF8010001EB44
:10204000002001B212B21BB207EE101A01EE102AE4
:1020500006EE903ADFED0A7AB8EEC70AF8EEC11A3A
:10206000F8EEE62A60EE270A21EEA72A22EEA73A2A
:10207000C4ED000A84ED012A84ED023A1CBD00BFC4
:102080000000803800000000F0B52DED028B9FEDC0
:102090001E8A85B004461426204601A9FFF7B8FF22
:1020A000DDED037A052038EE278A01F0FBFE013EC4
:1020B000F2D1B3EE040AC8EE000A10EE900A03F063
:1020C000A1FA0DA3D3E9002304460D4603F07EFDDB
:1020D00068B9204629460AA3D3E90023012703F063
:1020E00057FD00B9374687F00107F8B200E03046E7
:1020F00005B0BDEC028BF0BD666666666666D63FCF
:10210000666666666666D6BF00000000AFF30080B4
:1021100038B590F90030013304460D4604D1054826
:102120000549342201F062FDE068626805B91204D5
:10213000026038BD1880000830800008F8B50A2118
:10214000044604F12007FFF763FE292104F1100083
:10215000FFF75EFE04F1340638460921084D01F010
:10216000F9F83046082101F0F5F83846294601F023
:102170009DF93046294601F099F92046F8BD00BF87
:1021800017B7513838B504460D460021FFF7C0FF98
:1021900004F13400002100F0E9FF04F110000121F6
:1021A000FFF7B6FF04F120002946BDE8384000F0F3
:1021B000DDBF38B504460D4600F110000021FFF7E1
:1021C000A7FF04F12000002100F0D0FF20460121EC
:1021D000FFF79EFF04F134002946BDE8384000F0C7
:1021E000C5BF38B500250446294600F1340000F08B
:1021F000BDFF20460021FFF78BFF04F12000294698
:1022000000F0B4FF04F110000021BDE83840FFF7F2
:102210007FBF00000000000010B5DFED217ADDED8A
:10222000030ADFED201A20EEA71ADFED1F2A21EEA8
:10223000212A9DED027A82EE223A044680E80E00C1
:10224000DFED1A3A27EE270A23EE234A80ED030A30
:1022500080ED044A049803F0D5F90DA3D3E90023D7
:1022600003F024FA0CA3D3E9002303F049FB03F0A5
:10227000DFFC059B606104F58B620020A065E065D2
:1022800020666066A3611060204610BDAFF3008039
:10229000A0C2EBFE4B48B43900000040E17A743F25
:1022A0000AD7A33B00401C4400007A430050C347B8
:1022B0007FB5054600F1440400F13406A86801A981
:1022C000FFF7A6FE0298019B44F8183C44F8040D61
:1022D000024801F0D9FDB442F0D17FBD0AD7A33B3B
:1022E0007FB5064603460422996AD86BD962186402
:1022F000043B013AF8D1B06801A9FFF789FE0198C3
:1023000003F080F91AA3D3E9002303F0CFF90446C0
:10231000306A0D4603F076F917A3D3E9002303F0E2
:10232000C5F902460B462046294603F00DF803F096
:102330007FFCF061029803F065F90DA3D3E9002357
:1023400003F0B4F90446706B0D4603F05BF90AA381
:10235000D3E9002303F0AAF902460B46204629469A
:1023600002F0F2FF03F064FC30637FBDAFF3008046
:10237000CA3E5BC0CB60743F82497F683ED7EF3F67
:102380002DE9F04106460746A0F11008F06903F078
:1023900039F90446306B0D4603F034F902460B461A
:1023A0002046294602F0EEFA0022134B03F07EF994
:1023B0000FA3D3E9002303F0A3FA03F039FC03F0E1
:1023C00021F900220D4B02F0BFFF00220B4B02F05F
:1023D000DBFA03F02DFC78653046FFF781FF043F00
:1023E000074801F051FD4745D0D1BDE8F08100BF5D
:1023F000F1D4C853FB21094000806640008076403C
:102400000AD7A33BAFF3008070B5D0ED117ABDEED3
:10241000E70A064610EE101A1D4804F0C3F8336DA3
:10242000726CF06CB16C7365B2643065F164304607
:10243000FFF756FFF06903F0E5F80446306B0D46F0
:1024400003F0E0F802460B462046294602F09AFACD
:102450000022104B03F02AF90BA3D3E9002303F069
:102460004FFA03F0E5FB03F0CDF800220A4B02F02F
:102470006BFF0022084B02F087FA03F0D9FB70646F
:1024800070BD00BFAFF30080F1D4C853FB210940F9
:10249000B78000080080664000807640AFF300807F
:1024A00070B52DED028B04460546A0F1100694EDA3
:1024B000117AD4ED127A9FED0A8A37EE670A204628
:1024C000C0EE080AC5ED1A0AFFF79EFF043D18EE9C
:1024D000100A01F0D9FCB542E9D1BDEC028B70BD08
:1024E0000AD7A33B10B5D0ED167ABDEEE70A044635
:1024F00010EE101A0D4804F055F8206E636EE16D71
:10250000A26D6066A3662166E2652046FFF77CFF48
:1025100094ED117AD4ED120ADFED051A37EE601A48
:1025200081EE212A84ED162A10BD00BFBF8000086D
:102530000AD7A33B0000000000F2544370B5F92213
:1025400006461C4653F8081C013A012A43F8041DAC
:10255000F8D13046FFF7C6FF94ED007AD6ED167A33
:10256000DFED1D0A37EE670AB4EEE00AF1EE10FA6D
:102570000DDC9FED1A1ADFED1A1AB4EE410AF1EEE6
:1025800010FA4CBF11EE900A10EE100A00E0002085
:1025900003F038F80CA3D3E9002303F087F80446CE
:1025A000306F0D4603F02EF809A3D3E9002303F0A2
:1025B0007DF802460B462046294602F0C5FE03F090
:1025C00037FBF06670BD00BF666666666666EE3F06
:1025D000A09999999999A93F00007A4400007AC47A
:1025E00000000000AFF30080DFED087A0023C2187E
:1025F000D2ED1B6A9FED067A0433B3F5797F46EE80
:10260000877AF4D117EE900A704700BF00000000EF
:102610000AD7A33BDFED0D7A70300023024652ED5E
:10262000016A92ED007ADFED0A0A36EEC70A01333D
:1026300080EE201A0430142B77EE817AEED1F3EE7F
:10264000041A87EEA12A12EE100A7047000000005B
:102650000AD7A33B10B504462DED048BFFF76CFFA2
:102660002046FFF7C1FF09EE100A2046FFF7D2FF10
:10267000D4ED047AD4ED036A94ED1B7A29EE270A8F
:1026800006EE870AD4ED050A08EE100A08EE200AC5
:1026900094ED061A04F58B6370EE011A9FED3F2A44
:1026A000D3ED008A19EE100A41EE828A02F0AAFFE9
:1026B00000223B4B02F0FAFF03F092FA0146394840
:1026C00003F070FF18EE100A02F09CFF0022344B5A
:1026D00002F0ECFF03F084FAB7EE008A01463248BC
:1026E00003F060FFF4EEC88AF1EE10FA08DCBFEEEA
:1026F000008AF4EE488AF1EE10FA58BFB0EE688A0C
:10270000D4ED1B2ABDEEE23A284813EE101A03F06E
:1027100049FF18EE100A02F075FF0022204B02F06C
:10272000C5FF03F05DFA0146214803F03BFF94F832
:102730006004002827D1B5EEC08AF1EE10FA0FDD53
:102740001C4803F085FF04F58B6282ED008A18EEC9
:10275000101A2068BDEC048BBDE81040FFF712BDD5
:1027600018D5154803F074FF04F58B6181ED008ADC
:10277000B0EEC88A206818EE101ABDEC048BBDE8D4
:102780001040FFF716BD2068BDEC048BBDE810407B
:10279000FFF727BDBDEC048B10BD00BF0AD7A33BDC
:1027A00000408F40CC800008D5800008DF80000802
:1027B000EE800008F98000080281000800F2544011
:1027C0000160704700F25C40016070470022811890
:1027D00004320023B2F5797FCB66F8D1C36103637D
:1027E00003624363436283638362C36343648364BA
:1027F000C36403658365C36503664366704710B5AC
:102800000446FFF7E3FF2046FFF752FD2046FFF79F
:10281000B7FD2046FFF744FE0023A365E36523666A
:10282000636604F58B64236010BD00002DE9F04160
:102830008046406C02F0E6FE08F25C4304461868ED
:102840000D4602F0DFFE0022134B06460F4602F053
:102850007BFD02460B462046294603F099F9A8B1B4
:1028600000220D4B3046394602F06CFD02460B4605
:102870002046294603F0AAF940B1D8F80000FFF736
:10288000B0FC012088F86004BDE8F0814046BDE856
:10289000F041FFF7DFBE00BF00001440014B0360B2
:1028A000704700BF18810008034B04490122002033
:1028B0001A600870704700BF04050020080500205A
:1028C00008B54B680A6813F0010F02D0591041583F
:1028D0008A5800EB6300904708BD0000034B10B519
:1028E0000446036002F044F8204610BD1881000839
:1028F000054B10B50446036001F012F9204601F0C3
:102900003BF9204610BD00BFD0830008034B10B533
:1029100004460360FFF7ECFF204610BDE883000883
:10292000084B10B503F1180203604C3304464265AE
:10293000836500F1540001F083F8034820602046CD
:1029400010BD00BF2083000818810008A0F15800C6
:10295000FFF7E6BFA0F15400FFF7E2BF08B5074854
:1029600001F0DEF8064801F0DBF806480021FFF729
:1029700025FFBDE80840FFF797BF00BFF009002022
:10298000800900201C05002038B51949194801F0BC
:102990009DF8194B194800221A6000F031FA0546DB
:1029A000002824D116481749174C8161C562174980
:1029B00001F0BEF82046FFF722FF20461449FFF73A
:1029C00001FF20461349FFF7F9FE1348134A144B41
:1029D0008461C2610562C36241F2883101F0A8F8E6
:1029E00010484FF07A51BDE8384000F0BFBB38BD09
:1029F00020810008EC040020040500200C050020C4
:102A0000F00900205D2900081C05002080C3C901D1
:102A1000000034430000B44280090020552600081D
:102A2000C1280008AC03002038B50E4D0E4C0F49EC
:102A30002846FFF7C7FE28460D49FFF7BFFE204690
:102A400001F06EF80B480C4AE0620023204641F288
:102A5000883185F86034A561E2612362BDE83840C1
:102A600001F066B81C0500208009002000003443F6
:102A70000000B4C2C12800082D28000810B5044683
:102A8000FFF736FF204601F073FF204610BD00001F
:102A900008B527484FF4612100F084FF25482649F6
:102AA00000F004FD02212548FFF7EFF92448FFF765
:102AB00098FB2448244900F00DFF2448244900F0E5
:102AC00009FF244800F09CF9234B01221A60224898
:102AD000224B0168F1B193F90030214821490022CD
:102AE000013302700A7004D11F482049342201F0DA
:102AF0007DF81A484168C26816480B04136000F05C
:102B000057FA00F0C7FD1A4801F0BEF9114800F06D
:102B10005FFADCE793F90020531C04D112481349F3
:102B2000342201F063F80D48C16843680B60CEE7BA
:102B300098040020AC03002017B751385C04002033
:102B40001404002058030020B92B0008C003002003
:102B5000892900080C0500200405002048030020F6
:102B6000200A0020EC0900201880000830800008AE
:102B7000CDCCCC3D10B50B4C2046FFF740FE204697
:102B80000949FFF71BFE0948094A0A4B84610021E5
:102B9000016241F28831C261C362BDE8104000F0B9
:102BA000C7BF00BF1C0500200000B4C28009002080
:102BB00055260008C128000870B52949294800F0A9
:102BC00085FF2948294B017800221A601C4651B123
:102BD000274800F0A5FF274800F0A2FF264800F094
:102BE0009FFFFFF761FE2368012B03D1BDE8704012
:102BF000FFF7B4BE002B32D1204800F001F90446A3
:102C000000282CD11E48FFF73FFA002827D0164E87
:102C10001C4801253570164E174D4FF07A5100F0C3
:102C2000A5FA304600F07CFF124800F079FF2846F4
:102C300000F076FF1448154AB0611549F462304639
:102C400082F8604400F074FFFFF794FF1149EC62D2
:102C5000A96111492846BDE8704000F069BF70BD08
:102C600021810008EC040020080500200405002054
:102C7000F009002080090020BC0900200C0500207C
:102C8000B0090020AC030020A92800081C05002082
:102C900080C3C901292A00088096980010B504460F
:102CA000FFF73EFE204601F063FE204610BDA0F176
:102CB0005800F3E7A0F15400F0E710B50446FFF721
:102CC00025FE204601F054FE204610BD2DE9F04FB0
:102CD000324C334D334FDFF8FC90DFF8FC80324E3E
:102CE000DFF8F8B0DFF8F8A085B000230221032256
:102CF000204600F009FE2A4620462C4901F03CFE01
:102D0000192118223846FFF77AF92A462849384609
:102D100001F032FE4846FFF711FA4046FFF79CF8F3
:102D2000494642462348002400F05CF8304600F053
:102D30003FFFB461F462C6F800B030461E4E514603
:102D40002A4601F019FE304600F032FFB461F46209
:102D500051462A463046C6F800B001F00DFE174B2A
:102D60001749184E009300224FF07C503B460190CB
:102D700002910392494642461348FFF74DFA304606
:102D800000F016FF114B1249336030462A46B461F9
:102D9000F46205B0BDE8F04F01F0EEBD98040020EC
:102DA00094010020B0090020F0090020212900082A
:102DB000811F00080C050020BC090020CDCC4C3F31
:102DC000EF9293A1800900201C050020D083000809
:102DD000F1280008140400205C040020E8830008A7
:102DE0000D29000870B504460D461646212100F055
:102DF000F3F8A560E660204670BD0000000000000A
:102E0000F8B507464FF47A7600240025384600F0DE
:102E10003BF902F0F7FB02460B462046294602F03A
:102E200093FA013E04460D46F0D100225E4B02F0BB
:102E300067FD53A3D3E9002302F038FC02460B469A
:102E400002F082FA50A3D3E9002304460D4602F0B3
:102E5000B3FE80B1FA2001F025F84FF07E515348BF
:102E600000F084F9322001F01DF85048002100F0F4
:102E70007DF9642010E02046294645A3D3E90023CC
:102E800002F09AFEC0B1204629463FA3D3E90023B1
:102E900002F07EFE80B1FA2001F004F84FF07E517E
:102EA000424800F063F9322000F0FCFF3F48002167
:102EB00000F05CF9642010E02046294636A3D3E9EF
:102EC000002302F079FEC0B12046294630A3D3E9A1
:102ED000002302F05DFE80B1FA2000F0E3FF4FF026
:102EE0007E51324800F042F9322000F0DBFF2F48DB
:102EF000002100F03BF9642010E02046294626A37B
:102F0000D3E9002302F044FED8B12046294624A389
:102F1000D3E9002302F050FE98B1FA2000F0C2FF7E
:102F20004FF07E51214800F021F9322000F0BAFF25
:102F300000211E4800F01AF9642000F0B3FF0020C1
:102F4000F8BD2046294616A3D3E9002302F020FE4F
:102F500090B1FA2000F0A6FF4FF07E51134800F028
:102F600005F94B2000F09EFF1048002100F0FEF80C
:102F7000962000F097FF0120F8BD00BFAFF300805E
:102F80006666666666660A409A99999999990E40AE
:102F90009A99999999990B409A9999999999084070
:102FA000333333333333074000408F40AC030020CA
:102FB00010B504460021054800F0D8F8A068FFF7D6
:102FC00010F9E068BDE81040FEF793BFAC030020A5
:102FD000C068FEF780BF000070B50C46054682B0A1
:102FE0002249204600F08AFE2860013037D0204672
:102FF0001E4900F09DFE431C06462AD0C6F3C32698
:103000006E712046194900F045FE194A2C7113686B
:10301000EBB918492D68486C01241460164A40F435
:10302000807053604864496C936001F48071019131
:1030300010460199156013619361536293621363A3
:10304000D362D3601462D3615361FDF7DDFB02B03C
:1030500070BD0A480A49322200F0C8FDCEE709488F
:1030600007492E2200F0C2FDC1E700BF44870008D7
:10307000240A0020003802407C0D0020B4810008A2
:10308000488100083081000800B5354A016843795D
:10309000116085B0002201210191029203920F2B51
:1030A00009D8DFE803F02F3235383B3E4144474A28
:1030B0004D505356590FDFED2B7A17EE900A05B09D
:1030C0005DF804FB0F23009369462548FDF7D4FC07
:1030D0002348FDF73DFC22480A21FDF795FC002816
:1030E000E9D11F48FDF7C4FC80B207EE100AF8EEE4
:1030F000477A9FED1D7A67EE877A17EE900A05B042
:103100005DF804FB00230093DEE701230093DBE777
:1031100002230093D8E703230093D5E70423009309
:10312000D2E705230093CFE706230093CCE70723DC
:103130000093C9E708230093C6E709230093C3E778
:103140000A230093C0E70B230093BDE70C230093F1
:10315000BAE70D230093B7E70E230093B4E700BF4F
:103160007C0D0020000000000108803930B507EE1A
:10317000901A274A03681360F5EEC07AF1EE10FA50
:1031800089B004463DD4B7EE007AF4EE477AF1EE0A
:1031900010FAC8BFF0EE477AD4ED026A227CB8EE8E
:1031A000667A002367EE277A6020FCEEE77A013A20
:1031B000C4ED037ACDED027A019003930493059355
:1031C00006930793032A10D8DFE802F011021513C3
:1031D00004250F4801A92A46FEF778FBA0B9637CB5
:1031E0000B4829464BB1FEF7DBFB09B030BD00258B
:1031F000EFE70C25EDE70825EBE7FEF791FA09B0BC
:1032000030BDDFED047AC7E7034800F0FBFCE6E7DA
:10321000280A002000000000D0810008F0B5826874
:10322000454D03682B6087B004460E46002A57D0F0
:1032300007EE102AF8EE477A90ED037AF8EE476A27
:10324000B7EE007AC6EEA77AF4EEC77AF1EE10FA7E
:10325000C8BF17EE107A45DD196A41F211120A4013
:103260002AB9196A40F244420A40002A3DD001A816
:103270006946FEF791F92368304A934245D039D91F
:103280002F4A934207D051D92E4A934203D002F5D8
:103290008062934222D1FEF767F9059A0090731E6F
:1032A000EB60254B002A39D1274AA2FB0010800C85
:1032B00001385860002320482B61AB60FEF7BCFA50
:1032C00010B1224800F09EFC39462046FFF74EFF21
:1032D0002B68A6601A6842F001021A6007B0F0BDC0
:1032E000DFED1B7A17EE907AB6E71A6822F001023A
:1032F0001A60BCE7A2F50062934206D002F5806234
:10330000934202D0B3F1804FE8D1FEF715F9049A49
:103310000090731EEB60084B002AC5D00A4A40009B
:10332000A2FB0010800C01385860C3E7A2F5804270
:103330009342B0D0D2E700BF280A0020000C004022
:10334000004001400044014083DE1B43D08100085F
:103350000000000070B50D46044688B04849284674
:1033600000F0CCFC206001306FD02846444900F0CA
:10337000DFFC431C06466ED02368424AC6F3C321D5
:103380009342C6F3C0362174667444D0B3F1804FC3
:1033900029D03D4A93424AD102F50D32116C41F0D9
:1033A00002011164126C02F002020392039A374A7E
:1033B000934209D1364B5A6C42F480225A645B6CBA
:1033C00003F480230793079B28462D4900F062FCF5
:1033D00000232571A360E360204644F62061FFF7D7
:1033E0001DFF08B070BD2A4A116C41F00101116443
:1033F000126C02F001020292029A264A9342D6D13E
:10340000234B5A6C42F400325A645B6C03F4003371
:103410000693069BD8E702F59C32516C41F00101FE
:103420005164526C02F001020192019AE5E71A4AD6
:10343000934216D1164B1A6C42F004021A641B6CAC
:1034400003F004030493049BBEE7144814492D229F
:1034500000F0CCFB89E713481149312200F0C6FB8C
:103460008AE7114A9342C8D1094B5A6C42F4803220
:103470005A645B6C03F480330593059BA4E700BF9B
:103480005885000800000140000400400048014049
:10349000003802400044014000080040E881000874
:1034A00000820008B48100080040014007EE101AB5
:1034B000DFED047A67EE277AFDEEE77A17EE901AD1
:1034C000FFF7ACBE00247449F8B5134B90F919709E
:1034D00006688568C468016942691E6001374FF05B
:1034E00000065D609C60D9601A619E6110D090F901
:1034F000182001320CBF04220C225A610648FEF744
:1035000041FB00B9F8BD0548BDE8F84000F07ABBC2
:1035100008225A61F2E700BFC00D0020688200084F
:10352000F0B5044685B008460E463C49154600F005
:10353000E5FB3B490746284600F0E0FB01463846DC
:1035400000F0CAFB411C206061D0364B984247D046
:1035500003F58063984236D0A3F55043984225D0B6
:1035600030462E4900F096FB28462D4900F092FB8C
:10357000721C03D03046012101F0ECF86B1C03D023
:103580002846012101F0E6F800234FF41652A2600C
:10359000E36023616361267665762046FFF794FF3A
:1035A000214A2368934228D005B0F0BD1F4B1A6C06
:1035B00042F400321A641B6C03F4003302930123BB
:1035C000029A6360CCE7194B5A6C42F020025A64AD
:1035D0005B6C03F020030393039B05236360BFE749
:1035E000124B5A6C42F010025A645B6C03F01003E9
:1035F00001930023019A6360B2E70D4B0D48214609
:103600001C2201241C6002F0A9FF05B0F0BD0A488D
:103610000A49532200F0EAFA206896E7FC8600087F
:1036200010850008001001400044004000380240AE
:10363000640A0020000E0020808200089C8200089E
:103640008160FFF741BF00BF10B4044B44680448D9
:10365000196040F824205DF8044B7047880A002068
:10366000680A0020026813689B06FCD5024B50686C
:103670001A60C0F308007047C00D0020026813688C
:103680001B06FCD5024BC1F3080151601A6070475C
:10369000C00D0020084BDA6810B5084C22F0040277
:1036A00023600020DA600121FDF720FC2368DA683E
:1036B00042F00402DA6010BD000C00408C0A0020C9
:1036C00038B50023036043600A782F2A044601D0EE
:1036D000204638BD4A78002AFAD0481C20604A7833
:1036E0002F2A14D0B2B18D1C194600E052B12560CA
:1036F0002A782F2A2B4601F1010105F10105F5D1A8
:103700000133236001F0D0F86060204638BD1946CF
:103710000346F5E71146F5E70068704710B5044623
:10372000406828B101F0DEF8012801D1606810BDC1
:10373000002010BD406808B528B101F0D3F8D0F1E1
:10374000010038BF002008BD10B50446406830B104
:1037500001F0C8F818B9606808B1043810BD00203D
:1037600010BD00BF4068003018BF0120704700BF87
:1037700010B5064B8360002303604360044600F0ED
:1037800095FE034B20461C6010BD00BFA0860100C3
:10379000C80A002038B5054D2B688342044603D083
:1037A000816800F03BFD2C6038BD00BFC80A0020D6
:1037B0002DE9F04182B01C469DF820500F46164678
:1037C000804685F00105FFF7E5FF00954046394644
:1037D0003246234600F05AFD201A18BF012002B0DD
:1037E000BDE8F0812DE9F04182B01C469DF82050E3
:1037F0000F461646804685F00105FFF7CBFF009582
:10380000404639463246234600F0B8FD201A18BF1C
:10381000012002B0BDE8F08110B5044A044640F82A
:10382000142B00F097FC204610BD00BF1083000849
:1038300010B5054B044640F8143B00F08BFC2046C5
:1038400001F096F8204610BD10830008012908B544
:1038500003460AD0022907D1026D7AB1C06B10B1BC
:1038600003F14001904708BD08BD826B5AB1406A20
:103870000028F8D003F12801904708BDC36B002B46
:10388000F1D0984708BD436A002BFAD1EBE700BF9F
:1038900038B50E4B03600446002303718360C36098
:1038A000036103758361C36180F8203043628363E1
:1038B000C36303650D462346054A143000F0A0FBA0
:1038C000201D294600F0B0F9204638BD10830008BD
:1038D0004D38000839B10023C1630365022114305B
:1038E000012200F05BBC0A461430022100F056BCF5
:1038F00000F060B8A0F15400FFF7FABF00F05EB826
:10390000A0F15400FFF7FABF38B504461D4600F099
:1039100025F8294604F1540000F0B6F8054B03F1F0
:10392000080103F12002543321606265A36520463B
:1039300038BD00BF1883000801EB410108B5CB007A
:103940002033C1184A6922B1C05808B104319047E8
:1039500008BDC358002BFBD0984708BD38B50446B6
:103960000E4B0360251D00234FF416502065636045
:103970002846A360E36023616361A36123776377D3
:1039800023626363A363E364FFF7CAFD284622460C
:103990000349FFF759FE204638BD00BF18810008D3
:1039A0003939000838B504460D460430FFF748FEA3
:1039B000256538BD0430FFF755BE00BF10B5043093
:1039C0000C46FFF75BFE204610BD00BF002070478D
:1039D000F8B58E18B1420F4605460FD00C4601E0EF
:1039E000A64209D02B6814F8011B5B6A2846984749
:1039F0000130F5D1E01BF8BDF01BF8BD0020F8BD8B
:103A0000F8B58E18B1420F4605460FD00C4603E0BC
:103A100004F8010BA64207D02B6828469B6A9847FA
:103A2000431CF5D1E01BF8BDF01BF8BD0020F8BD2C
:103A3000002070470020704700207047002070472A
:103A400010B5074B03F108023C33044680E80C0034
:103A5000406902F0C5F9204600F046FF204610BD3F
:103A600078830008A0F10400FFF7EABF10B5044610
:103A7000FFF7E6FF204600F07BFF204610BD00BFA9
:103A8000A0F10400FFF7F2BF10B584B0044600F0C7
:103A90005BFF0B4B0B4903F1080000223C3384E829
:103AA0000900626101A8224602F0BEFE064901A893
:103AB00002F06AFB6061FCF74BFE204604B010BDCB
:103AC00078830008E87F0008C08300080EB430B592
:103AD00082B005AB044653F8045B4069019302F0E1
:103AE0002DFA29466069019A03F0D8FB02B0BDE8BF
:103AF000304003B0704700BF4368416910B50446C9
:103B0000194400F069F8E36A2BB1A06910B104F11F
:103B10001C01984710BDA369002BFBD0984710BD2E
:103B200010B5044600F05EF80023A361E36210BD07
:103B300038B504460D4600F055F86561206900F07F
:103B400087F941192046BDE8384000F045B800BF6C
:103B500008B5C36A014623B1806908B11C31984792
:103B600008BD8369002BFBD0984708BD08B50368E2
:103B70009B68984708BD00BF10B5044B036004461E
:103B8000211D006900F040F9204610BD00840008A6
:103B900010B5064B03600446211D006900F034F99E
:103BA000204600F0E5FE204610BD00BF008400085E
:103BB000074B10B50360002343608360C360044675
:103BC00000F04CF90349206100F0CCF8204610BD0C
:103BD000008400086D3B000803460A460069191D71
:103BE00000F0EEB8011D006900F00EB910B40C46EB
:103BF00013460146224602485DF8044B00F002B825
:103C0000108400080FB400B5064B83B004AA1B68EB
:103C100052F8041BD868019203F040FB012002F027
:103C200073F800BF0802002038B50D46044600F0C6
:103C300057F9013509D02046002100F06BF92046E4
:103C40000021BDE8384000F061B938BD38B50D46F7
:103C5000044600F045F9013511D094F900300133E4
:103C60000ED06268E368120420461A60012100F059
:103C700051F920460021BDE8384000F047B938BD71
:103C8000024803493422FFF7B1FFEAE7147F000836
:103C90002C7F0008431C10B5044619D091F9003060
:103CA000581C04D10FE011F90C3F5A1C0BD09C4258
:103CB000F9D12046896800F01DFD20460021BDE8AD
:103CC000104000F047BD0348BDE81040FFF79ABF21
:103CD00010BD00BF44840008884208B50AD0431CC8
:103CE00007D0013106D00448FFF78CFF4FF0FF30BA
:103CF00008BD084608BD00BF5884000808B5431C2D
:103D00000DD091F900305A1C04D109E011F90C3F93
:103D10005A1C05D09842F9D14868411C00D008BD12
:103D20000248FFF76FFF4FF0FF30F8E76C840008A0
:103D300008B5431C0DD091F900305A1C04D109E09C
:103D400011F90C3F5A1C05D09842F9D18868411CE2
:103D500000D008BD0248FFF755FF4FF0FF30F8E7ED
:103D60008C84000838B5036804461B680D469847E4
:103D700063681D6038BD00BF38B50368DB68044662
:103D8000984763685B6883B122681D6853689847E9
:103D9000281A002862680CDC506811688368536038
:103DA0000029F0D040688847EBE723689B68984774
:103DB00038BD236852681B691068984738BD00BF3A
:103DC00030B583B072B645680A606C684B608CB1E0
:103DD0002368D31A002B05DA0CE01D68551B002D53
:103DE00003DB1C46A368002BF7D1A1608B6062B691
:103DF00003B030BD036869601B69019110469847A4
:103E000023460199F2E700BF08B572B643685A68C5
:103E10008A4211D04AB193688B4208D02BB19A687C
:103E20008A4205D01346002BF9D162B608BD13466D
:103E30008A689A6062B608BD92685A60036822B1C7
:103E400010681B69984762B608BD9B689847ECE705
:103E500008B503685B68984708BD00BF0048704715
:103E6000C08400080148FFF787BF00BFC084000876
:103E700038B5054600F0A8FC044600F0A5FC001B80
:103E8000A842FAD338BD00BF07EE100ADFED047A6E
:103E900067EE277AFDEEE77A17EE900AFFF7E8BFA4
:103EA000002474494FF47A7303FB00F0FFF7E0BF7E
:103EB000431C10B5044608D02046002100F01AFC2F
:103EC00004F00F040120A04010BD0348034927223D
:103ED000FFF78CFEF0E700BF108800082488000878
:103EE00070B505464B1C0C4629700DD0C1F303106C
:103EF00000F08AFB06462046FFF7DAFF06F11003C2
:103F000018366860AB60EE6070BD00BF90F90000CD
:103F100000F020BC38B5054690F90000431C0C4663
:103F20000BD0012C04D00021BDE8384000F0E2BBEA
:103F30002146BDE8384000F0DDBB04480449462274
:103F4000FFF754FE95F90000EBE700BF147F00086F
:103F500024880008194B2DE9F0474FF04C080F4614
:103F600008FB003839B3DFF85890DFF858A0454611
:103F700000240126D8F8003006FA04F21A4215D0BF
:103F80006B6BD9F81420E96906FA03F313420DD0DC
:103F9000C9F814306A684AB109690B4210464FF0FB
:103FA0000101DAF8003008BF022198470134BC4211
:103FB00005F10405DED1BDE8F08700BFD40A00207A
:103FC000003C0140E80C002000200121FFF7C2BFA7
:103FD00001200146FFF7BEBF02200121FFF7BABF53
:103FE00003200121FFF7B6BF04200121FFF7B2BF74
:103FF00005200146FFF7AEBF06200146FFF7AABF26
:104000002DE9F04F85B09B464B1C0C4605460292AD
:1040100000F0888001F00F06731EC1F303100E2B11
:1040200047D8DFE803F04E57616B080808080875A9
:104030007575757575003C4A4FF400074FF0000A1E
:104040004FF005094FF01708019200F0DDFA072143
:104050000390204600F04EFB019A40461146FCF7C3
:1040600029F93249324A41F82A704C2101FB09F101
:10407000304F52F8262057F801C02F4B85F80080AA
:104080000120904007EB01084CEA000C0020C5F825
:1040900004902C73A86008EB820247F801C00299D3
:1040A0001960039BD361C2F804B0566305B0BDE844
:1040B000F08F4FF0000AD146204A40274FF0060803
:1040C000C2E71F4A80274FF0000A4FF001094FF066
:1040D0000708B9E71B4A4FF480774FF0000A4FF00A
:1040E00002094FF00808AFE7174A4FF400774FF086
:1040F000000A4FF003094FF00908A5E7134A4FF4EF
:1041000080674FF0000A4FF004094FF00A089BE760
:104110000F4A4FF480774FF0010A4FF006094FF035
:10412000280891E70846C1E7F13F000800E100E0F8
:104130008C880008D40A0020E80C0020C93F000841
:10414000D13F0008D93F0008E13F0008E93F0008DF
:10415000F93F0008F8B50546007B6B680D490E4E27
:1041600000F00F044C2202FB03F251F82430B15846
:10417000B41801279F4004EB830321EA07070024BA
:10418000B75040B221465C60DC615C6300F0B2FA7B
:10419000AC60F8BD8C880008D40A002072B10129F7
:1041A00020D0022919D1836823F00203012B2BD0E0
:1041B0008160072190F90C0000F09CBA01291BD006
:1041C00002290AD1836823F00203012B23D08260E5
:1041D0000C2190F90C0000F08DBA0C2190F90C0024
:1041E00000F088BA8368023B012B0DD9816006215B
:1041F00090F90C0000F07EBA8368023B012BE6D8F0
:10420000022383600721E9E703238360082190F9F3
:104210000C0000F06FBA83600621DFE7F8B5174B9A
:104220004A1E9A420F46064621D8154D34682C6026
:1042300048F2010301E0013B02D0A2699207FAD4DF
:104240000F4C6F6000234FF4804220466B61AB60DF
:10425000EB612B62EB60AB612A61FCF7D1FD736807
:1042600023B123681A6842F480621A60F8BD0548D9
:1042700005496722FFF7BAFCD7E700BF7F1A06009F
:104280001C0E0020CC880008E888000830B40468C0
:104290002B4804606FF480606061206820F44070F7
:1042A00040F48070206082B041F2010001E00138EA
:1042B00002D06569ED07FAD54FF4805001E001386E
:1042C00034D06569ED07FAD501F0FE0121614FF4A4
:1042D000805101E0013929D060698507FAD561690B
:1042E0000191A1690191002B01994FF000050FDDAB
:1042F000515D216141F2010104E06069400704D48D
:1043000001390FD060690006F7D501359D42EFD124
:10431000049B83B12368284643F40073236002B0F2
:1043200030BC7047236843F4007323604FF0FF30C4
:1043300002B030BC7047284602B030BC704700BFA6
:104340001C0E00200068036871B123F480630360D1
:10435000094A41F20103116801E0013B08D04A69B2
:104360005206FAD50069704743F480630360EFE7B3
:104370004FF0FF30704700BF1C0E00202DE9F043C6
:1043800007466FF480603C68294D606120682C60AE
:1043900020F4407040F4807083B0904699462060CD
:1043A00041F2010501E0013D02D06369D807FAD569
:1043B0004FF4805501E0013D34D06669F207FAD52B
:1043C00041F00101C9B221614FF4805101E001398E
:1043D00028D063699B07FAD563690193A3690193A8
:1043E00009F1FF35002D019B4FF0000408DD384630
:1043F0000021FFF7A7FF08F804000134AC42F6D112
:104400000A9B4BB938460121FFF79CFF08F80400CE
:10441000484603B0BDE8F0833B681A6842F4007276
:104420001A60EFE74FF0FF3003B0BDE8F08300BF44
:104430001C0E0020184B196848F2010301E0013BF3
:1044400002D08A699207FAD40368144A934219D0B9
:10445000134A93420CD0134A934208D1124B1A6A62
:1044600042F400021A621A6A22F400021A627047C9
:104470000D4B1A6A42F480021A621A6A22F4800210
:104480001A627047084B1A6A42F400121A621A6ADA
:1044900022F400121A6270471C0E002000540040E3
:1044A00000580040005C004000380240F0B504466F
:1044B00085B008460E4648491546FFF71FFC474998
:1044C00007462846FFF71AFC01463846FFF704FC6A
:1044D000431C206079D00346414A934236D0414A7A
:1044E000934211D0404A934203D1404B1A68002AAC
:1044F0004ED02046FFF79EFF20463D49FFF78EFE37
:104500000023636005B0F0BD3A4B1A68002AF0D171
:10451000394A01211960136C2F4943F48003136455
:10452000136C03F4800302933046029BFFF7B2FB47
:1045300028462A49FFF7AEFB3046032100F00AF96E
:104540002846032100F006F92368CBE72B4B1A68B5
:10455000002ACED1284A01211960136C1E4943F468
:1045600000131364136C03F4001301933046019B92
:10457000FFF790FB28461949FFF78CFB30460321D3
:1045800000F0E8F82846032100F0E4F82368A6E7E5
:10459000194A01211960136C0F4943F40003136495
:1045A000136C03F4000303933046039BFFF772FB85
:1045B00028460A49FFF76EFB3046032100F0CAF88F
:1045C0002846032100F0C6F893E70D480D493A222A
:1045D000FFF70CFB23687FE7C8840008C08600084B
:1045E0000054004000580040005C0040F00C0020E7
:1045F000A0860100F40C002000380240EC0C0020E2
:1046000050890008E888000800B587B0072859D805
:10461000DFE800F012202E3C4A5858042D4B2E485B
:104620001A6B42F080021A631B6B03F08003059340
:10463000059B07B05DF804FB264B28481A6B42F037
:1046400001021A631B6B03F001030093009B07B088
:104650005DF804FB1F4B22481A6B42F002021A63FA
:104660001B6B03F002030193019B07B05DF804FB91
:10467000184B1C481A6B42F004021A631B6B03F0C0
:1046800004030293029B07B05DF804FB114B16482C
:104690001A6B42F008021A631B6B03F008030393C2
:1046A000039B07B05DF804FB0A4B10481A6B42F0FD
:1046B00010021A631B6B03F010030493049B07B0F2
:1046C0005DF804FB0A48FFF79DFA002007B05DF88B
:1046D00004FB00BF00380240001C02400000024002
:1046E0000004024000080240000C0240001002409A
:1046F0009C89000830B5431C87B005460C461CD089
:10470000C5F30310FFF780FF05F00F0504F00F025B
:1047100001210D4B01FA05F553F8223001950322D2
:10472000C4F3021501A9C4F3C314029303950594BD
:104730000492FCF759FA07B030BD044804498122BD
:10474000FFF754FADCE700BF68890008108800080A
:10475000C089000838B5431C04460D4618D0C4F380
:104760000310FFF751FF04F00F04C268022D4FEA57
:1047700044044FF0030198BFA54001FA04F422EA73
:104780000404C460C26888BF00251543C56038BDF5
:1047900002480349A622FFF729FAE0E7108800083B
:1047A000C0890008054B186800B17047044A0549E4
:1047B000116001221A60FBF7C9BD00BF340D002053
:1047C000F80C0020000C004008B5044B1B680BB926
:1047D000FFF7E8FF024B586A08BD00BF340D002008
:1047E000000C0040034B1B685863DA6842F0020279
:1047F000DA607047F80C0020034B1B68DA6822F07F
:104800000202DA60704700BFF80C0020024B1B6800
:104810006FF002021A617047F80C00208368094AA1
:10482000026053B1084B1A68824201D106E01A4671
:1048300053688342FBD143685360704742681A60F3
:10484000704700BF308A0008380D002083680C4A8A
:1048500010B50446026053B10A4B1A68904201D168
:104860000AE01A4653689C42FBD1636853602046B5
:1048700000F07EF8204610BD42681A60F7E700BFDE
:10488000308A0008380D0020054B02730022816039
:104890000360426019B1034B1A68426018607047A8
:1048A000308A0008380D00200D4B70B51C68064694
:1048B0000D4614B912E0646884B1A36831462A46F3
:1048C0001846002BF7D002F057F80028F3D1A06863
:1048D00002F04AF8A842EED1204670BD002070BD1B
:1048E000380D0020007B704710B5074B044603F1DC
:1048F00008023433226040F8043FFFF78FFF204660
:10490000FBF7A0FD204610BD388A0008A0F1040086
:10491000FFF7EABF094B10B5044603F10802343330
:10492000226040F8043FFFF779FF2046FBF78AFD3D
:10493000204600F01DF8204610BD00BF388A000850
:10494000A0F10400FFF7E6BF10B5074B04460022B4
:1049500040F8043BFFF798FF044B03F1080234339F
:1049600084E80C00204610BDC07F0008388A00088B
:1049700008B101F093BD704703460846194601F09F
:10498000B1B9000000F05CB82DE9F047DFF8A8A04D
:104990008AB01F4680468946164600F05DF99AF9AE
:1049A0000030013304460D4604D03046394600F04D
:1049B0008FFC20B9204629460AB0BDE8F087404662
:1049C000494600F085FC0028F4D0304639460022E4
:1049D000002301F0D3F80028ECD016489AF80040E4
:1049E0000190012100220091CDE90289CDE90467FF
:1049F000089294B10020002102460B4600F080FF8F
:104A0000022CCDE906010AD101F078F921250560D3
:104A1000089B53B9DDE90645CCE7CDE90689684630
:104A200000F08AFC0028F3D1EEE701F067F9089C5A
:104A30000460EFE7788A0008A00100200000000071
:104A40002DE9F04784B0CDE900239DE88010C7F13F
:104A5000000900262CF0004849EA070948EAD979FC
:104A6000C7F6F076B145CDE9022304460D4602466D
:104A70000B4645D8C0F1000A21F000494AEA000A75
:104A800049EADA7AB2453BD80CF1404C0CF5801C6F
:104A90005CEA070CDDF804A052D04FEAAA7606F0D3
:104AA000020059EA020240EAD17636D058EA0707F6
:104AB00040D00021C7F6F071884552D00027C7F6D4
:104AC000F077B94536D0C8EB09084FEA2858B8F155
:104AD0003C0F42DCBAF1000F7DDBDDE9022320460A
:104AE000294600F00DFF00F0EFFB00F039FA012E2F
:104AF0006DD0022E5CD0002E4DD104460D4607E04D
:104B000020462946DDE9022300F01EFC04460D463E
:104B10002046294604B0BDE8F087032EC6D801A27E
:104B200052F826F0114B0008114B0008534B0008B7
:104B30004B4B0008002B2ADB35A5D5E90045E7E7FC
:104B400004B0BDE8F04700F00BBA33A5D5E9004545
:104B5000DEE733A5D5E90045DAE72DA1D1E900016B
:104B6000C5E7C1453ED0032EA8D801A252F826F0D1
:104B7000894B0008814B0008534B00084B4B000841
:104B800000244FF00045C3E700240025C0E726A518
:104B9000D5E90045BCE726A3D3E9002300F0D2FB0A
:104BA0001FA3D3E9002300F0CDFB04460D46AFE779
:104BB0001FA3D3E9002300F0C5FB02460B4618A152
:104BC000D1E9000100F0BEFB04460D46A0E7044613
:104BD00001F100459CE718F13C0FBFF67EAF0020C5
:104BE000002184E7032EA5D8DFE806F00E0A0602AE
:104BF00011A5D5E900458BE711A5D5E9004587E763
:104C000011A5D5E9004583E711A5D5E900457FE762
:104C1000182D4454FB21F93F182D4454FB2109C0A1
:104C2000182D4454FB210940182D4454FB21F9BF91
:104C3000075C143326A6A13CD221337F7CD902C065
:104C4000D221337F7CD90240182D4454FB21E9BF87
:104C5000182D4454FB21E93F23F0004C2DE9F04787
:104C60005CEA020516461F460446884623D001F03A
:104C700000454FF6FF7985EA0108C7F6EF79C84588
:104C800019DCC2F1000A4AEA020A4FF000094CEAB4
:104C9000DA7AC7F6F079CA450DD8E04513DC56DB61
:104CA000904254D30FD1AC4AED0F02EBC500D0E9CE
:104CB0000001BDE8F08700F0F9FC02460B4600F069
:104CC0001FFEBDE8F087B8F5801F42DAB8F1000F8B
:104CD00040F0EE804FF6ED31002C2046CFF6FF710C
:104CE0003BDD400001390028FBDC36E0CCEB030162
:104CF000A64288BF01F1FF310029A4BFC6EB04041E
:104D00000B4653EA040200F099804FF6FF71C0F29F
:104D10000F018B4240F39A804FF60241CFF6FF71AC
:104D2000884280F2F4804FF60242CFF6FF72121AE8
:104D3000142A00F3FC8000F21E4003FA00F124FA6A
:104D400002F40C4343FA02F343EA05012046BDE8AE
:104D5000F0874FEA2851A1F2FF31BCF5801F0FDA2E
:104D6000BCF1000F40F0C5804FF6ED30002E32460A
:104D7000CFF6FF7008DD52000138002AFBDC03E0AB
:104D80004FEA2C52A2F2FF304FF60243CFF6FF73E8
:104D900099427CDB28F07F4222F4700343F48013B5
:104DA0004FF60242CFF6FF7290425FDB27F07F4260
:104DB00022F4700C4CF4801C091ACA0710D5CCEBF5
:104DC0000302B44238BF013A002AC0F2AA80A41BF1
:104DD00052EA040332D0E30F03EB420364000139CB
:104DE000002983D0CCEB0302B44238BF013A002A39
:104DF00019DBA41B52EA040320D0E70F07EB4202A1
:104E000064004F1EB442CCEB020100D201390029EC
:104E10000EDBA41B51EA040210D0E30F03EB4103A5
:104E20006400791EDCE7E70F07EB43026400E8E764
:104E3000E10F01EB42036400791ED1E74648ED0F14
:104E400000EBC505D5E90001BDE8F087E20F02EBF4
:104E50004303640001388B423FF75EAFE20F02EB81
:104E60004303640001388B42F0DD55E74FF6024200
:104E7000CFF6FF72121A1F2A31DC00F21E4726FA03
:104E800007F70CFA02FC4CEA070C964094E74FF641
:104E90000242CFF6FF72521A1F2A17DC01F21E439C
:104EA00024FA03F308FA02F848EA0303944077E788
:104EB0004FEAC8234FF60241002BCFF6FF717FF770
:104EC0004CAF5B000139002BFBDC46E74FF6E233C9
:104ED000CFF6FF735A1A04FA02F3002460E74FF684
:104EE000E23CCFF6FF7CC0EB0C0206FA02FC002687
:104EF00062E74FEACC234FF60240002BCFF6FF705B
:104F00007FF742AF5B000138002BFBDC3CE7A3F5E9
:104F1000801300F2FF321D4345EA02512046BDE8EE
:104F2000F087E20F02EB43036400013958E71F2AC0
:104F300009DC00F21E4103FA01F324FA02F243EA0B
:104F400002042B4600E74FF6E234CFF6FF74201A36
:104F500043FA00F42B46F7E6808A000800000000C0
:104F60002DE9F84F4FF6FF7321F00046C4F20F43CE
:104F70009E4288468A4681461BDD0020C7F6F070B7
:104F800086424B4600F3BE8000F0B98042F2FB1827
:104F9000414642F61859CBF6F978C3F6F971C5F2D5
:104FA0004449BAF1000FC8BF884648464146BDE8AB
:104FB000F88F4FF6FF70C3F6DB70864200F3BC80BB
:104FC0004FF6FF71C3F61F618E4240F3A4804FF08D
:104FD000FF3B4A4643464846414600F067FB0246CF
:104FE0000B4606460F4600F061FBA1A3D3E9002360
:104FF00004460D4600F05AFB9FA3D3E9002300F0BE
:10500000A3F922462B4600F051FB9DA3D3E90023D0
:1050100000F09AF922462B4600F048FB9AA3D3E908
:10502000002300F091F922462B4600F03FFB98A3A5
:10503000D3E9002300F088F922462B4600F036FB26
:1050400095A3D3E9002300F07FF932463B4600F0F8
:105050002DFB93A3D3E9002306460F46204629469D
:1050600000F024FB90A3D3E9002300F06BF9224663
:105070002B4600F01BFB8EA3D3E9002300F062F95E
:1050800022462B4600F012FB8BA3D3E9002300F04D
:1050900059F922462B4600F009FB89A3D3E90023E6
:1050A00000F050F922462B4600F000FBBBF1FF3F19
:1050B00002460B466FD03046394600F045F943466C
:1050C0004A4600F0F3FA684C684A4FEACB0B5C445E
:1050D0009344DBE9002300F035F943464A4600F0EB
:1050E00031F902460B46D4E9000100F02BF9BAF180
:1050F000000F8146B4BF01F10048884655E7002BF8
:105100003FF444AF48464A464146434600F01CF946
:105110008146884649E752A3D3E9002348464146E1
:1051200000F012F900230022C3F6F07300F04EFDE8
:1051300000287FF43AAF4AE7484600F0C5F84FF63A
:10514000FF72C3F6F272964204460D4636DC4FF605
:10515000FF73C3F6E5739E4264DC02460B4600F023
:10516000F3F800230022C3F6F07300F0EBF80022FE
:1051700006460F464FF080432046294600F0E4F8EB
:1051800002460B463046394600F0BAFB4FF0000BA2
:10519000814688461DE73046394600F0D5F84A4634
:1051A000434600F083FA02460B464846414600F06B
:1051B000C9F84C46454681468846F6E647F6FF77ED
:1051C000C4F20307BE4220DC00230022C3F6F873BA
:1051D00000F0B8F8002306460F460022C3F6F87325
:1051E0002046294600F062FA00230022C3F6F0733D
:1051F00000F0AAF802460B463046394600F080FB24
:105200004FF0020B81468846E3E600210020CBF6F2
:10521000F07122462B4600F073FB4FF0030B8146E2
:105220008846D6E600230022C3F6F07300F08AF821
:10523000002306460F460022C3F6F0732046294697
:1052400000F082F802460B463046394600F058FB23
:105250004FF0010B81468846BBE600BFAFF30080EC
:105260009C7500883CE4377EB08A0008908A00086C
:1052700011DA22E33AAD903FEB0D76244B7BA93F48
:10528000513DD0A0660DB13F6E204CC5CD45B73F16
:10529000FF8300922449C23F0D5555555555D53FC2
:1052A0002F6C6A2C44B4A2BF9AFDDE522DDEAD3FB6
:1052B0006D9A74AFF2B0B33F711623FEC671BC3F56
:1052C000C4EB98999999C93F21F00041704700BFFC
:1052D0000B4661B1B1F1004F09D04FF6FF72A3F553
:1052E0008011C7F6DF72914205D80420704700286C
:1052F000F3D10220704703F1FF4101F5E001914233
:10530000F3D94FF6FF72C0F20F02934201D8032087
:10531000704703F100419142F9D90022C7F6F072BB
:10532000934204D013F5801F01D000207047D0F1C4
:10533000010038BF002070470020704781F0004115
:1053400002E000BF83F0004330B54FEA41044FEA6A
:10535000430594EA050F08BF90EA020F1FBF54EA05
:10536000000C55EA020C7FEA645C7FEA655C00F0A1
:10537000E2804FEA5454D4EB5555B8BF6D420CDD72
:105380002C4480EA020281EA030382EA000083EAF5
:10539000010180EA020281EA0303362D88BF30BD95
:1053A00011F0004F4FEA01314FF4801C4CEA1131EB
:1053B00002D0404261EB410113F0004F4FEA03334A
:1053C0004CEA133302D0524263EB430394EA050FD5
:1053D00000F0A780A4F10104D5F1200E0DDB02FA44
:1053E0000EFC22FA05F2801841F1000103FA0EF2D8
:1053F000801843FA05F359410EE0A5F120050EF19E
:10540000200E012A03FA0EFC28BF4CF0020C43FACE
:1054100005F3C01851EBE37101F0004507D54FF0DB
:10542000000EDCF1000C7EEB00006EEB0101B1F52B
:10543000801F1BD3B1F5001F0CD349085FEA300071
:105440004FEA3C0C04F101044FEA445212F5800F7C
:1054500080F09A80BCF1004F08BF5FEA500C50F119
:10546000000041EB045141EA050130BD5FEA4C0CFC
:10547000404141EB010111F4801FA4F10104E9D185
:1054800091F0000F04BF01460020B1FA81F308BF7C
:105490002033A3F10B03B3F120020CDA0C3208DD48
:1054A00002F1140CC2F10C0201FA0CF021FA02F123
:1054B0000CE002F11402D8BFC2F1200C01FA02F193
:1054C00020FA0CFCDCBF41EA0C019040E41AA2BFB8
:1054D00001EB0451294330BD6FEA04041F3C1CDA80
:1054E0000C340EDC04F11404C4F1200220FA04F0A0
:1054F00001FA02F340EA030021FA04F345EA03014A
:1055000030BDC4F10C04C4F1200220FA02F001FA0B
:1055100004F340EA0300294630BD21FA04F029468D
:1055200030BD94F0000F83F4801306BF81F4801126
:105530000134013D4EE77FEA645C18BF7FEA655C99
:1055400029D094EA050F08BF90EA020F05D054EA6B
:10555000000C04BF1946104630BD91EA030F1EBF70
:105560000021002030BD5FEA545C05D14000494174
:1055700028BF41F0004130BD14F580043CBF01F567
:10558000801130BD01F0004545F0FE4141F470014D
:105590004FF0000030BD7FEA645C1ABF1946104628
:1055A0007FEA655C1CBF0B46024650EA013406BF29
:1055B00052EA033591EA030F41F4002130BD00BFE8
:1055C00090F0000F04BF0021704730B54FF48064A5
:1055D00004F132044FF000054FF0000150E700BF26
:1055E00090F0000F04BF0021704730B54FF4806485
:1055F00004F1320410F0004548BF40424FF0000172
:105600003EE700BF42004FEAE2014FEA31014FEAB4
:1056100002701FBF12F07F4393F07F4F81F0605103
:10562000704792F0000F14BF93F07F4F704730B572
:105630004FF4607401F0004521F0004120E700BF05
:1056400050EA010208BF704730B54FF000050AE08C
:1056500050EA010208BF704730B511F0004502D58D
:10566000404261EB41014FF4806404F132045FEA8F
:10567000915C3FF4DCAE4FF003025FEADC0C18BF34
:1056800003325FEADC0C18BF033202EBDC02C2F12A
:10569000200300FA03FC20FA02F001FA03FE40EABC
:1056A0000E0021FA02F11444C1E600BF70B54FF0BC
:1056B000FF0C4CF4E06C1CEA11541DBF1CEA13559E
:1056C00094EA0C0F95EA0C0F00F0DEF82C4481EA06
:1056D000030621EA4C5123EA4C5350EA013518BF26
:1056E00052EA033541F4801143F4801338D0A0FB13
:1056F00002CE4FF00005E1FB02E506F00042E0FBC0
:1057000003E54FF00006E1FB03569CF0000F18BFC5
:105710004EF0010EA4F1FF04B6F5007F64F540746D
:1057200004D25FEA4E0E6D4146EB060642EAC62100
:1057300041EA55514FEAC52040EA5E504FEACE2E6D
:10574000B4F1FD0C88BFBCF5E06F1ED8BEF1004F70
:1057500008BF5FEA500E50F1000041EB045170BDEC
:1057600006F0004646EA010140EA020081EA030130
:10577000B4EB5C04C2BFD4EB0C0541EA045170BD2C
:1057800041F480114FF0000E013C00F3AB8014F1A6
:10579000360FDEBF002001F0004170BDC4F10004EF
:1057A000203C35DA0C341BDC04F11404C4F1200570
:1057B00000FA05F320FA04F001FA05F240EA0200CB
:1057C00001F0004221F0004110EBD37021FA04F601
:1057D00042EB06015EEA430E08BF20EAD37070BDBB
:1057E000C4F10C04C4F1200500FA04F320FA05F01A
:1057F00001FA04F240EA020001F0004110EBD3701C
:1058000041F100015EEA430E08BF20EAD37070BD8B
:10581000C4F1200500FA05F24EEA020E20FA04F364
:1058200001FA05F243EA020321FA04F001F0004113
:1058300021FA04F220EA020000EBD3705EEA430E84
:1058400008BF20EAD37070BD94F0000F0FD101F0B3
:105850000046400041EB010111F4801F08BF013CEC
:10586000F7D041EA060195F0000F18BF704703F02A
:105870000046520043EB030313F4801F08BF013DB1
:10588000F7D043EA0603704794EA0C0F0CEA13556D
:1058900018BF95EA0C0F0CD050EA410618BF52EA27
:1058A0004306D1D181EA030101F000414FF000002D
:1058B00070BD50EA410606BF1046194652EA43063B
:1058C00019D094EA0C0F02D150EA013613D195EAAF
:1058D0000C0F05D152EA03361CBF104619460AD1F7
:1058E00081EA030101F0004141F0FE4141F4700101
:1058F0004FF0000070BD41F0FE4141F4780170BDF1
:1059000070B54FF0FF0C4CF4E06C1CEA11541DBF55
:105910001CEA135594EA0C0F95EA0C0F00F0A7F857
:10592000A4EB050481EA030E52EA03354FEA013184
:1059300000F088804FEA03334FF0805545EA131397
:1059400043EA12634FEA022245EA111545EA10655F
:105950004FEA00260EF000419D4208BF964244F1F6
:10596000FD0404F5407402D25B084FEA3202B61A15
:1059700065EB03055B084FEA32024FF480104FF4E9
:10598000002CB6EB020E75EB030E22BFB61A75465D
:1059900040EA0C005B084FEA3202B6EB020E75EBF0
:1059A000030E22BFB61A754640EA5C005B084FEA58
:1059B0003202B6EB020E75EB030E22BFB61A754625
:1059C00040EA9C005B084FEA3202B6EB020E75EB30
:1059D000030E22BFB61A754640EADC0055EA060EF1
:1059E00018D04FEA051545EA16754FEA06164FEA34
:1059F000C30343EA52734FEAC2025FEA1C1CC0D1E0
:105A000011F4801F0BD141EA00014FF000004FF06C
:105A1000004CB6E711F4801F04BF01430020B4F12D
:105A2000FD0C88BFBCF5E06F3FF6AFAEB5EB030CE5
:105A300004BFB6EB020C5FEA500C50F1000041EBE2
:105A4000045170BD0EF0004E4EEA113114EB5C04AF
:105A5000C2BFD4EB0C0541EA045170BD41F4801182
:105A60004FF0000E013C90E645EA060E8DE60CEA8A
:105A7000135594EA0C0F08BF95EA0C0F3FF43BAFA7
:105A800094EA0C0F0AD150EA01347FF434AF95EA5E
:105A90000C0F7FF425AF104619462CE795EA0C0F42
:105AA00006D152EA03353FF4FDAE1046194622E70F
:105AB00050EA410618BF52EA43067FF4C5AE50EAE9
:105AC00041047FF40DAF52EA43057FF4EBAE12E7D9
:105AD0004FF0FF3C06E000BF4FF0010C02E000BFBA
