:020000040800F2
:1000000000800120C505000819060008190600082F
:10001000190600081906000819060008000000006B
:1000200000000000000000000000000019060008A9
:10003000190600080000000019060008190600084B
:100040001906000819060008190600081906000814
:100050001906000819060008190600081906000804
:1000600019060008190600081906000819060008F4
:1000700019060008190600081906000819060008E4
:1000800019060008190600081906000800000000FB
:100090000000000000000000000000001906000839
:1000A00019060008190600081906000819060008B4
:1000B00019060008190600081906000819060008A4
:1000C0001906000819060008190600081906000894
:1000D00019060008190600081906000800000000AB
:1000E000190600081906000819060008000000009B
:1000F00000000000000000000000000019060008D9
:10010000000000001906000819060008190600087A
:1001100000000000000000000000000000000000DF
:100120001906000819060008190600081906000833
:100130001906000800000000000000000000000098
:100140000000000000000000000000001906000888
:100150001906000819060008190600081906000803
:100160001906000819060008000000000000000041
:10017000000000000000000000000000000000007F
:100180000000000019060008000000000000000048
:100190001906000810B5054C237833B9044810B18E
:1001A0000448AFF300800121217010BD1C02002023
:1001B000000000004457000808B5064B1BB1064874
:1001C0000649AFF300800648016811B1054A02B143
:1001D000904708BD0000000044570008200200209E
:1001E0001802002000000000154B002B08BF134B25
:1001F0009D46A3F5803A00218B460F461348144ACA
:10020000121A04F060F80F4B002B00D098470E4BE9
:10021000002B00D098470020002104460D46002006
:100220000C490022002303F093FD03F0B5FF2046A4
:10023000294600F097F903F0A7FD00BF0000080071
:100240000080012000000000000000001C020020CF
:10025000C0080020A140000800B585B072B6052195
:10026000684602F027FD10E0039B019A1A60962071
:1002700002F04CFE9DF90030013310D0019A039B2F
:1002800012041A60962002F041FE9DF900300133FD
:10029000EAD106480649342202F0DCFCE4E70348D0
:1002A0000349342202F0D6FCE8E700BF344E0008D0
:1002B0004C4E00080F4A30B493689468B4F1006F54
:1002C0001A4604D0103030BC42F8201070470A4A59
:1002D00003F5CA7553F8044B42F8044FAB42F9D109
:1002E0004FF00052034B10309A6030BC42F820109F
:1002F000704700BF00ED00E0FCFFFF1F70B5114C20
:100300002368DA68910715D4DA68520709D56FF0C7
:1003100004020D4E1A615D6A3368EB1AB3F57A7FF9
:1003200000D270BD00F096F92368356005F57A7546
:100330009D6370BD6FF002021A6102F0C7FD236871
:10034000E2E700BFE007002038020020244B30B570
:100350001A6C244C42F008021A641A6C83B002F042
:1003600008020192019A1A6A42F008021A621A6A95
:1003700022F008021A6201F0F1FA1B4A1B4B1268C4
:100380001B492160A3FB0212920C0025013A4FF099
:10039000FF3320466260E3602561A560656101F07E
:1003A000EDF832201349FFF785FF134B4FF48022FD
:1003B0005A602946204601F04FF82046042101F0FA
:1003C0004BF823680D495A6A0A6002F57A729A63FB
:1003D000DA68284642F00402DA6003B030BD00BF9C
:1003E00000380240E00700209C01002083DE1B4310
:1003F000000C0040FD02000800E100E0380200208F
:1004000008B501F0ABFABDE8084000F009B900BF3B
:1004100002480221032202F079BA00BFA00800209E
:10042000022808B50BDDC21E074B53F8220000213D
:1004300043F8221028B103685B68984708BD002084
:1004400008BD4FF0FF3008BD3C020020022870B507
:100450000C4616460FDC0E4B1B680BB9FFF7D8FF96
:10046000A51936B114F8011B0A4802F0EBFAAC42A8
:10047000F8D1304670BD0338074B53F8200018B14F
:1004800003681B68984770BD4FF0FF3070BD00BF18
:100490003C050020A00800203C020020022810B5E6
:1004A0000C4609DC0D4B1B688BB10D4802F0BEFAFF
:1004B00001232070184610BD03380A4B53F8200062
:1004C00040B103689B6898470346184610BDFFF784
:1004D0009FFFEAE74FF0FF33ECE700BF3C05002049
:1004E000A00800203C020020022808B508DD0338DF
:1004F000064B53F8200028B10368DB68984708BD15
:10050000012008BD4FF0FF3008BD00BF3C020020B5
:10051000022808B508DD0338064B53F8200028B13F
:1005200003681B69984708BD002008BD4FF0FF30E5
:1005300008BD00BF3C020020022808B504D84FF4D3
:1005400000534B60002008BD03F018FC0923036032
:100550004FF0FF3008BD00BF08B5012003F014FCC8
:10056000704700BF08B5FFF74BFFFFF7F9FFBDE885
:10057000084001F091BC00BF074A13681844EFF32C
:100580000881884202D2106018467047034B0C2243
:100590001A604FF0FF30704798010020BC0800201F
:1005A000074C08B523680546986803F0A9FC236842
:1005B000D86803F0A5FC05B9FEE7FFF74DFEFBE7A1
:1005C00004020020DFF838D0002100F004B80D4B01
:1005D0005B58435004310C480C4B42189A42FFF4CC
:1005E000F6AF0B4A00F003B8002342F8043B094B76
:1005F0009A42FFF4F9AF01F08FFAFFF7F5FD70476B
:100600000080012050570008940100201C020020A7
:100610001C020020C0080020FFF7FEBF704700BF8B
:1006200008B50B4B1A6842F400721A601A6842F45B
:1006300080621A601A6842F480721A60032000F027
:10064000F7F90F20FFF782FEFFF7E8FF002008BD53
:10065000003C0240024B1A6801321A60704700BF2A
:100660003C030020014B1868704700BF3C0300208A
:10067000704700BFF8B50446002800F0998090F854
:100680003D3003F0FF02002B00F08480494A4A48C5
:10069000022384F83D305168236821F440315160D1
:1006A00055686168294351605E682769A568E168FB
:1006B000E26A26F480765E605E6846EA07265E603F
:1006C0005E6826F040765E605E6835435D609D68DA
:1006D00025F400659D609D68824245EA01019960AC
:1006E0005DD09868216B20F0706098609868024334
:1006F0009A609A6822F040529A609A680A439A6017
:100700009968A069626A21F002019960996841EADA
:100710004001996042BB5A6822F400625A60DD6A67
:10072000E169226A606925F47005DD62DD6A013ADB
:1007300045EA0252DA629A6822F400729A609A6874
:1007400042EA41229A609A6822F480629A6099682B
:10075000002241EA8020012198602264104684F83A
:100760003C2084F83D10F8BD5A6842F400625A609B
:100770005A6822F460425A6059684FF4604090FA17
:10078000A0F0B0FA80F0A26AC0B2013A82400A43F7
:100790005A60C4E780F83C20FFF76AFF76E79A6862
:1007A00022F070629A609A6822F040529A60A7E73D
:1007B0000120F8BD002301400100000F30B490F883
:1007C0003C3082B00022012B01923DD090F83D30A8
:1007D0000122222B0CBF3223122380F83C20026816
:1007E00080F83D309368DB0714D41E491E4B0C681B
:1007F0009168A3FB04539B0C03EB430341F00101FD
:1008000091600193019B2BB1019B013B0193019BE3
:10081000002BF9D1154B5B68002113F01F0380F802
:100820003C1006D0124B9A4216D0084602B030BC9B
:100830007047916811F040500AD1936843F08043AB
:10084000936002B030BC7047022002B030BC7047E9
:10085000184602B030BC7047906810F04050ECD0A1
:10086000E3E700BF9C01002083DE1B43002301401F
:100870000020014003689A6870B5560505460C468D
:1008800002D59B68D80520D4FFF7ECFE06462A68FF
:1008900001E0611C0CD113689B07FAD595F83D3037
:1008A000252B0CBF3523152385F83D30002070BD66
:1008B00024B1FFF7D7FE801B8442E8D20320002337
:1008C00085F83D0085F83C3070BD0422002385F892
:1008D0003D2085F83C30012070BD00BF0368D86C16
:1008E000704700BFF0B490F83C3082B00022012B7A
:1008F000019259D00A680123092A144680F83C3035
:100900002BD803688F681E69496802EB42054FF0D7
:10091000070C0CFA05FC26EA0C061E611E6907FA94
:1009200005F5354306291D612DD801EB81015E6B6C
:1009300005391F258D4026EA05055D635D6B04FAC8
:1009400001F12943596337498B423ED0002380F897
:100950003C30184602B0F0BC704703688F68DE6810
:10096000496894B204EB44051E3D4FF0070C0CFAA5
:1009700005FC26EA0C06DE60DE6807FA05F535435D
:100980000629DD60D1D90C2901EB810110D81E6B3D
:1009900023391F258D4026EA05051D631D6B04FACA
:1009A00001F129431963CEE7022002B0F0BC704781
:1009B000DE6A41391F258D4026EA0505DD62DD6AC4
:1009C00004FA01F12943D962BDE7122A23D0A2F12A
:1009D0001003012BBAD8144B5968102A41F40001B6
:1009E0005960B3D1114A03F1467303F52E331268EF
:1009F00003F28333A3FB02139B0C03EB83035B0023
:100A00000193019B002BA1D0019B013B0193019B12
:100A1000002BF9D19AE7044B5A6842F480025A60DD
:100A200094E700BF00200140002301409C0100200A
:100A3000074AD1684FF6FF030B4043F0BF6300F055
:100A4000070043F4003343EA0023D360704700BF3C
:100A500000ED00E02DE9F00FD1F800C07C4E82B02F
:100A6000002303E00133102B00F09C80012404FAE2
:100A700003F202EA0C049442F4D14A6822F010090D
:100A8000B9F1020F00F092805D004FF00308D0F83A
:100A900000B008FA05F86FEA080802F0030A08EA4D
:100AA0000B0B0AFA05FA09F1FF394BEA0A0AB9F108
:100AB000010FC0F800A040F2A280D0F80C908F681F
:100AC00008EA090807FA05F548EA0505C560D500F2
:100AD000C8D5604F7D6C45F480457D64D7F844806F
:100AE00023F0030508F48048CDF8048005F1804523
:100AF00003F003080F2705F59C354FEA880807FA2D
:100B000008FA554FDDF80490D5F80890B84229EA64
:100B10000A0900F08C8007F58067B84200F08A80EF
:100B20004E4FB84200F08A804D4FB84200F08B80A3
:100B30004C4FB8420CBF4FF0040A4FF0050A0AFAB6
:100B400008F848EA0908C5F80880D6F80080E543A7
:100B5000D7034CBF44EA080805EA0808C6F8008035
:100B6000D6F8048097034CBF44EA080805EA080851
:100B7000C6F80480D6F80880D7024CBF44EA0808BB
:100B800005EA0808C6F80880D6F80C80920203F13E
:100B9000010354BF05EA080444EA0804102BF4607A
:100BA0007FF464AF02B0BDE8F00F70474FEAD3089E
:100BB00000EB880803F00709D8F820704FEA89098C
:100BC0000F2505FA09FB27EA0B0A0F6907FA09F94D
:100BD0004AEA0905C8F820505D004FF00308D0F834
:100BE00000A008FA05F86FEA080802F0030908EA0D
:100BF0000A0A09FA05F94AEA0909C0F80090D0F88A
:100C00000890CF6808EA090907FA05FA49EA0A09CB
:100C1000C0F80890D0F804A0C2F300192AEA040A28
:100C200009FA03F94AEA0909C0F8049045E74FF0C8
:100C3000000886E7012707FA08F882E74FF0020A62
:100C40000AFA08F87DE74FF0030A0AFA08F878E78D
:100C5000003C014000380240000002400008024011
:100C6000000C024000100240064B1A69012922F0D4
:100C700004021A6103D040BF20BF20BF704730BFBD
:100C8000704700BF00ED00E0F0B50368DE0783B0F9
:100C9000044637D5A54A916801F00C01042900F0FB
:100CA000F380916801F00C01082900F0E980A04B65
:100CB0009E4D00221A70FFF7D5FC41F28836074698
:100CC00005E0FFF7CFFCC01BB04200F2C8802B68E4
:100CD0009903F6D4964B22791A706368002B00F0C2
:100CE0001181FFF7BFFC914D074641F2883605E0C0
:100CF000FFF7B8FCC01BB04200F2B1802B689A032A
:100D0000F6D523689F072FD5884A916811F00C0FFC
:100D100000F0AC80916801F00C01082900F0A2807D
:100D2000E368002B00F0DD80824B804D01221A60C9
:100D3000FFF798FC064605E0FFF794FC801B64284B
:100D400000F28D802B68794A9807F5D51168F82054
:100D500090FAA0F0B0FA80F02369C0B221F0F80157
:100D600083400B43136023681A0720D4580734D4F8
:100D7000A369CBB16D4DAA6802F00C02082A7CD0A1
:100D8000022B6D4B4FF000021A6000F0CB80FFF792
:100D900069FC2C46054604E0FFF764FC401B642810
:100DA0005DD823689B01F7D4002003B0F0BD6369D0
:100DB000002B73D0614B5D4D01221A60FFF752FC8E
:100DC000064604E0FFF74EFC801B642847D86B6F93
:100DD0009B07F7D523685807CAD5544B584D1A6C52
:100DE00042F080521A641B6C03F080530193019B04
:100DF0002B6843F480732B60FFF734FC064604E055
:100E0000FFF730FC801B642829D82B68D905F7D55B
:100E10004C4B464D00221A70FFF724FC41F28836F5
:100E2000074604E0FFF71EFCC01BB04217D82B6F2B
:100E30009A07F7D4434B227A1A70A368002B00F06C
:100E4000C780FFF70FFC394D074641F288362B6FFC
:100E50009B078DD4FFF706FCC01BB042F7D90320D7
:100E600003B0F0BD526856023FF55AAF2F4A1268E0
:100E7000950723D5E268012A20D0012003B0F0BDF8
:100E8000526855027FF513AF284A126890037FF528
:100E900039AF6268002A7FF435AFEEE7274A234D69
:100EA0001360FFF7DFFB064604E0FFF7DBFB801B68
:100EB0006428D4D86B6F9F07F7D48BE71B4AF825BB
:100EC000106895FAA5F5B5FA85F522691749EDB2CE
:100ED00020F0F800AA4002430A601A077FF546AFE7
:100EE00065E7144A114D1360FFF7BCFB064604E0AA
:100EF000FFF7B8FB801B6428B1D82B689907F7D49B
:100F0000236831E7FFF7AEFB084D074641F288360C
:100F100004E0FFF7A7FBC01BB042A0D82B689B03DF
:100F2000F7D4EEE6FFF79EFB064612E000380240DB
:100F3000023802400000474260004742800E4742AC
:100F40000070004070380240FFF78CFB801B642863
:100F500085D82B689901F7D447F6C07595FAA5F5A1
:100F6000B5FA85F54FF4403191FAA1F1B1FA81F16A
:100F70004FF0706292FAA2F2B2FA82F2A66AD4F844
:100F800024C0D4F820E0E769E06A194B194CEDB2AF
:100F900076080CFA05F54EEA0707C9B2013E3D4353
:100FA000D2B206FA01F100FA02F2294311430122FA
:100FB00061601A60FFF756FB054605E0FFF752FB3C
:100FC000401B64283FF64BAF23689A01F6D5EBE649
:100FD000FFF748FB074D074641F288362B6F98070D
:100FE0007FF5C6AEFFF73EFBC01BB042F6D936E731
:100FF00060004742003802407C4B1A6802F00F0242
:101000008A422DE9F0410C46054609D2CAB21A704F
:101010001B6803F00F038B4258D00120BDE8F0811C
:1010200003689A0706D5724A8168906820F0F0003C
:1010300001439160DF0727D56B68012B79D09A1E99
:10104000012A6B4A126840F287809107E5D5684F04
:10105000BA6822F003021343BB60FFF703FB6B681F
:10106000012B06467CD0022B00F08880032B65D034
:1010700041F2883804E0FFF7F5FA801B404565D857
:10108000BB6813F00C0FF6D1584BE2B21A701B6814
:1010900003F00F03A342C0D12B685A0706D5544A68
:1010A000E968906820F4E050014391601B0707D580
:1010B0004F4B29699A6822F4604242EAC1029A6061
:1010C0000F20FFF743F90020BDE8F08103689F0778
:1010D00006D5474A8168906820F0F000014391608E
:1010E000DE07DAD56B68012B56D09A1E012A404ADA
:1010F00012682ED9910790D53D4EB26822F00302B6
:101100001343B360FFF7AEFA6B68012B044648D077
:10111000022B54D0032B60D041F2883704E0FFF754
:10112000A1FA001BB84211D8B36813F00C0FF6D126
:10113000B2E72F4A1268960389D46EE741F28834E9
:10114000BB68FFF78FFA801BA042F9D90320BDE8E6
:10115000F0819001D0D460E790013FF578AF5CE773
:1011600041F2883804E0FFF77DFA801B4045EDD856
:10117000BB6803F00C03042BF5D185E741F28838F6
:1011800004E0FFF76FFA801B4045DFD8BB6803F02F
:101190000C03082BF5D177E7154A12689403ABD4FA
:1011A0003BE741F2883704E0FFF75CFA001BB842E6
:1011B000CCD8B36803F00C03042BF5D16CE741F2F3
:1011C000883704E0FFF74EFA001BB842BED8B36878
:1011D00003F00C03082BF5D15EE741F28835B368C4
:1011E000FFF740FA001BA842F9D9AFE7003C0240E4
:1011F000003802401E4B9A6802F00C02042A10B418
:1012000032D0082A03D01B485DF8044B7047586859
:101210005A685C6812F4800F00F03F0147F6C07214
:1012200092FAA2F2B2FA82F247F6C07314BF1248E1
:101230001048D2B22340D3400D4AB0FBF1F000FB7E
:1012400003F052684FF4403393FAA3F3B3FA83F3F5
:1012500002F44032DBB222FA03F301335B00B0FB4D
:10126000F3F05DF8044B704703485DF8044B70479A
:10127000003802400024F40000127A0008B5FFF79D
:10128000B9FF094BF0229B6892FAA2F2B2FA82F2FD
:1012900003F0F003D2B223FA02F20449044B8A5C51
:1012A000D040186008BD00BF00380240BC4E0008A6
:1012B0009C01002008B5FFF7E1FF084A4FF4E05316
:1012C000926893FAA3F3B3FA83F302F4E052DBB229
:1012D00022FA03F3024AD35CD84008BD003802402A
:1012E000BC4E000808B5FFF7C9FF084A4FF4604339
:1012F000926893FAA3F3B3FA83F302F46042DBB289
:1013000022FA03F3024AD35CD84008BD00380240F9
:10131000BC4E00080E4B0F22026010B49C680D4AB0
:1013200004F0030444609C6804F0F00484609C684A
:1013300004F4E054C4609B685DF8044B03F460431C
:10134000DB080361136803F00F030B60704700BFF5
:1013500000380240003C0240036A23F00103F0B46D
:101360008F680E680362036A104D4268846923F037
:10137000020324F07304A84243EA070344EA060484
:1013800006D04968426084614163F0BC03627047E3
:10139000CF688E694D6923F0080322F440723B4305
:1013A000354323F004032A43EBE700BF000001406C
:1013B000036A23F48073F0B48F680E680362036AD3
:1013C000114D4268C46923F4007324F07304A842E9
:1013D00043EA072344EA060406D049684260C46130
:1013E000C163F0BC03627047CF684E698D6923F416
:1013F000006322F4405243EA072342EA061223F430
:10140000806342EA0512E8E700000140036A23F422
:101410008053F0B48F680E680362026A0C4D436813
:10142000C46922F4005224F4E644A84242EA073296
:1014300044EA062406D049684360C4610164F0BCF4
:10144000026270474D6923F4804343EA8513F2E753
:1014500000000140704700BF03680E4A186A10B4CC
:10146000012404FA01F120EA01001862186A93428B
:1014700041EA0001196207D01A685DF8044B42F096
:10148000010200201A6070475A6C42F400425A640C
:10149000F2E700BF00000140704700BF03680E4A3A
:1014A000186A10B4012404FA01F120EA010018625C
:1014B000186A934241EA0001196207D01A685DF880
:1014C000044B42F0010200201A6070475A6C42F44B
:1014D00000425A64F2E700BF00000140264A036858
:1014E000904230B434D0B0F1804F20D0A2F57C428D
:1014F00090421CD002F58062904218D002F58062C2
:10150000904214D002F59A32904214D002F58062D3
:10151000904210D002F5806290420CD08C680A682C
:1015200003600123C462826230BC436170474A6831
:1015300023F070031343CD688C680A6823F440736A
:101540002B4303600123C462826230BC4361704755
:101550004C68CA6823F070031C4324F4407422438F
:1015600002608B68C3620B6883620B6903630123AB
:10157000436130BC704700BF0000014010B5044615
:10158000B0B190F8393003F0FF0263B12146022375
:1015900051F8040B84F83930FFF7A0FF012384F8D9
:1015A0003930002010BD80F83820FFF753FFEDE7F9
:1015B000012010BD10B50446B0B190F8393003F0E9
:1015C000FF0263B12146022351F8040B84F839303D
:1015D000FFF784FF012384F83930002010BD80F824
:1015E0003820FFF759FFEDE7012010BD036A23F013
:1015F0001003F0B48F680E680362036A114D4268ED
:10160000846923F0200324F4E644A84243EA071344
:1016100044EA062406D04968426084618163F0BCD4
:1016200003627047CF684E698D6923F0800322F40E
:10163000406243EA071342EA860223F0400342EA8B
:101640008502E8E70000014038B590F83830012BFA
:1016500004460D4628D00121022380F8381080F876
:1016600039300C2A19D8DFE802F007181818341896
:10167000181847181818210029460068FFF76CFE53
:1016800023682A69996941F008019961996921F0F3
:101690000401996199690A439A610123002084F841
:1016A000393084F8380038BD022038BD294600683A
:1016B000FFF7ACFE23682969DA6942F40062DA6157
:1016C000DA6922F48062DA61DA6942EA0122DA61D7
:1016D000E3E729460068FFF789FF236829699A69CB
:1016E00042F400629A619A6922F480629A619A696E
:1016F00042EA01229A61D0E729460068FFF758FEC6
:1017000023682A69D96941F00801D961D96921F0B2
:101710000401D961D9690A43DA61BEE7036804208C
:101720001A6A00FA01F122EA01021A621A6A1143E6
:1017300019625A6C42F400425A641A6842F001027B
:101740001A600020704700BF2DE9F0410568C168AC
:101750002B69C269D0F810E08768466923F44053CA
:101760001943044680692961EB684EEA070123F4B6
:101770001643314323F00C0311430B43EB606B69B9
:1017800023F440730343B2F5004F6B61594B3CD0D7
:101790009D4200F08C8003F580639D4200F08780BD
:1017A000FFF788FD6368544E00EB80009B0000EB60
:1017B0008000B0FBF3F7FFF77DFD636800EB80006E
:1017C0009B0000EB8000B0FBF3F8FFF773FD63684C
:1017D00000EB800000EB80009B00B0FBF3F3A6FB66
:1017E0000727A6FB03237F095B0964203F0100FB59
:1017F00013884FEA081808F13208A6FB0836C6F32A
:1018000043163743AF60BDE8F0819D422DD003F50C
:1018100080639D4229D0FFF74DFD6368364E00EB93
:1018200080005B0000EB8000B0FBF3F7FFF742FDA8
:10183000636800EB80005B0000EB8000B0FBF3F816
:10184000FFF738FDA6FB072763687F0900EB8000E0
:101850003F0100EB80005B00B0FBF3F3A6FB03232A
:101860005B09642202FB1388C3E7FFF73BFD636853
:10187000214E00EB80005B0000EB8000B0FBF3F733
:10188000FFF730FD636800EB80005B0000EB800039
:10189000B0FBF3F8FFF726FDA6FB072763687F0977
:1018A00000EB80003F0100EB80005B00D4E7FFF716
:1018B00019FD6368104E00EB80009B0000EB800078
:1018C000B0FBF3F7FFF70EFD636800EB80009B00B1
:1018D00000EB8000B0FBF3F8FFF704FDA6FB072741
:1018E00063687F0900EB80003F0100EB80009B00F4
:1018F000B2E700BF001001401F85EB51704700BFE9
:1019000010B5044640B390F8393003F0FF02F3B14C
:101910002368022284F83920DA6822F40052DA605F
:101920002046FFF711FF23681A6922F490421A61DA
:101930005A6922F02A025A61D868002240F4005005
:101940000121D860E263104684F8391010BD80F898
:101950003820FFF7D3FFDBE7012010BD164B9A6854
:1019600002F00C02042A24D0082A0AD0134A124B8F
:1019700013489968134BC1F30311415CCA401A60C4
:101980007047586859685B6842024CBF0E4A0B4A60
:1019900001F03F01C3F38813B2FBF1F202FB03F243
:1019A000054B5B68C3F3014301335B00B2FBF3F209
:1019B000DDE7054ADBE700BF003802400024F40001
:1019C000CC4E00089C01002000127A00224A234BD2
:1019D000116C70B541F080511164126C94B002F03A
:1019E00080520192019A1A6822F4404242F4004265
:1019F0001A601B6803F4404302930123029A089380
:101A000000B1052309934FF4A8710723042202248F
:101A10004FF48006082508A813930E940F9610958E
:101A200011911292FFF730F9034610B1002014B063
:101A300070BD4FF4805221460F2503A804940593EE
:101A4000079303950692FFF7D7FAD0F1010038BF4C
:101A5000002014B070BD00BF00380240007000408C
:101A6000234A244B116CF0B541F080511164126C83
:101A700095B002F080520192019A1A6822F4404215
:101A800042F400421A601B6803F4404302934FF093
:101A9000030E1023002404210722012702254FF4FE
:101AA000A87608A80C931093DDF808C0CDF820E0C4
:101AB0000B9709940F940E95119612911392FFF7BC
:101AC000E3F8034610B1204615B0F0BD4FF4805244
:101AD00029460F2403A804950593079303940692BF
:101AE000FFF78AFAD0F1010038BF002015B0F0BD31
:101AF000003802400070004008B50120FFF766FF83
:101B000000B108BDFFF762FF0028FAD1FFF7A8FF78
:101B10000028F6D1FEE700BF174B1848D3F88820FD
:101B200070B542F47002164CC3F888202268154E36
:101B3000154D002142F001022260A160226822F0CE
:101B4000847222F480322260666026684FF0006260
:101B500026F480262660E1609A600560FEF760FD4D
:101B6000FFF7CAFF236A43F008032362236A23F0C6
:101B70000803236270BD00BF00ED00E09C0100205F
:101B800000380240103000240024F40038B5102240
:101B900004460D46002102F096FB2046294601F03E
:101BA00089F8204638BD0000102108B50348FFF72A
:101BB000EDFF29210248FFF7E9FF08BD500300208F
:101BC00040030020054B10B50446036000F0DCFF25
:101BD000204601F005F8204610BD00BF78510008EE
:101BE000034B10B504460360FFF7ECFF204610BD21
:101BF0009051000838B590F90030013304460D4685
:101C000004D105480549342201F024F8E0686268EF
:101C100005B91204026038BDDC4E0008F44E00081D
:101C200010B5104802F058FB0F4B1A68D2F10100B2
:101C300038BF002018601C4610B10C4800F0A4FF0B
:101C4000216871B90A4800F077FA50B9074B094A80
:101C5000D86209499A61184600F09EFF07490120A1
:101C6000087010BD7B4F00080C040020C804002041
:101C700014040020211C0008809698001004002005
:101C800010B5104802F028FB0F4B1A68D2F1010082
:101C900038BF002018601C4610B10C4800F074FFDB
:101CA000216871B90A4800F047FA50B9074B094A50
:101CB000D86209499A61184600F06EFF0749012071
:101CC000087010BD7B4F00080C040020C8040020E1
:101CD00014040020811C000880969800F80400205D
:101CE00010B50446FFF76EFF204601F0D5FB2046F5
:101CF00010BD000010B529482DED028B0021FFF723
:101D000079FF2748002100F009FC26480121FFF750
:101D100071FF9FED258A0A24244800F08DFB06EE12
:101D2000900A013C38EE268AF6D1F2EE047A88EE6B
:101D3000270A41F293131E489FED1E7A60EE070AB0
:101D4000B3EE091AC0EE811A9FED1B2AC1EE822A5A
:101D50009FED1A3A62EE833ABDEEE34A14EE104A62
:101D60009C4212DD00F032FCA4F58C51143904EED3
:101D7000901A06EE100AB8EEE45ADFED115A05EE9D
:101D8000656A0B4816EE101A01E04FF07E51BDEC6B
:101D9000028BBDE8104000F0C1BB00BFD40300209F
:101DA000E4030020C4030020000000001C04002005
:101DB000F8030020333353408FC2753C00007A444F
:101DC0000AD7233C10B529482DED028B002100F0E5
:101DD000A5FB27480021FFF70DFF26480121FFF74B
:101DE00009FF9FED258A0A24244800F025FB06EE12
:101DF000900A013C38EE268AF6D1F2EE047A88EE9B
:101E0000270A41F293131E489FED1E7A9FED1E1A7A
:101E100060EE070A9FED1D2AC0EE811A9FED1C3A65
:101E2000C1EE822A62EE833ABDEEE34A14EE104A16
:101E30009C4212DD00F0CAFBA4F58C51143904EE6B
:101E4000901A06EE100AB8EEE45ADFED125A05EECB
:101E5000656A0B4816EE101A01E04FF07E51BDEC9A
:101E6000028BBDE8104000F059BB00BFF803002012
:101E7000C4030020D4030020000000001C04002044
:101E8000E4030020333353400000C8428FC2753C46
:101E900000007A440AD7233C38B540480021FFF7B8
:101EA000A9FE3F480021FFF7A5FE3E48002100F0B3
:101EB00035FB3D48002100F031FB3C483C4900F037
:101EC00041FE3C493C4800F03DFE3C4800F034F9FE
:101ED00034483B4900F0E0FC3348394900F0DCFC71
:101EE000384B01221A603748374D016800293CD031
:101EF000364A37480024214614702C70FFF77AFECA
:101F0000344800F041FE21463348FFF773FE214676
:101F10003248FFF76FFE21463148FFF76BFE21463E
:101F20003048FFF767FE00211F4800F0F7FA21460E
:101F30001A48FFF75FFE00211A4800F0EFFA214629
:101F40001748FFF757FE00F089FD274800F0D0FF43
:101F500021462148FFF74EFE01212048FFF74AFEA7
:101F60001F480121FFF746FEBDE71948174C012124
:101F7000FFF740FE1B480121FFF73CFE2A781AB10B
:101F800023780BB9FFF7B6FE20780028ABD00E49B6
:101F90000D78002DA7D1FFF715FFA4E7C40300209B
:101FA000D4030020E4030020F80300206003002095
:101FB000811C0008211C0008440400201404002097
:101FC00017B751380C04002010040020F80400203A
:101FD000B4030020980400202404002034040020CE
:101FE0004003002050030020CDCCCC3D10B504466A
:101FF000FFF7F6FD204601F04FFA204610BD000025
:1020000070B52B482B4E2C4D2C4C00F08DF809212F
:102010002B4800F095FB08212A48FFF7B7FD0A215D
:10202000294800F08DFB07212848FFF7AFFD2D213F
:10203000304600F065FD3046254E2A46214601F027
:102040002FFA2E21304600F05BFD2A46214630460D
:10205000204C01F025FA05211F48FFF797FD204687
:1020600000F0DAFD00261D4BA6612A46E6622046F6
:102070001B49236001F014FA20211A481A4C00F081
:1020800083F90B211948FFF781FD0C211848FFF750
:102090007DFD204600F0C0FD1648174920602A4605
:1020A0002046A661E662BDE8704001F0F9B900BFC4
:1020B000140400206003002094010020892A0008F5
:1020C000E4030020D4030020F8030020C403002010
:1020D0004404002098040020B40300207851000834
:1020E000C51B00081C040020C80400202404002094
:1020F0003404002090510008E11B000838B590F925
:102100000030013304460D4604D105480549342208
:1021100000F0A0FDE068626805B91204026038BDF5
:10212000DC4E0008F44E000810B52121044600F0F2
:102130002BF9204610BD0000F8B507464FF47A761B
:1021400000240025384600F077F901F013FB024621
:102150000B462046294601F0AFF9013E04460D46E4
:10216000F0D10022864B01F083FC7BA3D3E900234E
:1021700001F054FB02460B4601F09EF978A3D3E927
:10218000002304460D4601F0CFFD00283AD0FA2086
:1021900000F0BCFE01217B48FFF7B0FF322000F0C9
:1021A000B5FE31467748FFF7A9FF642000F0AEFE88
:1021B00001217448FFF7A2FF322000F0A7FE31464C
:1021C0007048FFF79BFF642000F0A0FE01216D48DE
:1021D000FFF794FF322000F099FE31466948FFF77F
:1021E0008DFF642000F092FE01216648FFF786FF14
:1021F000322000F08BFE63483146FFF77FFF6420FA
:1022000000F084FE2046294657A3D3E9002301F0BD
:102210008BFDA0B32046294651A3D3E9002301F04A
:102220006FFD60B3FA2000F071FE01215548FFF701
:1022300065FF322000F06AFE00215248FFF75EFF82
:10224000642000F063FE01214E48FFF757FF322063
:1022500000F05CFE00214B48FFF750FF642000F0C7
:1022600055FE01214748FFF749FF322000F04EFE9E
:1022700044480021FFF742FF642000F047FE20465B
:1022800029463BA3D3E9002301F04EFD30B320469D
:10229000294635A3D3E9002301F032FDF0B1FA203D
:1022A00000F034FE01213748FFF728FF322000F00C
:1022B0002DFE00213348FFF721FF642000F026FEA9
:1022C00001213048FFF71AFF322000F01FFE2D4891
:1022D0000021FFF713FF642000F018FE2046294676
:1022E00023A3D3E9002301F00BFDC0B1204629460A
:1022F00021A3D3E9002301F017FD80B1FA2000F0FB
:1023000005FE01211F48FFF7F9FE322000F0FEFD17
:102310001C480021FFF7F2FE642000F0F7FD204684
:10232000294615A3D3E9002301F0EAFC88B1FA207D
:1023300000F0ECFD01211348FFF7E0FE4B2000F018
:10234000E5FD10480021FFF7D9FE962000F0DEFDE4
:102350000120F8BDAFF300806666666666660A40D7
:102360009A99999999990E409A99999999990B40A6
:102370009A99999999990840333333333333074005
:1023800000408F405003002070B50C46054682B0D7
:102390002249204600F0E6FC2860013037D0204674
:1023A0001E4900F0F9FC431C06462AD0C6F3C3269A
:1023B0006E712046194900F0A1FC194A2C7113686E
:1023C000EBB918492D68486C01241460164A40F492
:1023D000807053604864496C936001F4807101918E
:1023E0001046019915601361936153629362136300
:1023F000D362D3601462D3615361FEF73BF902B03C
:1024000070BD0A480A49322200F024FCCEE7094890
:1024100007492E2200F01EFCC1E700BF68540008E7
:10242000FC040020003802401C0800201050000866
:10243000A44F00088C4F000800B5354A0168437965
:10244000116085B0002201210191029203920F2BAD
:1024500009D8DFE803F02F3235383B3E4144474A84
:102460004D505356590FDFED2B7A17EE900A05B0F9
:102470005DF804FB0F23009369462548FEF732FA06
:102480002348FEF79BF922480A21FEF7F3F90028BA
:10249000E9D11F48FEF722FA80B207EE100AF8EEE3
:1024A000477A9FED1D7A67EE877A17EE900A05B09E
:1024B0005DF804FB00230093DEE701230093DBE7D4
:1024C00002230093D8E703230093D5E70423009366
:1024D000D2E705230093CFE706230093CCE7072339
:1024E0000093C9E708230093C6E709230093C3E7D5
:1024F0000A230093C0E70B230093BDE70C2300934E
:10250000BAE70D230093B7E70E230093B4E700BFAB
:102510001C080020000000000108803930B507EEDB
:10252000901A274A03681360F5EEC07AF1EE10FAAC
:1025300089B004463DD4B7EE007AF4EE477AF1EE66
:1025400010FAC8BFF0EE477AD4ED026A227CB8EEEA
:10255000667A002367EE277A6020FCEEE77A013A7C
:10256000C4ED037ACDED027A0190039304930593B1
:1025700006930793032A10D8DFE802F0110215131F
:1025800004250F4801A92A46FFF75EF8A0B9637C2D
:102590000B4829464BB1FFF7C1F809B030BD002503
:1025A000EFE70C25EDE70825EBE7FEF777FF09B02D
:1025B00030BDDFED047AC7E7034800F057FBE6E7DC
:1025C00000050020000000002C50000883689BB12B
:1025D00007EE103AD0ED037AF8EE476AF8EE677A24
:1025E000B7EE007AC7EEA67AF4EEC77AF1EE10FAEB
:1025F00004DD17EE100A7047DFED027A17EE900A3D
:10260000704700BF00000000F0B58268454D0368C8
:102610002B6087B004460E46002A57D007EE102ADA
:10262000F8EE477A90ED037AF8EE476AB7EE007A53
:10263000C6EEA77AF4EEC77AF1EE10FAC8BF17EE2D
:10264000107A45DD196A41F211120A402AB9196A55
:1026500040F244420A40002A3DD001A86946FEF7F4
:1026600059FE2368304A934245D039D92F4A9342C4
:1026700007D051D92E4A934203D002F5806293428B
:1026800022D1FEF72FFE059A0090731EEB60254BBA
:10269000002A39D1274AA2FB0010800C013858606B
:1026A000002320482B61AB60FEF784FF10B1224865
:1026B00000F0DCFA39462046FFF730FF2B68A660B1
:1026C0001A6842F001021A6007B0F0BDDFED1B7A14
:1026D00017EE907AB6E71A6822F001021A60BCE79A
:1026E000A2F50062934206D002F58062934202D0C6
:1026F000B3F1804FE8D1FEF7DDFD049A0090731E20
:10270000EB60084B002AC5D00A4A4000A2FB00102B
:10271000800C01385860C3E7A2F580429342B0D0E4
:10272000D2E700BF00050020000C0040004001403F
:102730000044014083DE1B432C50000800000000D1
:1027400070B50D46044688B04849284600F00AFB9B
:10275000206001306FD02846444900F01DFB431C27
:1027600006466ED02368424AC6F3C3219342C6F39D
:10277000C0362174667444D0B3F1804F29D03D4AED
:1027800093424AD102F50D32116C41F002011164FD
:10279000126C02F002020392039A374A934209D163
:1027A000364B5A6C42F480225A645B6C03F48023EB
:1027B0000793079B28462D4900F0A0FA00232571B6
:1027C000A360E360204644F62061FFF71DFF08B0D8
:1027D00070BD2A4A116C41F001011164126C02F0C3
:1027E00001020292029A264A9342D6D1234B5A6C96
:1027F00042F400325A645B6C03F400330693069B88
:10280000D8E702F59C32516C41F001015164526CE1
:1028100002F001020192019AE5E71A4A934216D1A9
:10282000164B1A6C42F004021A641B6C03F004038A
:102830000493049BBEE7144814492D2200F00AFAC1
:1028400089E713481149312200F004FA8AE7114A56
:102850009342C8D1094B5A6C42F480325A645B6C83
:1028600003F480330593059BA4E700BFB85200082A
:1028700000000140000400400048014000380240D0
:102880000044014000080040445000085C5000082B
:10289000105000080040014007EE101ADFED047AE6
:1028A00067EE277AFDEEE77A17EE901AFFF7ACBED7
:1028B00000247449F8B5134B90F9197006688568BF
:1028C000C468016942691E6001374FF000065D600F
:1028D0009C60D9601A619E6110D090F91820013275
:1028E0000CBF04220C225A610648FFF709F800B910
:1028F000F8BD0548BDE8F84000F0B8B908225A61B3
:10290000F2E700BF60080020C4500008F0B504469C
:1029100085B008460E463C49154600F023FA3B496F
:102920000746284600F01EFA0146384600F008FA2D
:10293000411C206061D0364B984247D003F580633C
:10294000984236D0A3F55043984225D030462E49C0
:1029500000F0D4F928462D4900F0D0F9721C03D0BC
:102960003046012100F034FD6B1C03D028460121C4
:1029700000F02EFD00234FF41652A260E3602361A5
:102980006361267665762046FFF794FF214A236827
:10299000934228D005B0F0BD1F4B1A6C42F40032B0
:1029A0001A641B6C03F4003302930123029A6360E0
:1029B000CCE7194B5A6C42F020025A645B6C03F06E
:1029C00020030393039B05236360BFE7124B5A6CFC
:1029D00042F010025A645B6C03F010030193002371
:1029E000019A6360B2E70D4B0D4821461C22012479
:1029F0001C6001F05FFC05B0F0BD0A480A49532293
:102A000000F028F9206896E720540008705200086A
:102A10000010014000440040003802403C05002006
:102A2000A0080020DC500008F85000080268136875
:102A30009B06FCD5024B50681A60C0F30800704733
:102A400060080020026813681B06FCD5024BC1F326
:102A5000080151601A60704760080020084BDA686E
:102A600010B5084C22F0040223600020DA60012136
:102A7000FEF7FAF82368DA6842F00402DA6010BD63
:102A8000000C00404005002010B5044A044640F800
:102A9000142B00F093FB204610BD00BF68510008C6
:102AA00010B5054B044640F8143B00F087FB204668
:102AB00000F0F2FC204610BD68510008012908B55D
:102AC00003460AD0022907D1026D7AB1C06B10B15A
:102AD00003F14001904708BD08BD826B5AB1406ABE
:102AE0000028F8D003F12801904708BDC36B002BE4
:102AF000F1D0984708BD436A002BFAD1EBE700BF3D
:102B000038B50E4B03600446002303718360C36035
:102B1000036103758361C36180F82030436283637E
:102B2000C36303650D462346054A143000F09CFA42
:102B3000201D294600F0ACF8204638BD6851000839
:102B4000BD2A000839B10023C16303650221143096
:102B5000012200F057BB0A461430022100F052BB9C
:102B60004368416910B50446194400F069F8E36A06
:102B70002BB1A06910B104F11C01984710BDA369E5
:102B8000002BFBD0984710BD10B5044600F05EF84E
:102B90000023A361E36210BD38B504460D4600F082
:102BA00055F86561206900F087F941192046BDE8B4
:102BB000384000F045B800BF08B5C36A014623B1EC
:102BC000806908B11C31984708BD8369002BFBD090
:102BD000984708BD08B503689B68984708BD00BFC3
:102BE00010B5044B03600446211D006900F040F954
:102BF000204610BDA851000810B5064B03600446DE
:102C0000211D006900F034F9204600F045FC204603
:102C100010BD00BFA8510008074B10B5036000238A
:102C200043608360C360044600F04CF903492061AF
:102C300000F0CCF8204610BDA8510008D52B0008A4
:102C400003460A460069191D00F0EEB8011D00692F
:102C500000F00EB910B40C46134601462246024855
:102C60005DF8044B00F002B8B85100080FB400B58D
:102C7000064B83B004AA1B6852F8041BD868019263
:102C800001F0D2FC012001F07FF800BF0402002017
:102C900038B50D46044600F057F9013509D02046F5
:102CA000002100F06BF920460021BDE8384000F01B
:102CB00061B938BD38B50D46044600F045F9013517
:102CC00011D094F9003001330ED06268E368120429
:102CD00020461A60012100F051F920460021BDE88C
:102CE000384000F047B938BD024803493422FFF7A5
:102CF000B1FFEAE7344E00084C4E0008431C10B503
:102D0000044619D091F90030581C04D10FE011F994
:102D10000C3F5A1C0BD09C42F9D12046896800F028
:102D200027FB20460021BDE8104000F051BB0348BE
:102D3000BDE81040FFF79ABF10BD00BFEC5100087E
:102D4000884208B50AD0431C07D0013106D0044898
:102D5000FFF78CFF4FF0FF3008BD084608BD00BFED
:102D60000052000808B5431C0DD091F900305A1CE0
:102D700004D109E011F90C3F5A1C05D09842F9D151
:102D80004868411C00D008BD0248FFF76FFF4FF0B4
:102D9000FF30F8E71452000808B5431C0DD091F934
:102DA00000305A1C04D109E011F90C3F5A1C05D01F
:102DB0009842F9D18868411C00D008BD0248FFF74D
:102DC00055FF4FF0FF30F8E73452000838B503687C
:102DD00004461B680D46984763681D6038BD00BFF8
:102DE00038B50368DB680446984763685B6883B15D
:102DF00022681D6853689847281A002862680CDC0E
:102E000050681168836853600029F0D04068884793
:102E1000EBE723689B68984738BD236852681B69B5
:102E20001068984738BD00BF30B583B072B64568AA
:102E30000A606C684B608CB12368D31A002B05DAEA
:102E40000CE01D68551B002D03DB1C46A368002BFE
:102E5000F7D1A1608B6062B603B030BD03686960D2
:102E60001B6901911046984723460199F2E700BF7C
:102E700008B572B643685A688A4211D04AB193685D
:102E80008B4208D02BB19A688A4205D01346002B9A
:102E9000F9D162B608BD13468A689A6062B608BD69
:102EA00092685A60036822B110681B69984762B63D
:102EB00008BD9B689847ECE708B503685B689847CE
:102EC00008BD00BF00487047685200080148FFF77E
:102ED00087BF00BF6852000838B5054600F0B2FA57
:102EE000044600F0AFFA001BA842FAD338BD00BF79
:102EF00007EE100ADFED047A67EE277AFDEEE77A37
:102F000017EE900AFFF7E8BF002474494FF47A7374
:102F100003FB00F0FFF7E0BF431C10B5044608D0E8
:102F20002046002100F024FA04F00F040120A04004
:102F300010BD034803492722FFF78CFEF0E700BFCE
:102F4000345500084855000870B505464B1C0C4622
:102F500029700DD0C1F3031000F094F90646204605
:102F6000FFF7DAFF06F1100318366860AB60EE6019
:102F700070BD00BF90F9000000F02ABA38B50546D0
:102F800090F90000431C0C460BD0012C04D000210A
:102F9000BDE8384000F0ECB92146BDE8384000F00B
:102FA000E7B9044804494622FFF754FE95F90000AA
:102FB000EBE700BF344E000848550008194B2DE9D7
:102FC000F0474FF04C080F4608FB003839B3DFF8E4
:102FD0005890DFF858A0454600240126D8F8003064
:102FE00006FA04F21A4215D06B6BD9F81420E9697D
:102FF00006FA03F313420DD0C9F814306A684AB1D7
:1030000009690B4210464FF00101DAF8003008BFA1
:10301000022198470134BC4205F10405DED1BDE828
:10302000F08700BF84050020003C01409807002085
:1030300000200121FFF7C2BF01200146FFF7BEBFFC
:1030400002200121FFF7BABF03200121FFF7B6BF1D
:1030500004200121FFF7B2BF05200146FFF7AEBFF4
:1030600006200146FFF7AABF2DE9F04F85B09B4629
:103070004B1C0C460546029200F0888001F00F06BA
:10308000731EC1F303100E2B47D8DFE803F04E5731
:10309000616B0808080808757575757575003C4AF8
:1030A0004FF400074FF0000A4FF005094FF01708E2
:1030B000019200F0E7F807210390204600F058F94C
:1030C000019A40461146FDF7F5F83249324A41F877
:1030D0002A704C2101FB09F1304F52F8262057F895
:1030E00001C02F4B85F800800120904007EB0108BC
:1030F0004CEA000C0020C5F804902C73A86008EB83
:10310000820247F801C002991960039BD361C2F89B
:1031100004B0566305B0BDE8F08F4FF0000AD14609
:10312000204A40274FF00608C2E71F4A80274FF089
:10313000000A4FF001094FF00708B9E71B4A4FF4A6
:1031400080774FF0000A4FF002094FF00808AFE710
:10315000174A4FF400774FF0000A4FF003094FF081
:103160000908A5E7134A4FF480674FF0000A4FF0B3
:1031700004094FF00A089BE70F4A4FF480774FF09D
:10318000010A4FF006094FF0280891E70846C1E709
:103190005930000800E100E0B05500088405002027
:1031A000980700203130000839300008413000080D
:1031B000493000085130000861300008F8B5054674
:1031C000007B6B680D490E4E00F00F044C2202FB91
:1031D00003F251F82430B158B41801279F4004EB92
:1031E000830321EA07070024B75040B221465C6000
:1031F000DC615C6300F0BCF8AC60F8BDB055000861
:103200008405002072B1012920D0022919D18368D8
:1032100023F00203012B2BD08160072190F90C00D1
:1032200000F0A6B801291BD002290AD1836823F037
:103230000203012B23D082600C2190F90C0000F0D6
:1032400097B80C2190F90C0000F092B88368023B0B
:10325000012B0DD98160062190F90C0000F088B88F
:103260008368023B012BE6D8022383600721E9E74C
:1032700003238360082190F90C0000F079B8836083
:103280000621DFE700B587B0072859D8DFE800F04E
:1032900012202E3C4A5858042D4B2E481A6B42F0EF
:1032A00080021A631B6B03F080030593059B07B034
:1032B0005DF804FB264B28481A6B42F001021A63A2
:1032C0001B6B03F001030093009B07B05DF804FB48
:1032D0001F4B22481A6B42F002021A631B6B03F069
:1032E00002030193019B07B05DF804FB184B1C48D7
:1032F0001A6B42F004021A631B6B03F0040302937F
:10330000029B07B05DF804FB114B16481A6B42F0A4
:1033100008021A631B6B03F008030393039B07B0B7
:103320005DF804FB0A4B10481A6B42F010021A6356
:103330001B6B03F010030493049B07B05DF804FBC0
:103340000A48FFF793FC002007B05DF804FB00BFBC
:1033500000380240001C024000000240000402400D
:1033600000080240000C02400010024024560008F1
:1033700030B5431C87B005460C461CD0C5F303107E
:10338000FFF780FF05F00F0504F00F0201210D4B40
:1033900001FA05F553F8223001950322C4F3021512
:1033A00001A9C4F3C3140293039505940492FDF795
:1033B00051FB07B030BD044804498122FFF74AFCA5
:1033C000DCE700BFF05500083455000848560008F7
:1033D00038B5431C04460D4618D0C4F30310FFF75C
:1033E00051FF04F00F04C268022D4FEA44044FF06D
:1033F000030198BFA54001FA04F422EA0404C46062
:10340000C26888BF00251543C56038BD024803491E
:10341000A622FFF71FFCE0E73455000848560008D5
:10342000054B186800B17047044A05491160012234
:103430001A60FCF78BBF00BFD80700209C07002054
:10344000000C004008B5044B1B680BB9FFF7E8FF00
:10345000024B586A08BD00BFD8070020000C00408E
:10346000034B1B685863DA6842F00202DA60704767
:103470009C070020034B1B68DA6822F00202DA6026
:10348000704700BF9C070020024B1B686FF00202D0
:103490001A6170479C07002008B100F0ABBE70476E
:1034A00003460846194600F05DBC000081F000416B
:1034B00002E000BF83F0004330B54FEA41044FEA19
:1034C000430594EA050F08BF90EA020F1FBF54EAB4
:1034D000000C55EA020C7FEA645C7FEA655C00F050
:1034E000E2804FEA5454D4EB5555B8BF6D420CDD21
:1034F0002C4480EA020281EA030382EA000083EAA4
:10350000010180EA020281EA0303362D88BF30BD43
:1035100011F0004F4FEA01314FF4801C4CEA113199
:1035200002D0404261EB410113F0004F4FEA0333F8
:103530004CEA133302D0524263EB430394EA050F83
:1035400000F0A780A4F10104D5F1200E0DDB02FAF2
:103550000EFC22FA05F2801841F1000103FA0EF286
:10356000801843FA05F359410EE0A5F120050EF14C
:10357000200E012A03FA0EFC28BF4CF0020C43FA7D
:1035800005F3C01851EBE37101F0004507D54FF08A
:10359000000EDCF1000C7EEB00006EEB0101B1F5DA
:1035A000801F1BD3B1F5001F0CD349085FEA300020
:1035B0004FEA3C0C04F101044FEA445212F5800F2B
:1035C00080F09A80BCF1004F08BF5FEA500C50F1C8
:1035D000000041EB045141EA050130BD5FEA4C0CAB
:1035E000404141EB010111F4801FA4F10104E9D134
:1035F00091F0000F04BF01460020B1FA81F308BF2B
:103600002033A3F10B03B3F120020CDA0C3208DDF6
:1036100002F1140CC2F10C0201FA0CF021FA02F1D1
:103620000CE002F11402D8BFC2F1200C01FA02F141
:1036300020FA0CFCDCBF41EA0C019040E41AA2BF66
:1036400001EB0451294330BD6FEA04041F3C1CDA2E
:103650000C340EDC04F11404C4F1200220FA04F04E
:1036600001FA02F340EA030021FA04F345EA0301F8
:1036700030BDC4F10C04C4F1200220FA02F001FABA
:1036800004F340EA0300294630BD21FA04F029463C
:1036900030BD94F0000F83F4801306BF81F48011D5
:1036A0000134013D4EE77FEA645C18BF7FEA655C48
:1036B00029D094EA050F08BF90EA020F05D054EA1A
:1036C000000C04BF1946104630BD91EA030F1EBF1F
:1036D0000021002030BD5FEA545C05D14000494123
:1036E00028BF41F0004130BD14F580043CBF01F516
:1036F000801130BD01F0004545F0FE4141F47001FC
:103700004FF0000030BD7FEA645C1ABF19461046D6
:103710007FEA655C1CBF0B46024650EA013406BFD7
:1037200052EA033591EA030F41F4002130BD00BF96
:1037300090F0000F04BF0021704730B54FF4806453
:1037400004F132044FF000054FF0000150E700BFD4
:1037500090F0000F04BF0021704730B54FF4806433
:1037600004F1320410F0004548BF40424FF0000120
:103770003EE700BF42004FEAE2014FEA31014FEA63
:1037800002701FBF12F07F4393F07F4F81F06051B2
:10379000704792F0000F14BF93F07F4F704730B521
:1037A0004FF4607401F0004521F0004120E700BFB4
:1037B00050EA010208BF704730B54FF000050AE03B
:1037C00050EA010208BF704730B511F0004502D53C
:1037D000404261EB41014FF4806404F132045FEA3E
:1037E000915C3FF4DCAE4FF003025FEADC0C18BFE3
:1037F00003325FEADC0C18BF033202EBDC02C2F1D9
:10380000200300FA03FC20FA02F001FA03FE40EA6A
:103810000E0021FA02F11444C1E600BF70B54FF06A
:10382000FF0C4CF4E06C1CEA11541DBF1CEA13554C
:1038300094EA0C0F95EA0C0F00F0DEF82C4481EAB4
:10384000030621EA4C5123EA4C5350EA013518BFD4
:1038500052EA033541F4801143F4801338D0A0FBC1
:1038600002CE4FF00005E1FB02E506F00042E0FB6E
:1038700003E54FF00006E1FB03569CF0000F18BF74
:103880004EF0010EA4F1FF04B6F5007F64F540741C
:1038900004D25FEA4E0E6D4146EB060642EAC621AF
:1038A00041EA55514FEAC52040EA5E504FEACE2E1C
:1038B000B4F1FD0C88BFBCF5E06F1ED8BEF1004F1F
:1038C00008BF5FEA500E50F1000041EB045170BD9B
:1038D00006F0004646EA010140EA020081EA0301DF
:1038E000B4EB5C04C2BFD4EB0C0541EA045170BDDB
:1038F00041F480114FF0000E013C00F3AB8014F155
:10390000360FDEBF002001F0004170BDC4F100049D
:10391000203C35DA0C341BDC04F11404C4F120051E
:1039200000FA05F320FA04F001FA05F240EA020079
:1039300001F0004221F0004110EBD37021FA04F6AF
:1039400042EB06015EEA430E08BF20EAD37070BD69
:10395000C4F10C04C4F1200500FA04F320FA05F0C8
:1039600001FA04F240EA020001F0004110EBD370CA
:1039700041F100015EEA430E08BF20EAD37070BD3A
:10398000C4F1200500FA05F24EEA020E20FA04F313
:1039900001FA05F243EA020321FA04F001F00041C2
:1039A00021FA04F220EA020000EBD3705EEA430E33
:1039B00008BF20EAD37070BD94F0000F0FD101F062
:1039C0000046400041EB010111F4801F08BF013C9B
:1039D000F7D041EA060195F0000F18BF704703F0D9
:1039E0000046520043EB030313F4801F08BF013D60
:1039F000F7D043EA0603704794EA0C0F0CEA13551C
:103A000018BF95EA0C0F0CD050EA410618BF52EAD5
:103A10004306D1D181EA030101F000414FF00000DB
:103A200070BD50EA410606BF1046194652EA4306E9
:103A300019D094EA0C0F02D150EA013613D195EA5D
:103A40000C0F05D152EA03361CBF104619460AD1A5
:103A500081EA030101F0004141F0FE4141F47001AF
:103A60004FF0000070BD41F0FE4141F4780170BD9F
:103A700070B54FF0FF0C4CF4E06C1CEA11541DBF04
:103A80001CEA135594EA0C0F95EA0C0F00F0A7F806
:103A9000A4EB050481EA030E52EA03354FEA013133
:103AA00000F088804FEA03334FF0805545EA131346
:103AB00043EA12634FEA022245EA111545EA10650E
:103AC0004FEA00260EF000419D4208BF964244F1A5
:103AD000FD0404F5407402D25B084FEA3202B61AC4
:103AE00065EB03055B084FEA32024FF480104FF498
:103AF000002CB6EB020E75EB030E22BFB61A75460C
:103B000040EA0C005B084FEA3202B6EB020E75EB9E
:103B1000030E22BFB61A754640EA5C005B084FEA06
:103B20003202B6EB020E75EB030E22BFB61A7546D3
:103B300040EA9C005B084FEA3202B6EB020E75EBDE
:103B4000030E22BFB61A754640EADC0055EA060E9F
:103B500018D04FEA051545EA16754FEA06164FEAE2
:103B6000C30343EA52734FEAC2025FEA1C1CC0D18E
:103B700011F4801F0BD141EA00014FF000004FF01B
:103B8000004CB6E711F4801F04BF01430020B4F1DC
:103B9000FD0C88BFBCF5E06F3FF6AFAEB5EB030C94
:103BA00004BFB6EB020C5FEA500C50F1000041EB91
:103BB000045170BD0EF0004E4EEA113114EB5C045E
:103BC000C2BFD4EB0C0541EA045170BD41F4801131
:103BD0004FF0000E013C90E645EA060E8DE60CEA39
:103BE000135594EA0C0F08BF95EA0C0F3FF43BAF56
:103BF00094EA0C0F0AD150EA01347FF434AF95EA0D
:103C00000C0F7FF425AF104619462CE795EA0C0FF0
:103C100006D152EA03353FF4FDAE1046194622E7BD
:103C200050EA410618BF52EA43067FF4C5AE50EA97
:103C300041047FF40DAF52EA43057FF4EBAE12E787
:103C40004FF0FF3C06E000BF4FF0010C02E000BF68
:103C50004FF0010C4DF804CD4FEA410C7FEA6C5C4B
:103C60004FEA430C18BF7FEA6C5C1BD001B050EAEE
:103C7000410C0CBF52EA430C91EA030F02BF90EAD9
:103C8000020F0020704710F1000F91EA030F58BF98
:103C9000994208BF90422CBFD8176FEAE37040F0FA
:103CA000010070474FEA410C7FEA6C5C02D150EA98
:103CB000013C07D14FEA430C7FEA6C5CD6D152EA53
:103CC000033CD3D05DF8040B704700BF8446104618
:103CD00062468C461946634600E000BF01B5FFF717
:103CE000B7FF002848BF10F1000F01BD4DF808EDE7
:103CF000FFF7F4FF0CBF012000205DF808FB00BFB8
:103D00004DF808EDFFF7EAFF34BF012000205DF811
:103D100008FB00BF4DF808EDFFF7E0FF94BF01205E
:103D200000205DF808FB00BF4DF808EDFFF7CEFF5F
:103D300094BF012000205DF808FB00BF4DF808ED9E
:103D4000FFF7C4FF34BF012000205DF808FB00BF6F
:103D500010B5034C14B100F0EBFE10BD204610BDB1
:103D6000314B000830B505460C4613460220294663
:103D70002246BDE8304000F0DBBE0000014B186871
:103D8000704700BF0402002008B5084B04461BB171
:103D9000002100F00BFF01E000F082F90448006808
:103DA000816A01B188472046FCF7FAFBAD4B000859
:103DB0000C5700080B692DE9F04105460C46002B15
:103DC0003BD018B1816909B900F000F94948844233
:103DD00001D16C6808E0484A944201D1AC6803E024
:103DE000464B9C4208BFEC68A18931B301F0080042
:103DF00002B2002A61D1626841F40060002AA08109
:103E000002DC236C002B18DDE66AB6B101F48051A8
:103E100000200AB22F6828600AB1626D10E0012309
:103E20002846216AB0470246013009D12B683BB1D0
:103E30001D2B01D0162B1BD12F600020BDE8F08177
:103E4000A68906F0040001B229B16368666BD21A34
:103E50000EB1206C121A216AE66A00232846B04788
:103E6000411C0DD12A685AB11D2A09D0162A07D043
:103E7000A18941F04003A3814FF0FF30BDE8F081FC
:103E8000A38921690022626003F48052216011B28B
:103E900021B1421C01D12B6803B96065616B2F60B1
:103EA0000029CAD004F14400814202D0284600F023
:103EB0000DF900206063BDE8F0812669002EBCD0BA
:103EC0008907236808BF6169266018BF0021C6EB17
:103ED0000308A160B8F1000FAFDDA76A216A284688
:103EE00032464346B8470028C2DD3618C0EB080802
:103EF000F0E700BFAC560008CC560008EC560008AE
:103F0000014620B904480549006800F023B9044B74
:103F10001868FFF74FBF00BF0C570008B53D0008F9
:103F200004020020F8B5074600F14C0494B1A568DE
:103F30006668013E0CD4B5F90C303BB1B5F90E0002
:103F4000431C03D038462946FFF734FF6835F0E7B5
:103F50002468EBE7F8BD0000002310B504460360B9
:103F60004360836081814366C281036143618361F1
:103F70001946082200F15C0000F0A5F90448054943
:103F8000054A064B24626062A162E262236310BDAF
:103F9000354300085743000893430008B74300081F
:103FA00070B568254D430E4605F10C0100F02AF965
:103FB000044640B100F10C00002184E84200A060FA
:103FC0002A4600F080F9204670BD000070B5856972
:103FD0000446002D22D1124BC564012683628661FE
:103FE0000565456500F01EF86060204600F01AF88F
:103FF000A060204600F016F80421E0602A466068C0
:10400000FFF7AAFFA06809213246FFF7A5FFE06885
:1040100012210222BDE87040FFF79EBF70BD00BFB5
:10402000253F0008F8B51C4B1E680746B06910B95B
:104030003046FFF7CBFF4C36B4687168013904D4C1
:10404000B4F90C5085B16834F8E732680AB13668C3
:10405000F2E738460421FFF7A3FF30600028F6D1CD
:104060000C243C60044615E04FF6FF730120A0814C
:10407000E38165662560A560656025616561A56170
:1040800004F15C002946082200F01DF96563A56370
:10409000A564E5642046F8BD0C57000870477047DA
:1040A00070B5084B084CE01A841003EB8406002519
:1040B000043D1CB172599047013CF9E7BDE87040DE
:1040C00000F0B2BE140200201802002030B5002912
:1040D0003CD051F8042C0B1F1D49002AB8BF9B1877
:1040E0000A6812B95A600B6030BD93420ED219684B
:1040F0005818904203D15A588918426819601448D8
:104100005A60036030BD994203D80A4651680029BD
:10411000F9D1146815199D420AD118682318D018CE
:104120008842136012D108681B1813604B680CE0BA
:1041300002D90C23036030BD18681C188C4203D1CF
:104140000C684968001918605960536030BD00BFA1
:10415000DC0700202DE9F84380468946FFF79EFFE3
:1041600008F14C04002694B1A5686768013F0CD49F
:10417000B5F90C303BB1B5F90E00431C03D04046F5
:104180002946C84706436835F0E72468EBE7FFF7A0
:1041900086FF3046BDE8F88338B50E4D0E4BE81A61
:1041A00085100024AC4205D00B4951F824209047DB
:1041B0000134F7E700F032FE0849094A541AA51005
:1041C0000024AC4205D0054B53F82400804701344D
:1041D000F7E738BD0802002008020020080200208E
:1041E00014020020024B0146186800F00BB800BF13
:1041F00004020020024B01461868FFF767BF00BFAA
:104200000402002070B5CD1C25F0030508350C2DE7
:1042100038BF0C25002D06462DDB8D422BD31D4BC0
:104220001B681C469CB12268501B0DD40B2802D978
:104230002060241817E0A34203D16068154A10607B
:104240001DE0616859601AE023466468EAE7294680
:10425000304600F05FF8431C01460CD0CC1C24F023
:1042600003048C4201D1256009E03046611A00F058
:1042700051F80130F7D10C203060002070BD04F1FE
:104280000B01231D21F00700C31A02D05A42E2504D
:1042900070BD70BDDC07002010B5C9B2034682189E
:1042A0009342184604D0047801338C42F8D100E0E0
:1042B000002010BD10B50023934203D0CC5CC45441
:1042C0000133F9E710BD82180346934202D003F888
:1042D000011BFAE7704700000D4B10B50446186843
:1042E00018B182690AB9FFF771FE013C084814F859
:1042F000011F006829B1826800F01EFD421CF5D143
:1043000010BD82680A21BDE8104000F015BD00BF55
:104310000402002038B5064C0023054608462360F9
:10432000FCF72AF9431C02D1216801B1296038BD8C
:10433000BC08002010B50C46B1F90E1000F03AFD93
:10434000002803DB626D1318636510BDA38923F495
:104350008051A18110BD2DE9F0411D468B890C468D
:1043600003F4807116460AB207462AB1B4F90E105A
:104370000022022300F07AFCA089B4F90E1020F488
:104380008053A381384632462B46BDE8F04100F009
:1043900047BB10B50C46B1F90E1000F067FC431C8A
:1043A000A38903D123F48052A28110BD43F480512C
:1043B000A181606510BDB1F90E1000F047BC034645
:1043C00013F8012B002AFBD1181A013870479368A3
:1043D000013B002B10B5936005DA9469A34208DB1A
:1043E000CBB20A2B05D0136803F8011BC8B21360C7
:1043F00010BDBDE8104000F0B9BA00002DE9F0474B
:104400009CB00D4614460393064618B183690BB958
:10441000FFF7DCFD7C48854201D1756808E07B49E7
:104420008D4201D1B56803E0794A954208BFF5682D
:10443000AB8903F0080001B251B12A6942B10027EB
:104440002023302009978DF829308DF82A003CE090
:104450003046294600F0F6FA0028F0D04FF0FF3041
:10446000CEE003980768021D002F03927DDB0797BB
:10447000013420782E2800F08A80664F2178384653
:104480000322FFF709FF38B1049BC71B402101FA43
:1044900007F10B430493013414F8011B5E488DF8B7
:1044A00028100622FFF7F8FE002800F094805B4AEF
:1044B000002A40F08780039FFB1D23F0070008308F
:1044C0000390099A02EB0801099121460F4611F861
:1044D000012B2AB9B7EB040A15D04FF000090CE004
:1044E000252AF3D1F6E7304614F809102A46FFF7DB
:1044F0006EFF01307CD009F10109D145F3DB099B46
:1045000003EB0A0009903978002971D000244FF09C
:10451000FF3204940794059206948DF853401A9440
:1045200007F101094C463E4F217838460522FFF736
:10453000B3FE09F10109049B30B1C41B012707FA3E
:1045400004F73B430493EDE7D90602D520208DF80C
:1045500053001A0702D52B218DF8531022782A2AEE
:104560003FF47FAF079B274605E0794243F0020303
:10457000079104937CE73C460137217830390929BB
:1045800003D80A2404FB0313F5E7079371E7627865
:104590002A2A09D103980368021D0234002B0392D2
:1045A000B8BF4FF0FF330BE0671C00233C460137D8
:1045B00021783039092903D80A2404FB0313F5E7CD
:1045C00005935AE703A90091304604A92A46154BE2
:1045D000AFF3008007E003A8009004A930462A4604
:1045E000104B00F09FF8B0F1FF3F80467FF469AFB9
:1045F000AB8903F0400002B2002A7FF42FAF099884
:104600001CB0BDE8F08700BFAC560008CC560008CF
:10461000EC560008165700081A5700080000000062
:1046200010570008CF43000830B51346044A05462A
:104630000C46106829462246BDE83040FFF7DEBE32
:10464000040200202DE9F047154699468A680B6957
:10465000DDF820A09A42A8BF13462B60804691F84F
:1046600043000C4608B1591C29602668B20602D5E1
:104670002A68931C2B60206810F0060618D094F866
:10468000437020683E1C18BF012683061AD5A11965
:10469000302281F8432094F84530023681F84430C6
:1046A00010E04046617E4A46D047013006D00136D0
:1046B000E1682A688B1A9E42F3DBE0E74FF0FF3097
:1046C000BDE8F0870027B74209DAE119404691F8C2
:1046D00043104A46D0470130F0D00137F3E7216854
:1046E0002868E668236901F00602042A08BFC0EBC7
:1046F0000605A6680CBF25EAE57500259E42C4BFE5
:10470000C3EB0603ED180026AE4207DA4046A17E51
:104710004A46D0470130D1D00136F5E70020BDE848
:10472000F08700002DE9F0430C4685B0257E0C99FA
:104730006E2D90460746994604F1430200F0AA8088
:1047400012D8632D24D009D8002D00F0BB80582D3D
:1047500040F0CB8084F84550824D57E0642D20D046
:10476000692D40F0C2801CE0732D00F0AF8009D8A5
:104770006F2D2FD0702D40F0B880256845F02006B1
:1047800026603FE0752D25D0782D40F0AE8039E0D1
:104790000868021D0A60016804F1420684F84210AC
:1047A000A7E020680B6810F0800F02D01E1D0E607D
:1047B00008E003F1040510F0400F0D6002D0B3F9DA
:1047C000001000E0196800293CDA2D20494284F8E5
:1047D000430037E025680E6815F0800F02D0331DC6
:1047E0000B6007E006F1040015F0400F086001D0EF
:1047F000318800E03168267E5A4D6F2E14BF0A239F
:1048000008231BE07820584D84F8450020680B6889
:1048100010F0800F03F104060E6003D1410601D5AC
:10482000198800E01968C60744BF40F020002060E6
:1048300019B9206820F0200323601023002084F899
:10484000430001E0474D0A236668002EA66003DBA3
:10485000206820F00400206001B96EB104F142002C
:10486000B1FBF3FE03FB1E110646695C00F801195B
:1048700071460029F4D100E01646921B082B2261F4
:104880003CD12368D80739D56068904236DC511C8A
:10489000616033E026680B6816F0800F05D01E1D9E
:1048A0000E601968606908600CE003F1040016F0FE
:1048B000400F086003D018686369038002E06169F3
:1048C0001E68316000232361164617E00E68321D12
:1048D0000A6036683046FFF772FD636820619842CF
:1048E00088BF23612069606005E004F1420684F816
:1048F000425001232361002184F84310CDF8009039
:104900003846214603AA4346FFF79CFE013002D1F8
:104910004FF0FF3022E000252269954207DA384641
:10492000715D4246C8470130F2D00135F4E7216895
:10493000890705D4E06803998842B8BF08460DE0AE
:104940000025E068039BC21A9542F3DA3846617E7F
:104950004246C8470130DBD00135F2E705B0BDE87B
:10496000F08300BF215700083257000870B50E468B
:104970001446054618B183690BB9FFF727FB254894
:10498000844201D16C6808E023498C4201D1AC68B3
:1049900003E0224A944208BFEC68A089A36900F0B2
:1049A00008010AB2A3600AB123695BB9284621460F
:1049B00000F048F830B1A689092046F04002A281F3
:1049C00028600BE0206821696269401A9042F6B2C3
:1049D00007DB28462146FFF7EDF910B14FF0FF360F
:1049E00015E0A3682268591EA16002F8016B636993
:1049F00022600130984204D0A189CB0707D50A2E46
:104A000005D128462146FFF7D5F90028E6D13046E2
:104A100070BD00BFAC560008CC560008EC5600082C
:104A200038B5074C054600202060084611461A4656
:104A3000FBF70CFD431C02D1236803B12B6038BD8A
:104A4000BC080020364A70B5054610680C4616466C
:104A500018B1816909B9FFF7B9FA324B9C4202D10A
:104A6000326854680CE03048844203D12C4B1868FB
:104A7000846805E02D4A944202D1294C2168CC6813
:104A8000A18901F0080318B208BB01F0100213B2AB
:104A900013B94FF0FF3070BD01F0040108B290B1BE
:104AA000616B41B104F14402914202D02846FFF704
:104AB0000DFB00236363A189236921F024000022F8
:104AC000A08162602360A18941F00800A081226971
:104AD0004AB9A38903F42071B1F5007F03D02846B9
:104AE000214600F0D5F8A08910F0010205D06369D5
:104AF00000225942A260A16107E000F0020319B24E
:104B000009B9606900E01046A060206930B9A28947
:104B100002F0800318B20028BBD170BD002070BD28
:104B200004020020AC560008CC560008EC560008E1
:104B30002DE9F84399461C4B1D68AC6C06460F46A0
:104B4000904654B94FF4C670FFF74CFB0021A8649F
:104B50004FF4C6720446FFF7B6FB25681F2D1EDC16
:104B6000AEB10122D4F8841104EB850002FA05F2FB
:104B70001143022EC0F88480C4F88411C0F8049157
:104B800005D1D4F8883143EA0200C4F8880104EB67
:104B900085020135576025600020BDE8F8834FF09D
:104BA000FF30BDE8F88300BF0C5700082DE9F8433B
:104BB000244B80461868846C0F46002C40D0214658
:104BC00051F8846B751E1F3601EB8606002D30DB15
:104BD0002FB13068B84202D0013D043EF6E72168AB
:104BE000A6F18402481E854252F87C3C01D1256022
:104BF00002E0002142F87C1C002BEDD00122D4F809
:104C00008401D4F8009002FA05F2024201D19847DB
:104C10000BE0D4F888110A4204D1404656F8801CB3
:104C2000984702E056F8800C984723689945D3D0FE
:104C3000C5E7054A22B1236813B92046FFF7DAFA1F
:104C4000BDE8F8830C570008F541000838B5064C5C
:104C50000023054608462360FBF7E2FB431C02D114
:104C6000216801B1296038BDBC08002038B5074C67
:104C7000054600202060084611461A46FBF748FC0E
:104C8000431C02D1236803B12B6038BDBC0800204F
:104C9000F0B58B890C4603F002010AB291B00546CB
:104CA00052BBB4F90E1000290ADAA18901F0800282
:104CB00010B20027B84214BF40264FF480660EE0C1
:104CC00001AA00F089F80028EFDB029F07F470408A
:104CD000B0F50056734253EB06074FF48066284642
:104CE0003146FFF78FFA70B9A18901F4007210B252
:104CF000E8B941F00203A38104F1470101222160D8
:104D00002161626113E0A1890A4B41F08002AB622C
:104D1000A2812060206166614FB12846B4F90E106F
:104D200000F06CF818B1A08940F00103A38111B024
:104D3000F0BD00BF253F000870B50E46144605467D
:104D400018B183690BB9FFF741F91748844201D1C3
:104D50006C6808E015498C4201D1AC6803E0144A44
:104D6000944208BFEC68A368581E0028A06014DABB
:104D7000A36998420ADB20680670226811780A2924
:104D800002D0084601320DE0284601E028463146AF
:104D90002246BDE87040FFF7E9BD21680E70226829
:104DA00012F8010B226070BDAC560008CC5600080A
:104DB000EC56000838B5074C054600202060084630
:104DC00011461A46FBF76AFB431C02D1236803B164
:104DD0002B6038BDBC08002038B5074C00230546C1
:104DE000084611462360FBF7A7FB431C02D121684C
:104DF00001B1296038BD00BFBC08002038B5064CA1
:104E00000023054608462360FBF76EFB431C02D1D6
:104E1000216801B1296038BDBC080020F8B500BF89
:104E2000F8BC08BC9E467047F8B500BFF8BC08BC8B
:104E30009E4670476F626A2D3E70696E20213D204C
:104E40002850696E4E616D65294E4300433A5C43BC
:104E50006F64655C6769745F7265706F5C676974C5
:104E60006875625C6D6265642D6F66666963696111
:104E70006C5C6275696C645C6D6265645C54415223
:104E80004745545F4E55434C454F5F463430315291
:104E9000455C5441524745545F53544D5C54415214
:104EA0004745545F53544D333246342F6770696F12
:104EB0005F6F626A6563742E680000000000000086
:104EC00001020304010203040607080900000000B0
:104ED0000000000001020304060708096F626A2D42
:104EE0003E70696E20213D202850696E4E616D65CF
:104EF000294E4300433A5C55736572735C52796185
:104F00006E5C5265616C20446F63756D656E747381
:104F10005C456E67696E656572696E672050726F79
:104F20006A656374735C47656172626F785C47653C
:104F30006172626F785F46575C6D6265645C544174
:104F4000524745545F4E55434C454F5F46343031D0
:104F500052455C5441524745545F53544D5C544153
:104F6000524745545F53544D333246342F6770696E
:104F70006F5F6F626A6563742E6800427574746F48
:104F80006E20707265737365640000006F626A2D35
:104F90003E61646320213D20284144434E616D659C
:104FA000294E4300433A5C436F64655C6769745FF4
:104FB0007265706F5C6769746875625C6D62656468
:104FC0002D6F6666696369616C5C6C69627261729F
:104FD0006965735C6D6265645C7461726765747346
:104FE0005C68616C5C5441524745545F53544D5C5E
:104FF0005441524745545F53544D333246345C61FB
:105000006E616C6F67696E5F6170692E630000008E
:1050100066756E6374696F6E20213D202875696E18
:105020007433325F74294E430000000043616E6E9A
:105030006F7420696E697469616C697A6520505774
:105040004D0A00006F626A2D3E70776D20213D2071
:105050002850574D4E616D65294E4300433A5C43DD
:105060006F64655C6769745F7265706F5C676974B3
:105070006875625C6D6265642D6F666669636961FF
:105080006C5C6C69627261726965735C6D626564A7
:105090005C746172676574735C68616C5C544152E6
:1050A0004745545F53544D5C5441524745545F53F8
:1050B000544D333246345C70776D6F75745F617038
:1050C000692E630043616E6E6F7420696E69746946
:1050D000616C697A65205541525400006F626A2DF7
:1050E0003E7561727420213D2028554152544E6115
:1050F0006D65294E43000000433A5C436F64655C74
:105100006769745F7265706F5C6769746875625C0B
:105110006D6265642D6F6666696369616C5C6C695C
:10512000627261726965735C6D6265645C74617200
:10513000676574735C68616C5C5441524745545FA9
:1051400053544D5C5441524745545F53544D333290
:1051500046345C73657269616C5F6170692E6300CF
:105160000000000000000000892A0008A12A0008B1
:105170000000000000000000C51B0008E11C000842
:10518000612B00080000000000000000000000008B
:10519000E11B0008ED1F0008B92B0008000000000B
:1051A0000000000000000000E12B0008F92B0008BF
:1051B00059050008000000006D626564206173738A
:1051C0006572746174696F6E206661696C65643ABA
:1051D0002025732C2066696C653A2025732C206C81
:1051E000696E65202564200A00000000636F756CFD
:1051F00064206E6F742070696E6F7574000000001B
:1052000070696E6D6170206D69732D6D6174636876
:105210000000000070696E6D6170206E6F74206612
:105220006F756E6420666F72207065726970686554
:1052300072616C0070696E6D6170206E6F742066B3
:105240006F756E6420666F722066756E6374696F29
:105250006E00000021340008453400087534000851
:105260008934000861340008545200087C0500208D
:105270000300000000440040930300000A00000007
:1052800000100140930300000C00000000140140D6
:1052900013040000170000000010014093030000F9
:1052A000270000000014014013040000FF0000006C
:1052B000FFFFFFFF000000000000000000000040B2
:1052C000930800000100000000000040931000005F
:1052D00002000000000000409318000003000000DE
:1052E0000000004093200000050000000000004086
:1052F00093080000060000000004004013090000AD
:105300000700000000000140938800000800000032
:105310000000014093080000090000000000014067
:10532000931000000A0000000000014093180000E4
:105330000B00000000000140932000000F0000005F
:105340000000004093080000100000000000014031
:1053500093900000110000000000014093980000AD
:105360001300000000000040931000001400000033
:105370000004004013090000150000000004004074
:10538000131100001600000000080040130900007F
:105390001700000000080040131100001800000072
:1053A0000008004013190000190000000008004028
:1053B000132100001A0000000000004093180000B4
:1053C0001D00000000000140938800001E00000046
:1053D00000000140939000001F0000000000014009
:1053E000939800002600000000040040130900000C
:1053F00027000000000400401311000028000000F6
:1054000000040040131900002900000000040040BF
:1054100013210000FF000000FFFFFFFF000000005D
:105420000200000000440040930300000900000057
:1054300000100140930300000B0000000014014025
:105440001304000016000000001001409303000048
:10545000260000000014014013040000FF000000BB
:10546000FFFFFFFF000000000000000000200140DF
:1054700005000000010000000020014005080000B8
:1054800002000000002001400510000003000000A1
:105490000020014005180000040000000020014029
:1054A0000520000005000000002001400528000044
:1054B0000600000000200140053000000700000049
:1054C00000200140053800001000000000200140CD
:1054D00005400000110000000020014005480000C8
:1054E00020000000002001400550000021000000C5
:1054F000002001400558000022000000002001406B
:105500000560000023000000002001400568000045
:10551000240000000020014005700000250000006C
:105520000020014005780000FF000000FFFFFFFFA2
:105530000000000070696E20213D202850696E4EE9
:10554000616D65294E430000433A5C436F64655CBE
:105550006769745F7265706F5C6769746875625CB7
:105560006D6265642D6F6666696369616C5C6C6908
:10557000627261726965735C6D6265645C746172AC
:10558000676574735C68616C5C5441524745545F55
:1055900053544D5C5441524745545F53544D33323C
:1055A00046345C6770696F5F6170692E630000004C
:1055B00000000000000000000000000000000000EB
:1055C00000000000000000000100000002000000D8
:1055D00003000000040000000000000001000000C3
:1055E00002000000030000000400000005000000AD
:1055F0000000000001000000110000000200000097
:105600001200000003000000000011100000211033
:1056100000003110000012100000221000003210B3
:105620000000001050696E6D6170206572726F72BB
:105630003A2077726F6E6720706F7274206E756D8E
:105640006265722E00000000433A5C436F64655C43
:105650006769745F7265706F5C6769746875625CB6
:105660006D6265642D6F6666696369616C5C6C6907
:10567000627261726965735C6D6265645C746172AB
:10568000676574735C68616C5C5441524745545F54
:1056900053544D5C5441524745545F53544D33323B
:1056A00046345C70696E6D61702E6300000000000E
:1056B00000000000000000000000000000000000EA
:1056C00000000000000000000000000000000000DA
:1056D00000000000000000000000000000000000CA
:1056E00000000000000000000000000000000000BA
:1056F00000000000000000000000000000000000AA
:10570000000000000000000000000000A0010020D8
:10571000232D302B2000686C4C006566674546479A
:10572000003031323334353637383941424344451D
:10573000460030313233343536373839616263648C
:08574000656600000000000096
:08574800A0AAFF7F0100000090
:1057500000000000C008002000BD0105000000009E
:10576000AC560008CC560008EC56000800000000BB
:10577000000000000000000000000000F24E0008E1
:105780000000000000000000000000000000000019
:105790000000000000000000000000000000000009
:1057A00000000000000000000000000000000000F9
:1057B00000000000000000000000000000000000E9
:1057C000A0010020B9010008A91B00080120000861
:0857D000950100080000000033
:04000005080005C525
:00000001FF
