:020000040800F2
:100000000080012059070008AD070008AD0700086F
:10001000AD070008AD070008AD07000800000000AC
:10002000000000000000000000000000AD07000814
:10003000AD07000800000000AD070008AD0700088C
:10004000AD070008AD070008AD070008AD070008C0
:10005000AD070008AD070008AD070008AD070008B0
:10006000AD070008AD070008AD070008AD070008A0
:10007000AD070008AD070008AD070008AD07000890
:10008000AD070008AD070008AD070008000000003C
:10009000000000000000000000000000AD070008A4
:1000A000AD070008AD070008AD070008AD07000860
:1000B000AD070008AD070008AD070008AD07000850
:1000C000AD070008AD070008AD070008AD07000840
:1000D000AD070008AD070008AD07000800000000EC
:1000E000AD070008AD070008AD07000800000000DC
:1000F000000000000000000000000000AD07000844
:1001000000000000AD070008AD070008AD070008BB
:1001100000000000000000000000000000000000DF
:10012000AD070008AD070008AD070008AD070008DF
:10013000AD07000800000000000000000000000003
:10014000000000000000000000000000AD070008F3
:10015000AD070008AD070008AD070008AD070008AF
:10016000AD070008AD070008000000000000000017
:10017000000000000000000000000000000000007F
:1001800000000000AD0700080000000000000000B3
:10019000AD07000810B5054C237833B9044810B1F9
:1001A0000448AFF300800121217010BD240200201B
:1001B00000000000B88E000808B5064B1BB10648C9
:1001C0000649AFF300800648016811B1054A02B143
:1001D000904708BD00000000B88E000828020020EB
:1001E0002002002000000000154B002B08BF134B1D
:1001F0009D46A3F5803A00218B460F461348144ACA
:10020000121A06F0D0FA0F4B002B00D098470E4B75
:10021000002B00D098470020002104460D46002006
:100220000C490022002305F06FFE06F0D1F92046AC
:10023000294600F05DFA05F083FE00BF00000800CB
:1002400000800120000000000000000024020020C7
:100250006C0E00201563000800B585B072B605214C
:10026000684603F011FE10E0039B019A1A60962085
:1002700003F036FF9DF90030013310D0019A039B43
:1002800012041A60962003F02BFF9DF90030013311
:10029000EAD106480649342203F0C6FDE4E70348E4
:1002A0000349342203F0C0FDE8E700BF4C81000899
:1002B000648100080F4A30B493689468B4F1006F09
:1002C0001A4604D0103030BC42F8201070470A4A59
:1002D00003F5CA7553F8044B42F8044FAB42F9D109
:1002E0004FF00052034B10309A6030BC42F820109F
:1002F000704700BF00ED00E0FCFFFF1F70B5114C20
:100300002368DA68910715D4DA68520709D56FF0C7
:1003100004020D4E1A615D6A3368EB1AB3F57A7FF9
:1003200000D270BD00F060FA2368356005F57A757B
:100330009D6370BD6FF002021A6103F0B1FE236885
:10034000E2E700BF500D002040020020244B30B5F2
:100350001A6C244C42F008021A641A6C83B002F042
:1003600008020192019A1A6A42F008021A621A6A95
:1003700022F008021A6201F033FC1B4A1B4B126880
:100380001B492160A3FB0212920C0025013A4FF099
:10039000FF3320466260E3602561A560656101F07E
:1003A0002FFA32201349FFF785FF134B4FF48022B9
:1003B0005A602946204601F091F92046042101F0B7
:1003C0008DF923680D495A6A0A6002F57A729A63B8
:1003D000DA68284642F00402DA6003B030BD00BF9C
:1003E00000380240500D00209C01002083DE1B439A
:1003F000000C0040FD02000800E100E04002002087
:1004000008B501F0EDFBBDE8084000F0D3B900BF2E
:10041000036870B51B690021012204469847431CFC
:1004200005460ED0236820461B690021022298470A
:100430002368064629461B69204600229847304615
:1004400070BD70BD084B094A026010B403F580719D
:10045000002453F8042B824208BF43F8044C8B421B
:10046000F7D15DF8044B704744020020F881000882
:100470000A4B0B4A10B503F5807104460260002058
:1004800053F8042B944208BF43F8040C8B42F7D175
:10049000204604F08BFB204610BD00BF4402002024
:1004A000F881000802480221032203F005B900BFC9
:1004B000100E0020F0B50E4685B03549054606F011
:1004C00064FB20B9334B1B6863B105B0F0BD28460F
:1004D000314906F05AFB78B92E4B1B6843B1012015
:1004E00005B0F0BD0190FFF7DDFF019805B0F0BD4C
:1004F000FFF7D8FF0120E8E72846284906F045FB2A
:1005000010B3274B002402E00134402C21D053F8D3
:10051000040F0028F8D12B783A2B32D0294602A8B4
:1005200003F09AF902A803F0E9F990B102A803F0E8
:10053000CDF988B102A803F0D3F903464BB1194AAB
:10054000E01C42F82430C0E7124B1B68ABB102201C
:10055000BBE74FF0FF30B8E702A803F0ABF9054660
:100560000028F6D0036802A89F6803F0A1F932467C
:1005700001462846B8470346E0E7FFF793FF02200D
:10058000A3E72846084902AA06F08EFA029BD5E79F
:10059000D4810008740A0020E4810008DC8100088E
:1005A000400200204402002020820008022808B5F2
:1005B0000BDDC21E074B53F82200002143F8221026
:1005C00028B103685B68984708BD002008BD4FF05C
:1005D000FF3008BD44020020022870B50C461646C4
:1005E0000FDC0E4B1B680BB9FFF75CFFA51936B18A
:1005F00014F8011B0A4803F00DF9AC42F8D130465B
:1006000070BD0338074B53F8200018B103681B680E
:10061000984770BD4FF0FF3070BD00BF740A0020D6
:10062000100E002044020020022810B50C4609DC00
:100630000D4B1B688BB10D4803F0E0F801232070CF
:10064000184610BD03380A4B53F8200040B1036828
:100650009B6898470346184610BDFFF723FFEAE75B
:100660004FF0FF33ECE700BF740A0020100E0020AB
:1006700044020020022808B508DD0338064B53F871
:10068000200028B10368DB68984708BD012008BD39
:100690004FF0FF3008BD00BF44020020022808B51B
:1006A00008DD0338064B53F8200028B103681B69A6
:1006B000984708BD002008BD4FF0FF3008BD00BFBF
:1006C00044020020022808B504D84FF400534B60C0
:1006D000002008BD05F02EFC092303604FF0FF3019
:1006E00008BD00BF08B5012005F02AFC704700BF17
:1006F00008B5FFF785FEFFF7F9FFBDE8084002F0F7
:10070000B1B900BF074A13681844EFF30881884263
:1007100002D2106018467047034B0C221A604FF04B
:10072000FF30704798010020680E0020074C08B584
:1007300023680546986805F01DFD2368D86805F014
:1007400019FD05B9FEE7FFF787FDFBE7080200206A
:10075000002106F0EBB800BFDFF838D0002100F030
:1007600004B80D4B5B58435004310C480C4B4218F5
:100770009A42FFF4F6AF0B4A00F003B8002342F8A8
:10078000043B094B9A42FFF4F9AF01F007FBFFF776
:100790002BFD704700800120C48E000894010020CA
:1007A00024020020240200206C0E0020FFF7FEBF70
:1007B000704700BF08B50B4B1A6842F400721A600C
:1007C0001A6842F480621A601A6842F480721A60F1
:1007D000032000F0F7F90F20FFF7B8FDFFF7E8FF5F
:1007E000002008BD003C0240024B1A6801321A602A
:1007F000704700BF44030020014B1868704700BFDA
:1008000044030020704700BFF8B50446002800F0FC
:10081000998090F83D3003F0FF02002B00F08480B7
:10082000494A4A48022384F83D305168236821F43C
:100830004031516055686168294351605E6827699D
:10084000A568E168E26A26F480765E605E6846EA42
:1008500007265E605E6826F040765E605E6835431F
:100860005D609D6825F400659D609D68824245EA53
:10087000010199605DD09868216B20F070609860EC
:10088000986802439A609A6822F040529A609A6887
:100890000A439A609968A069626A21F0020199602E
:1008A000996841EA4001996042BB5A6822F40062AB
:1008B0005A60DD6AE169226A606925F47005DD62CB
:1008C000DD6A013A45EA0252DA629A6822F400725D
:1008D0009A609A6842EA41229A609A6822F4806299
:1008E0009A609968002241EA802001219860226480
:1008F000104684F83C2084F83D10F8BD5A6842F454
:1009000000625A605A6822F460425A6059684FF493
:10091000604090FAA0F0B0FA80F0A26AC0B2013A4A
:1009200082400A435A60C4E780F83C20FFF76AFF20
:1009300076E79A6822F070629A609A6822F04052D4
:100940009A60A7E70120F8BD002301400100000FD5
:1009500030B490F83C3082B00022012B01923DD09F
:1009600090F83D300122222B0CBF3223122380F855
:100970003C20026880F83D309368DB0714D41E49A0
:100980001E4B0C689168A3FB04539B0C03EB4303C1
:1009900041F0010191600193019B2BB1019B013B4F
:1009A0000193019B002BF9D1154B5B68002113F0DB
:1009B0001F0380F83C1006D0124B9A4216D008460E
:1009C00002B030BC7047916811F040500AD1936872
:1009D00043F08043936002B030BC7047022002B005
:1009E00030BC7047184602B030BC7047906810F0B9
:1009F0004050ECD0E3E700BF9C01002083DE1B43A6
:100A0000002301400020014003689A6870B5560534
:100A100005460C4602D59B68D80520D4FFF7ECFEAE
:100A200006462A6801E0611C0CD113689B07FAD5C1
:100A300095F83D30252B0CBF3523152385F83D3027
:100A4000002070BD24B1FFF7D7FE801B8442E8D29E
:100A50000320002385F83D0085F83C3070BD04225A
:100A6000002385F83D2085F83C30012070BD00BF93
:100A70000368D86C704700BFF0B490F83C3082B087
:100A80000022012B019259D00A680123092A144639
:100A900080F83C302BD803688F681E69496802EBE8
:100AA00042054FF0070C0CFA05FC26EA0C061E6105
:100AB0001E6907FA05F5354306291D612DD801EB9E
:100AC00081015E6B05391F258D4026EA05055D63B2
:100AD0005D6B04FA01F12943596337498B423ED0DB
:100AE000002380F83C30184602B0F0BC7047036821
:100AF0008F68DE68496894B204EB44051E3D4FF0F0
:100B0000070C0CFA05FC26EA0C06DE60DE6807FA24
:100B100005F535430629DD60D1D90C2901EB8101AA
:100B200010D81E6B23391F258D4026EA05051D634D
:100B30001D6B04FA01F129431963CEE7022002B0CC
:100B4000F0BC7047DE6A41391F258D4026EA050555
:100B5000DD62DD6A04FA01F12943D962BDE7122A98
:100B600023D0A2F11003012BBAD8144B5968102AD4
:100B700041F400015960B3D1114A03F1467303F502
:100B80002E33126803F28333A3FB02139B0C03EB97
:100B900083035B000193019B002BA1D0019B013BD0
:100BA0000193019B002BF9D19AE7044B5A6842F458
:100BB00080025A6094E700BF0020014000230140FA
:100BC0009C010020074AD1684FF6FF030B4043F019
:100BD000BF6300F0070043F4003343EA0023D3600F
:100BE000704700BF00ED00E02DE9F00FD1F800C024
:100BF0007C4E82B0002303E00133102B00F09C8078
:100C0000012404FA03F202EA0C049442F4D14A6883
:100C100022F01009B9F1020F00F092805D004FF050
:100C20000308D0F800B008FA05F86FEA080802F0E7
:100C3000030A08EA0B0B0AFA05FA09F1FF394BEA35
:100C40000A0AB9F1010FC0F800A040F2A280D0F862
:100C50000C908F6808EA090807FA05F548EA0505C7
:100C6000C560D500C8D5604F7D6C45F480457D6476
:100C7000D7F8448023F0030508F48048CDF80480B9
:100C800005F1804503F003080F2705F59C354FEA71
:100C9000880807FA08FA554FDDF80490D5F808904F
:100CA000B84229EA0A0900F08C8007F58067B8424B
:100CB00000F08A804E4FB84200F08A804D4FB84213
:100CC00000F08B804C4FB8420CBF4FF0040A4FF03D
:100CD000050A0AFA08F848EA0908C5F80880D6F8AB
:100CE0000080E543D7034CBF44EA080805EA08083A
:100CF000C6F80080D6F8048097034CBF44EA080881
:100D000005EA0808C6F80480D6F80880D7024CBF68
:100D100044EA080805EA0808C6F80880D6F80C80F6
:100D2000920203F1010354BF05EA080444EA0804EF
:100D3000102BF4607FF464AF02B0BDE8F00F704791
:100D40004FEAD30800EB880803F00709D8F82070B1
:100D50004FEA89090F2505FA09FB27EA0B0A0F69F3
:100D600007FA09F94AEA0905C8F820505D004FF072
:100D70000308D0F800A008FA05F86FEA080802F0A6
:100D8000030908EA0A0A09FA05F94AEA0909C0F852
:100D90000090D0F80890CF6808EA090907FA05FA28
:100DA00049EA0A09C0F80890D0F804A0C2F3001973
:100DB0002AEA040A09FA03F94AEA0909C0F8049080
:100DC00045E74FF0000886E7012707FA08F882E7B1
:100DD0004FF0020A0AFA08F87DE74FF0030A0AFA10
:100DE00008F878E7003C014000380240000002406B
:100DF00000080240000C024000100240704700BF93
:100E0000F8B50446002869D090F8353003F0FF02A9
:100E1000002B4ED02368324D022284F835201A6808
:100E200022F001021A6000F087FB2E4962682368F5
:100E3000A1FB0061890CAA42596024D85200B0FB82
:100E4000F2F0C0F30B020131032A19628CBF844611
:100E50004FF0040C206AE769E6682169A2696569B8
:100E6000C3F81CC0384331432A4318609960DA60E4
:100E70001868002240F0010001211860A2631046AA
:100E800084F83510F8BD4FF49677174EA56807FB28
:100E900001F1A6FB017189090131196275B902EBF3
:100EA0004202B0FBF2F0C0F30B02A2B94FF0010C0A
:100EB000D0E780F83420FFF7A1FFABE702EB820216
:100EC00002EB8202B0FBF2F0C0F30B02002AEDD07D
:100ED00040F4404CBEE740F4004CBBE70120F8BDB5
:100EE000A086010083DE1B43D34D6210064B1A69B6
:100EF000012922F004021A6103D040BF20BF20BFA5
:100F0000704730BF704700BF00ED00E0F0B50368E8
:100F1000DE0783B0044637D5A54A916801F00C017D
:100F2000042900F0F380916801F00C01082900F019
:100F3000E980A04B9E4D00221A70FFF75DFC41F244
:100F40008836074605E0FFF757FCC01BB04200F2A9
:100F5000C8802B689903F6D4964B22791A7063687F
:100F6000002B00F01181FFF747FC914D074641F23D
:100F7000883605E0FFF740FCC01BB04200F2B180AC
:100F80002B689A03F6D523689F072FD5884A916866
:100F900011F00C0F00F0AC80916801F00C010829F1
:100FA00000F0A280E368002B00F0DD80824B804DD2
:100FB00001221A60FFF720FC064605E0FFF71CFC43
:100FC000801B642800F28D802B68794A9807F5D53C
:100FD0001168F82090FAA0F0B0FA80F02369C0B24E
:100FE00021F0F80183400B43136023681A0720D4D3
:100FF000580734D4A369CBB16D4DAA6802F00C0236
:10100000082A7CD0022B6D4B4FF000021A6000F0D2
:10101000CB80FFF7F1FB2C46054604E0FFF7ECFB25
:10102000401B64285DD823689B01F7D4002003B0DF
:10103000F0BD6369002B73D0614B5D4D01221A60D6
:10104000FFF7DAFB064604E0FFF7D6FB801B6428B7
:1010500047D86B6F9B07F7D523685807CAD5544B01
:10106000584D1A6C42F080521A641B6C03F0805386
:101070000193019B2B6843F480732B60FFF7BCFB4B
:10108000064604E0FFF7B8FB801B642829D82B68CC
:10109000D905F7D54C4B464D00221A70FFF7ACFB33
:1010A00041F28836074604E0FFF7A6FBC01BB042BA
:1010B00017D82B6F9A07F7D4434B227A1A70A3687C
:1010C000002B00F0C780FFF797FB394D074641F230
:1010D00088362B6F9B078DD4FFF78EFBC01BB04269
:1010E000F7D9032003B0F0BD526856023FF55AAF5E
:1010F0002F4A1268950723D5E268012A20D00120E3
:1011000003B0F0BD526855027FF513AF284A12684C
:1011100090037FF539AF6268002A7FF435AFEEE7C0
:10112000274A234D1360FFF767FB064604E0FFF7ED
:1011300063FB801B6428D4D86B6F9F07F7D48BE7C1
:101140001B4AF825106895FAA5F5B5FA85F52269C8
:101150001749EDB220F0F800AA4002430A601A07CE
:101160007FF546AF65E7144A114D1360FFF744FB66
:10117000064604E0FFF740FB801B6428B1D82B68CB
:101180009907F7D4236831E7FFF736FB084D074688
:1011900041F2883604E0FFF72FFBC01BB042A0D815
:1011A0002B689B03F7D4EEE6FFF726FB064612E01A
:1011B00000380240023802400000474260004742C7
:1011C000800E47420070004070380240FFF714FB69
:1011D000801B642885D82B689901F7D447F6C07521
:1011E00095FAA5F5B5FA85F54FF4403191FAA1F1DC
:1011F000B1FA81F14FF0706292FAA2F2B2FA82F281
:10120000A66AD4F824C0D4F820E0E769E06A194B54
:10121000194CEDB276080CFA05F54EEA0707C9B28B
:10122000013E3D43D2B206FA01F100FA02F229432F
:101230001143012261601A60FFF7DEFA054605E0FE
:10124000FFF7DAFA401B64283FF64BAF23689A0198
:10125000F6D5EBE6FFF7D0FA074D074641F28836A0
:101260002B6F98077FF5C6AEFFF7C6FAC01BB042DA
:10127000F6D936E760004742003802407C4B1A68D6
:1012800002F00F028A422DE9F0410C46054609D2D0
:10129000CAB21A701B6803F00F038B4258D00120AA
:1012A000BDE8F08103689A0706D5724A81689068A4
:1012B00020F0F00001439160DF0727D56B68012B18
:1012C00079D09A1E012A6B4A126840F287809107F2
:1012D000E5D5684FBA6822F003021343BB60FFF7FD
:1012E0008BFA6B68012B06467CD0022B00F08880BD
:1012F000032B65D041F2883804E0FFF77DFA801BAC
:10130000404565D8BB6813F00C0FF6D1584BE2B2DC
:101310001A701B6803F00F03A342C0D12B685A0751
:1013200006D5544AE968906820F4E0500143916082
:101330001B0707D54F4B29699A6822F4604242EA9D
:10134000C1029A600F20FFF701F80020BDE8F0818C
:1013500003689F0706D5474A8168906820F0F0002F
:1013600001439160DE07DAD56B68012B56D09A1ED7
:10137000012A404A12682ED9910790D53D4EB26895
:1013800022F003021343B360FFF736FA6B68012BB8
:10139000044648D0022B54D0032B60D041F288374A
:1013A00004E0FFF729FA001BB84211D8B36813F024
:1013B0000C0FF6D1B2E72F4A1268960389D46EE774
:1013C00041F28834BB68FFF717FA801BA042F9D9B5
:1013D0000320BDE8F0819001D0D460E790013FF593
:1013E00078AF5CE741F2883804E0FFF705FA801B2C
:1013F0004045EDD8BB6803F00C03042BF5D185E71D
:1014000041F2883804E0FFF7F7F9801B4045DFD848
:10141000BB6803F00C03082BF5D177E7154A126877
:101420009403ABD43BE741F2883704E0FFF7E4F9DB
:10143000001BB842CCD8B36803F00C03042BF5D1E1
:101440006CE741F2883704E0FFF7D6F9001BB84299
:10145000BED8B36803F00C03082BF5D15EE741F268
:101460008835B368FFF7C8F9001BA842F9D9AFE780
:10147000003C0240003802401E4B9A6802F00C0209
:10148000042A10B432D0082A03D01B485DF8044B5C
:10149000704758685A685C6812F4800F00F03F018A
:1014A00047F6C07292FAA2F2B2FA82F247F6C0731D
:1014B00014BF12481048D2B22340D3400D4AB0FBAB
:1014C000F1F000FB03F052684FF4403393FAA3F3BA
:1014D000B3FA83F302F44032DBB222FA03F30133AE
:1014E0005B00B0FBF3F05DF8044B704703485DF818
:1014F000044B7047003802400024F40000127A00C8
:1015000008B5FFF7B9FF094BF0229B6892FAA2F2E7
:10151000B2FA82F203F0F003D2B223FA02F20449E3
:10152000044B8A5CD040186008BD00BF0038024000
:10153000308200089C01002008B5FFF7E1FF084A4F
:101540004FF4E053926893FAA3F3B3FA83F302F4EF
:10155000E052DBB222FA03F3024AD35CD84008BD62
:10156000003802403082000808B5FFF7C9FF084A7A
:101570004FF46043926893FAA3F3B3FA83F302F44F
:101580006042DBB222FA03F3024AD35CD84008BDC2
:1015900000380240308200080E4B0F22026010B467
:1015A0009C680D4A04F0030444609C6804F0F00455
:1015B00084609C6804F4E054C4609B685DF8044B4C
:1015C00003F46043DB080361136803F00F030B604F
:1015D000704700BF00380240003C0240036A23F01D
:1015E0000103F0B48F680E680362036A104D42680D
:1015F000846923F0020324F07304A84243EA07033A
:1016000044EA060406D04968426084614163F0BC44
:1016100003627047CF688E694D6923F0080322F496
:1016200040723B43354323F004032A43EBE700BFFA
:1016300000000140036A23F48073F0B48F680E68E1
:101640000362036A114D4268C46923F4007324F0F5
:101650007304A84243EA072344EA060406D0496813
:101660004260C461C163F0BC03627047CF684E69D9
:101670008D6923F4006322F4405243EA072342EACF
:10168000061223F4806342EA0512E8E700000140F5
:10169000036A23F48053F0B48F680E680362026A11
:1016A0000C4D4368C46922F4005224F4E644A84275
:1016B00042EA073244EA062406D049684360C4611E
:1016C0000164F0BC026270474D6923F4804343EA31
:1016D0008513F2E700000140704700BF03680E4A1F
:1016E000186A10B4012404FA01F120EA010018621A
:1016F000186A934241EA0001196207D01A685DF83E
:10170000044B42F0010200201A6070475A6C42F408
:1017100000425A64F2E700BF00000140704700BF7A
:1017200003680E4A186A10B4012404FA01F120EA91
:1017300001001862186A934241EA0001196207D059
:101740001A685DF8044B42F0010200201A607047ED
:101750005A6C42F400425A64F2E700BF00000140B4
:10176000264A0368904230B434D0B0F1804F20D084
:10177000A2F57C4290421CD002F58062904218D0C3
:1017800002F58062904214D002F59A32904214D051
:1017900002F58062904210D002F5806290420CD037
:1017A0008C680A6803600123C462826230BC4361B2
:1017B00070474A6823F070031343CD688C680A6849
:1017C00023F440732B4303600123C462826230BC64
:1017D000436170474C68CA6823F070031C4324F4CB
:1017E0004074224302608B68C3620B6883620B699A
:1017F00003630123436130BC704700BF0000014018
:1018000010B50446B0B190F8393003F0FF0263B16F
:101810002146022351F8040B84F83930FFF7A0FF6A
:10182000012384F83930002010BD80F83820FFF7FC
:1018300053FFEDE7012010BD10B50446B0B190F89C
:10184000393003F0FF0263B12146022351F8040B43
:1018500084F83930FFF784FF012384F83930002001
:1018600010BD80F83820FFF759FFEDE7012010BDCB
:10187000036A23F01003F0B48F680E680362036AF2
:10188000114D4268846923F0200324F4E644A84201
:1018900043EA071344EA062406D04968426084619B
:1018A0008163F0BC03627047CF684E698D6923F095
:1018B000800322F4406243EA071342EA860223F0DF
:1018C000400342EA8502E8E70000014038B590F89D
:1018D0003830012B04460D4628D00121022380F820
:1018E000381080F839300C2A19D8DFE802F00718D0
:1018F00018183418181847181818210029460068B5
:10190000FFF76CFE23682A69996941F00801996123
:10191000996921F00401996199690A439A61012347
:10192000002084F8393084F8380038BD022038BDF2
:1019300029460068FFF7ACFE23682969DA6942F49A
:101940000062DA61DA6922F48062DA61DA6942EA15
:101950000122DA61E3E729460068FFF789FF23687F
:1019600029699A6942F400629A619A6922F4806254
:101970009A619A6942EA01229A61D0E72946006891
:10198000FFF758FE23682A69D96941F00801D96137
:10199000D96921F00401D961D9690A43DA61BEE746
:1019A000036804201A6A00FA01F122EA01021A62AD
:1019B0001A6A114319625A6C42F400425A641A6856
:1019C00042F001021A600020704700BF2DE9F0418B
:1019D0000568C1682B69C269D0F810E0876846695C
:1019E00023F440531943044680692961EB684EEAA9
:1019F000070123F41643314323F00C0311430B4337
:101A0000EB606B6923F440730343B2F5004F6B61E5
:101A1000594B3CD09D4200F08C8003F580639D4281
:101A200000F08780FFF788FD6368544E00EB80006C
:101A30009B0000EB8000B0FBF3F7FFF77DFD6368D0
:101A400000EB80009B0000EB8000B0FBF3F8FFF799
:101A500073FD636800EB800000EB80009B00B0FB2F
:101A6000F3F3A6FB0727A6FB03237F095B0964208A
:101A70003F0100FB13884FEA081808F13208A6FB63
:101A80000836C6F343163743AF60BDE8F0819D4288
:101A90002DD003F580639D4229D0FFF74DFD63688B
:101AA000364E00EB80005B0000EB8000B0FBF3F7EC
:101AB000FFF742FD636800EB80005B0000EB8000F5
:101AC000B0FBF3F8FFF738FDA6FB072763687F0933
:101AD00000EB80003F0100EB80005B00B0FBF3F304
:101AE000A6FB03235B09642202FB1388C3E7FFF70D
:101AF0003BFD6368214E00EB80005B0000EB800043
:101B0000B0FBF3F7FFF730FD636800EB80005B008C
:101B100000EB8000B0FBF3F8FFF726FDA6FB0727DC
:101B200063687F0900EB80003F0100EB80005B00F1
:101B3000D4E7FFF719FD6368104E00EB80009B00AF
:101B400000EB8000B0FBF3F7FFF70EFD636800EBDE
:101B500080009B0000EB8000B0FBF3F8FFF704FD72
:101B6000A6FB072763687F0900EB80003F0100EBBD
:101B700080009B00B2E700BF001001401F85EB51C1
:101B8000704700BF10B5044640B390F8393003F0F9
:101B9000FF02F3B12368022284F83920DA6822F4C4
:101BA0000052DA602046FFF711FF23681A6922F419
:101BB00090421A615A6922F02A025A61D8680022BA
:101BC00040F400500121D860E263104684F83910D7
:101BD00010BD80F83820FFF7D3FFDBE7012010BDF0
:101BE000164B9A6802F00C02042A24D0082A0AD064
:101BF000134A124B13489968134BC1F30311415C0C
:101C0000CA401A607047586859685B6842024CBF06
:101C10000E4A0B4A01F03F01C3F38813B2FBF1F205
:101C200002FB03F2054B5B68C3F3014301335B0026
:101C3000B2FBF3F2DDE7054ADBE700BF0038024004
:101C40000024F400408200089C01002000127A0069
:101C5000224A234B116C70B541F080511164126C13
:101C600094B002F080520192019A1A6822F4404224
:101C700042F400421A601B6803F4404302930123BC
:101C8000029A089300B1052309934FF4A871072322
:101C9000042202244FF48006082508A813930E940A
:101CA0000F96109511911292FFF730F9034610B17B
:101CB000002014B070BD4FF4805221460F2503A8B8
:101CC00004940593079303950692FFF7D7FAD0F192
:101CD000010038BF002014B070BD00BF00380240C2
:101CE00000700040234A244B116CF0B541F0805144
:101CF0001164126C95B002F080520192019A1A6838
:101D000022F4404242F400421A601B6803F440434C
:101D100002934FF0030E1023002404210722012711
:101D200002254FF4A87608A80C931093DDF808C09C
:101D3000CDF820E00B9709940F940E95119612910F
:101D40001392FFF7E3F8034610B1204615B0F0BD3B
:101D50004FF4805229460F2403A804950593079356
:101D600003940692FFF78AFAD0F1010038BF0020F1
:101D700015B0F0BD003802400070004008B50120E9
:101D8000FFF766FF00B108BDFFF762FF0028FAD138
:101D9000FFF7A8FF0028F6D1FEE700BF174B184851
:101DA000D3F8882070B542F47002164CC3F888202E
:101DB0002268154E154D002142F001022260A160FB
:101DC000226822F0847222F48032226066602668E3
:101DD0004FF0006226F480262660E1609A6005607C
:101DE000FEF7E8FCFFF7CAFF236A43F0080323620B
:101DF000236A23F00803236270BD00BF00ED00E0FA
:101E00009C01002000380240103000240024F4001F
:101E100010B590F900300133044604D10648074953
:101E20003E2202F001F8A068616802680A420CBF15
:101E30000020012010BD00BF508200086882000809
:101E400038B5102204460D46002104F0ACFC2046B3
:101E5000294602F019F8204638BD000038B590F93F
:101E60000030013304460D4604D1054805493422AB
:101E700001F0DAFFE068626805B91204026038BD5B
:101E8000508200086882000810B52021044601F045
:101E90006FF90B2104F10800FFF7D2FF0C2104F1C8
:101EA0001800FFF7CDFF04F128000721FFF7C8FF56
:101EB000002384F83830204610BD000010B50446D9
:101EC0002DED048B00F10800FFF7A2FF9FED229A91
:101ED00004F11803DFED218A9FED218AB8B118467D
:101EE000FFF796FF48B1204601F09AF902EE100A7A
:101EF000DFED1C0A22EE090A20E0204601F090F9ED
:101F000001EE900ADFED180A21EE890A16E0184664
:101F1000FFF77EFF48B1204601F082F901EE100A7A
:101F2000F3EE090A21EE090A08E0204601F078F9EB
:101F300007EE900A27EE890AF3EE040A80EE209A53
:101F4000C9EE288A68EE882ABDEEE28A18EE100AE9
:101F5000BDEC048B10BD00BF333353408FC2753CC2
:101F600000007A440000C8420000484210B5044610
:101F700080F8381003291ED8DFE801F002060A13A2
:101F800000F10800002106E000F1080000210BE04C
:101F900000F108000121FFF761FF04F118000021A2
:101FA00007E000F108000121FFF758FF04F11800D5
:101FB0000121FFF753FF10BD10B50121044600F1C8
:101FC0002800FFF74BFF94F838102046BDE810407A
:101FD000FFF7CCBF10B50021044600F10800FFF761
:101FE0003DFF04F118000021FFF738FF04F128003D
:101FF0000021FFF733FF10BD70B5134E134D144C85
:102000002D21304601F010FD224629463046114E62
:1020100002F0D0FD0621104801F068FA2E2130466A
:1020200001F002FD22460D4C2946304602F0C2FD69
:1020300000212046102204F0B6FB20460521BDE811
:10204000704001F021BF00BF58030020B1390008E3
:1020500094010020C0030020AC03002048030020AE
:1020600070472DE9CF41174604AA1E46012302F806
:10207000041D00933A21804601F066FC0023009382
:1020800040463A213A46334601F078FCBDE8CF811C
:102090007FB500242A263A2103AA0223009405468C
:1020A0008DF80C608DF80D4001F04EFC0E238DF87C
:1020B0000C303A2103AA0223009428468DF80D40E3
:1020C00001F042FC01208DF80D00009428463A21D1
:1020D00003AA02238DF80C6001F036FC7FBD10B519
:1020E000044601F011FC2046FFF7D2FF204610BD48
:1020F00013B507230C466A460021FFF7B2FF9DF88F
:1021000004309DF805109DF806009DF8032003EBB0
:10211000022200EB01239DF802109DF8010001EB63
:10212000002001B212B21BB207EE101A01EE102A03
:1021300006EE903ADFED0A7AB8EEC70AF8EEC11A59
:10214000F8EEE62A60EE270A21EEA72A22EEA73A49
:10215000C4ED000A84ED012A84ED023A1CBD00BFE3
:102160000000803800000000F0B52DED028B9FEDDF
:102170001E8A85B004461426204601A9FFF7B8FF41
:10218000DDED037A052038EE278A01F0A9FF013E34
:10219000F2D1B3EE040AC8EE000A10EE900A03F082
:1021A0004DFB0DA3D3E9002304460D4603F02AFEA0
:1021B00068B9204629460AA3D3E90023012703F082
:1021C00003FE00B9374687F00107F8B200E0304659
:1021D00005B0BDEC028BF0BD666666666666D63FEE
:1021E000666666666666D6BF00000000AFF30080D4
:1021F00038B590F90030013304460D4604D1054846
:102200000549342201F010FEE068626805B9120445
:10221000026038BD5082000868820008F8B50A21C3
:10222000044604F12007FFF70BFE292104F11000FA
:10223000FFF706FE04F1340638460921084D01F087
:1022400055F93046082101F051F93846294601F088
:10225000F9F93046294601F0F5F92046F8BD00BFEE
:1022600017B7513838B504460D460021FFF7C0FFB7
:1022700004F13400002101F045F804F110000121BF
:10228000FFF7B6FF04F120002946BDE8384001F011
:1022900039B838B504460D4600F110000021FFF7AB
:1022A000A7FF04F12000002101F02CF820460121B5
:1022B000FFF79EFF04F134002946BDE8384001F0E5
:1022C00021B838B500250446294600F1340001F054
:1022D00019F820460021FFF78BFF04F12000294662
:1022E00001F010F804F110000021BDE83840FFF7BC
:1022F0007FBF00000000000010B5DFED217ADDEDAA
:10230000030ADFED201A20EEA71ADFED1F2A21EEC7
:10231000212A9DED027A82EE223A044680E80E00E0
:10232000DFED1A3A27EE270A23EE234A80ED030A4F
:1023300080ED044A049803F081FA0DA3D3E9002349
:1023400003F0D0FA0CA3D3E9002303F0F5FB03F06C
:102350008BFD059B606104F58B620020A065E06544
:1023600020666066A3611060204610BDAFF3008058
:1023700011EA2D819997713D00000040E17A743F88
:102380000AD7A33B00401C4400007A430050C347D7
:102390007FB5054600F1440400F13406A86801A9A0
:1023A000FFF7A6FE0298019B44F8183C44F8040D80
:1023B000024801F087FEB442F0D17FBD0AD7A33BAB
:1023C0007FB5064603460422996AD86BD962186421
:1023D000043B013AF8D1B06801A9FFF789FE0198E2
:1023E00003F02CFA1AA3D3E9002303F07BFA044686
:1023F000306A0D4603F022FA17A3D3E9002303F055
:1024000071FA02460B462046294603F0B9F803F05C
:102410002BFDF061029803F011FA0DA3D3E900231C
:1024200003F060FA0446706B0D4603F007FA0AA346
:10243000D3E9002303F056FA02460B46204629460C
:1024400003F09EF803F010FD30637FBDAFF3008012
:1024500019F26929D28E853F38585AB7C4A9EF3F7F
:102460002DE9F04106460746A0F11008F06903F097
:10247000E5F90446306B0D4603F0E0F902460B46E1
:102480002046294602F09CFB0022134B03F02AFA57
:102490000FA3D3E9002303F04FFB03F0E5FC03F0A7
:1024A000CDF900220D4B03F06BF800220B4B02F02C
:1024B00089FB03F0D9FC78653046FFF781FF043FC4
:1024C000074801F0FFFD4745D0D1BDE8F08100BFCE
:1024D000F1D4C853FB21094000806640008076405B
:1024E0000AD7A33BAFF3008070B5036D826CC16C5B
:1024F000446C43650646C26401658464FFF760FF6F
:10250000F06903F09BF90446306B0D4603F096F931
:1025100002460B462046294602F052FB00220E4B93
:1025200003F0E0F90AA3D3E9002303F005FB03F06D
:102530009BFC03F083F90022084B03F021F80022F2
:10254000064B02F03FFB03F08FFC706470BD00BFD0
:10255000F1D4C853FB2109400080664000807640DA
:1025600070B52DED028B04460546A0F1100694EDE2
:10257000117AD4ED127A9FED0A8A37EE670A204667
:10258000C0EE080AC5ED1A0AFFF7AEFF043D18EECB
:10259000100A01F097FDB542E9D1BDEC028B70BD88
:1025A0000AD7A33B436E016EC26D8366836D41669D
:1025B00010B502660446C365FFF796FF94ED117AE5
:1025C000D4ED127ADFED040A37EE670A80EE201AA6
:1025D00084ED161A10BD00BF0AD7A33B000000000F
:1025E00000F2544370B5F92206461C4653F8081C05
:1025F000013A012A43F8041DF8D13046FFF7D2FF13
:1026000094ED007AD6ED167ADFED1D0A37EE670AF3
:10261000B4EEE00AF1EE10FA0DDC9FED1A1ADFEDD0
:102620001A1AB4EE410AF1EE10FA4CBF11EE900AFC
:1026300010EE100A00E0002003F000F90CA3D3E92B
:10264000002303F04FF90446306F0D4603F0F6F80F
:1026500009A3D3E9002303F045F902460B462046BF
:10266000294602F08DFF03F0FFFBF06670BD00BF4E
:10267000666666666666EE3FA09999999999A93F44
:1026800000007A4400007AC400000000AFF300802C
:10269000DFED087A0023C218D2ED1B6A9FED067A9F
:1026A0000433B3F5797F46EE877AF4D117EE900ABA
:1026B000704700BF000000000AD7A33BDFED0D7A92
:1026C00070300023024652ED016A92ED007A013328
:1026D00036EEC70A0430142B77EE807AF2D1F3EE8F
:1026E000040A87EEA01ADFED041A81EE212A12EE09
:1026F000100A7047000000000AD7A33B10B504463B
:102700002DED028BFFF76CFF2046FFF7C1FF08EEAF
:10271000100A2046FFF7D2FFD4ED047AD4ED036A05
:1027200094ED1B7A28EE270A06EE870AD4ED050AF7
:1027300001EE100A01EE200AD4ED061A04F58B63AF
:1027400030EE212AD3ED002A9FED213A42EE032AF2
:10275000F7EE003AF4EEE32AF1EE10FA08DCFFEEB1
:10276000003AF4EE632AF1EE10FA58BFF0EE623A46
:1027700094F86004002821D1F5EEC03AF1EE10FA89
:102780000CDD04F58B62C2ED003A13EE901A20685E
:10279000BDEC028BBDE81040FFF764BD15D504F514
:1027A0008B61C1ED003AB0EEE34A206814EE101AD6
:1027B000BDEC028BBDE81040FFF76BBD2068BDEC9F
:1027C000028BBDE81040FFF77CBDBDEC028B10BD55
:1027D0000AD7A33B00F254400160704700F25C400E
:1027E000016070470022811804320023B2F5797F1E
:1027F000CB66F8D1C36103630362436343628363BF
:102800008362C36343648364C36403658365C36590
:1028100003664366704710B50446FFF7E3FF2046A2
:10282000FFF7B6FD2046FFF71BFE2046FFF798FE98
:102830000023A365E3652366636604F58B64236068
:1028400010BD00002DE9F0418046406C02F0F6FF1B
:1028500008F25C43044618680D4602F0EFFF0022C0
:10286000134B06460F4602F08BFE02460B462046EF
:10287000294603F0A9FAA8B100220D4B304639468B
:1028800002F07CFE02460B462046294603F0BAFAC7
:1028900040B1D8F80000FFF714FD012088F860046B
:1028A000BDE8F0814046BDE8F041FFF727BF00BF1B
:1028B00000001440014B0360704700BFF88200081D
:1028C000034B0449012200201A600870704700BFC2
:1028D000F8040020FC04002008B54B680A6813F0D7
:1028E000010F02D0591041588A5800EB63009047FD
:1028F00008BD0000034B10B50446036002F056F912
:10290000204610BDF8820008054B10B50446036050
:1029100001F0D2F9204601F04DFA204610BD00BF6B
:10292000F8850008034B10B504460360FFF7ECFF81
:10293000204610BD10860008084B10B503F11802A0
:1029400003604C3304464265836500F1540001F096
:1029500043F903482060204610BD00BF48850008A9
:10296000F8820008A0F15800FFF7E6BFA0F154007C
:10297000FFF7E2BF38B50E4D0E4C0F492846FFF762
:102980002DFF28460D49FFF725FF204601F094F959
:102990000B480C4AE0620023204641F2883185F85A
:1029A0006034A561E2612362BDE8384001F08CB972
:1029B0001005002074090020000034430000F0419D
:1029C000D92800084528000838B50E4D0E4C0F498F
:1029D0002846FFF703FF28460D49FFF7FBFE204678
:1029E00001F06AF90B480C4AE0620023204641F2EC
:1029F000883185F86034A561E2612362BDE8384022
:102A000001F062B910050020740900200000344371
:102A10000000F0C1D92800084528000810B5044678
:102A2000FFF772FF204602F0C1F8204610BD0000FB
:102A300008B5084801F040F9074801F03DF907489A
:102A400001F03AF906480021FFF7C4FEBDE808404E
:102A5000FFF736BF000A0020740900205C04002044
:102A60001005002010B540484FF4612101F066F8D0
:102A70003E483F4900F0E6FD01213E48FFF776FA67
:102A80003D48FFF71EFC3D483D4900F0EFFF3D4942
:102A90003D4800F0EBFF3D4800F06EFA3C4803F083
:102AA000F3FE3C4803F0F0FE3B4B01221A60002489
:102AB00039483A4B0168F1B193F900303848394947
:102AC0000022013302700A7004D13748374934229A
:102AD00001F0AAF931484168C2682C480B04136020
:102AE00000F032FB00F0A2FE314801F0EBFA27487B
:102AF00000F03AFBDCE793F90020531C04D12A488C
:102B00002A49342201F090F92448C16843681948E1
:102B10000B60FFF7D3F91748FFF7D0F9B0F5486F0E
:102B200024481BDD1CB901F005F90124C0E701F0C0
:102B30001BF907EE100AF0EE007AB4EEE77AF1EE38
:102B400010FAB5DDFFF774FF1A4801F0FFF81948D5
:102B500001F020F90D4800F00FFAA8E701F0F6F8AF
:102B6000144801F017F9A2E78C040020AC03002000
:102B700017B75138B0090020140400205803002072
:102B8000FD2B0008252D0008C003002000050020B3
:102B9000008300081F830008F80400204803002079
:102BA000300A0020FC0900205082000868820008DA
:102BB000CDCCCC3DEC09002010B50B4C2046FFF7E6
:102BC0002AFE20460949FFF705FE0948094A0A4B33
:102BD00084610021016241F28831C261C362BDE8B3
:102BE000104001F071B800BF100500200000B4C211
:102BF00074090020FD260008D928000870B529496D
:102C0000294801F02FF82948294B017800221A6041
:102C10001C4651B1274801F04FF8274801F04CF805
:102C2000264801F049F8FFF74BFE2368012B03D13A
:102C3000BDE87040FFF7FCBE002B32D1204800F009
:102C40009BF9044600282CD11E48FFF78DFA002876
:102C500027D0164E1C4801253570164E174D4FF0E3
:102C60007A5100F04FFB304601F026F8124801F08F
:102C700023F8284601F020F81448154AB061154998
:102C8000F462304682F8604401F01EF8FFF794FFCA
:102C90001149EC62A96111492846BDE8704001F074
:102CA00013B870BD33830008E0040020FC0400204A
:102CB000F8040020000A0020740900205C040020B1
:102CC00000050020A4090020AC030020C128000852
:102CD0001005002080C3C901C9290008809698000A
:102CE00010B50B4C2046FFF796FD20460949FFF72B
:102CF00071FD0948094A0A4B84610021016241F2D1
:102D00008831C261C362BDE8104000F0DDBF00BF82
:102D1000100500200000B44274090020FD260008C0
:102D2000D928000870B52949294800F09BFF294897
:102D3000294B017800221A601C4651B1274800F047
:102D4000BBFF274800F0B8FF264800F0B5FFFFF7AB
:102D5000B7FD2368012B03D1BDE87040FFF768BEC3
:102D6000002B32D1204800F007F9044600282CD16E
:102D70001E48FFF7F9F9002827D0164E1C480125F8
:102D80003570164E174D4FF07A5100F0BBFA3046B1
:102D900000F092FF124800F08FFF284600F08CFFF1
:102DA0001448154AB0611549F462304682F860440F
:102DB00000F08AFFFFF794FF1149EC62A961114905
:102DC0002846BDE8704000F07FBF70BD3283000828
:102DD000E0040020FC040020F8040020000A002089
:102DE000740900205C04002000050020A4090020D4
:102DF000AC030020C12800081005002080C3C901D1
:102E0000752900088096980010B50446FFF794FDD8
:102E1000204601F0CBFE204610BDA0F15800F3E79C
:102E2000A0F15400F0E710B50446FFF77BFD204603
:102E300001F0BCFE204610BD2DE9F04F334C344D5F
:102E4000344FDFF80891DFF80881334EDFF804B122
:102E5000DFF804A185B0002302210322204600F000
:102E60001FFE2A4620462D4901F0A4FE19211822F2
:102E70003846FFF734F92A462949384601F09AFEC8
:102E80004846FFF7CBF94046FEF7FEFF494642466B
:102E90002448002400F062F8304600F0A7FFB46137
:102EA000F462C6F800B030461F4E51462A4601F083
:102EB00081FE304600F09AFF51462A46B461F46222
:102EC0003046C6F800B001F075FE1848184E00F004
:102ED00021FF184B18481949009300223B460190E6
:102EE00002910392494642461548FFF705FA3046DB
:102EF00000F07CFF134B1449336030462A46B4611E
:102F0000F46205B0BDE8F04F01F054BE8C0400201F
:102F100094010020A4090020000A0020392900089B
:102F200061200008000500205C040020EC0900205E
:102F300074090020CDCC4C3F6F12033ACDCCCC3C71
:102F400010050020F8850008092900081404002055
:102F5000B0090020108600082529000870B5044635
:102F60000D461646212100F003F9A560E6602046D3
:102F700070BD000000000000F8B507464FF47A76F7
:102F800000240025384600F04BF902F057FC0246B9
:102F90000B462046294602F0F3FA013E04460D4650
:102FA000F0D10022644B02F0C7FD59A3D3E90023FE
:102FB00002F098FC02460B4602F0E2FA00225E4B59
:102FC00004460D4602F08EFC02F026FF01465B48E7
:102FD00003F004FC204629464FA3D3E9002302F066
:102FE00007FF80B1FA2001F07BF84FF07A51544886
:102FF00000F088F9322001F073F85148002100F008
:1030000081F9642010E02046294645A3D3E9002336
:1030100002F0EEFEC0B1204629463FA3D3E90023CB
:1030200002F0D2FE80B1FA2001F05AF84FF07A5146
:10303000434800F067F9322001F052F8404800217F
:1030400000F060F9642010E02046294636A3D3E959
:10305000002302F0CDFEC0B12046294630A3D3E9BB
:10306000002302F0B1FE80B1FA2001F039F84FF0F0
:103070007A51334800F046F9322001F031F83048F7
:10308000002100F03FF9642010E02046294626A3E5
:10309000D3E9002302F098FED8B12046294624A3A4
:1030A000D3E9002302F0A4FE98B1FA2001F018F849
:1030B0004FF07A51224800F025F9322001F010F843
:1030C00000211F4800F01EF9642001F009F80020DB
:1030D000F8BD2046294616A3D3E9002302F074FE6A
:1030E00090B1FA2000F0FCFF4FF07A51144800F044
:1030F00009F94B2000F0F4FF1148002100F002F91B
:10310000962000F0EDFF0120F8BD00BFAFF3008076
:103110006666666666660A409A99999999990E401C
:103120009A99999999990B409A99999999990840DE
:10313000333333333333074000408F403F8300083D
:10314000AC030020AFF3008010B504460021054811
:1031500000F0D8F8A068FFF7B4F8E068BDE81040C8
:10316000FEF738BFAC030020C068FEF725BF0000A3
:1031700070B50C46054682B02249204600F0DCFEC0
:103180002860013037D020461E4900F0EFFE431C76
:1031900006462AD0C6F3C3266E712046194900F0B0
:1031A00097FE194A2C711368EBB918492D68486CC1
:1031B00001241460164A40F4807053604864496CDE
:1031C000936001F4807101911046019915601361BB
:1031D0009361536293621363D362D3601462D361C9
:1031E0005361FDF711FB02B070BD0A480A49322253
:1031F00000F01AFECEE7094807492E2200F014FE1F
:10320000C1E700BF6C890008340A00200038024082
:103210008C0D0020DC8300087083000858830008B0
:1032200000B5354A01684379116085B0002201215B
:103230000191029203920F2B09D8DFE803F02F329D
:1032400035383B3E4144474A4D505356590FDFED08
:103250002B7A17EE900A05B05DF804FB0F2300935C
:1032600069462548FDF708FC2348FDF771FB224815
:103270000A21FDF7C9FB0028E9D11F48FDF7F8FB3B
:1032800080B207EE100AF8EE477A9FED1D7A67EEDE
:10329000877A17EE900A05B05DF804FB00230093CF
:1032A000DEE701230093DBE702230093D8E7032343
:1032B0000093D5E704230093D2E705230093CFE7DB
:1032C00006230093CCE707230093C9E70823009364
:1032D000C6E709230093C3E70A230093C0E70B2343
:1032E0000093BDE70C230093BAE70D230093B7E7E3
:1032F0000E230093B4E700BF8C0D002000000000F7
:103300000108803930B507EE901A274A0368136028
:10331000F5EEC07AF1EE10FA89B004463DD4B7EE6E
:10332000007AF4EE477AF1EE10FAC8BFF0EE477A71
:10333000D4ED026A227CB8EE667A002367EE277A23
:103340006020FCEEE77A013AC4ED037ACDED027A13
:10335000019003930493059306930793032A10D8CF
:10336000DFE802F01102151304250F4801A92A46CF
:10337000FEF7ACFAA0B9637C0B4829464BB1FEF7C7
:103380000FFB09B030BD0025EFE70C25EDE7082560
:10339000EBE7FEF7C5F909B030BDDFED047AC7E70A
:1033A000034800F04DFDE6E7380A00200000000069
:1033B000F8830008F0B58268454D03682B6087B03C
:1033C00004460E46002A57D007EE102AF8EE477A38
:1033D00090ED037AF8EE476AB7EE007AC6EEA77A68
:1033E000F4EEC77AF1EE10FAC8BF17EE107A45DD99
:1033F000196A41F211120A402AB9196A40F244428C
:103400000A40002A3DD001A86946FEF7C5F82368A6
:10341000304A934245D039D92F4A934207D051D9E7
:103420002E4A934203D002F58062934222D1FEF7E6
:103430009BF8059A0090731EEB60254B002A39D14A
:10344000274AA2FB0010800C013858600023204856
:103450002B61AB60FEF7F0F910B1224800F0F0FCF0
:1034600039462046FFF74EFF2B68A6601A6842F0E7
:1034700001021A6007B0F0BDDFED1B7A17EE907AFB
:10348000B6E71A6822F001021A60BCE7A2F50062F2
:10349000934206D002F58062934202D0B3F1804F8E
:1034A000E8D1FEF749F8049A0090731EEB60084BD0
:1034B000002AC5D00A4A4000A2FB0010800C013847
:1034C0005860C3E7A2F580429342B0D0D2E700BF74
:1034D000380A0020000C0040004001400044014038
:1034E00083DE1B43F88300080000000070B50D4622
:1034F000044688B04849284600F01EFD206001308F
:103500006FD02846444900F031FD431C06466ED07A
:103510002368424AC6F3C3219342C6F3C0362174DE
:10352000667444D0B3F1804F29D03D4A93424AD1CA
:1035300002F50D32116C41F002011164126C02F0BF
:1035400002020392039A374A934209D1364B5A6CCE
:1035500042F480225A645B6C03F480230793079B38
:1035600028462D4900F0B4FC00232571A360E360D8
:10357000204644F62061FFF71DFF08B070BD2A4ABF
:10358000116C41F001011164126C02F0010202920F
:10359000029A264A9342D6D1234B5A6C42F4003207
:1035A0005A645B6C03F400330693069BD8E702F57C
:1035B0009C32516C41F001015164526C02F00102E5
:1035C0000192019AE5E71A4A934216D1164B1A6CFA
:1035D00042F004021A641B6C03F004030493049B7E
:1035E000BEE7144814492D2200F01EFC89E7134859
:1035F0001149312200F018FC8AE7114A9342C8D1E0
:10360000094B5A6C42F480325A645B6C03F4803389
:103610000593059BA4E700BF8087000800000140D8
:1036200000040040004801400038024000440140CE
:10363000000800401084000828840008DC8300088B
:103640000040014007EE101ADFED047A67EE277A9A
:10365000FDEEE77A17EE901AFFF7ACBE002474492E
:10366000F8B5134B90F9197006688568C46801694C
:1036700042691E6001374FF000065D609C60D960B2
:103680001A619E6110D090F9182001320CBF0422FB
:103690000C225A610648FEF775FA00B9F8BD0548D4
:1036A000BDE8F84000F0CCBB08225A61F2E700BF49
:1036B000D00D002090840008F0B5044685B008467F
:1036C0000E463C49154600F037FC3B490746284664
:1036D00000F032FC0146384600F01CFC411C206022
:1036E00061D0364B984247D003F58063984236D07C
:1036F000A3F55043984225D030462E4900F0E8FB10
:1037000028462D4900F0E4FB721C03D0304601210D
:1037100001F03EF96B1C03D02846012101F038F975
:1037200000234FF41652A260E360236163612676A2
:1037300065762046FFF794FF214A2368934228D0FC
:1037400005B0F0BD1F4B1A6C42F400321A641B6CBA
:1037500003F4003302930123029A6360CCE7194B10
:103760005A6C42F020025A645B6C03F0200303930E
:10377000039B05236360BFE7124B5A6C42F01002B3
:103780005A645B6C03F0100301930023019A636099
:10379000B2E70D4B0D4821461C2201241C6002F0AB
:1037A000F9FF05B0F0BD0A480A49532200F03CFB7E
:1037B000206896E724890008388700080010014037
:1037C0000044004000380240740A0020100E00201F
:1037D000A8840008C48400088160FFF741BF00BFCF
:1037E00010B4044B44680448196040F824205DF884
:1037F000044B7047980A0020780A0020026813687A
:103800009B06FCD5024B50681A60C0F30800704755
:10381000D00D0020026813681B06FCD5024BC1F3D3
:10382000080151601A607047D00D0020084BDA681B
:1038300010B5084C22F0040223600020DA60012158
:10384000FDF754FB2368DA6842F00402DA6010BD29
:10385000000C00409C0A002038B500230360436040
:103860000A782F2A044601D0204638BD4A78002A1B
:10387000FAD0481C20604A782F2A14D0B2B18D1C8F
:10388000194600E052B125602A782F2A2B4601F113
:10389000010105F10105F5D10133236001F022F9A1
:1038A0006060204638BD19460346F5E71146F5E746
:1038B0000068704710B50446406828B101F030F93F
:1038C000012801D1606810BD002010BD406808B516
:1038D00028B101F025F9D0F1010038BF002008BD62
:1038E00010B50446406830B101F01AF918B96068A3
:1038F00008B1043810BD002010BD00BF4068003082
:1039000018BF0120704700BF10B5064B836000232D
:1039100003604360044600F0E7FE034B20461C6052
:1039200010BD00BFA0860100D80A002038B5054DA3
:103930002B688342044603D0816800F08DFD2C6023
:1039400038BD00BFD80A00202DE9F04182B01C46E6
:103950009DF820500F461646804685F00105FFF77A
:10396000E5FF0095404639463246234600F0ACFD5F
:10397000201A18BF012002B0BDE8F0812DE9F04106
:1039800082B01C469DF820500F461646804685F0B2
:103990000105FFF7CBFF00954046394632462346E6
:1039A00000F00AFE201A18BF012002B0BDE8F08125
:1039B00010B5044A044640F8142B00F0E9FC2046F8
:1039C00010BD00BF3885000810B5054B044640F80F
:1039D000143B00F0DDFC204601F0E8F8204610BD65
:1039E00038850008012908B503460AD0022907D105
:1039F000026D7AB1C06B10B103F14001904708BD70
:103A000008BD826B5AB1406A0028F8D003F1280142
:103A1000904708BDC36B002BF1D0984708BD436A9F
:103A2000002BFAD1EBE700BF38B50E4B036004461C
:103A3000002303718360C360036103758361C36105
:103A400080F8203043628363C36303650D462346D9
:103A5000054A143000F0F2FB201D294600F002FA5E
:103A6000204638BD38850008E539000839B1002303
:103A7000C163036502211430012200F0ADBC0A4687
:103A80001430022100F0A8BC00F060B8A0F154008E
:103A9000FFF7FABF00F05EB8A0F15400FFF7FABFDD
:103AA00038B504461D4600F025F8294604F15400B7
:103AB00000F0B6F8054B03F1080103F1200254337E
:103AC00021606265A365204638BD00BF40850008BF
:103AD00001EB410108B5CB002033C1184A6922B17E
:103AE000C05808B10431904708BDC358002BFBD023
:103AF000984708BD38B504460E4B0360251D0023CA
:103B00004FF41650206563602846A360E36023618C
:103B10006361A3612377637723626363A363E364D1
:103B2000FFF7CAFD284622460349FFF759FE204603
:103B300038BD00BFF8820008D13A000838B5044605
:103B40000D460430FFF748FE256538BD0430FFF709
:103B500055BE00BF10B504300C46FFF75BFE204693
:103B600010BD00BF00207047F8B58E18B1420F4657
:103B700005460FD00C4601E0A64209D02B6814F888
:103B8000011B5B6A284698470130F5D1E01BF8BD60
:103B9000F01BF8BD0020F8BDF8B58E18B1420F46F5
:103BA00005460FD00C4603E004F8010BA64207D0EF
:103BB0002B6828469B6A9847431CF5D1E01BF8BD4B
:103BC000F01BF8BD0020F8BD0020704700207047B2
:103BD000002070470020704710B5074B03F1080222
:103BE0003C33044680E80C00406902F015FA204698
:103BF00000F098FF204610BDA0850008A0F1040049
:103C0000FFF7EABF10B50446FFF7E6FF204600F0D5
:103C1000CDFF204610BD00BFA0F10400FFF7F2BFAA
:103C200010B584B0044600F0ADFF0B4B0B4903F117
:103C3000080000223C3384E80900626101A82246A2
:103C400002F00EFF064901A802F0BAFB6061FCF722
:103C50007FFD204604B010BDA0850008208200082A
:103C6000E88500080EB430B582B005AB044653F8C1
:103C7000045B4069019302F07DFA29466069019A6C
:103C800003F028FC02B0BDE8304003B0704700BF2D
:103C90004368416910B50446194400F0BBF8E36A73
:103CA0002BB1A06910B104F11C01984710BDA369A4
:103CB000002BFBD0984710BD10B5044600F0B0F8BB
:103CC0000023A361E36210BD38B504460D4600F041
:103CD000A7F86561206900F0D9F941192046BDE8CF
:103CE000384000F097B800BF08B5C36A014623B159
:103CF000806908B11C31984708BD8369002BFBD04F
:103D0000984708BD10B50446C06800F0BFF9636865
:103D1000C01A10BD38B500250560456085600446B1
:103D200000F0BAF9E06000F0B1F9A56060602046EB
:103D300038BD00BF036810B504462BB9C06800F059
:103D4000A5F901236060236010BD00BF036810B5B2
:103D5000044613B1FFF7D6FF0346A26800211344BF
:103D6000A360216010BD00BF036810B5846813B163
:103D7000FFF7C8FF0346234407EE903AB8EEE77A10
:103D8000DFED037AC7EE277A17EE900A10BD00BF69
:103D90000024744910B50446C06800F077F9002388
:103DA0006060A36010BD00BF08B503689B689847BA
:103DB00008BD00BF10B5044B03600446211D006917
:103DC00000F040F9204610BD2886000810B5064BCB
:103DD00003600446211D006900F034F9204600F01C
:103DE000E5FE204610BD00BF28860008074B10B531
:103DF0000360002343608360C360044600F04CF915
:103E00000349206100F0CCF8204610BD2886000848
:103E1000A93D000803460A460069191D00F0EEB8E6
:103E2000011D006900F00EB910B40C46134601469E
:103E3000224602485DF8044B00F002B838860008BC
:103E40000FB400B5064B83B004AA1B6852F8041BDC
:103E5000D868019203F03EFB012002F071F800BF28
:103E60000802002038B50D46044600F057F9013528
:103E700009D02046002100F06BF920460021BDE862
:103E8000384000F061B938BD38B50D46044600F041
:103E900045F9013511D094F9003001330ED0626834
:103EA000E368120420461A60012100F051F920460F
:103EB0000021BDE8384000F047B938BD0248034949
:103EC0003422FFF7B1FFEAE74C8100086481000863
:103ED000431C10B5044619D091F90030581C04D188
:103EE0000FE011F90C3F5A1C0BD09C42F9D120462F
:103EF000896800F01DFD20460021BDE8104000F05B
:103F000047BD0348BDE81040FFF79ABF10BD00BF92
:103F10006C860008884208B50AD0431C07D00131DE
:103F200006D00448FFF78CFF4FF0FF3008BD08466D
:103F300008BD00BF8086000808B5431C0DD091F96C
:103F400000305A1C04D109E011F90C3F5A1C05D06D
:103F50009842F9D14868411C00D008BD0248FFF7DB
:103F60006FFF4FF0FF30F8E79486000808B5431C58
:103F70000DD091F900305A1C04D109E011F90C3F21
:103F80005A1C05D09842F9D18868411C00D008BD60
:103F90000248FFF755FF4FF0FF30F8E7B4860008FE
:103FA00038B5036804461B680D46984763681D6072
:103FB00038BD00BF38B50368DB68044698476368BE
:103FC0005B6883B122681D6853689847281A0028E7
:103FD00062680CDC50681168836853600029F0D077
:103FE00040688847EBE723689B68984738BD23689B
:103FF00052681B691068984738BD00BF30B583B060
:1040000072B645680A606C684B608CB12368D31A3D
:10401000002B05DA0CE01D68551B002D03DB1C4648
:10402000A368002BF7D1A1608B6062B603B030BDEE
:10403000036869601B6901911046984723460199FE
:10404000F2E700BF08B572B643685A688A4211D0D9
:104050004AB193688B4208D02BB19A688A4205D046
:104060001346002BF9D162B608BD13468A689A60E0
:1040700062B608BD92685A60036822B110681B6975
:10408000984762B608BD9B689847ECE708B5036897
:104090005B68984708BD00BF00487047E886000885
:1040A0000148FFF787BF00BFE886000838B505461E
:1040B00000F0A8FC044600F0A5FC001BA842FAD3BF
:1040C00038BD00BF07EE100ADFED047A67EE277AED
:1040D000FDEEE77A17EE900AFFF7E8BF0024744977
:1040E0004FF47A7303FB00F0FFF7E0BF431C10B5F9
:1040F000044608D02046002100F01AFC04F00F040A
:104100000120A04010BD034803492722FFF78CFE81
:10411000F0E700BF388A00084C8A000870B50546F1
:104120004B1C0C4629700DD0C1F3031000F08AFB24
:1041300006462046FFF7DAFF06F1100318366860DE
:10414000AB60EE6070BD00BF90F9000000F020BCD5
:1041500038B5054690F90000431C0C460BD0012CE5
:1041600004D00021BDE8384000F0E2BB2146BDE8A4
:10417000384000F0DDBB044804494622FFF754FEF6
:1041800095F90000EBE700BF4C8100084C8A00085D
:10419000194B2DE9F0474FF04C080F4608FB00384B
:1041A00039B3DFF85890DFF858A0454600240126BF
:1041B000D8F8003006FA04F21A4215D06B6BD9F821
:1041C0001420E96906FA03F313420DD0C9F814303C
:1041D0006A684AB109690B4210464FF00101DAF8EA
:1041E000003008BF022198470134BC4205F10405A4
:1041F000DED1BDE8F08700BFE40A0020003C0140AA
:10420000F80C002000200121FFF7C2BF0120014669
:10421000FFF7BEBF02200121FFF7BABF0320012133
:10422000FFF7B6BF04200121FFF7B2BF052001460A
:10423000FFF7AEBF06200146FFF7AABF2DE9F04FFA
:1042400085B09B464B1C0C460546029200F08880C8
:1042500001F00F06731EC1F303100E2B47D8DFE8E1
:1042600003F04E57616B0808080808757575757579
:1042700075003C4A4FF400074FF0000A4FF0050963
:104280004FF01708019200F0DDFA07210390204655
:1042900000F04EFB019A40461146FCF70BF83249FC
:1042A000324A41F82A704C2101FB09F1304F52F893
:1042B000262057F801C02F4B85F800800120904040
:1042C00007EB01084CEA000C0020C5F804902C73A1
:1042D000A86008EB820247F801C002991960039BAD
:1042E000D361C2F804B0566305B0BDE8F08F4FF05B
:1042F000000AD146204A40274FF00608C2E71F4A6D
:1043000080274FF0000A4FF001094FF00708B9E786
:104310001B4A4FF480774FF0000A4FF002094FF02C
:104320000808AFE7174A4FF400774FF0000A4FF044
:1043300003094FF00908A5E7134A4FF480674FF0CF
:10434000000A4FF004094FF00A089BE70F4A4FF4A8
:1043500080774FF0010A4FF006094FF0280891E7E7
:104360000846C1E72D42000800E100E0B48A0008D9
:10437000E40A0020F80C0020054200080D42000865
:10438000154200081D420008254200083542000879
:10439000F8B50546007B6B680D490E4E00F00F0422
:1043A0004C2202FB03F251F82430B158B418012713
:1043B0009F4004EB830321EA07070024B75040B273
:1043C00021465C60DC615C6300F0B2FAAC60F8BD71
:1043D000B48A0008E40A002072B1012920D0022921
:1043E00019D1836823F00203012B2BD081600721B0
:1043F00090F90C0000F09CBA01291BD002290AD1C7
:10440000836823F00203012B23D082600C2190F9F2
:104410000C0000F08DBA0C2190F90C0000F088BA65
:104420008368023B012B0DD98160062190F90C00B5
:1044300000F07EBA8368023B012BE6D8022383603A
:104440000721E9E703238360082190F90C0000F0BD
:104450006FBA83600621DFE7F8B5174B4A1E9A4210
:104460000F46064621D8154D34682C6048F20103EA
:1044700001E0013B02D0A2699207FAD40F4C6F60B1
:1044800000234FF4804220466B61AB60EB612B62EE
:10449000EB60AB612A61FCF7B3FC736823B123685E
:1044A0001A6842F480621A60F8BD0548054967221F
:1044B000FFF7BAFCD7E700BF7F1A06002C0E0020DA
:1044C000F48A0008108B000830B404682B4804609C
:1044D0006FF480606061206820F4407040F4807068
:1044E000206082B041F2010001E0013802D065692C
:1044F000ED07FAD54FF4805001E0013834D06569FA
:10450000ED07FAD501F0FE0121614FF4805101E081
:10451000013929D060698507FAD561690191A169DE
:104520000191002B01994FF000050FDD515D2161D4
:1045300041F2010104E06069400704D401390FD061
:1045400060690006F7D501359D42EFD1049B83B128
:104550002368284643F40073236002B030BC7047E0
:10456000236843F4007323604FF0FF3002B030BC87
:104570007047284602B030BC704700BF2C0E0020A8
:104580000068036871B123F480630360094A41F253
:104590000103116801E0013B08D04A695206FAD5CF
:1045A0000069704743F480630360EFE74FF0FF302A
:1045B000704700BF2C0E00202DE9F04307466FF432
:1045C00080603C68294D606120682C6020F4407058
:1045D00040F4807083B090469946206041F2010516
:1045E00001E0013D02D06369D807FAD54FF4805548
:1045F00001E0013D34D06669F207FAD541F00101CE
:10460000C9B221614FF4805101E0013928D06369BA
:104610009B07FAD563690193A369019309F1FF35FB
:10462000002D019B4FF0000408DD38460021FFF704
:10463000A7FF08F804000134AC42F6D10A9B4BB93D
:1046400038460121FFF79CFF08F80400484603B0F4
:10465000BDE8F0833B681A6842F400721A60EFE725
:104660004FF0FF3003B0BDE8F08300BF2C0E0020F8
:10467000184B196848F2010301E0013B02D08A6936
:104680009207FAD40368144A934219D0134A93420A
:104690000CD0134A934208D1124B1A6A42F400021A
:1046A0001A621A6A22F400021A6270470D4B1A6AE3
:1046B00042F480021A621A6A22F480021A62704777
:1046C000084B1A6A42F400121A621A6A22F40012A3
:1046D0001A6270472C0E0020005400400058004021
:1046E000005C004000380240F0B5044685B0084642
:1046F0000E4648491546FFF71FFC4749074628461E
:10470000FFF71AFC01463846FFF704FC431C206003
:1047100079D00346414A934236D0414A934211D060
:10472000404A934203D1404B1A68002A4ED020469B
:10473000FFF79EFF20463D49FFF78EFE0023636092
:1047400005B0F0BD3A4B1A68002AF0D1394A012170
:104750001960136C2F4943F480031364136C03F442
:10476000800302933046029BFFF7B2FB28462A499A
:10477000FFF7AEFB3046032100F00AF9284603217B
:1047800000F006F92368CBE72B4B1A68002ACED13C
:10479000284A01211960136C1E4943F40013136465
:1047A000136C03F4001301933046019BFFF790FB59
:1047B00028461949FFF78CFB3046032100F0E8F842
:1047C0002846032100F0E4F82368A6E7194A0121EE
:1047D0001960136C0F4943F400031364136C03F462
:1047E000000303933046039BFFF772FB28460A49F8
:1047F000FFF76EFB3046032100F0CAF8284603217C
:1048000000F0C6F893E70D480D493A22FFF70CFB7C
:1048100023687FE7F0860008E8880008005400401D
:1048200000580040005C0040000D0020A086010000
:10483000040D002000380240FC0C0020788B00089A
:10484000108B000800B587B0072859D8DFE800F0C2
:1048500012202E3C4A5858042D4B2E481A6B42F019
:1048600080021A631B6B03F080030593059B07B05E
:104870005DF804FB264B28481A6B42F001021A63CC
:104880001B6B03F001030093009B07B05DF804FB72
:104890001F4B22481A6B42F002021A631B6B03F093
:1048A00002030193019B07B05DF804FB184B1C4801
:1048B0001A6B42F004021A631B6B03F004030293A9
:1048C000029B07B05DF804FB114B16481A6B42F0CF
:1048D00008021A631B6B03F008030393039B07B0E2
:1048E0005DF804FB0A4B10481A6B42F010021A6381
:1048F0001B6B03F010030493049B07B05DF804FBEB
:104900000A48FFF79DFA002007B05DF804FB00BFDE
:1049100000380240001C0240000002400004024037
:1049200000080240000C024000100240C48B000846
:1049300030B5431C87B005460C461CD0C5F30310A8
:10494000FFF780FF05F00F0504F00F0201210D4B6A
:1049500001FA05F553F8223001950322C4F302153C
:1049600001A9C4F3C3140293039505940492FCF7C0
:104970003BF907B030BD044804498122FFF754FADF
:10498000DCE700BF908B0008388A0008E88B00083D
:1049900038B5431C04460D4618D0C4F30310FFF786
:1049A00051FF04F00F04C268022D4FEA44044FF097
:1049B000030198BFA54001FA04F422EA0404C4608C
:1049C000C26888BF00251543C56038BD0248034949
:1049D000A622FFF729FAE0E7388A0008E88B0008EA
:1049E000054B186800B17047044A0549116001225F
:1049F0001A60FBF7ABBC00BF440D0020080D00207F
:104A0000000C004008B5044B1B680BB9FFF7E8FF2A
:104A1000024B586A08BD00BF440D0020000C004046
:104A2000034B1B685863DA6842F00202DA60704791
:104A3000080D0020034B1B68DA6822F00202DA60DE
:104A4000704700BF080D0020024B1B686FF0020288
:104A50001A617047080D00208368094A026053B14B
:104A6000084B1A68824201D106E01A465368834215
:104A7000FBD143685360704742681A60704700BFBB
:104A8000588C0008480D002083680C4A10B5044675
:104A9000026053B10A4B1A68904201D10AE01A46EB
:104AA00053689C42FBD163685360204600F07EF857
:104AB000204610BD42681A60F7E700BF588C000816
:104AC000480D0020054B02730022816003604260A4
:104AD00019B1034B1A68426018607047588C00087F
:104AE000480D00200D4B70B51C6806460D4614B9E4
:104AF00012E0646884B1A36831462A461846002B48
:104B0000F7D002F055F80028F3D1A06802F048F879
:104B1000A842EED1204670BD002070BD480D002097
:104B2000007B704710B5074B044603F1080234338D
:104B3000226040F8043FFFF78FFF2046FBF782FC1E
:104B4000204610BD608C0008A0F10400FFF7EABF0A
:104B5000094B10B5044603F108023433226040F8D3
:104B6000043FFFF779FF2046FBF76CFC204600F07E
:104B70001DF8204610BD00BF608C0008A0F10400A5
:104B8000FFF7E6BF10B5074B0446002240F8043B90
:104B9000FFF798FF044B03F10802343384E80C005C
:104BA000204610BDF8810008608C000808B101F0B3
:104BB00091BD704703460846194601F0AFB90000A1
:104BC00000F05AB82DE9F047DFF8A8A08AB01F46D8
:104BD00080468946164600F05BF99AF900300133A9
:104BE00004460D4604D03046394600F08DFC20B90D
:104BF000204629460AB0BDE8F0874046494600F005
:104C000083FC0028F4D0304639460022002301F00E
:104C1000D1F80028ECD016489AF800400190012104
:104C200000220091CDE90289CDE90467089294B190
:104C30000020002102460B4600F07EFF022CCDE949
:104C400006010AD101F076F921250560089B53B9C8
:104C5000DDE90645CCE7CDE90689684600F088FC29
:104C60000028F3D1EEE701F065F9089C0460EFE756
:104C7000A08C0008A00100202DE9F04784B0CDE908
:104C800000239DE88010C7F1000900262CF00048A1
:104C900049EA070948EAD979C7F6F076B145CDE97E
:104CA000022304460D4602460B4645D8C0F1000AD1
:104CB00021F000494AEA000A49EADA7AB2453BD8CB
:104CC0000CF1404C0CF5801C5CEA070CDDF804A0EC
:104CD00052D04FEAAA7606F0020059EA020240EAF0
:104CE000D17636D058EA070740D00021C7F6F071D8
:104CF000884552D00027C7F6F077B94536D0C8EBC3
:104D000009084FEA2858B8F13C0F42DCBAF1000F0D
:104D10007DDBDDE902232046294600F00DFF00F08F
:104D2000EFFB00F039FA012E6DD0022E5CD0002E80
:104D30004DD104460D4607E020462946DDE9022311
:104D400000F01EFC04460D462046294604B0BDE88E
:104D5000F087032EC6D801A252F826F0494D00086C
:104D6000494D00088B4D0008834D0008002B2ADBBD
:104D700035A5D5E90045E7E704B0BDE8F04700F008
:104D80000BBA33A5D5E90045DEE733A5D5E90045E3
:104D9000DAE72DA1D1E90001C5E7C1453ED0032ED8
:104DA000A8D801A252F826F0C14D0008B94D00085C
:104DB0008B4D0008834D000800244FF00045C3E7E9
:104DC00000240025C0E726A5D5E90045BCE726A3B9
:104DD000D3E9002300F0D2FB1FA3D3E9002300F0A6
:104DE000CDFB04460D46AFE71FA3D3E9002300F037
:104DF000C5FB02460B4618A1D1E9000100F0BEFB3D
:104E000004460D46A0E7044601F100459CE718F171
:104E10003C0FBFF67EAF0020002184E7032EA5D80B
:104E2000DFE806F00E0A060211A5D5E900458BE77A
:104E300011A5D5E9004587E711A5D5E9004583E728
:104E400011A5D5E900457FE7182D4454FB21F93F12
:104E5000182D4454FB2109C0182D4454FB2109404E
:104E6000182D4454FB21F9BF075C143326A6A13C3E
:104E7000D221337F7CD902C0D221337F7CD902403A
:104E8000182D4454FB21E9BF182D4454FB21E93F60
:104E900023F0004C2DE9F0475CEA020516461F4658
:104EA0000446884623D001F000454FF6FF7985EA95
:104EB0000108C7F6EF79C84519DCC2F1000A4AEAD1
:104EC000020A4FF000094CEADA7AC7F6F079CA45CF
:104ED0000DD8E04513DC56DB904254D30FD1AC4AD9
:104EE000ED0F02EBC500D0E90001BDE8F08700F04E
:104EF000F9FC02460B4600F01FFEBDE8F087B8F54E
:104F0000801F42DAB8F1000F40F0EE804FF6ED312D
:104F1000002C2046CFF6FF713BDD40000139002810
:104F2000FBDC36E0CCEB0301A64288BF01F1FF3188
:104F30000029A4BFC6EB04040B4653EA040200F0A8
:104F400099804FF6FF71C0F20F018B4240F39A80B7
:104F50004FF60241CFF6FF71884280F2F4804FF69F
:104F60000242CFF6FF72121A142A00F3FC8000F2FC
:104F70001E4003FA00F124FA02F40C4343FA02F350
:104F800043EA05012046BDE8F0874FEA2851A1F227
:104F9000FF31BCF5801F0FDABCF1000F40F0C58077
:104FA0004FF6ED30002E3246CFF6FF7008DD52008E
:104FB0000138002AFBDC03E04FEA2C52A2F2FF305A
:104FC0004FF60243CFF6FF7399427CDB28F07F4215
:104FD00022F4700343F480134FF60242CFF6FF72BF
:104FE00090425FDB27F07F4222F4700C4CF4801C6F
:104FF000091ACA0710D5CCEB0302B44238BF013AF4
:10500000002AC0F2AA80A41B52EA040332D0E30FA4
:1050100003EB420364000139002983D0CCEB030287
:10502000B44238BF013A002A19DBA41B52EA040338
:1050300020D0E70F07EB420264004F1EB442CCEBD6
:10504000020100D2013900290EDBA41B51EA04023F
:1050500010D0E30F03EB41036400791EDCE7E70F98
:1050600007EB43026400E8E7E10F01EB4203640051
:10507000791ED1E74648ED0F00EBC505D5E90001E3
:10508000BDE8F087E20F02EB4303640001388B4276
:105090003FF75EAFE20F02EB4303640001388B423F
:1050A000F0DD55E74FF60242CFF6FF72121A1F2AC3
:1050B00031DC00F21E4726FA07F70CFA02FC4CEA34
:1050C000070C964094E74FF60242CFF6FF72521A51
:1050D0001F2A17DC01F21E4324FA03F308FA02F830
:1050E00048EA0303944077E74FEAC8234FF60241AA
:1050F000002BCFF6FF717FF74CAF5B000139002B1F
:10510000FBDC46E74FF6E233CFF6FF735A1A04FA98
:1051100002F3002460E74FF6E23CCFF6FF7CC0EBE1
:105120000C0206FA02FC002662E74FEACC234FF697
:105130000240002BCFF6FF707FF742AF5B000138D3
:10514000002BFBDC3CE7A3F5801300F2FF321D438C
:1051500045EA02512046BDE8F087E20F02EB430327
:105160006400013958E71F2A09DC00F21E4103FAE6
:1051700001F324FA02F243EA02042B4600E74FF659
:10518000E234CFF6FF74201A43FA00F42B46F7E618
:10519000A88C0008000000002DE9F84F4FF6FF73BF
:1051A00021F00046C4F20F439E4288468A4681465B
:1051B0001BDD0020C7F6F07086424B4600F3BE8030
:1051C00000F0B98042F2FB18414642F61859CBF67E
:1051D000F978C3F6F971C5F24449BAF1000FC8BFB6
:1051E000884648464146BDE8F88F4FF6FF70C3F643
:1051F000DB70864200F3BC804FF6FF71C3F61F617F
:105200008E4240F3A4804FF0FF3B4A464346484657
:10521000414600F067FB02460B4606460F4600F08B
:1052200061FBA1A3D3E9002304460D4600F05AFB1D
:105230009FA3D3E9002300F0A3F922462B4600F0F8
:1052400051FB9DA3D3E9002300F09AF922462B4697
:1052500000F048FB9AA3D3E9002300F091F922461D
:105260002B4600F03FFB98A3D3E9002300F088F918
:1052700022462B4600F036FB95A3D3E9002300F02D
:105280007FF932463B4600F02DFB93A3D3E9002380
:1052900006460F462046294600F024FB90A3D3E99A
:1052A000002300F06BF922462B4600F01BFB8EA377
:1052B000D3E9002300F062F922462B4600F012FBEE
:1052C0008BA3D3E9002300F059F922462B4600F0C6
:1052D00009FB89A3D3E9002300F050F922462B46AD
:1052E00000F000FBBBF1FF3F02460B466FD030469B
:1052F000394600F045F943464A4600F0F3FA684C57
:10530000684A4FEACB0B5C449344DBE9002300F08E
:1053100035F943464A4600F031F902460B46D4E9D6
:10532000000100F02BF9BAF1000F8146B4BF01F182
:105330000048884655E7002B3FF444AF48464A46AC
:105340004146434600F01CF98146884649E752A38E
:10535000D3E900234846414600F012F90023002219
:10536000C3F6F07300F04EFD00287FF43AAF4AE731
:10537000484600F0C5F84FF6FF72C3F6F272964247
:1053800004460D4636DC4FF6FF73C3F6E5739E42C6
:1053900064DC02460B4600F0F3F800230022C3F65B
:1053A000F07300F0EBF8002206460F464FF0804302
:1053B0002046294600F0E4F802460B4630463946BE
:1053C00000F0BAFB4FF0000B814688461DE73046DF
:1053D000394600F0D5F84A46434600F083FA0246C3
:1053E0000B464846414600F0C9F84C4645468146C2
:1053F0008846F6E647F6FF77C4F20307BE4220DC94
:1054000000230022C3F6F87300F0B8F80023064624
:105410000F460022C3F6F8732046294600F062FAD0
:1054200000230022C3F6F07300F0AAF802460B46F0
:105430003046394600F080FB4FF0020B814688462B
:10544000E3E600210020CBF6F07122462B4600F067
:1054500073FB4FF0030B81468846D6E600230022FB
:10546000C3F6F07300F08AF8002306460F460022C8
:10547000C3F6F0732046294600F082F802460B4638
:105480003046394600F058FB4FF0010B8146884604
:10549000BBE600BFAFF300809C7500883CE4377E1C
:1054A000D88C0008B88C000811DA22E33AAD903F9E
:1054B000EB0D76244B7BA93F513DD0A0660DB13F4B
:1054C0006E204CC5CD45B73FFF8300922449C23FB3
:1054D0000D5555555555D53F2F6C6A2C44B4A2BF78
:1054E0009AFDDE522DDEAD3F6D9A74AFF2B0B33F40
:1054F000711623FEC671BC3FC4EB98999999C93FB8
:1055000021F00041704700BF0B4661B1B1F1004F7F
:1055100009D04FF6FF72A3F58011C7F6DF729142F2
:1055200005D8042070470028F3D10220704703F10A
:10553000FF4101F5E0019142F3D94FF6FF72C0F24D
:105540000F02934201D80320704703F100419142BA
:10555000F9D90022C7F6F072934204D013F5801FE8
:1055600001D000207047D0F1010038BF0020704703
:105570000020704781F0004102E000BF83F000434B
:1055800030B54FEA41044FEA430594EA050F08BFDE
:1055900090EA020F1FBF54EA000C55EA020C7FEAA2
:1055A000645C7FEA655C00F0E2804FEA5454D4EB1F
:1055B0005555B8BF6D420CDD2C4480EA020281EAE9
:1055C000030382EA000083EA010180EA020281EA21
:1055D0000303362D88BF30BD11F0004F4FEA013173
:1055E0004FF4801C4CEA113102D0404261EB410182
:1055F00013F0004F4FEA03334CEA133302D0524208
:1056000063EB430394EA050F00F0A780A4F10104C3
:10561000D5F1200E0DDB02FA0EFC22FA05F28018FD
:1056200041F1000103FA0EF2801843FA05F35941E3
:105630000EE0A5F120050EF1200E012A03FA0EFC62
:1056400028BF4CF0020C43FA05F3C01851EBE3718C
:1056500001F0004507D54FF0000EDCF1000C7EEBA9
:1056600000006EEB0101B1F5801F1BD3B1F5001FE7
:105670000CD349085FEA30004FEA3C0C04F1010406
:105680004FEA445212F5800F80F09A80BCF1004F2F
:1056900008BF5FEA500C50F1000041EB045141EAB1
:1056A000050130BD5FEA4C0C404141EB010111F4B2
:1056B000801FA4F10104E9D191F0000F04BF01465D
:1056C0000020B1FA81F308BF2033A3F10B03B3F13B
:1056D00020020CDA0C3208DD02F1140CC2F10C02CB
:1056E00001FA0CF021FA02F10CE002F11402D8BF29
:1056F000C2F1200C01FA02F120FA0CFCDCBF41EAF5
:105700000C019040E41AA2BF01EB0451294330BDC3
:105710006FEA04041F3C1CDA0C340EDC04F11404A0
:10572000C4F1200220FA04F001FA02F340EA030077
:1057300021FA04F345EA030130BDC4F10C04C4F1BD
:10574000200220FA02F001FA04F340EA030029469D
:1057500030BD21FA04F0294630BD94F0000F83F4E7
:10576000801306BF81F480110134013D4EE77FEACA
:10577000645C18BF7FEA655C29D094EA050F08BF16
:1057800090EA020F05D054EA000C04BF19461046F7
:1057900030BD91EA030F1EBF0021002030BD5FEA3B
:1057A000545C05D14000494128BF41F0004130BD63
:1057B00014F580043CBF01F5801130BD01F00045B7
:1057C00045F0FE4141F470014FF0000030BD7FEA2A
:1057D000645C1ABF194610467FEA655C1CBF0B4625
:1057E000024650EA013406BF52EA033591EA030F3C
:1057F00041F4002130BD00BF90F0000F04BF002134
:10580000704730B54FF4806404F132044FF0000566
:105810004FF0000150E700BF90F0000F04BF0021DF
:10582000704730B54FF4806404F1320410F0004545
:1058300048BF40424FF000013EE700BF42004FEA40
:10584000E2014FEA31014FEA02701FBF12F07F43BD
:1058500093F07F4F81F06051704792F0000F14BFBA
:1058600093F07F4F704730B54FF4607401F00045FE
:1058700021F0004120E700BF50EA010208BF704755
:1058800030B54FF000050AE050EA010208BF70474A
:1058900030B511F0004502D5404261EB41014FF4B3
:1058A000806404F132045FEA915C3FF4DCAE4FF0B7
:1058B00003025FEADC0C18BF03325FEADC0C18BF9E
:1058C000033202EBDC02C2F1200300FA03FC20FAEF
:1058D00002F001FA03FE40EA0E0021FA02F114443C
:1058E000C1E600BF70B54FF0FF0C4CF4E06C1CEA51
:1058F00011541DBF1CEA135594EA0C0F95EA0C0FC6
:1059000000F0DEF82C4481EA030621EA4C5123EA38
:105910004C5350EA013518BF52EA033541F4801167
:1059200043F4801338D0A0FB02CE4FF00005E1FB1A
:1059300002E506F00042E0FB03E54FF00006E1FB64
:1059400003569CF0000F18BF4EF0010EA4F1FF04A7
:10595000B6F5007F64F5407404D25FEA4E0E6D41E7
:1059600046EB060642EAC62141EA55514FEAC520F8
:1059700040EA5E504FEACE2EB4F1FD0C88BFBCF574
:10598000E06F1ED8BEF1004F08BF5FEA500E50F125
:10599000000041EB045170BD06F0004646EA0101EB
:1059A00040EA020081EA0301B4EB5C04C2BFD4EB1D
:1059B0000C0541EA045170BD41F480114FF0000E16
:1059C000013C00F3AB8014F1360FDEBF002001F084
:1059D000004170BDC4F10004203C35DA0C341BDCFE
:1059E00004F11404C4F1200500FA05F320FA04F0D0
:1059F00001FA05F240EA020001F0004221F0004104
:105A000010EBD37021FA04F642EB06015EEA430E76
:105A100008BF20EAD37070BDC4F10C04C4F12005A6
:105A200000FA04F320FA05F001FA04F240EA020059
:105A300001F0004110EBD37041F100015EEA430E2A
:105A400008BF20EAD37070BDC4F1200500FA05F24A
:105A50004EEA020E20FA04F301FA05F243EA0203C9
:105A600021FA04F001F0004121FA04F220EA0200D8
:105A700000EBD3705EEA430E08BF20EAD37070BD1E
:105A800094F0000F0FD101F00046400041EB0101FE
:105A900011F4801F08BF013CF7D041EA060195F0E0
:105AA000000F18BF704703F00046520043EB03039A
:105AB00013F4801F08BF013DF7D043EA0603704787
:105AC00094EA0C0F0CEA135518BF95EA0C0F0CD092
:105AD00050EA410618BF52EA4306D1D181EA0301D8
