:020000040800F2
:1000000000800120D105000825060008250600080B
:100010002506000825060008250600080000000047
:10002000000000000000000000000000250600089D
:100030002506000800000000250600082506000827
:1000400025060008250600082506000825060008E4
:1000500025060008250600082506000825060008D4
:1000600025060008250600082506000825060008C4
:1000700025060008250600082506000825060008B4
:1000800025060008250600082506000800000000D7
:10009000000000000000000000000000250600082D
:1000A0002506000825060008250600082506000884
:1000B0002506000825060008250600082506000874
:1000C0002506000825060008250600082506000864
:1000D0002506000825060008250600080000000087
:1000E0002506000825060008250600080000000077
:1000F00000000000000000000000000025060008CD
:100100000000000025060008250600082506000856
:1001100000000000000000000000000000000000DF
:100120002506000825060008250600082506000803
:10013000250600080000000000000000000000008C
:10014000000000000000000000000000250600087C
:1001500025060008250600082506000825060008D3
:100160002506000825060008000000000000000029
:10017000000000000000000000000000000000007F
:10018000000000002506000800000000000000003C
:100190002506000810B5054C237833B9044B13B17C
:1001A0000448AFF300800123237010BD1802002023
:1001B00000000000A8670008084B10B51BB10848F4
:1001C0000849AFF300800848036803B910BD074B26
:1001D000002BFBD0BDE81040184700BF0000000016
:1001E000A86700081C020020140200200000000084
:1001F000154B002B08BF134B9D46A3F5803A0021F9
:100200008B460F461348144A121A04F0D3FF0F4BC3
:10021000002B00D098470E4B002B00D098470020B1
:10022000002104000D000D48002802D00C48AFF357
:10023000008004F077FF2000290000F099F904F015
:10024000D5FD00BF00000800008001200000000074
:100250000000000018020020280B00200000000011
:100260000000000000B585B072B60521684603F0B5
:100270006DF810E0039B019A1A60962003F092F942
:100280009DF90030013310D0019A039B12041A60CB
:10029000962003F087F99DF900300133EAD1064832
:1002A0000649342203F022F8E4E7034803493422E4
:1002B00003F01CF8E8E700BF4C5D0008645D00082F
:1002C0000F4A30B493689468B4F1006F1A4604D0B2
:1002D000103030BC42F8201070470A4A03F5CA7546
:1002E00053F8044B42F8044FAB42F9D14FF000529F
:1002F000034B10309A6030BC42F82010704700BFAA
:1003000000ED00E0FCFFFF1F70B5114C2368DA68B8
:10031000910715D4DA68520709D56FF004020D4E23
:100320001A615D6A3368EB1AB3F57A7F00D270BD4B
:1003300000F096F92368356005F57A759D6370BD08
:100340006FF002021A6103F00DF92368E2E700BFC3
:100350000C0A002034020020244B30B51A6C244CC7
:1003600042F008021A641A6C83B002F0080201928B
:10037000019A1A6A42F008021A621A6A22F0080206
:100380001A6201F069FB1B4A1B4B12681B49216072
:10039000A3FB0212920C0025013A4FF0FF332046D6
:1003A0006260E3602561A560656101F065F9322056
:1003B0001349FFF785FF134B4FF480225A602946FB
:1003C000204601F0C7F82046042101F0C3F8236855
:1003D0000D495A6A0A6002F57A729A63DA68284609
:1003E00042F00402DA6003B030BD00BF00380240C2
:1003F0000C0A00209C01002083DE1B43000C0040FF
:100400000903000800E100E03402002008B501F013
:1004100023FBBDE8084000F009B900BF02480221F3
:10042000032202F06BBD00BFCC0A0020022808B5F1
:100430000BDDC21E074B53F82200002143F82210A7
:1004400028B103685B68984708BD002008BD4FF0DD
:10045000FF3008BD38020020022870B50C46164651
:100460000FDC0E4B1B680BB9FFF7D8FFA51936B18F
:1004700014F8011B0A4802F0DDFDAC42F8D1304609
:1004800070BD0338074B53F8200018B103681B6890
:10049000984770BD4FF0FF3070BD00BF540700207B
:1004A000CC0A002038020020022810B50C4609DCD6
:1004B0000D4B1B688BB10D4802F0B0FD012320707D
:1004C000184610BD03380A4B53F8200040B10368AA
:1004D0009B6898470346184610BDFFF79FFFEAE761
:1004E0004FF0FF33ECE700BF54070020CC0A002098
:1004F00038020020022808B508DD0338064B53F8FF
:10050000200028B10368DB68984708BD012008BDBA
:100510004FF0FF3008BD00BF38020020022808B5A8
:1005200008DD0338064B53F8200028B103681B6927
:10053000984708BD002008BD4FF0FF3008BD00BF40
:1005400038020020022808B504D84FF400534B604D
:10055000002008BD04F044FC092303604FF0FF3085
:1005600008BD00BF08B5012004F040FC704700BF83
:1005700008B5FFF74BFFFFF7F9FFBDE8084001F0B2
:10058000F5BF00BF074A13681844EFF3088188429B
:1005900002D2106018467047034B0C221A604FF0CD
:1005A000FF30704798010020240B0020074C08B54D
:1005B00023680546986804F0DBFC2368D86804F0DB
:1005C000D7FC05B9FEE7FFF74DFEFBE70002002070
:1005D000DFF838D0002100F004B80D4B5B584350D1
:1005E00004310C480C4B42189A42FFF4F6AF0B4A08
:1005F00000F003B8002342F8043B094B9A42FFF491
:10060000F9AF01F007FBFFF7F3FD70470080012011
:10061000B46700089401002018020020180200208E
:10062000280B0020FFF7FEBF704700BF08B50B4B3B
:100630001A6842F400721A601A6842F480621A6002
:100640001A6842F480721A60032000F0F7F90F2054
:10065000FFF782FEFFF7E8FF002008BD003C0240E4
:10066000024B1A6801321A60704700BF380300203D
:10067000014B1868704700BF38030020704700BF67
:10068000F8B50446002800F0998090F83D3003F05A
:10069000FF02002B00F08480494A4A48022384F874
:1006A0003D305168236821F44031516055686168DC
:1006B000294351605E682769A568E168E26A26F40B
:1006C00080765E605E6846EA07265E605E6826F0B9
:1006D00040765E605E6835435D609D6825F4006528
:1006E0009D609D68824245EA010199605DD09868ED
:1006F000216B20F070609860986802439A609A6855
:1007000022F040529A609A680A439A609968A069F8
:10071000626A21F002019960996841EA400199609A
:1007200042BB5A6822F400625A60DD6AE169226ABB
:10073000606925F47005DD62DD6A013A45EA02521E
:10074000DA629A6822F400729A609A6842EA412258
:100750009A609A6822F480629A609968002241EA5D
:100760008020012198602264104684F83C2084F89F
:100770003D10F8BD5A6842F400625A605A6822F48B
:1007800060425A6059684FF4604090FAA0F0B0FAA5
:1007900080F0A26AC0B2013A82400A435A60C4E7BC
:1007A00080F83C20FFF76AFF76E79A6822F07062D3
:1007B0009A609A6822F040529A60A7E70120F8BD3B
:1007C000002301400100000F30B490F83C3082B0AB
:1007D0000022012B01923DD090F83D300122222BC6
:1007E0000CBF3223122380F83C20026880F83D3091
:1007F0009368DB0714D41E491E4B0C689168A3FB59
:1008000004539B0C03EB430341F0010191600193FE
:10081000019B2BB1019B013B0193019B002BF9D163
:10082000154B5B68002113F01F0380F83C1006D0C5
:10083000124B9A4216D0084602B030BC70479168FD
:1008400011F040500AD1936843F08043936002B0A6
:1008500030BC7047022002B030BC7047184602B06E
:1008600030BC7047906810F04050ECD0E3E700BF18
:100870009C01002083DE1B43002301400020014037
:1008800003689A6870B5560505460C4602D59B6804
:10089000D80520D4FFF7ECFE06462A6801E0611C6B
:1008A0000CD113689B07FAD595F83D30252B0CBF6A
:1008B0003523152385F83D30002070BD24B1FFF7A6
:1008C000D7FE801B8442E8D20320002385F83D0038
:1008D00085F83C3070BD0422002385F83D2085F862
:1008E0003C30012070BD00BF0368D86C704700BF6A
:1008F000F0B490F83C3082B00022012B019259D024
:100900000A680123092A144680F83C302BD8036872
:100910008F681E69496802EB42054FF0070C0CFA1C
:1009200005FC26EA0C061E611E6907FA05F535432B
:1009300006291D612DD801EB81015E6B05391F254C
:100940008D4026EA05055D635D6B04FA01F12943DC
:10095000596337498B423ED0002380F83C3018461B
:1009600002B0F0BC704703688F68DE68496894B2D3
:1009700004EB44051E3D4FF0070C0CFA05FC26EA7B
:100980000C06DE60DE6807FA05F535430629DD60F2
:10099000D1D90C2901EB810110D81E6B23391F25F9
:1009A0008D4026EA05051D631D6B04FA01F12943FC
:1009B0001963CEE7022002B0F0BC7047DE6A41390D
:1009C0001F258D4026EA0505DD62DD6A04FA01F186
:1009D0002943D962BDE7122A23D0A2F11003012BCB
:1009E000BAD8144B5968102A41F400015960B3D1A8
:1009F000114A03F1467303F52E33126803F2833371
:100A0000A3FB02139B0C03EB83035B000193019B8D
:100A1000002BA1D0019B013B0193019B002BF9D13D
:100A20009AE7044B5A6842F480025A6094E700BF88
:100A300000200140002301409C010020074AD168AA
:100A40004FF6FF030B4043F0BF6300F0070043F491
:100A5000003343EA0023D360704700BF00ED00E09D
:100A60002DE9F00FD1F800C07C4E82B0002303E0E6
:100A70000133102B00F09C80012404FA03F202EAF7
:100A80000C049442F4D14A6822F01009B9F1020F23
:100A900000F092805D004FF00308D0F800B008FA33
:100AA00005F86FEA080802F0030A08EA0B0B0AFAD5
:100AB00005FA09F1FF394BEA0A0AB9F1010FC0F84A
:100AC00000A040F2A280D0F80C908F6808EA0908D4
:100AD00007FA05F548EA0505C560D500C8D5604F99
:100AE0007D6C45F480457D64D7F8448023F0030590
:100AF00008F48048CDF8048005F1804503F0030830
:100B00000F2705F59C354FEA880807FA08FA554F74
:100B1000DDF80490D5F80890B84229EA0A0900F0F7
:100B20008C8007F58067B84200F08A804E4FB8424B
:100B300000F08A804D4FB84200F08B804C4FB84295
:100B40000CBF4FF0040A4FF0050A0AFA08F848EA09
:100B50000908C5F80880D6F80080E543D7034CBFE4
:100B600044EA080805EA0808C6F80080D6F80480B8
:100B700097034CBF44EA080805EA0808C6F8048051
:100B8000D6F80880D7024CBF44EA080805EA0808EE
:100B9000C6F80880D6F80C80920203F1010354BF16
:100BA00005EA080444EA0804102BF4607FF464AFFB
:100BB00002B0BDE8F00F70474FEAD30800EB880899
:100BC00003F00709D8F820704FEA89090F2505FAC4
:100BD00009FB27EA0B0A0F6907FA09F94AEA09052E
:100BE000C8F820505D004FF00308D0F800A008FAC4
:100BF00005F86FEA080802F0030908EA0A0A09FA88
:100C000005F94AEA0909C0F80090D0F80890CF68C1
:100C100008EA090907FA05FA49EA0A09C0F808903A
:100C2000D0F804A0C2F300192AEA040A09FA03F969
:100C30004AEA0909C0F8049045E74FF0000886E742
:100C4000012707FA08F882E74FF0020A0AFA08F8C3
:100C50007DE74FF0030A0AFA08F878E7003C014004
:100C6000003802400000024000080240000C024030
:100C700000100240704700BFF8B50446002869D054
:100C800090F8353003F0FF02002B4ED02368324D30
:100C9000022284F835201A6822F001021A6000F05E
:100CA00087FB2E4962682368A1FB0061890CAA4278
:100CB000596024D85200B0FBF2F0C0F30B020131AE
:100CC000032A19628CBF84464FF0040C206AE7693E
:100CD000E6682169A2696569C3F81CC038433143DD
:100CE0002A4318609960DA601868002240F0010019
:100CF00001211860A263104684F83510F8BD4FF446
:100D00009677174EA56807FB01F1A6FB01718909CB
:100D10000131196275B902EB4202B0FBF2F0C0F387
:100D20000B02A2B94FF0010CD0E780F83420FFF796
:100D3000A1FFABE702EB820202EB8202B0FBF2F012
:100D4000C0F30B02002AEDD040F4404CBEE740F463
:100D5000004CBBE70120F8BDA086010083DE1B43E9
:100D6000D34D6210064B1A69012922F004021A6160
:100D700003D040BF20BF20BF704730BF704700BFC7
:100D800000ED00E0F0B50368DE0783B0044637D518
:100D9000A54A916801F00C01042900F0F3809168E4
:100DA00001F00C01082900F0E980A04B9E4D0022C3
:100DB0001A70FFF75DFC41F28836074605E0FFF741
:100DC00057FCC01BB04200F2C8802B689903F6D4D0
:100DD000964B22791A706368002B00F01181FFF79F
:100DE00047FC914D074641F2883605E0FFF740FC8D
:100DF000C01BB04200F2B1802B689A03F6D523687D
:100E00009F072FD5884A916811F00C0F00F0AC8035
:100E1000916801F00C01082900F0A280E368002B22
:100E200000F0DD80824B804D01221A60FFF720FC2C
:100E3000064605E0FFF71CFC801B642800F28D804D
:100E40002B68794A9807F5D51168F82090FAA0F038
:100E5000B0FA80F02369C0B221F0F80183400B435F
:100E6000136023681A0720D4580734D4A369CBB180
:100E70006D4DAA6802F00C02082A7CD0022B6D4B43
:100E80004FF000021A6000F0CB80FFF7F1FB2C4618
:100E9000054604E0FFF7ECFB401B64285DD823689F
:100EA0009B01F7D4002003B0F0BD6369002B73D021
:100EB000614B5D4D01221A60FFF7DAFB064604E044
:100EC000FFF7D6FB801B642847D86B6F9B07F7D5CD
:100ED00023685807CAD5544B584D1A6C42F08052BB
:100EE0001A641B6C03F080530193019B2B6843F43D
:100EF00080732B60FFF7BCFB064604E0FFF7B8FBEE
:100F0000801B642829D82B68D905F7D54C4B464D52
:100F100000221A70FFF7ACFB41F28836074604E066
:100F2000FFF7A6FBC01BB04217D82B6F9A07F7D468
:100F3000434B227A1A70A368002B00F0C780FFF79A
:100F400097FB394D074641F288362B6F9B078DD4AE
:100F5000FFF78EFBC01BB042F7D9032003B0F0BDF2
:100F6000526856023FF55AAF2F4A1268950723D5AB
:100F7000E268012A20D0012003B0F0BD526855027A
:100F80007FF513AF284A126890037FF539AF626886
:100F9000002A7FF435AFEEE7274A234D1360FFF7B1
:100FA00067FB064604E0FFF763FB801B6428D4D888
:100FB0006B6F9F07F7D48BE71B4AF825106895FAEB
:100FC000A5F5B5FA85F522691749EDB220F0F800CC
:100FD000AA4002430A601A077FF546AF65E7144A44
:100FE000114D1360FFF744FB064604E0FFF740FB9A
:100FF000801B6428B1D82B689907F7D4236831E7A0
:10100000FFF736FB084D074641F2883604E0FFF74C
:101010002FFBC01BB042A0D82B689B03F7D4EEE691
:10102000FFF726FB064612E0003802400238024075
:101030000000474260004742800E47420070004077
:1010400070380240FFF714FB801B642885D82B689A
:101050009901F7D447F6C07595FAA5F5B5FA85F567
:101060004FF4403191FAA1F1B1FA81F14FF0706281
:1010700092FAA2F2B2FA82F2A66AD4F824C0D4F8A4
:1010800020E0E769E06A194B194CEDB276080CFADA
:1010900005F54EEA0707C9B2013E3D43D2B206FA52
:1010A00001F100FA02F229431143012261601A6042
:1010B000FFF7DEFA054605E0FFF7DAFA401B642881
:1010C0003FF64BAF23689A01F6D5EBE6FFF7D0FA6F
:1010D000074D074641F288362B6F98077FF5C6AE5D
:1010E000FFF7C6FAC01BB042F6D936E760004742A8
:1010F000003802407C4B1A6802F00F028A422DE948
:10110000F0410C46054609D2CAB21A701B6803F0BA
:101110000F038B4258D00120BDE8F08103689A0785
:1011200006D5724A8168906820F0F0000143916012
:10113000DF0727D56B68012B79D09A1E012A6B4AED
:10114000126840F287809107E5D5684FBA6822F0AF
:1011500003021343BB60FFF78BFA6B68012B064653
:101160007CD0022B00F08880032B65D041F28838B8
:1011700004E0FFF77DFA801B404565D8BB6813F09B
:101180000C0FF6D1584BE2B21A701B6803F00F0334
:10119000A342C0D12B685A0706D5544AE968906823
:1011A00020F4E050014391601B0707D54F4B29699C
:1011B0009A6822F4604242EAC1029A600F20FFF767
:1011C000CBF80020BDE8F08103689F0706D5474AA9
:1011D0008168906820F0F00001439160DE07DAD565
:1011E0006B68012B56D09A1E012A404A12682ED9EC
:1011F000910790D53D4EB26822F003021343B360CD
:10120000FFF736FA6B68012B044648D0022B54D006
:10121000032B60D041F2883704E0FFF729FA001B66
:10122000B84211D8B36813F00C0FF6D1B2E72F4AC9
:101230001268960389D46EE741F28834BB68FFF7E1
:1012400017FA801BA042F9D90320BDE8F081900174
:10125000D0D460E790013FF578AF5CE741F2883881
:1012600004E0FFF705FA801B4045EDD8BB6803F0AA
:101270000C03042BF5D185E741F2883804E0FFF731
:10128000F7F9801B4045DFD8BB6803F00C03082B3F
:10129000F5D177E7154A12689403ABD43BE741F2E6
:1012A000883704E0FFF7E4F9001BB842CCD8B368F4
:1012B00003F00C03042BF5D16CE741F2883704E00E
:1012C000FFF7D6F9001BB842BED8B36803F00C0391
:1012D000082BF5D15EE741F28835B368FFF7C8F90E
:1012E000001BA842F9D9AFE7003C02400038024099
:1012F0001E4B9A6802F00C02042A10B432D0082A5D
:1013000003D01B485DF8044B704758685A685C6806
:1013100012F4800F00F03F0147F6C07292FAA2F279
:10132000B2FA82F247F6C07314BF12481048D2B224
:101330002340D3400D4AB0FBF1F000FB03F05268AC
:101340004FF4403393FAA3F3B3FA83F302F4403239
:10135000DBB222FA03F301335B00B0FBF3F05DF87C
:10136000044B704703485DF8044B70470038024057
:101370000024F40000127A0008B5FFF7B9FF094B0A
:10138000F0229B6892FAA2F2B2FA82F203F0F00322
:10139000D2B223FA02F20449044B8A5CD0401860AE
:1013A00008BD00BF00380240D45D00089C01002049
:1013B00008B5FFF7E1FF084A4FF4E053926893FA4B
:1013C000A3F3B3FA83F302F4E052DBB222FA03F39D
:1013D000024AD35CD84008BD00380240D45D000802
:1013E00008B5FFF7C9FF084A4FF46043926893FAC3
:1013F000A3F3B3FA83F302F46042DBB222FA03F3FD
:10140000024AD35CD84008BD00380240D45D0008D1
:101410000E4B0F22026010B49C680D4A04F00304C6
:1014200044609C6804F0F00484609C6804F4E05418
:10143000C4609B685DF8044B03F46043DB08036100
:10144000136803F00F030B60704700BF00380240C1
:10145000003C0240036A23F00103F0B48F680E6879
:101460000362036A104D4268846923F0020324F08A
:101470007304A84243EA070344EA060406D0496815
:10148000426084614163F0BC03627047CF688E693B
:101490004D6923F0080322F440723B43354323F0A7
:1014A00004032A43EBE700BF00000140036A23F472
:1014B0008073F0B48F680E680362036A114D42684E
:1014C000C46923F4007324F07304A84243EA072399
:1014D00044EA060406D049684260C461C163F0BCB6
:1014E00003627047CF684E698D6923F4006322F46C
:1014F000405243EA072342EA061223F4806342EA99
:101500000512E8E700000140036A23F48053F0B4B9
:101510008F680E680362026A0C4D4368C46922F446
:10152000005224F4E644A84242EA073244EA062480
:1015300006D049684360C4610164F0BC0262704730
:101540004D6923F4804343EA8513F2E7000001402C
:10155000704700BF03680E4A186A10B4012404FAE9
:1015600001F120EA01001862186A934241EA000181
:10157000196207D01A685DF8044B42F0010200209E
:101580001A6070475A6C42F400425A64F2E700BF96
:1015900000000140704700BF03680E4A186A10B48B
:1015A000012404FA01F120EA01001862186A93424A
:1015B00041EA0001196207D01A685DF8044B42F055
:1015C000010200201A6070475A6C42F400425A64CB
:1015D000F2E700BF00000140264A0368904230B4A1
:1015E00034D0B0F1804F20D0A2F57C4290421CD084
:1015F00002F58062904218D002F58062904214D0C9
:1016000002F59A32904214D002F58062904210D0D6
:1016100002F5806290420CD08C680A680360012356
:10162000C462826230BC436170474A6823F0700331
:101630001343CD688C680A6823F440732B4303601E
:101640000123C462826230BC436170474C68CA683F
:1016500023F070031C4324F44074224302608B681F
:10166000C3620B6883620B6903630123436130BC6F
:10167000704700BF0000014010B50446B0B190F8BB
:10168000393003F0FF0263B12146022351F8040B05
:1016900084F83930FFF7A0FF012384F839300020A7
:1016A00010BD80F83820FFF753FFEDE7012010BD93
:1016B00010B50446B0B190F8393003F0FF0263B1C1
:1016C0002146022351F8040B84F83930FFF784FFD8
:1016D000012384F83930002010BD80F83820FFF74E
:1016E00059FFEDE7012010BD036A23F01003F0B4A9
:1016F0008F680E680362036A114D4268846923F0A3
:10170000200324F4E644A84243EA071344EA0624EB
:1017100006D04968426084618163F0BC036270470F
:10172000CF684E698D6923F0800322F4406243EA5A
:10173000071342EA860223F0400342EA8502E8E703
:101740000000014038B590F83830012B04460D46B2
:1017500028D00121022380F8381080F839300C2A73
:1017600019D8DFE802F007181818341818184718A5
:101770001818210029460068FFF76CFE23682A69C3
:10178000996941F008019961996921F00401996111
:1017900099690A439A610123002084F8393084F85A
:1017A000380038BD022038BD29460068FFF7ACFE7E
:1017B00023682969DA6942F40062DA61DA6922F49D
:1017C0008062DA61DA6942EA0122DA61E3E72946F6
:1017D0000068FFF789FF236829699A6942F400626B
:1017E0009A619A6922F480629A619A6942EA0122B6
:1017F0009A61D0E729460068FFF758FE23682A69F6
:10180000D96941F00801D961D96921F00401D96190
:10181000D9690A43DA61BEE7036804201A6A00FA4C
:1018200001F122EA01021A621A6A114319625A6C22
:1018300042F400425A641A6842F001021A60002021
:10184000704700BF2DE9F0410568C1682B69C26986
:10185000D0F810E08768466923F4405319430446E2
:1018600080692961EB684EEA070123F4164331438E
:1018700023F00C0311430B43EB606B6923F44073BB
:101880000343B2F5004F6B61594B3CD09D4200F0D1
:101890008C8003F580639D4200F08780FFF788FD10
:1018A0006368544E00EB80009B0000EB8000B0FBAF
:1018B000F3F7FFF77DFD636800EB80009B0000EB12
:1018C0008000B0FBF3F8FFF773FD636800EB800066
:1018D00000EB80009B00B0FBF3F3A6FB0727A6FB01
:1018E00003237F095B0964203F0100FB13884FEA53
:1018F000081808F13208A6FB0836C6F3431637432A
:10190000AF60BDE8F0819D422DD003F580639D421C
:1019100029D0FFF74DFD6368364E00EB80005B0079
:1019200000EB8000B0FBF3F7FFF742FD636800EBCC
:1019300080005B0000EB8000B0FBF3F8FFF738FDA0
:10194000A6FB072763687F0900EB80003F0100EBDF
:1019500080005B00B0FBF3F3A6FB03235B0964226A
:1019600002FB1388C3E7FFF73BFD6368214E00EBE2
:1019700080005B0000EB8000B0FBF3F7FFF730FD69
:10198000636800EB80005B0000EB8000B0FBF3F8C5
:10199000FFF726FDA6FB072763687F0900EB8000A1
:1019A0003F0100EB80005B00D4E7FFF719FD63689F
:1019B000104E00EB80009B0000EB8000B0FBF3F7C3
:1019C000FFF70EFD636800EB80009B0000EB8000DA
:1019D000B0FBF3F8FFF704FDA6FB072763687F0958
:1019E00000EB80003F0100EB80009B00B2E700BFEE
:1019F000001001401F85EB51704700BF10B5044631
:101A000040B390F8393003F0FF02F3B123680222AB
:101A100084F83920DA6822F40052DA602046FFF7B1
:101A200011FF23681A6922F490421A615A6922F060
:101A30002A025A61D868002240F400500121D8607F
:101A4000E263104684F8391010BD80F83820FFF7A3
:101A5000D3FFDBE7012010BD164B9A6802F00C02A1
:101A6000042A24D0082A0AD0134A124B1348996832
:101A7000134BC1F30311415CCA401A6070475868A8
:101A800059685B6842024CBF0E4A0B4A01F03F01A5
:101A9000C3F38813B2FBF1F202FB03F2054B5B6860
:101AA000C3F3014301335B00B2FBF3F2DDE7054A08
:101AB000DBE700BF003802400024F400E45D0008CA
:101AC0009C01002000127A00224A234B116C70B551
:101AD00041F080511164126C94B002F08052019276
:101AE000019A1A6822F4404242F400421A601B68CC
:101AF00003F4404302930123029A089300B10523A3
:101B000009934FF4A8710723042202244FF480069E
:101B1000082508A813930E940F9610951191129210
:101B2000FFF730F9034610B1002014B070BD4FF438
:101B3000805221460F2503A804940593079303952B
:101B40000692FFF7D7FAD0F1010038BF002014B099
:101B500070BD00BF0038024000700040234A244B93
:101B6000116CF0B541F080511164126C95B002F027
:101B700080520192019A1A6822F4404242F40042D3
:101B80001A601B6803F4404302934FF0030E1023C6
:101B9000002404210722012702254FF4A87608A873
:101BA0000C931093DDF808C0CDF820E00B97099452
:101BB0000F940E95119612911392FFF7E3F80346D6
:101BC00010B1204615B0F0BD4FF4805229460F24C5
:101BD00003A804950593079303940692FFF78AFAE6
:101BE000D0F1010038BF002015B0F0BD0038024030
:101BF0000070004008B50120FFF766FF00B108BD86
:101C0000FFF762FF0028FAD1FFF7A8FF0028F6D1FE
:101C1000FEE700BF174B1848D3F8882070B542F490
:101C20007002164CC3F888202268154E154D00210D
:101C300042F001022260A160226822F0847222F444
:101C400080322260666026684FF0006226F48026AB
:101C50002660E1609A600560FEF7E8FCFFF7CAFFC6
:101C6000236A43F008032362236A23F008032362F4
:101C700070BD00BF00ED00E09C0100200038024074
:101C8000103000240024F40038B590F900300133FE
:101C900004460D4604D105480549342201F026FBCF
:101CA000E268636805B91B04136038BDF45D000881
:101CB0000C5E000838B5102204460D46002103F0E2
:101CC00079FA2046294601F041FB204638BD10B57F
:101CD0002021044600F06EFE04F108000B21FFF7FE
:101CE000E9FF04F118000C21FFF7E4FF04F12800DC
:101CF0002921FFF7DFFF002384F83830204610BD8C
:101D000010B5044680F8381003291CD8DFE801F02C
:101D1000020508100830002104E00830002109E025
:101D200008300121FFF7B0FF04F11800002106E0A0
:101D300008300121FFF7A8FF04F118000121BDE8D8
:101D40001040FFF7A1BF10BD10B504460121283097
:101D5000FFF79AFF204694F83810BDE81040FFF7CF
:101D6000CFBF10B5002104460830FFF78DFF04F106
:101D700018000021FFF788FF04F128000021BDE8CA
:101D80001040FFF781BF0000F8B5164D164F174EF3
:101D9000102422462846002103F00CFA284621464A
:101DA00001F0D4FA124D38462D2101F0F5F93846EC
:101DB000104F2A46314602F0B1F838462E2101F084
:101DC000EBF92A460C4D3146384602F0A7F8284672
:101DD0000021224603F0EEF928460521BDE8F8402F
:101DE00001F0B4BAA00300204C0300202131000808
:101DF00094010020B00300203C03002070477FB511
:101E0000154604AA1C46012302F8041D00933A213A
:101E1000064601F051F90023009330463A212A4644
:101E2000234601F063F904B070BD7FB500242A2673
:101E300003AA00943A21022305468DF80C608DF820
:101E40000D4001F039F90E238DF80C3003AA0094EF
:101E500028463A2102238DF80D4001F02DF9012387
:101E60008DF80D30009428463A2103AA02238DF8FC
:101E70000C6001F021F904B070BD10B5044601F00A
:101E8000FBF82046FFF7D1FF204610BD13B507230E
:101E90000C466A460021FFF7B2FF9DF804309DF81A
:101EA00003209DF805109DF80100DFED146A03EB97
:101EB00002229DF8063003EB01239DF8021001EB8E
:101EC000002109B207EE101AB8EEC77A12B227EE57
:101ED000267A1BB284ED007A07EE903A07EE102ABC
:101EE000F8EEE77AB8EEC77A67EEA67A27EE267A9A
:101EF000C4ED027A84ED017A02B010BD0000803892
:101F000038B590F90030013304460D4604D1054838
:101F10000549342201F0EAF9E268636805B91B0457
:101F2000136038BDF45D00080C5E0008F8B510269B
:101F300004463246002103F03DF9A5192046072149
:101F400001F004FA32462846002103F033F904F187
:101F500020072846082101F0F9F904F13406384633
:101F6000084D092100F0E4FE30460A2100F0E0FEB1
:101F70003846294600F088FF3046294600F084FFA5
:101F80002046F8BD17B7513838B504460D46002134
:101F9000FFF7B6FF04F13400002100F0D5FD04F195
:101FA00010000121FFF7ACFF04F120002946BDE835
:101FB000384000F0C9BD38B504460D461030002148
:101FC000FFF79EFF04F12000002100F0BDFD204638
:101FD0000121FFF795FF04F134002946BDE83840A0
:101FE00000F0B2BD38B5002504462946343000F073
:101FF000ABFD20460021FFF783FF04F120002946B6
:1020000000F0A2FD04F110000021BDE83840FFF708
:1020100077BF10B580E80E00029BC360039B03618D
:10202000049B4361059B836100238365C36503664D
:102030004366C0F8003210BD7FB5054600F130049C
:1020400000F12006A86801A9FFF720FF019B44F8D2
:10205000043D029B6361052001F0A4FAB442F1D172
:1020600004B070BD00000000DFB5044600F12C0391
:1020700000F1200253F8041D596093425969996197
:10208000F8D1A06801A9FFF701FF019802F05CFBFD
:102090001BA3D3E9002302F0ABFB0646206A0F46E0
:1020A00002F052FB18A3D3E9002302F0A1FB024681
:1020B0000B463046394602F0E9F902F033FEE061A2
:1020C000029802F041FB0EA3D3E9002302F090FB3B
:1020D0000646606B0F4602F037FB0BA3D3E90023E3
:1020E00002F086FB02460B463046394602F0CEF936
:1020F00002F018FE206304B0D0BD00BFAFF3008033
:1021000028A48AF4869A943FDFAA5BC82B5BEF3F32
:102110002DE97043044600F1580500F14806E069D6
:1021200080F0004002F010FB8046206B80F0004001
:10213000894602F009FB02460B464046494601F03B
:10214000F5FE00220C4B02F053FB09A3D3E9002358
:1021500002F078FC02F0E6FD45F8040D2046FFF79A
:1021600083FF052001F01EFAB542D8D1BDE8708387
:10217000F1D4C853FB2109400080664000000000F4
:10218000D0B5036D4365C36C03650446836CC364BB
:10219000FFF76AFFE06980F0004002F0D5FA0646DA
:1021A000206B80F000400F4602F0CEFA02460B464C
:1021B0003046394601F0BAFE0022094B02F018FB06
:1021C00005A3D3E9002302F03DFC02F0ABFD6064FF
:1021D000D0BD00BFAFF30080F1D4C853FB2109404C
:1021E0000080664070B5044600F16C0500F15C06A5
:1021F00094ED127AD4ED117A77EEC77A9FED077AD3
:10220000C7EE877A204665ED017AFFF7B9FF052012
:1022100001F0C8F9B542EBD170BD00BF0AD7233C2D
:10222000436E8366036E4366C36D036610B5044652
:10223000FFF7A6FF94ED127AD4ED117A77EEC77A04
:102240009FED037AC7EE877AC4ED167A10BD00BF02
:102250000AD7233C00F16C0300F5FC70002243F820
:10226000042B8342FAD1704710B50446FFF7E4FE11
:102270002046FFF74DFF2046FFF7B4FF2046BDE89C
:102280001040FFF7E7BF000010B500F5FC730446EF
:1022900000F1700253F8041D59609342FAD12046B0
:1022A000FFF7BEFF94ED7F7AD4ED167A77EEC77A0A
:1022B0009FED057AF4EEC77AF1EE10FACABF00235B
:1022C000C4ED1B7AE36610BD0000C843DFED097A58
:1022D00000F16C0300F5FC70B3EC017ADFED066AE7
:1022E00027EE267A834267EE877AF5D117EE900AB9
:1022F000704700BF000000000AD7233CD0ED1D6AE4
:1023000090ED1E7A9FED0C6ADFED0C7A37EE667A5F
:1023100087EE067A37EE277AD0ED1C7A76EEE76AFA
:10232000C6EE867A77EE277AB6EE007A67EE877A7F
:1023300017EE900A704700BF0AD7233C0000000048
:1023400010B504462DED028BFFF79EFF2046FFF7E8
:10235000BDFF08EE100A2046FFF7D0FFD4ED047A47
:1023600094ED037A28EE278AD4ED1B7AA7EE278A0C
:10237000D4ED057A07EE100AA7EE878A2068D4ED1F
:10238000807A37EEC88AB5EEC08AF1EE10FA04DD25
:1023900018EE101AFFF7F8FD01E0FFF723FEB5EE87
:1023A000C08AF1EE10FA206809D5F0EEC87ABDECCB
:1023B000028B17EE901ABDE81040FFF7FCBDBDEC94
:1023C000028BBDE81040FFF70DBEC0F8FC1170474E
:1023D0004A680B6812F0010F4FEA620218BF815879
:1023E000104418BFCB58184710B5054B036004467E
:1023F00000F016FF204600F03FFF204610BD00BF52
:102400007860000810B5034B03600446FFF7ECFF4B
:10241000204610BD9060000838B51C4803F0B8FA9B
:102420001B4A1368B3FA83F35B09136014464BB17C
:10243000184800F0F5FE184800F0F2FE1748002199
:10244000FFF7C3FF236803BB154800F095F9044666
:10245000D8B91048134B114D8361C462124900F082
:10246000E7FE2846FFF700FF28461049FFF7ADFFBB
:1024700009480F4BC3610F4B85610462C36242F28E
:102480001071BDE8384000F0D3BE38BD765E00085C
:102490000C070020DC060020A80600209404002081
:1024A0009806002019240008809698000000F0414A
:1024B00041230008D123000838B51C4803F068FA0E
:1024C0001B4A1368B3FA83F35B09136014464BB1DC
:1024D000184800F0A5FE184800F0A2FE1748002199
:1024E000FFF773FF236803BB154800F045F9044666
:1024F000D8B91048134B114D8361C462124900F0E2
:1025000097FE2846FFF7B0FE28461049FFF75DFF0B
:1025100009480F4BC3610F4B85610462C36242F2ED
:102520001071BDE8384000F083BE38BD765E00080B
:102530000C070020DC060020A806002094040020E0
:1025400098060020B9240008809698000000F0C189
:1025500041230008D123000810B50446FFF744FFCB
:10256000204601F0E0FC204610BD000008B5022125
:102570002748FFF7C5FB2748FFF734FD26482749C2
:1025800000F02CFE2648274900F028FE264800F0DF
:10259000F3F8264B01221A601D462B68244CEBB140
:1025A000244A00231370244A137094F90030013335
:1025B00004D122482249342200F098FE6368E26880
:1025C00019481B04136000F0E5F900F03FFD1D48B9
:1025D00000F0DAFF144800F0EAF9DEE794F9003081
:1025E000013304D115481649342200F07FFEE36818
:1025F0006268154C1A6094F90030013304D10F4819
:102600000F49342200F072FEE36862681A60C4E782
:102610004C040020040400204C030020192400086E
:10262000B0030020B9240008980600200C07002001
:102630003C03002010070020D8060020F45D0008AD
:102640000C5E0008CDCCCC3DA003002010B50446A4
:10265000FFF7D8FE204601F066FC204610BD0000C2
:102660002DE9F043234F244EDFF8B490DFF8B48017
:10267000224C85B0384619211822FFF7FEFB32465E
:102680001F49384601F04AFC4846FFF74FFC4046D8
:10269000FFF71DFB494642461A4800F061F8002545
:1026A000204600F005FEA561E562174B174923603F
:1026B0003246204601F032FC4FF07E53144C00931A
:1026C00000234946424601930293039311483B4637
:1026D000FFF79FFC204600F0EBFD0F4B0F492360F6
:1026E00020463246A561E56205B0BDE8F04301F041
:1026F00015BC00BF8804002094010020DC060020E7
:10270000FD1D0008980600209060000805240008C0
:10271000A80600209404002078600008E92300083F
:10272000040400204C04002038B50A4C94F9003011
:102730000133054604D108480849342200F0D6FD8B
:102740001DB1E36862681A6038BD6368E2681B0403
:10275000136038BDA0030020F45D00080C5E000883
:1027600070B504460E461546212100F023F9A660F7
:10277000E560204670BD0000F8B507464FF47A7654
:1027800000240025384600F06DF901F0DDFF024617
:102790000B462046294601F079FE013E04460D46CF
:1027A000F0D100227A4B02F04DF96FA3D3E9002358
:1027B00002F01EF802460B4601F068FE6CA3D3E956
:1027C000002304460D4602F099FA90B3FA2000F077
:1027D000E9FE0120FFF7A8FF322000F0E3FE3046BB
:1027E000FFF7A2FF642000F0DDFE0120FFF79CFF51
:1027F000322000F0D7FE3046FFF796FF642000F04D
:10280000D1FE0120FFF790FF322000F0CBFE3046D2
:10281000FFF78AFF642000F0C5FE0120FFF784FF68
:10282000322000F0BFFE3046FFF77EFF642000F04C
:10283000B9FE2046294650A3D3E9002302F05EFAF0
:1028400070B3204629464AA3D3E9002302F042FA96
:1028500030B3FA2000F0A6FE0120FFF765FF32201A
:1028600000F0A0FE0020FFF75FFF642000F09AFE5A
:102870000120FFF759FF322000F094FE0020FFF7FF
:1028800053FF642000F08EFE0120FFF74DFF322041
:1028900000F088FE0020FFF747FF642000F082FE72
:1028A0002046294636A3D3E9002302F027FA10B3C5
:1028B0002046294630A3D3E9002302F00BFAD0B119
:1028C000FA2000F06FFE0120FFF72EFF322000F00B
:1028D00069FE0020FFF728FF642000F063FE01205E
:1028E000FFF722FF322000F05DFE0020FFF71CFF03
:1028F000642000F057FE2046294621A3D3E9002397
:1029000002F0E8F9B0B1204629461FA3D3E900231D
:1029100002F0F4F970B1FA2000F044FE0120FFF754
:1029200003FF322000F03EFE0020FFF7FDFE642092
:1029300000F038FE2046294613A3D3E9002302F015
:10294000C9F978B1FA2000F02DFE0120FFF7ECFE66
:102950004B2000F027FE0020FFF7E6FE962000F057
:1029600021FE0120F8BD00BF6666666666660A4005
:102970009A99999999990E409A99999999990B4090
:102980009A999999999908403333333333330740EF
:1029900000408F4010B504460020FFF7C5FEA06838
:1029A000FFF720FBE068BDE81040FFF7DAB9C06828
:1029B000FFF7CAB970B50C46054682B022492046D9
:1029C00000F01CFD2860013037D020461E4900F081
:1029D0002FFD431C06462AD0C6F3C3266E7120463F
:1029E000194900F0D7FC194A2C711368EBB9184942
:1029F0002D68486C01241460164A40F480705360BE
:102A00004864496C936001F480710191104601990A
:102A1000156013619361536293621363D362D36051
:102A20001462D3615361FDF72BFE02B070BD0A48FA
:102A30000A49322200F05AFCCEE7094807492E2203
:102A400000F054FCC1E700BFEC630008140700204D
:102A500000380240480A00200C5F0008A05E000811
:102A6000885E000800B5354A01684379116085B079
:102A7000002201210191029203920F2B09D8DFE875
:102A800003F02F3235383B3E4144474A4D505356B0
:102A9000590FDFED2B7A17EE900A05B05DF804FBB5
:102AA0000F23009369462548FDF722FF2348FDF7D1
:102AB0008BFE22480A21FDF7E3FE0028E9D11F48DA
:102AC000FDF712FF80B207EE100AF8EE477A9FED8D
:102AD0001D7A67EE877A17EE900A05B05DF804FB61
:102AE00000230093DEE701230093DBE7022300933A
:102AF000D8E703230093D5E704230093D2E7052307
:102B00000093CFE706230093CCE707230093C9E7A0
:102B100008230093C6E709230093C3E70A23009321
:102B2000C0E70B230093BDE70C230093BAE70D2306
:102B30000093B7E70E230093B4E700BF480A0020D4
:102B4000000000000108803930B507EE901A274ACE
:102B500003681360F5EEC07AF1EE10FA89B004460E
:102B60003DD4B7EE007AF4EE477AF1EE10FAC8BF22
:102B7000F0EE477AD4ED026A227CB8EE667A002342
:102B800067EE277A6020FCEEE77A013AC4ED037A1B
:102B9000CDED027A01900393049305930693079376
:102BA000032A10D8DFE802F01102151304250F489C
:102BB00001A92A46FEF7C6FDA0B9637C0B48294649
:102BC0004BB1FEF729FE09B030BD0025EFE70C251B
:102BD000EDE70825EBE7FEF7DFFC09B030BDDFEDE0
:102BE000047AC7E7034800F08DFBE6E718070020EA
:102BF00000000000285F0008F0B58268454D0368BA
:102C00002B6087B004460E46002A57D007EE102AE4
:102C1000F8EE477A90ED037AF8EE476AB7EE007A5D
:102C2000C6EEA77AF4EEC77AF1EE10FAC8BF17EE37
:102C3000107A45DD196A41F211120A402AB9196A5F
:102C400040F244420A40002A3DD001A86946FEF7FE
:102C5000DFFB2368304A934245D039D92F4A93424B
:102C600007D051D92E4A934203D002F58062934295
:102C700022D1FEF7B5FB059A0090731EEB60254B41
:102C8000002A39D1274AA2FB0010800C0138586075
:102C9000002320482B61AB60FEF70AFD10B12248EB
:102CA00000F030FB39462046FFF74EFF2B68A66048
:102CB0001A6842F001021A6007B0F0BDDFED1B7A1E
:102CC00017EE907AB6E71A6822F001021A60BCE7A4
:102CD000A2F50062934206D002F58062934202D0D0
:102CE000B3F1804FE8D1FEF763FB049A0090731EA6
:102CF000EB60084B002AC5D00A4A4000A2FB001036
:102D0000800C01385860C3E7A2F580429342B0D0EE
:102D1000D2E700BF18070020000C0040004001402F
:102D20000044014083DE1B43285F000800000000D0
:102D300070B50D46044688B04849284600F05EFB51
:102D4000206001306FD02846444900F071FB431CDD
:102D500006466ED02368424AC6F3C3219342C6F3A7
:102D6000C0362174667444D0B3F1804F29D03D4AF7
:102D700093424AD102F50D32116C41F00201116407
:102D8000126C02F002020392039A374A934209D16D
:102D9000364B5A6C42F480225A645B6C03F48023F5
:102DA0000793079B28462D4900F0F4FA002325716C
:102DB000A360E360204644F62061FFF71DFF08B0E2
:102DC00070BD2A4A116C41F001011164126C02F0CD
:102DD00001020292029A264A9342D6D1234B5A6CA0
:102DE00042F400325A645B6C03F400330693069B92
:102DF000D8E702F59C32516C41F001015164526CEC
:102E000002F001020192019AE5E71A4A934216D1B3
:102E1000164B1A6C42F004021A641B6C03F0040394
:102E20000493049BBEE7144814492D2200F05EFA77
:102E300089E713481149312200F058FA8AE7114A0C
:102E40009342C8D1094B5A6C42F480325A645B6C8D
:102E500003F480330593059BA4E700BF00620008DC
:102E600000000140000400400048014000380240DA
:102E70000044014000080040405F0008585F00081F
:102E80000C5F00080040014007EE101ADFED047AE5
:102E900067EE277AFDEEE77A17EE901AFFF7ACBEE1
:102EA00000247449F8B5134B90F9197006688568C9
:102EB000C468016942691E6001374FF000065D6019
:102EC0009C60D9601A619E6110D090F9182001327F
:102ED0000CBF04220C225A610648FEF78FFD00B990
:102EE000F8BD0548BDE8F84000F00CBA08225A6168
:102EF000F2E700BF8C0A0020C05F0008F0B504466E
:102F000085B008460E463C49154600F077FA3B4925
:102F10000746284600F072FA0146384600F05CFA8F
:102F2000411C206061D0364B984247D003F5806346
:102F3000984236D0A3F55043984225D030462E49CA
:102F400000F028FA28462D4900F024FA721C03D01C
:102F50003046012100F07EFF6B1C03D02846012182
:102F600000F078FF00234FF41652A260E360236163
:102F70006361267665762046FFF794FF214A236831
:102F8000934228D005B0F0BD1F4B1A6C42F40032BA
:102F90001A641B6C03F4003302930123029A6360EA
:102FA000CCE7194B5A6C42F020025A645B6C03F078
:102FB00020030393039B05236360BFE7124B5A6C06
:102FC00042F010025A645B6C03F01003019300237B
:102FD000019A6360B2E70D4B0D4821461C22012483
:102FE0001C6002F0DCF805B0F0BD0A480A49532223
:102FF00000F07CF9206896E7A4630008B861000837
:1030000000100140004400400038024054070020F6
:10301000CC0A0020D85F0008F45F0008026813683B
:103020009B06FCD5024B50681A60C0F3080070473D
:103030008C0A0020026813681B06FCD5024BC1F302
:10304000080151601A6070478C0A0020084BDA684A
:1030500010B5084C22F0040223600020DA60012140
:10306000FDF780FE2368DA6842F00402DA6010BDE2
:10307000000C00405807002010B5064B8360002369
:1030800003604360044600F091FD034B20461C6042
:1030900010BD00BFA08601009407002038B5054D83
:1030A0002B688342044603D0816800F037FC2C6013
:1030B00038BD00BF940700202DE9F04182B01C46C6
:1030C0009DF820500F461646804685F00105FFF713
:1030D000E5FF0095404639463246234600F056FC4F
:1030E000201A18BF012002B0BDE8F0812DE9F0419F
:1030F00082B01C469DF820500F461646804685F04B
:103100000105FFF7CBFF009540463946324623467E
:1031100000F0B4FC201A18BF012002B0BDE8F08115
:1031200010B5044A044640F8142B00F093FB2046E7
:1031300010BD00BF6860000810B5054B044640F89C
:10314000143B00F087FB204600F0EDFE204610BD4A
:1031500068600008012908B503460AD0022907D192
:10316000026D7AB1C06B10B103F14001904708BD08
:1031700008BD826B5AB1406A0028F8D003F12801DB
:10318000904708BDC36B002BF1D0984708BD436A38
:10319000002BFAD1EBE700BF38B50E4B03600446B5
:1031A000002303718360C360036103758361C3619E
:1031B00080F8203043628363C36303650D46234672
:1031C000054A143000F09CFA201D294600F0ACF8A6
:1031D000204638BD686000085531000839B1002329
:1031E000C163036502211430012200F057BB0A4677
:1031F0001430022100F052BB4368416910B5044607
:10320000194400F069F8E36A2BB1A06910B104F128
:103210001C01984710BDA369002BFBD0984710BD37
:1032200010B5044600F05EF80023A361E36210BD10
:1032300038B504460D4600F055F86561206900F088
:1032400087F941192046BDE8384000F045B800BF75
:1032500008B5C36A014623B1806908B11C3198479B
:1032600008BD8369002BFBD0984708BD08B50368EB
:103270009B68984708BD00BF10B5044B0360044627
:10328000211D006900F040F9204610BDA86000082B
:1032900010B5064B03600446211D006900F034F9A7
:1032A000204600F040FE204610BD00BFA860000888
:1032B000074B10B50360002343608360C36004467E
:1032C00000F04CF90349206100F0CCF8204610BD15
:1032D000A86000086D32000803460A460069191DFF
:1032E00000F0EEB8011D006900F00EB910B40C46F4
:1032F00013460146224602485DF8044B00F002B82E
:10330000B86000080FB400B5064B83B004AA1B6870
:1033100052F8041BD868019202F01EF9012001F056
:1033200065FD00BF0002002038B50D46044600F0E0
:1033300057F9013509D02046002100F06BF92046ED
:103340000021BDE8384000F061B938BD38B50D4600
:10335000044600F045F9013511D094F900300133ED
:103360000ED06268E368120420461A60012100F062
:1033700051F920460021BDE8384000F047B938BD7A
:10338000024803493422FFF7B1FFEAE74C5D000829
:10339000645D0008431C10B5044619D091F9003053
:1033A000581C04D10FE011F90C3F5A1C0BD09C4261
:1033B000F9D12046896800F01DFD20460021BDE8B6
:1033C000104000F047BD0348BDE81040FFF79ABF2A
:1033D00010BD00BFEC600008884208B50AD0431C4D
:1033E00007D0013106D00448FFF78CFF4FF0FF30C3
:1033F00008BD084608BD00BF0061000808B5431CB1
:103400000DD091F900305A1C04D109E011F90C3F9C
:103410005A1C05D09842F9D14868411C00D008BD1B
:103420000248FFF76FFF4FF0FF30F8E71461000824
:1034300008B5431C0DD091F900305A1C04D109E0A5
:1034400011F90C3F5A1C05D09842F9D18868411CEB
:1034500000D008BD0248FFF755FF4FF0FF30F8E7F6
:103460003461000838B5036804461B680D46984768
:1034700063681D6038BD00BF38B50368DB6804466B
:10348000984763685B6883B122681D6853689847F2
:10349000281A002862680CDC506811688368536041
:1034A0000029F0D040688847EBE723689B6898477D
:1034B00038BD236852681B691068984738BD00BF43
:1034C00030B583B072B645680A606C684B608CB1E9
:1034D0002368D31A002B05DA0CE01D68551B002D5C
:1034E00003DB1C46A368002BF7D1A1608B6062B69A
:1034F00003B030BD036869601B69019110469847AD
:1035000023460199F2E700BF08B572B643685A68CE
:103510008A4211D04AB193688B4208D02BB19A6885
:103520008A4205D01346002BF9D162B608BD134676
:103530008A689A6062B608BD92685A60036822B1D0
:1035400010681B69984762B608BD9B689847ECE70E
:1035500008B503685B68984708BD00BF004870471E
:10356000686100080148FFF787BF00BF6861000875
:1035700038B5054600F0A8FC044600F0A5FC001B89
:10358000A842FAD338BD00BF07EE100ADFED047A77
:1035900067EE277AFDEEE77A17EE900AFFF7E8BFAD
:1035A000002474494FF47A7303FB00F0FFF7E0BF87
:1035B000431C10B5044608D02046002100F01AFC38
:1035C00004F00F040120A04010BD03480349272246
:1035D000FFF78CFEF0E700BFB8640008CC64000879
:1035E00070B505464B1C0C4629700DD0C1F3031075
:1035F00000F08AFB06462046FFF7DAFF06F11003CB
:1036000018366860AB60EE6070BD00BF90F90000D6
:1036100000F020BC38B5054690F90000431C0C466C
:103620000BD0012C04D00021BDE8384000F0E2BBF3
:103630002146BDE8384000F0DDBB0448044946227D
:10364000FFF754FE95F90000EBE700BF4C5D000862
:10365000CC640008194B2DE9F0474FF04C080F4699
:1036600008FB003839B3DFF85890DFF858A045461A
:1036700000240126D8F8003006FA04F21A4215D0C8
:103680006B6BD9F81420E96906FA03F313420DD0E5
:10369000C9F814306A684AB109690B4210464FF004
:1036A0000101DAF8003008BF022198470134BC421A
:1036B00005F10405DED1BDE8F08700BFA0070020BA
:1036C000003C0140B409002000200121FFF7C2BFE7
:1036D00001200146FFF7BEBF02200121FFF7BABF5C
:1036E00003200121FFF7B6BF04200121FFF7B2BF7D
:1036F00005200146FFF7AEBF06200146FFF7AABF2F
:103700002DE9F04F85B09B464B1C0C4605460292B6
:1037100000F0888001F00F06731EC1F303100E2B1A
:1037200047D8DFE803F04E57616B080808080875B2
:103730007575757575003C4A4FF400074FF0000A27
:103740004FF005094FF01708019200F0DDFA07214C
:103750000390204600F04EFB019A40461146FCF7CC
:10376000AFFD3249324A41F82A704C2101FB09F180
:10377000304F52F8262057F801C02F4B85F80080B3
:103780000120904007EB01084CEA000C0020C5F82E
:1037900004902C73A86008EB820247F801C00299DC
:1037A0001960039BD361C2F804B0566305B0BDE84D
:1037B000F08F4FF0000AD146204A40274FF006080C
:1037C000C2E71F4A80274FF0000A4FF001094FF06F
:1037D0000708B9E71B4A4FF480774FF0000A4FF013
:1037E00002094FF00808AFE7174A4FF400774FF08F
:1037F000000A4FF003094FF00908A5E7134A4FF4F8
:1038000080674FF0000A4FF004094FF00A089BE769
:103810000F4A4FF480774FF0010A4FF006094FF03E
:10382000280891E70846C1E7F136000800E100E00A
:1038300034650008A0070020B4090020C93600083C
:10384000D1360008D9360008E1360008E93600080C
:10385000F9360008F8B50546007B6B680D490E4E39
:1038600000F00F044C2202FB03F251F82430B1584F
:10387000B41801279F4004EB830321EA07070024C3
:10388000B75040B221465C60DC615C6300F0B2FA84
:10389000AC60F8BD34650008A007002072B10129B2
:1038A00020D0022919D1836823F00203012B2BD0E9
:1038B0008160072190F90C0000F09CBA01291BD00F
:1038C00002290AD1836823F00203012B23D08260EE
:1038D0000C2190F90C0000F08DBA0C2190F90C002D
:1038E00000F088BA8368023B012B0DD98160062164
:1038F00090F90C0000F07EBA8368023B012BE6D8F9
:10390000022383600721E9E703238360082190F9FC
:103910000C0000F06FBA83600621DFE7F8B5174BA3
:103920004A1E9A420F46064621D8154D34682C602F
:1039300048F2010301E0013B02D0A2699207FAD4E8
:103940000F4C6F6000234FF4804220466B61AB60E8
:10395000EB612B62EB60AB612A61FDF78DF9736857
:1039600023B123681A6842F480621A60F8BD0548E2
:1039700005496722FFF7BAFCD7E700BF7F1A0600A8
:10398000E80A0020746500089065000830B40468F7
:103990002B4804606FF480606061206820F4407000
:1039A00040F48070206082B041F2010001E00138F3
:1039B00002D06569ED07FAD54FF4805001E0013877
:1039C00034D06569ED07FAD501F0FE0121614FF4AD
:1039D000805101E0013929D060698507FAD5616914
:1039E0000191A1690191002B01994FF000050FDDB4
:1039F000515D216141F2010104E06069400704D496
:103A000001390FD060690006F7D501359D42EFD12D
:103A1000049B83B12368284643F40073236002B0FB
:103A200030BC7047236843F4007323604FF0FF30CD
:103A300002B030BC7047284602B030BC704700BFAF
:103A4000E80A00200068036871B123F48063036012
:103A5000094A41F20103116801E0013B08D04A69BB
:103A60005206FAD50069704743F480630360EFE7BC
:103A70004FF0FF30704700BFE80A00202DE9F04307
:103A800007466FF480603C68294D606120682C60B7
:103A900020F4407040F4807083B0904699462060D6
:103AA00041F2010501E0013D02D06369D807FAD572
:103AB0004FF4805501E0013D34D06669F207FAD534
:103AC00041F00101C9B221614FF4805101E0013997
:103AD00028D063699B07FAD563690193A3690193B1
:103AE00009F1FF35002D019B4FF0000408DD384639
:103AF0000021FFF7A7FF08F804000134AC42F6D11B
:103B00000A9B4BB938460121FFF79CFF08F80400D7
:103B1000484603B0BDE8F0833B681A6842F400727F
:103B20001A60EFE74FF0FF3003B0BDE8F08300BF4D
:103B3000E80A0020184B196848F2010301E0013B34
:103B400002D08A699207FAD40368144A934219D0C2
:103B5000134A93420CD0134A934208D1124B1A6A6B
:103B600042F400021A621A6A22F400021A627047D2
:103B70000D4B1A6A42F480021A621A6A22F4800219
:103B80001A627047084B1A6A42F400121A621A6AE3
:103B900022F400121A627047E80A00200054004024
:103BA00000580040005C004000380240F0B5044678
:103BB00085B008460E4648491546FFF71FFC4749A1
:103BC00007462846FFF71AFC01463846FFF704FC73
:103BD000431C206079D00346414A934236D0414A83
:103BE000934211D0404A934203D1404B1A68002AB5
:103BF0004ED02046FFF79EFF20463D49FFF78EFE40
:103C00000023636005B0F0BD3A4B1A68002AF0D17A
:103C1000394A01211960136C2F4943F4800313645E
:103C2000136C03F4800302933046029BFFF7B2FB50
:103C300028462A49FFF7AEFB3046032100F00AF977
:103C40002846032100F006F92368CBE72B4B1A68BE
:103C5000002ACED1284A01211960136C1E4943F471
:103C600000131364136C03F4001301933046019B9B
:103C7000FFF790FB28461949FFF78CFB30460321DC
:103C800000F0E8F82846032100F0E4F82368A6E7EE
:103C9000194A01211960136C0F4943F4000313649E
:103CA000136C03F4000303933046039BFFF772FB8E
:103CB00028460A49FFF76EFB3046032100F0CAF898
:103CC0002846032100F0C6F893E70D480D493A2233
:103CD000FFF70CFB23687FE770610008686300084A
:103CE0000054004000580040005C0040BC09002027
:103CF000A0860100C009002000380240B809002059
:103D0000F86500089065000800B587B0072859D805
:103D1000DFE800F012202E3C4A5858042D4B2E4864
:103D20001A6B42F080021A631B6B03F08003059349
:103D3000059B07B05DF804FB264B28481A6B42F040
:103D400001021A631B6B03F001030093009B07B091
:103D50005DF804FB1F4B22481A6B42F002021A6303
:103D60001B6B03F002030193019B07B05DF804FB9A
:103D7000184B1C481A6B42F004021A631B6B03F0C9
:103D800004030293029B07B05DF804FB114B164835
:103D90001A6B42F008021A631B6B03F008030393CB
:103DA000039B07B05DF804FB0A4B10481A6B42F006
:103DB00010021A631B6B03F010030493049B07B0FB
:103DC0005DF804FB0A48FFF79DFA002007B05DF894
:103DD00004FB00BF00380240001C0240000002400B
:103DE0000004024000080240000C024000100240A3
:103DF0004466000830B5431C87B005460C461CD00D
:103E0000C5F30310FFF780FF05F00F0504F00F0264
:103E100001210D4B01FA05F553F8223001950322DB
:103E2000C4F3021501A9C4F3C314029303950594C6
:103E30000492FCF715FE07B030BD04480449812206
:103E4000FFF754FADCE700BF10660008B86400080A
:103E50006866000838B5431C04460D4618D0C4F304
:103E60000310FFF751FF04F00F04C268022D4FEA60
:103E700044044FF0030198BFA54001FA04F422EA7C
:103E80000404C460C26888BF00251543C56038BDFE
:103E900002480349A622FFF729FAE0E7B8640008C0
:103EA00068660008054B186800B17047044A054968
:103EB000116001221A60FCF74FBA00BF000A00200F
:103EC000C4090020000C004008B5044B1B680BB966
:103ED000FFF7E8FF024B586A08BD00BF000A002048
:103EE000000C0040034B1B685863DA6842F0020282
:103EF000DA607047C4090020034B1B68DA6822F0BF
:103F00000202DA60704700BFC4090020024B1B6840
:103F10006FF002021A617047C40900200346084688
:103F2000194600F04FBF01F023B9000000F000B8BF
:103F30002DE9F84F1F465342134327F0004ADFF89C
:103F4000F0C14AEAD37363451646BE4604460D46A1
:103F50004AD8C0F1000848EA000821F0004343EACB
:103F6000D878E0458B463FD807F1404C0CF5801CD3
:103F70005CEA020C54D04FEAA77808F0020848EA3D
:103F8000D17853EA000137D05AEA020240D0684A99
:103F9000924555D0664A93423AD0CAEB03031B15AB
:103FA0003C2B49DCBEF1000F7ADB32463B46204613
:103FB000294600F047FD00F05FFA00F0BDF8B8F1C7
:103FC000010F69D0B8F1020F58D0B8F1000F6CD0D2
:103FD00045A3D3E9002300F057FA45A3D3E9002312
:103FE00000F052FABDE8F88F3046394622462B469B
:103FF00000F04CFABDE8F88FB8F1030FC4D8DFE841
:1040000008F0181802133AA1D1E90001BDE8F88FB1
:10401000BBF1000F2DDB38A1D1E90001BDE8F88F1D
:10402000BDE8F84F00F088B835A1D1E90001BDE83E
:10403000F88F2946BDE8F88F2FA1D1E90001BEE72E
:10404000534534D0B8F1030FA4D801A252F828F098
:104050006140000869400008074000082940000846
:1040600000200021BDE8F88F00204FF00041BDE89E
:10407000F88F25A1D1E90001BDE8F88F1AA3D3E993
:10408000002300F001FA02460B4619A1D1E9000114
:1040900000F0FAF9BDE8F88F01F10041BDE8F88FB2
:1040A0003C3382DA0020002189E7BDE8F88FB8F1BF
:1040B000030FADD8DFE808F002110C0714A1D1E915
:1040C0000001BDE8F88F14A1D1E90001BDE8F88F27
:1040D00013A1D1E90001BDE8F88F13A1D1E90001D6
:1040E000BDE8F88FAFF30080075C143326A6A13C2F
:1040F000182D4454FB210940182D4454FB21F93F4D
:10410000182D4454FB2109C0182D4454FB21F9BF3C
:10411000182D4454FB21E93FD221337F7CD902C0C2
:10412000D221337F7CD90240182D4454FB21E9BFB2
:104130000000F07F000000002DE9F84FC44B21F093
:1041400000469E4204460D468B460EDDC14B9E4204
:1041500000F3AC8000F0A780BBF1000F40F3E580D6
:104160009FA1D1E90001BDE8F88FBB4B9E4200F34F
:10417000B580A3F1DE739E4240F3A0804FF0FF3A7A
:1041800022462B462046294600F032FB02460B46CB
:104190008046894600F02CFB93A3D3E90023064612
:1041A0000F4600F025FB92A3D3E9002300F06EF93F
:1041B00032463B4600F01CFB8FA3D3E9002300F0FE
:1041C00065F932463B4600F013FB8DA3D3E900238B
:1041D00000F05CF932463B4600F00AFB8AA3D3E9C3
:1041E000002300F053F932463B4600F001FB88A360
:1041F000D3E9002300F04AF942464B4600F0F8FAB2
:1042000085A3D3E90023804689463046394600F02D
:10421000EFFA83A3D3E9002300F036F932463B4698
:1042200000F0E6FA80A3D3E9002300F02DF932462E
:104230003B4600F0DDFA7EA3D3E9002300F024F929
:1042400032463B4600F0D4FA7BA3D3E9002300F0CA
:104250001BF932463B4600F0CBFABAF1FF3F02466B
:104260000B466BD04046494600F010F922462B46DB
:1042700000F0BEFA794E7A4B4FEACA0A56449A4485
:10428000DAE9002300F000F922462B4600F0FCF8A2
:1042900002460B46D6E9000100F0F6F8BBF1000F2C
:1042A00048DBBDE8F88F00283FF456AF204629468A
:1042B00022462B4600F0EAF8BDE8F88F60A3D3E968
:1042C000002300F0E3F80022664B00F021FD0028F7
:1042D0003FF454AF20462946BDE8F88F00F0CCF8F3
:1042E000614B9E4204460D4638DCA3F550239E42A6
:1042F0005DDC02460B4600F0C9F80022594B00F085
:10430000C3F8002206460F46204629464FF0804358
:1043100000F0BCF802460B463046394600F092FBEE
:104320004FF0000A04460D462AE747A1D1E90001F3
:10433000BDE8F88F01F10041BDE8F88F40464946DD
:1043400000F0A4F822462B4600F052FA02460B4633
:104350002046294600F098F8BDE8F88F434B9E426E
:104360001ADC0022424B00F08FF8002206460F466E
:10437000204629463E4B00F03BFA0022394B00F024
:1043800085F802460B463046394600F05BFB4FF09D
:10439000020A04460D46F3E602460B460020354964
:1043A00000F050FB4FF0030A04460D46E8E60022F9
:1043B0002C4B00F069F8002206460F46204629469D
:1043C000284B00F063F802460B463046394600F0B1
:1043D00039FB4FF0010A04460D46D1E6AFF30080E9
:1043E000182D4454FB21F93F11DA22E33AAD903FF6
:1043F000EB0D76244B7BA93F513DD0A0660DB13F1C
:104400006E204CC5CD45B73FFF8300922449C23F83
:104410000D5555555555D53F2F6C6A2C44B4A2BF48
:104420009AFDDE522DDEAD3F6D9A74AFF2B0B33F10
:10443000711623FEC671BC3FC4EB98999999C93F88
:104440009C7500883CE4377E182D4454FB21F9BF4D
:10445000FFFF0F440000F07FFFFFDB3FF066000826
:10446000D06600080000F03FFFFFF23FFF7F0340EF
:104470000000F83F0000F0BF21F00041704700BF8E
:1044800081F0004102E000BF83F0004330B54FEA05
:1044900041044FEA430594EA050F08BF90EA020F72
:1044A0001FBF54EA000C55EA020C7FEA645C7FEA05
:1044B000655C00F0E2804FEA5454D4EB5555B8BF28
:1044C0006D420CDD2C4480EA020281EA030382EA99
:1044D000000083EA010180EA020281EA0303362D2B
:1044E00088BF30BD11F0004F4FEA01314FF4801CFE
:1044F0004CEA113102D0404261EB410113F0004F10
:104500004FEA03334CEA133302D0524263EB4303C6
:1045100094EA050F00F0A780A4F10104D5F1200E64
:104520000DDB02FA0EFC22FA05F2801841F10001BF
:1045300003FA0EF2801843FA05F359410EE0A5F193
:1045400020050EF1200E012A03FA0EFC28BF4CF0C4
:10455000020C43FA05F3C01851EBE37101F000457A
:1045600007D54FF0000EDCF1000C7EEB00006EEB87
:104570000101B1F5801F1BD3B1F5001F0CD3490811
:104580005FEA30004FEA3C0C04F101044FEA445268
:1045900012F5800F80F09A80BCF1004F08BF5FEAEF
:1045A000500C50F1000041EB045141EA050130BDCF
:1045B0005FEA4C0C404141EB010111F4801FA4F172
:1045C0000104E9D191F0000F04BF01460020B1FAC7
:1045D00081F308BF2033A3F10B03B3F120020CDAFF
:1045E0000C3208DD02F1140CC2F10C0201FA0CF0DD
:1045F00021FA02F10CE002F11402D8BFC2F1200C42
:1046000001FA02F120FA0CFCDCBF41EA0C019040F7
:10461000E41AA2BF01EB0451294330BD6FEA040440
:104620001F3C1CDA0C340EDC04F11404C4F120022B
:1046300020FA04F001FA02F340EA030021FA04F33D
:1046400045EA030130BDC4F10C04C4F1200220FA94
:1046500002F001FA04F340EA0300294630BD21FAD2
:1046600004F0294630BD94F0000F83F4801306BF98
:1046700081F480110134013D4EE77FEA645C18BF8C
:104680007FEA655C29D094EA050F08BF90EA020F23
:1046900005D054EA000C04BF1946104630BD91EA1B
:1046A000030F1EBF0021002030BD5FEA545C05D11E
:1046B0004000494128BF41F0004130BD14F580045D
:1046C0003CBF01F5801130BD01F0004545F0FE41D1
:1046D00041F470014FF0000030BD7FEA645C1ABF06
:1046E000194610467FEA655C1CBF0B46024650EA3D
:1046F000013406BF52EA033591EA030F41F4002169
:1047000030BD00BF90F0000F04BF0021704730B5EE
:104710004FF4806404F132044FF000054FF00001C3
:1047200050E700BF90F0000F04BF0021704730B584
:104730004FF4806404F1320410F0004548BF404259
:104740004FF000013EE700BF42004FEAE2014FEAAE
:1047500031014FEA02701FBF12F07F4393F07F4F89
:1047600081F06051704792F0000F14BF93F07F4FBB
:10477000704730B54FF4607401F0004521F00041FE
:1047800020E700BF50EA010208BF704730B54FF084
:1047900000050AE050EA010208BF704730B511F089
:1047A000004502D5404261EB41014FF4806404F1C1
:1047B00032045FEA915C3FF4DCAE4FF003025FEA43
:1047C000DC0C18BF03325FEADC0C18BF033202EBCB
:1047D000DC02C2F1200300FA03FC20FA02F001FA25
:1047E00003FE40EA0E0021FA02F11444C1E600BFC4
:1047F00070B54FF0FF0C4CF4E06C1CEA11541DBF77
:104800001CEA135594EA0C0F95EA0C0F00F0DEF841
:104810002C4481EA030621EA4C5123EA4C5350EA26
:10482000013518BF52EA033541F4801143F4801377
:1048300038D0A0FB02CE4FF00005E1FB02E506F008
:104840000042E0FB03E54FF00006E1FB03569CF05D
:10485000000F18BF4EF0010EA4F1FF04B6F5007F63
:1048600064F5407404D25FEA4E0E6D4146EB0606D5
:1048700042EAC62141EA55514FEAC52040EA5E505E
:104880004FEACE2EB4F1FD0C88BFBCF5E06F1ED808
:10489000BEF1004F08BF5FEA500E50F1000041EB3F
:1048A000045170BD06F0004646EA010140EA0200EC
:1048B00081EA0301B4EB5C04C2BFD4EB0C0541EA0E
:1048C000045170BD41F480114FF0000E013C00F323
:1048D000AB8014F1360FDEBF002001F0004170BD47
:1048E000C4F10004203C35DA0C341BDC04F1140460
:1048F000C4F1200500FA05F320FA04F001FA05F2EC
:1049000040EA020001F0004221F0004110EBD370B8
:1049100021FA04F642EB06015EEA430E08BF20EAE4
:10492000D37070BDC4F10C04C4F1200500FA04F387
:1049300020FA05F001FA04F240EA020001F0004119
:1049400010EBD37041F100015EEA430E08BF20EA8C
:10495000D37070BDC4F1200500FA05F24EEA020ED4
:1049600020FA04F301FA05F243EA020321FA04F003
:1049700001F0004121FA04F220EA020000EBD370BA
:104980005EEA430E08BF20EAD37070BD94F0000FBA
:104990000FD101F00046400041EB010111F4801FEE
:1049A00008BF013CF7D041EA060195F0000F18BF9F
:1049B000704703F00046520043EB030313F4801FDB
:1049C00008BF013DF7D043EA0603704794EA0C0F95
:1049D0000CEA135518BF95EA0C0F0CD050EA4106AB
:1049E00018BF52EA4306D1D181EA030101F0004128
:1049F0004FF0000070BD50EA410606BF1046194650
:104A000052EA430619D094EA0C0F02D150EA01365B
:104A100013D195EA0C0F05D152EA03361CBF10469C
:104A200019460AD181EA030101F0004141F0FE413B
:104A300041F470014FF0000070BD41F0FE4141F4BF
:104A4000780170BD70B54FF0FF0C4CF4E06C1CEABF
:104A500011541DBF1CEA135594EA0C0F95EA0C0F74
:104A600000F0A7F8A4EB050481EA030E52EA03352F
:104A70004FEA013100F088804FEA03334FF0805550
:104A800045EA131343EA12634FEA022245EA11157D
:104A900045EA10654FEA00260EF000419D4208BF2E
:104AA000964244F1FD0404F5407402D25B084FEADB
:104AB0003202B61A65EB03055B084FEA32024FF487
:104AC00080104FF4002CB6EB020E75EB030E22BFE4
:104AD000B61A754640EA0C005B084FEA3202B6EBA4
:104AE000020E75EB030E22BFB61A754640EA5C0053
:104AF0005B084FEA3202B6EB020E75EB030E22BFE3
:104B0000B61A754640EA9C005B084FEA3202B6EBE3
:104B1000020E75EB030E22BFB61A754640EADC00A2
:104B200055EA060E18D04FEA051545EA16754FEA04
:104B300006164FEAC30343EA52734FEAC2025FEA22
:104B40001C1CC0D111F4801F0BD141EA00014FF0B1
:104B500000004FF0004CB6E711F4801F04BF014382
:104B60000020B4F1FD0C88BFBCF5E06F3FF6AFAE9E
:104B7000B5EB030C04BFB6EB020C5FEA500C50F12E
:104B8000000041EB045170BD0EF0004E4EEA1131B1
:104B900014EB5C04C2BFD4EB0C0541EA045170BDB8
:104BA00041F480114FF0000E013C90E645EA060EFC
:104BB0008DE60CEA135594EA0C0F08BF95EA0C0F2A
:104BC0003FF43BAF94EA0C0F0AD150EA01347FF472
:104BD00034AF95EA0C0F7FF425AF104619462CE749
:104BE00095EA0C0F06D152EA03353FF4FDAE1046AC
:104BF000194622E750EA410618BF52EA43067FF4FD
:104C0000C5AE50EA41047FF40DAF52EA43057FF48C
:104C1000EBAE12E74FF0FF3C06E000BF4FF0010C97
:104C200002E000BF4FF0010C4DF804CD4FEA410CFB
:104C30007FEA6C5C4FEA430C18BF7FEA6C5C1BD0C8
:104C400001B050EA410C0CBF52EA430C91EA030F49
:104C500002BF90EA020F0020704710F1000F91EAA6
:104C6000030F58BF994208BF90422CBFD8176FEA74
:104C7000E37040F0010070474FEA410C7FEA6C5C42
:104C800002D150EA013C07D14FEA430C7FEA6C5C49
:104C9000D6D152EA033CD3D05DF8040B704700BF75
:104CA0008446104662468C461946634600E000BFC3
:104CB00001B5FFF7B7FF002848BF10F1000F01BD95
:104CC0004DF808EDFFF7F4FF0CBF012000205DF860
:104CD00008FB00BF4DF808EDFFF7EAFF34BF0120E5
:104CE00000205DF808FB00BF4DF808EDFFF7E0FF7E
:104CF00094BF012000205DF808FB00BF4DF808EDCF
:104D0000FFF7CEFF94BF012000205DF808FB00BF35
:104D10004DF808EDFFF7C4FF34BF012000205DF817
:104D200008FB00BF4FEA4102B2F1E04324BFB3F5F4
:104D3000001CDCF1FE5C0DD901F0004C4FEAC00212
:104D40004CEA5070B2F1004F40EB830008BF20F0F6
:104D50000100704711F0804F21D113F13872BCBFB0
:104D600001F00040704741F480114FEA5252C2F105
:104D70001802C2F1200C10FA0CF320FA02F018BF4E
:104D800040F001004FEAC1234FEAD32303FA0CFCA1
:104D900040EA0C0023FA02F34FEA4303CCE77FEA30
:104DA000625307D150EA01331EBF4FF0FE4040F47A
:104DB0004000704701F0004040F0FE4040F4000029
:104DC000704700BF38B5054604480C46134620B16D
:104DD000022029462246AFF3008038BD00000000C3
:104DE000014B1868704700BF0002002008B5074B50
:104DF000044613B10021AFF30080054B1868836AA5
:104E000003B198472046FBF7D1FB00BF000000002C
:104E1000706700088A892DE9F041054610070C46A5
:104E200057D44B68002B02DC0B6C002B18DDE66AB4
:104E3000B6B102F48052002392B22F682B600AB1FF
:104E4000626D10E0216A28460123B047411C0246EA
:104E500009D12B683BB11D2B01D0162B47D12F60F8
:104E60000020BDE8F081A3895B0705D56368D21AED
:104E7000636B0BB1236CD21AE66A216A00232846C1
:104E8000B047461CA38905D12A681AB11D2A01D052
:104E9000162A19D100226260D9042269226004D541
:104EA000421C01D12B6803B96065616B2F6000293A
:104EB000D6D004F14403994202D0284600F082F98A
:104EC00000206063BDE8F08143F04003A381BDE8AA
:104ED000F0810F69002FC3D093070E6808BF4B699C
:104EE0000F6018BF0023C7EB06088B6012E0A38990
:104EF00043F04003A3814FF0FF30BDE8F081284626
:104F0000216AA66A3A464346B0470028EFDD0744C7
:104F1000C0EB0808B8F1000FF1DCA1E738B50B6968
:104F200005460C46DBB118B183690BB900F072F885
:104F30000C4B9C4201D16C6808E00B4B9C4201D1A8
:104F4000AC6803E0094B9C4208BFEC68B4F90C3034
:104F50002BB128462146BDE83840FFF75BBF002053
:104F600038BD00BF106700083067000850670008B0
:104F7000014620B9044B0549186800F0B5B8044B48
:104F80001868FFF7CBBF00BF706700081D4F00080F
:104F900000020020014900F0A7B800BF1D4F000823
:104FA000002310B50446036043608360818143663B
:104FB000C28103614361836119465C30082200F0BD
:104FC000F9F8054B6362054BA362054BE362054BA1
:104FD0002462236310BD00BFC1590008E3590008D3
:104FE0001B5A00083F5A000870B568234D1E5D43E8
:104FF0000E4605F1740100F029F9044640B1002184
:1050000080E842000C30A06005F1680200F0D2F8A0
:10501000204670BD836910B5044633BB8364C36406
:105020000365124B124A1B688262984204BF012337
:10503000836100F01FF86060204600F01BF8A0605C
:10504000204600F017F80421E06000226068FFF7B6
:10505000A7FFA06809210122FFF7A2FFE068122143
:105060000222FFF79DFF0123A36110BD70670008B6
:10507000954F0008F8B51B4B1E68B369074613B976
:105080003046FFF7C7FF4836B4687368013B04D465
:10509000B4F90C5075B16834F8E733682BB9384669
:1050A0000421FFF7A1FF306008B13668ECE70C235C
:1050B0003B60F8BD4FF6FF73E3810123A381656672
:1050C0002560A560656025616561A56104F15C00EE
:1050D0002946082200F06EF86563A563A564E564BF
:1050E0002046F8BD706700082DE9F84380468946E0
:1050F00000F14804002694B1A5686768013F0CD40C
:10510000AB89012B07D9B5F90E30013303D04046E6
:105110002946C84706436835F0E72468EBE7304680
:10512000BDE8F88370B50E4B0E4CE41AA4100025B0
:105130001E46A54204D056F8253098470135F8E7B9
:1051400000F0F8FD084C094BE41AA41000251E4697
:10515000A54204D056F8253098470135F8E770BDD0
:10516000040200200402002010020020040200209B
:10517000024B0146186800F025B800BF000200206D
:1051800010B5C9B202449042034606D01C788C4246
:1051900000F10100F7D1184610BD002010BD10B578
:1051A000431E0A44914204D011F8014B03F8014F09
:1051B000F8E710BD02440346934202D003F8011BF6
:1051C000FAE7704730B500293DD051F8042C0B1F89
:1051D0001D49002AB8BF9B180A680C4612B95A60CC
:1051E0000B6030BD93420DD219685818904201BF30
:1051F0005A5852181A6042685A60236030BD99426A
:1052000003D80A4651680029F9D1146815199D423E
:105210000AD11B682344D0188842136013D1086850
:10522000034413604B680DE002D90C23036030BDCA
:105230001C681819884204BF08684968596004BF8F
:1052400000191860536030BD080A002070B5CC1CEE
:1052500024F0030408340C2C38BF0C24002C064620
:1052600003DA0C233360002070BD8C42F9D3204A4E
:10527000136810461946A1B10A68121B0ED40B2AF6
:1052800003D90A608B188C501FE08B420DBF5A68FF
:105290004A685A60026018BF0B4616E00B46496820
:1052A000E9E7144D2B681BB9304600F079FB286004
:1052B0003046214600F074FB421C0346D1D0C51C89
:1052C00025F0030585420AD11C6003F10B001A1D6D
:1052D00020F00700821A0AD05142995070BD304622
:1052E000E91A00F05DFB0130BBD02B46ECE770BD46
:1052F000080A0020040A00209368013B002B10B527
:10530000936009DA9469A34202DBCBB20A2B03D182
:10531000BDE8104000F098BB1368581C106019706D
:10532000C8B210BDF8B506460F461446D518AC42B3
:1053300008D0304614F8011B3A46FFF7DDFF431C46
:10534000F5D100E00020F8BD2DE9F0439DB00D46F9
:1053500090460393064618B183690BB9FFF75AFECE
:10536000754B9D4201D1756808E0744B9D4201D197
:10537000B56803E0724B9D4208BFF568AB891C0716
:105380000AD52B6943B10023099320238DF82930D6
:1053900030238DF82A3041E03046294600F0BAFB30
:1053A0000028F0D04FF0FF30C2E0039A111D1268C0
:1053B0000391002ABBBF524243F0020307920792B7
:1053C000B8BF0493013423782E2B7BD0DFF8808183
:1053D000217840460322FFF7D3FE38B1049AC8EB88
:1053E000000040238340134304930134217855483F
:1053F0008DF82810062204F10108FFF7C1FE0028ED
:1054000000F08580504B002B78D1039B073323F0AD
:10541000070308330393099B3B44099343461C4607
:1054200013F8012B1AB9B4EB08090ED002E0252AB3
:10543000F5D1F8E73046294642464B46FFF772FF62
:10544000013070D0099B4B4409932378002B6AD01C
:1054500000234FF0FF3204930793059206938DF8D3
:1054600053301A9304F101084446DFF8E89021789C
:1054700048460522FFF784FE08F10108049B30B17D
:10548000C9EB00000122824013430493ECE7D806E5
:1054900044BF20228DF85320190744BF2B228DF8DA
:1054A000532022782A2A80D0079923461C460133AC
:1054B0002278303A092A03D80A2000FB0121F5E7B7
:1054C000079180E763782A2B0AD1039B1A1D1B687A
:1054D0000392002BB8BF4FF0FF330234059375E7FA
:1054E000611C00220C4601312378303B092B03D884
:1054F0000A2000FB0232F5E7059267E703AB009351
:10550000304604A92A46114BAFF3008007E003ABF5
:105510000093304604A92A460C4B00F0A1F8421C27
:1055200007467FF478AFAB895B063FF53BAF099840
:105530001DB0BDE8F08300BF1067000830670008A9
:10554000506700087E67000800000000255300082F
:105550007A6700087467000830B51346044A0546A8
:105560000C46106829462246BDE83040FFF7ECBEE5
:10557000000200202DE9F84391461F468A680B6916
:10558000DDF820809342B8BF1346C9F8003091F887
:10559000432006460C4612B10133C9F80030236897
:1055A000990642BFD9F800300233C9F800302568A7
:1055B00015F006051CD094F843302268003318BF5C
:1055C000012392061FD5E1185A1C302081F84300B0
:1055D000224494F8451082F84310023313E0304619
:1055E000394604F119020123C047013007D00135C3
:1055F000E368D9F800209B1A9D42F0DBDBE74FF00F
:10560000FF30BDE8F8833046394604F14302C04715
:105610000130F4D02268D9F80050E36802F00602A5
:10562000042A08BF5D1B2269A3680CBF25EAE57543
:1056300000259342C4BF9B1AED184FF00009A945FD
:105640000ADA3046394604F11A020123C047013014
:10565000D5D009F10109F2E70020BDE8F883000088
:105660002DE9FF410C461746227E6E2A98460646D3
:105670000A9B01F1430100F0AF8012D8632A23D0C6
:105680000AD8002A00F0BC80582A40F0CB8084F869
:105690004520DFF804E257E0642A1ED0692A1CD0B6
:1056A000C0E0732A00F0B08009D86F2A2ED0702A8B
:1056B00040F0B880226842F0200222603FE0752A64
:1056C00024D0782A3BD0ADE01A68111D1960136808
:1056D00084F8423004F14205A8E020681A6810F00E
:1056E000800F02D0101D186008E010F0400F02F18A
:1056F0000400186002D0B2F9003000E01368002BFB
:105700003EDA2D225B4284F8432039E020681A6893
:1057100010F0800F02D0101D186007E010F0400F4D
:1057200002F10400186001D0138800E01368227EA3
:10573000DFF864E16F2A0CBF08220A221CE07822FD
:10574000DFF858E184F845202268186812F0800FCD
:1057500000F104051D6003D1550601D5038800E062
:105760000368D00744BF42F0200222601BB92268C0
:1057700022F0200222601022002084F8430002E080
:10578000DFF814E10A226568A560002DA2BF206839
:1057900020F00400206003B965B10D46B3FBF2F0C0
:1057A00002FB10331EF8033005F8013D03460028C4
:1057B000F4D100E00D46082A0BD12368DA0708D59A
:1057C000236962689A42DEBF302305F8013C05F187
:1057D000FF35491B21612EE025681A68606915F0C4
:1057E000800F03D0151D1D60136808E015F0400FF1
:1057F00002F104051D60136801D0188000E01860F4
:10580000002323610D4616E01A68111D1960156802
:10581000626828460021FFF7B3FC08B1401B6060B6
:10582000636804E004F1420584F842200123236107
:10583000002384F84330CDF800803046214603AA87
:105840003B46FFF797FE013002D14FF0FF301FE0DB
:10585000304639462A462369C0470130F5D02368CF
:105860009B0705D4E068039B9842B8BF18460FE039
:105870000025E368039A9B1A9D42F3DA30463946C5
:1058800004F119020123C0470130DED00135F0E7F1
:1058900004B0BDE8F08100BF856700089667000886
:1058A00070B50E46054618B183690BB9FFF7B2FB18
:1058B000AB69AC6813B92846FFF7ACFB314B9C428F
:1058C00001D16C6808E0304B9C4201D1AC6803E028
:1058D0002E4B9C4208BFEC68A389190701D52369A8
:1058E00083B92846214600F015F958B14FF0FF3032
:1058F00070BD002B0EDB236816F8012C1A7023688C
:1059000001332360A36816F8012B013BA360002A32
:10591000EFD116E0A269934209DB236816F8012C47
:105920001A70236819780A29EAD1284602E016F885
:10593000011C2846224600F087F8421C5042504184
:10594000D3E7002B15DAA269934208DB23680A2209
:105950001A702368197891420FD1284601E0284631
:105960000A21224600F070F8431C5842584130B1D9
:10597000BCE723680A221A702368013323600A20D7
:1059800070BD00BF1067000830670008506700084E
:10599000024B01461868FFF783BF00BF00020020DA
:1059A00038B5064C0023054608462360FAF7EAFDA1
:1059B000431C02D1236803B12B6038BD240B0020A7
:1059C00010B50C46B1F90E1000F080F90028ABBFFD
:1059D000636DA3891B1823F48053ACBF6365A38157
:1059E00010BD2DE9F0411D468B89DB0507460C46AD
:1059F000164605D5B1F90E100022022300F006F973
:105A0000A389B4F90E1023F48053A381384632469B
:105A10002B46BDE8F04100F06BB810B50C46B1F96B
:105A20000E1000F0F3F8431CA38915BF606523F442
:105A3000805343F48053A38118BFA38110BDB1F9F3
:105A40000E1000F0D3B8000070B50D46144606469F
:105A500018B183690BB9FFF7DDFA224B9C4201D1E3
:105A6000746808E0204B9C4201D1B46803E01F4BEE
:105A70009C4208BFF468A369A360A3891A0709D5EB
:105A800023693BB123682069181A63699842EDB213
:105A90000FDB08E03046214600F03CF80028F1D04A
:105AA0004FF0FF3070BD30462146FFF737FA00282F
:105AB000F6D1A368013BA36023685A1C22601D70C5
:105AC00063690130984204D0A389DB0707D50A2D0A
:105AD00005D130462146FFF721FA0028E0D12846BB
