:020000040800F2
:100000000080012065070008B9070008B90700084B
:10001000B9070008B9070008B90700080000000088
:10002000000000000000000000000000B907000808
:10003000B907000800000000B9070008B907000868
:10004000B9070008B9070008B9070008B907000890
:10005000B9070008B9070008B9070008B907000880
:10006000B9070008B9070008B9070008B907000870
:10007000B9070008B9070008B9070008B907000860
:10008000B9070008B9070008B90700080000000018
:10009000000000000000000000000000B907000898
:1000A000B9070008B9070008B9070008B907000830
:1000B000B9070008B9070008B9070008B907000820
:1000C000B9070008B9070008B9070008B907000810
:1000D000B9070008B9070008B907000800000000C8
:1000E000B9070008B9070008B907000800000000B8
:1000F000000000000000000000000000B907000838
:1001000000000000B9070008B9070008B907000897
:1001100000000000000000000000000000000000DF
:10012000B9070008B9070008B9070008B9070008AF
:10013000B9070008000000000000000000000000F7
:10014000000000000000000000000000B9070008E7
:10015000B9070008B9070008B9070008B90700087F
:10016000B9070008B90700080000000000000000FF
:10017000000000000000000000000000000000007F
:1001800000000000B90700080000000000000000A7
:10019000B907000810B5054C237833B9044B13B1E7
:1001A0000448AFF300800123237010BD200200201B
:1001B0000000000010880008084B10B51BB108486B
:1001C0000849AFF300800848036803B910BD074B26
:1001D000002BFBD0BDE81040184700BF0000000016
:1001E00010880008240200201C02002000000000EB
:1001F000154B002B08BF134B9D46A3F5803A0021F9
:100200008B460F461348144A121A05F073FF0F4B22
:10021000002B00D098470E4B002B00D098470020B1
:10022000002104000D000D48002802D00C48AFF357
:10023000008005F0C1FE2000290000F05FFA05F003
:10024000EBFB00BF00000800008001200000000060
:100250000000000020020020240E0020000000000A
:100260000000000000B585B072B60521684603F0B5
:10027000FDFB10E0039B019A1A60962003F022FD1B
:100280009DF90030013310D0019A039B12041A60CB
:10029000962003F017FD9DF900300133EAD106489E
:1002A0000649342203F0B2FBE4E703480349342251
:1002B00003F0ACFBE8E700BFCC7A0008E47A000862
:1002C0000F4A30B493689468B4F1006F1A4604D0B2
:1002D000103030BC42F8201070470A4A03F5CA7546
:1002E00053F8044B42F8044FAB42F9D14FF000529F
:1002F000034B10309A6030BC42F82010704700BFAA
:1003000000ED00E0FCFFFF1F70B5114C2368DA68B8
:10031000910715D4DA68520709D56FF004020D4E23
:100320001A615D6A3368EB1AB3F57A7F00D270BD4B
:1003300000F060FA2368356005F57A759D6370BD3D
:100340006FF002021A6103F09DFC2368E2E700BF30
:10035000080D00203C020020244B30B51A6C244CC0
:1003600042F008021A641A6C83B002F0080201928B
:10037000019A1A6A42F008021A621A6A22F0080206
:100380001A6201F033FC1B4A1B4B12681B492160A7
:10039000A3FB0212920C0025013A4FF0FF332046D6
:1003A0006260E3602561A560656101F02FFA32208B
:1003B0001349FFF785FF134B4FF480225A602946FB
:1003C000204601F091F92046042101F08DF92368BF
:1003D0000D495A6A0A6002F57A729A63DA68284609
:1003E00042F00402DA6003B030BD00BF00380240C2
:1003F000080D00209C01002083DE1B43000C004000
:100400000903000800E100E03C02002008B501F00B
:10041000EDFBBDE8084000F0D3B900BF036870B53C
:100420001B690021012204469847431C05460ED053
:10043000236820461B69002102229847236806464C
:1004400029461B69204600229847304670BD70BD82
:10045000084B094A026010B403F58071002453F878
:10046000042B824208BF43F8044C8B42F7D15DF85D
:10047000044B704740020020787B00080A4B0B4A6F
:1004800010B503F5807104460260002053F8042B78
:10049000944208BF43F8040C8B42F7D1204604F085
:1004A0007CF9204610BD00BF40020020787B000888
:1004B00002480221032202F043BF00BFC80D002002
:1004C000F0B50E4685B03549054606F0EAFC20B980
:1004D000334B1B6863B105B0F0BD2846314906F0C7
:1004E000E0FC78B92E4B1B6843B1012005B0F0BD8C
:1004F0000190FFF7DDFF019805B0F0BDFFF7D8FFD1
:100500000120E8E72846284906F0CBFC10B3274B2A
:10051000002402E00134402C21D053F8040F0028BD
:10052000F8D12B783A2B32D0294602A802F0D8FF16
:1005300002A803F027F890B102A803F00BF888B1E5
:1005400002A803F011F803464BB1194AE01C42F827
:100550002430C0E7124B1B68ABB10220BBE74FF061
:10056000FF30B8E702A802F0E9FF05460028F6D000
:10057000036802A89F6802F0DFFF32460146284662
:10058000B8470346E0E7FFF793FF0220A3E72846BA
:10059000084902AA06F016FC029BD5E7547B000826
:1005A000280A0020647B00085C7B00083C020020D5
:1005B00040020020A07B0008022808B50BDDC21E07
:1005C000074B53F82200002143F8221028B103689A
:1005D0005B68984708BD002008BD4FF0FF3008BD9C
:1005E00040020020022870B50C4616460FDC0E4B68
:1005F0001B680BB9FFF75CFFA51936B114F8011B96
:100600000A4802F04BFFAC42F8D1304670BD0338C7
:10061000074B53F8200018B103681B68984770BD5A
:100620004FF0FF3070BD00BF280A0020C80D002029
:1006300040020020022810B50C4609DC0D4B1B6857
:100640008BB10D4802F01EFF01232070184610BD2B
:1006500003380A4B53F8200040B103689B68984761
:100660000346184610BDFFF723FFEAE74FF0FF33BC
:10067000ECE700BF280A0020C80D0020400200203F
:10068000022808B508DD0338064B53F8200028B1CE
:100690000368DB68984708BD012008BD4FF0FF30B4
:1006A00008BD00BF40020020022808B508DD03385D
:1006B000064B53F8200028B103681B69984708BD12
:1006C000002008BD4FF0FF3008BD00BF40020020F1
:1006D000022808B504D84FF400534B60002008BD31
:1006E00005F094F9092303604FF0FF3008BD00BF07
:1006F00008B5012005F090F9704700BF08B5FFF775
:1007000085FEFFF7F9FFBDE8084002F079B900BFA8
:10071000074A13681844EFF30881884202D2106038
:1007200018467047034B0C221A604FF0FF30704799
:1007300098010020200E0020074C08B523680546CC
:10074000986805F085FA2368D86805F081FA05B93C
:10075000FEE7FFF787FDFBE704020020002106F01B
:100760007DBA00BFDFF838D0002100F004B80D4B8F
:100770005B58435004310C480C4B42189A42FFF42A
:10078000F6AF0B4A00F003B8002342F8043B094BD4
:100790009A42FFF4F9AF01F007FBFFF729FD70471C
:1007A00000800120448800089401002020020020DD
:1007B00020020020240E0020FFF7FEBF704700BF7C
:1007C00008B50B4B1A6842F400721A601A6842F4BA
:1007D00080621A601A6842F480721A60032000F086
:1007E000F7F90F20FFF7B8FDFFF7E8FF002008BD7D
:1007F000003C0240024B1A6801321A60704700BF89
:1008000040030020014B1868704700BF40030020E0
:10081000704700BFF8B50446002800F0998090F8B2
:100820003D3003F0FF02002B00F08480494A4A4823
:10083000022384F83D305168236821F4403151602F
:1008400055686168294351605E682769A568E16859
:10085000E26A26F480765E605E6846EA07265E609D
:100860005E6826F040765E605E6835435D609D6838
:1008700025F400659D609D68824245EA010199600A
:100880005DD09868216B20F0706098609868024392
:100890009A609A6822F040529A609A680A439A6075
:1008A0009968A069626A21F002019960996841EA39
:1008B0004001996042BB5A6822F400625A60DD6AC6
:1008C000E169226A606925F47005DD62DD6A013A3A
:1008D00045EA0252DA629A6822F400729A609A68D3
:1008E00042EA41229A609A6822F480629A6099688A
:1008F000002241EA8020012198602264104684F899
:100900003C2084F83D10F8BD5A6842F400625A60F9
:100910005A6822F460425A6059684FF4604090FA75
:10092000A0F0B0FA80F0A26AC0B2013A82400A4355
:100930005A60C4E780F83C20FFF76AFF76E79A68C0
:1009400022F070629A609A6822F040529A60A7E79B
:100950000120F8BD002301400100000F30B490F8E1
:100960003C3082B00022012B01923DD090F83D3006
:100970000122222B0CBF3223122380F83C20026874
:1009800080F83D309368DB0714D41E491E4B0C6879
:100990009168A3FB04539B0C03EB430341F001015B
:1009A00091600193019B2BB1019B013B0193019B42
:1009B000002BF9D1154B5B68002113F01F0380F861
:1009C0003C1006D0124B9A4216D0084602B030BCFA
:1009D0007047916811F040500AD1936843F080430A
:1009E000936002B030BC7047022002B030BC704748
:1009F000184602B030BC7047906810F04050ECD000
:100A0000E3E700BF9C01002083DE1B43002301407D
:100A10000020014003689A6870B5560505460C46EB
:100A200002D59B68D80520D4FFF7ECFE06462A685D
:100A300001E0611C0CD113689B07FAD595F83D3095
:100A4000252B0CBF3523152385F83D30002070BDC4
:100A500024B1FFF7D7FE801B8442E8D20320002395
:100A600085F83D0085F83C3070BD0422002385F8F0
:100A70003D2085F83C30012070BD00BF0368D86C74
:100A8000704700BFF0B490F83C3082B00022012BD8
:100A9000019259D00A680123092A144680F83C3093
:100AA0002BD803688F681E69496802EB42054FF036
:100AB000070C0CFA05FC26EA0C061E611E6907FAF3
:100AC00005F5354306291D612DD801EB81015E6BCB
:100AD00005391F258D4026EA05055D635D6B04FA27
:100AE00001F12943596337498B423ED0002380F8F6
:100AF0003C30184602B0F0BC704703688F68DE686F
:100B0000496894B204EB44051E3D4FF0070C0CFA03
:100B100005FC26EA0C06DE60DE6807FA05F53543BB
:100B20000629DD60D1D90C2901EB810110D81E6B9B
:100B300023391F258D4026EA05051D631D6B04FA28
:100B400001F129431963CEE7022002B0F0BC7047DF
:100B5000DE6A41391F258D4026EA0505DD62DD6A22
:100B600004FA01F12943D962BDE7122A23D0A2F188
:100B70001003012BBAD8144B5968102A41F4000114
:100B80005960B3D1114A03F1467303F52E3312684D
:100B900003F28333A3FB02139B0C03EB83035B0081
:100BA0000193019B002BA1D0019B013B0193019B71
:100BB000002BF9D19AE7044B5A6842F480025A603C
:100BC00094E700BF00200140002301409C01002069
:100BD000074AD1684FF6FF030B4043F0BF6300F0B4
:100BE000070043F4003343EA0023D360704700BF9B
:100BF00000ED00E02DE9F00FD1F800C07C4E82B08E
:100C0000002303E00133102B00F09C80012404FA40
:100C100003F202EA0C049442F4D14A6822F010096B
:100C2000B9F1020F00F092805D004FF00308D0F898
:100C300000B008FA05F86FEA080802F0030A08EAAB
:100C40000B0B0AFA05FA09F1FF394BEA0A0AB9F166
:100C5000010FC0F800A040F2A280D0F80C908F687D
:100C600008EA090807FA05F548EA0505C560D50050
:100C7000C8D5604F7D6C45F480457D64D7F84480CD
:100C800023F0030508F48048CDF8048005F1804581
:100C900003F003080F2705F59C354FEA880807FA8B
:100CA00008FA554FDDF80490D5F80890B84229EAC3
:100CB0000A0900F08C8007F58067B84200F08A804E
:100CC0004E4FB84200F08A804D4FB84200F08B8002
:100CD0004C4FB8420CBF4FF0040A4FF0050A0AFA15
:100CE00008F848EA0908C5F80880D6F80080E54306
:100CF000D7034CBF44EA080805EA0808C6F8008094
:100D0000D6F8048097034CBF44EA080805EA0808AF
:100D1000C6F80480D6F80880D7024CBF44EA080819
:100D200005EA0808C6F80880D6F80C80920203F19C
:100D3000010354BF05EA080444EA0804102BF460D8
:100D40007FF464AF02B0BDE8F00F70474FEAD308FC
:100D500000EB880803F00709D8F820704FEA8909EA
:100D60000F2505FA09FB27EA0B0A0F6907FA09F9AB
:100D70004AEA0905C8F820505D004FF00308D0F892
:100D800000A008FA05F86FEA080802F0030908EA6B
:100D90000A0A09FA05F94AEA0909C0F80090D0F8E8
:100DA0000890CF6808EA090907FA05FA49EA0A092A
:100DB000C0F80890D0F804A0C2F300192AEA040A87
:100DC00009FA03F94AEA0909C0F8049045E74FF027
:100DD000000886E7012707FA08F882E74FF0020AC1
:100DE0000AFA08F87DE74FF0030A0AFA08F878E7EC
:100DF000003C014000380240000002400008024070
:100E0000000C024000100240704700BFF8B50446D5
:100E1000002869D090F8353003F0FF02002B4ED047
:100E20002368324D022284F835201A6822F001022C
:100E30001A6000F087FB2E4962682368A1FB0061FD
:100E4000890CAA42596024D85200B0FBF2F0C0F3DA
:100E50000B020131032A19628CBF84464FF0040C47
:100E6000206AE769E6682169A2696569C3F81CC060
:100E7000384331432A4318609960DA6018680022C9
:100E800040F0010001211860A263104684F835107B
:100E9000F8BD4FF49677174EA56807FB01F1A6FB46
:100EA000017189090131196275B902EB4202B0FB87
:100EB000F2F0C0F30B02A2B94FF0010CD0E780F8BA
:100EC0003420FFF7A1FFABE702EB820202EB8202C4
:100ED000B0FBF2F0C0F30B02002AEDD040F4404C1E
:100EE000BEE740F4004CBBE70120F8BDA08601003E
:100EF00083DE1B43D34D6210064B1A69012922F091
:100F000004021A6103D040BF20BF20BF704730BF2A
:100F1000704700BF00ED00E0F0B50368DE0783B066
:100F2000044637D5A54A916801F00C01042900F068
:100F3000F380916801F00C01082900F0E980A04BD2
:100F40009E4D00221A70FFF75DFC41F2883607467D
:100F500005E0FFF757FCC01BB04200F2C8802B68C9
:100F60009903F6D4964B22791A706368002B00F02F
:100F70001181FFF747FC914D074641F2883605E0A5
:100F8000FFF740FCC01BB04200F2B1802B689A030F
:100F9000F6D523689F072FD5884A916811F00C0F6A
:100FA00000F0AC80916801F00C01082900F0A280EB
:100FB000E368002B00F0DD80824B804D01221A6037
:100FC000FFF720FC064605E0FFF71CFC801B6428A9
:100FD00000F28D802B68794A9807F5D51168F820C2
:100FE00090FAA0F0B0FA80F02369C0B221F0F801C5
:100FF00083400B43136023681A0720D4580734D466
:10100000A369CBB16D4DAA6802F00C02082A7CD00E
:10101000022B6D4B4FF000021A6000F0CB80FFF7FF
:10102000F1FB2C46054604E0FFF7ECFB401B64286F
:101030005DD823689B01F7D4002003B0F0BD63693D
:10104000002B73D0614B5D4D01221A60FFF7DAFB74
:10105000064604E0FFF7D6FB801B642847D86B6F79
:101060009B07F7D523685807CAD5544B584D1A6CBF
:1010700042F080521A641B6C03F080530193019B71
:101080002B6843F480732B60FFF7BCFB064604E03B
:10109000FFF7B8FB801B642829D82B68D905F7D542
:1010A0004C4B464D00221A70FFF7ACFB41F28836DC
:1010B000074604E0FFF7A6FBC01BB04217D82B6F12
:1010C0009A07F7D4434B227A1A70A368002B00F0DA
:1010D000C780FFF797FB394D074641F288362B6FE3
:1010E0009B078DD4FFF78EFBC01BB042F7D90320BE
:1010F00003B0F0BD526856023FF55AAF2F4A12684E
:10110000950723D5E268012A20D0012003B0F0BD65
:10111000526855027FF513AF284A126890037FF595
:1011200039AF6268002A7FF435AFEEE7274A234DD6
:101130001360FFF767FB064604E0FFF763FB801BC5
:101140006428D4D86B6F9F07F7D48BE71B4AF82528
:10115000106895FAA5F5B5FA85F522691749EDB23B
:1011600020F0F800AA4002430A601A077FF546AF54
:1011700065E7144A114D1360FFF744FB064604E08F
:10118000FFF740FB801B6428B1D82B689907F7D480
:10119000236831E7FFF736FB084D074641F28836F2
:1011A00004E0FFF72FFBC01BB042A0D82B689B03C5
:1011B000F7D4EEE6FFF726FB064612E000380240C1
:1011C000023802400000474260004742800E47421A
:1011D0000070004070380240FFF714FB801B642849
:1011E00085D82B689901F7D447F6C07595FAA5F50F
:1011F000B5FA85F54FF4403191FAA1F1B1FA81F1D8
:101200004FF0706292FAA2F2B2FA82F2A66AD4F8B1
:1012100024C0D4F820E0E769E06A194B194CEDB21C
:1012200076080CFA05F54EEA0707C9B2013E3D43C0
:10123000D2B206FA01F100FA02F229431143012267
:1012400061601A60FFF7DEFA054605E0FFF7DAFA9B
:10125000401B64283FF64BAF23689A01F6D5EBE6B6
:10126000FFF7D0FA074D074641F288362B6F9807F3
:101270007FF5C6AEFFF7C6FAC01BB042F6D936E717
:1012800060004742003802407C4B1A6802F00F02AF
:101290008A422DE9F0410C46054609D2CAB21A70BD
:1012A0001B6803F00F038B4258D00120BDE8F0818A
:1012B00003689A0706D5724A8168906820F0F000AA
:1012C00001439160DF0727D56B68012B79D09A1E07
:1012D000012A6B4A126840F287809107E5D5684F72
:1012E000BA6822F003021343BB60FFF78BFA6B6806
:1012F000012B06467CD0022B00F08880032B65D0A2
:1013000041F2883804E0FFF77DFA801B404565D83C
:10131000BB6813F00C0FF6D1584BE2B21A701B6881
:1013200003F00F03A342C0D12B685A0706D5544AD5
:10133000E968906820F4E050014391601B0707D5ED
:101340004F4B29699A6822F4604242EAC1029A60CE
:101350000F20FFF701F80020BDE8F08103689F0728
:1013600006D5474A8168906820F0F00001439160FB
:10137000DE07DAD56B68012B56D09A1E012A404A47
:1013800012682ED9910790D53D4EB26822F0030223
:101390001343B360FFF736FA6B68012B044648D05D
:1013A000022B54D0032B60D041F2883704E0FFF7C2
:1013B00029FA001BB84211D8B36813F00C0FF6D10C
:1013C000B2E72F4A1268960389D46EE741F2883457
:1013D000BB68FFF717FA801BA042F9D90320BDE8CC
:1013E000F0819001D0D460E790013FF578AF5CE7E1
:1013F00041F2883804E0FFF705FA801B4045EDD83C
:10140000BB6803F00C03042BF5D185E741F2883863
:1014100004E0FFF7F7F9801B4045DFD8BB6803F015
:101420000C03082BF5D177E7154A12689403ABD467
:101430003BE741F2883704E0FFF7E4F9001BB842CC
:10144000CCD8B36803F00C03042BF5D16CE741F260
:10145000883704E0FFF7D6F9001BB842BED8B3685E
:1014600003F00C03082BF5D15EE741F28835B36831
:10147000FFF7C8F9001BA842F9D9AFE7003C0240CA
:10148000003802401E4B9A6802F00C02042A10B485
:1014900032D0082A03D01B485DF8044B70475868C7
:1014A0005A685C6812F4800F00F03F0147F6C07282
:1014B00092FAA2F2B2FA82F247F6C07314BF12484F
:1014C0001048D2B22340D3400D4AB0FBF1F000FBEC
:1014D00003F052684FF4403393FAA3F3B3FA83F363
:1014E00002F44032DBB222FA03F301335B00B0FBBB
:1014F000F3F05DF8044B704703485DF8044B704708
:10150000003802400024F40000127A0008B5FFF70A
:10151000B9FF094BF0229B6892FAA2F2B2FA82F26A
:1015200003F0F003D2B223FA02F20449044B8A5CBE
:10153000D040186008BD00BF00380240B07B0008F2
:101540009C01002008B5FFF7E1FF084A4FF4E05383
:10155000926893FAA3F3B3FA83F302F4E052DBB296
:1015600022FA03F3024AD35CD84008BD0038024097
:10157000B07B000808B5FFF7C9FF084A4FF4604385
:10158000926893FAA3F3B3FA83F302F46042DBB2F6
:1015900022FA03F3024AD35CD84008BD0038024067
:1015A000B07B00080E4B0F22026010B49C680D4AFD
:1015B00004F0030444609C6804F0F00484609C68B8
:1015C00004F4E054C4609B685DF8044B03F460438A
:1015D000DB080361136803F00F030B60704700BF63
:1015E00000380240003C0240036A23F00103F0B4DB
:1015F0008F680E680362036A104D4268846923F0A5
:10160000020324F07304A84243EA070344EA0604F1
:1016100006D04968426084614163F0BC0362704750
:10162000CF688E694D6923F0080322F440723B4372
:10163000354323F004032A43EBE700BF00000140D9
:10164000036A23F48073F0B48F680E680362036A40
:10165000114D4268C46923F4007324F07304A84256
:1016600043EA072344EA060406D049684260C4619D
:10167000C163F0BC03627047CF684E698D6923F483
:10168000006322F4405243EA072342EA061223F49D
:10169000806342EA0512E8E700000140036A23F490
:1016A0008053F0B48F680E680362026A0C4D436881
:1016B000C46922F4005224F4E644A84242EA073204
:1016C00044EA062406D049684360C4610164F0BC62
:1016D000026270474D6923F4804343EA8513F2E7C1
:1016E00000000140704700BF03680E4A186A10B43A
:1016F000012404FA01F120EA01001862186A9342F9
:1017000041EA0001196207D01A685DF8044B42F003
:10171000010200201A6070475A6C42F400425A6479
:10172000F2E700BF00000140704700BF03680E4AA7
:10173000186A10B4012404FA01F120EA01001862C9
:10174000186A934241EA0001196207D01A685DF8ED
:10175000044B42F0010200201A6070475A6C42F4B8
:1017600000425A64F2E700BF00000140264A0368C5
:10177000904230B434D0B0F1804F20D0A2F57C42FA
:1017800090421CD002F58062904218D002F580622F
:10179000904214D002F59A32904214D002F5806241
:1017A000904210D002F5806290420CD08C680A689A
:1017B00003600123C462826230BC436170474A689F
:1017C00023F070031343CD688C680A6823F44073D8
:1017D0002B4303600123C462826230BC43617047C3
:1017E0004C68CA6823F070031C4324F440742243FD
:1017F00002608B68C3620B6883620B690363012319
:10180000436130BC704700BF0000014010B5044682
:10181000B0B190F8393003F0FF0263B121460223E2
:1018200051F8040B84F83930FFF7A0FF012384F846
:101830003930002010BD80F83820FFF753FFEDE766
:10184000012010BD10B50446B0B190F8393003F056
:10185000FF0263B12146022351F8040B84F83930AA
:10186000FFF784FF012384F83930002010BD80F891
:101870003820FFF759FFEDE7012010BD036A23F080
:101880001003F0B48F680E680362036A114D42685A
:10189000846923F0200324F4E644A84243EA0713B2
:1018A00044EA062406D04968426084618163F0BC42
:1018B00003627047CF684E698D6923F0800322F47C
:1018C000406243EA071342EA860223F0400342EAF9
:1018D0008502E8E70000014038B590F83830012B68
:1018E00004460D4628D00121022380F8381080F8E4
:1018F00039300C2A19D8DFE802F007181818341804
:10190000181847181818210029460068FFF76CFEC0
:1019100023682A69996941F008019961996921F060
:101920000401996199690A439A610123002084F8AE
:10193000393084F8380038BD022038BD29460068A7
:10194000FFF7ACFE23682969DA6942F40062DA61C4
:10195000DA6922F48062DA61DA6942EA0122DA6144
:10196000E3E729460068FFF789FF236829699A6938
:1019700042F400629A619A6922F480629A619A69DB
:1019800042EA01229A61D0E729460068FFF758FE33
:1019900023682A69D96941F00801D961D96921F020
:1019A0000401D961D9690A43DA61BEE703680420FA
:1019B0001A6A00FA01F122EA01021A621A6A114354
:1019C00019625A6C42F400425A641A6842F00102E9
:1019D0001A600020704700BF2DE9F0410568C1681A
:1019E0002B69C269D0F810E08768466923F4405338
:1019F0001943044680692961EB684EEA070123F424
:101A00001643314323F00C0311430B43EB606B6926
:101A100023F440730343B2F5004F6B61594B3CD044
:101A20009D4200F08C8003F580639D4200F087802A
:101A3000FFF788FD6368544E00EB80009B0000EBCD
:101A40008000B0FBF3F7FFF77DFD636800EB8000DB
:101A50009B0000EB8000B0FBF3F8FFF773FD6368B9
:101A600000EB800000EB80009B00B0FBF3F3A6FBD3
:101A70000727A6FB03237F095B0964203F0100FBC6
:101A800013884FEA081808F13208A6FB0836C6F397
:101A900043163743AF60BDE8F0819D422DD003F57A
:101AA00080639D4229D0FFF74DFD6368364E00EB01
:101AB00080005B0000EB8000B0FBF3F7FFF742FD16
:101AC000636800EB80005B0000EB8000B0FBF3F884
:101AD000FFF738FDA6FB072763687F0900EB80004E
:101AE0003F0100EB80005B00B0FBF3F3A6FB032398
:101AF0005B09642202FB1388C3E7FFF73BFD6368C1
:101B0000214E00EB80005B0000EB8000B0FBF3F7A0
:101B1000FFF730FD636800EB80005B0000EB8000A6
:101B2000B0FBF3F8FFF726FDA6FB072763687F09E4
:101B300000EB80003F0100EB80005B00D4E7FFF783
:101B400019FD6368104E00EB80009B0000EB8000E5
:101B5000B0FBF3F7FFF70EFD636800EB80009B001E
:101B600000EB8000B0FBF3F8FFF704FDA6FB0727AE
:101B700063687F0900EB80003F0100EB80009B0061
:101B8000B2E700BF001001401F85EB51704700BF56
:101B900010B5044640B390F8393003F0FF02F3B1BA
:101BA0002368022284F83920DA6822F40052DA60CD
:101BB0002046FFF711FF23681A6922F490421A6148
:101BC0005A6922F02A025A61D868002240F4005073
:101BD0000121D860E263104684F8391010BD80F806
:101BE0003820FFF7D3FFDBE7012010BD164B9A68C2
:101BF00002F00C02042A24D0082A0AD0134A124BFD
:101C000013489968134BC1F30311415CCA401A6031
:101C10007047586859685B6842024CBF0E4A0B4ACD
:101C200001F03F01C3F38813B2FBF1F202FB03F2B0
:101C3000054B5B68C3F3014301335B00B2FBF3F276
:101C4000DDE7054ADBE700BF003802400024F4006E
:101C5000C07B00089C01002000127A00224A234B1E
:101C6000116C70B541F080511164126C94B002F0A7
:101C700080520192019A1A6822F4404242F40042D2
:101C80001A601B6803F4404302930123029A0893ED
:101C900000B1052309934FF4A871072304220224FD
:101CA0004FF48006082508A813930E940F961095FC
:101CB00011911292FFF730F9034610B1002014B0D1
:101CC00070BD4FF4805221460F2503A8049405935C
:101CD000079303950692FFF7D7FAD0F1010038BFBA
:101CE000002014B070BD00BF0038024000700040FA
:101CF000234A244B116CF0B541F080511164126CF1
:101D000095B002F080520192019A1A6822F4404282
:101D100042F400421A601B6803F4404302934FF000
:101D2000030E1023002404210722012702254FF46B
:101D3000A87608A80C931093DDF808C0CDF820E031
:101D40000B9709940F940E95119612911392FFF729
:101D5000E3F8034610B1204615B0F0BD4FF48052B1
:101D600029460F2403A8049505930793039406922C
:101D7000FFF78AFAD0F1010038BF002015B0F0BD9E
:101D8000003802400070004008B50120FFF766FFF0
:101D900000B108BDFFF762FF0028FAD1FFF7A8FFE6
:101DA0000028F6D1FEE700BF174B1848D3F888206B
:101DB00070B542F47002164CC3F888202268154EA4
:101DC000154D002142F001022260A160226822F03C
:101DD000847222F480322260666026684FF00062CE
:101DE00026F480262660E1609A600560FEF7E8FC34
:101DF000FFF7CAFF236A43F008032362236A23F034
:101E00000803236270BD00BF00ED00E09C010020CC
:101E100000380240103000240024F40038B590F956
:101E20000030013304460D4604D1054805493422EB
:101E300001F0ECFDE268636805B91B04136038BD6E
:101E4000D07B0008E87B000838B5102204460D4618
:101E5000002104F04FF92046294601F007FE2046F4
:101E600038BD10B52021044600F0C6FF04F108007B
:101E70000B21FFF7E9FF04F118000C21FFF7E4FF45
:101E800004F128000721FFF7DFFF002384F8383032
:101E9000204610BD10B5044680F8381003291CD820
:101EA000DFE801F0020508100830002104E00830E6
:101EB000002109E008300121FFF7B0FF04F118000C
:101EC000002106E008300121FFF7A8FF04F1180007
:101ED0000121BDE81040FFF7A1BF10BD10B50446B9
:101EE00001212830FFF79AFF204694F83810BDE80A
:101EF0001040FFF7CFBF10B5002104460830FFF7B0
:101F00008DFF04F118000021FFF788FF04F128007D
:101F10000021BDE81040FFF781BF000070B5134EEF
:101F2000134D144C30462D2101F0C2FB22462946A8
:101F30003046114E02F02CFC1048062101F01AF92F
:101F400030462E2101F0B4FB22460D4C2946304686
:101F500002F01EFC20460021102204F0CBF820469F
:101F60000521BDE8704001F081BD00BF5403002091
:101F70003936000894010020BC030020A80300208B
:101F80004403002070477FB5154604AA1C46012370
:101F900002F8041D00933A21064601F019FB0023C4
:101FA000009330463A212A46234601F02BFB04B029
:101FB00070BD7FB500242A2603AA00943A2102238B
:101FC00005468DF80C608DF80D4001F001FB0E23E5
:101FD0008DF80C3003AA009428463A2102238DF88C
:101FE0000D4001F0F5FA01238DF80D3000942846DC
:101FF0003A2103AA02238DF80C6001F0E9FA04B03B
:1020000070BD10B5044601F0C3FA2046FFF7D1FFBA
:10201000204610BD13B507230C466A460021FFF782
:10202000B2FF9DF804309DF803209DF805109DF83F
:102030000100DFED146A03EB02229DF8063003EB8A
:1020400001239DF8021001EB002109B207EE101ADE
:10205000B8EEC77A12B227EE267A1BB284ED007A68
:1020600007EE903A07EE102AF8EEE77AB8EEC77A54
:1020700067EEA67A27EE267AC4ED027A84ED017A1D
:1020800002B010BD00008038F0B52DED028B9FED41
:10209000208A85B005461424284601A9FFF7BAFF17
:1020A000DDED037A052038EE278A01F00BFE013CB6
:1020B000F2D1F3EE047AC8EE277A17EE900A03F015
:1020C00031F90FA3D3E9002306460F4603F00EFCB7
:1020D00070B9304639460CA3D3E900234FF001050F
:1020E00003F0E6FB00B9254685F00100C0B200E030
:1020F000204605B0BDEC028BF0BD00BFAFF3008001
:10210000666666666666D63F666666666666D6BF5D
:102110000000000038B590F90030013304460D4648
:1021200004D105480549342201F070FCE268636877
:1021300005B91B04136038BDD07B0008E87B00089C
:10214000F8B5102604463246002103F0D3FFA51946
:1021500020460A2101F08AFC32462846002103F07D
:10216000C9FF04F120072846292101F07FFC04F172
:1021700034063846084D092100F0FCFF304608219E
:1021800000F0F8FF3846294601F0A0F8304629460D
:1021900001F09CF82046F8BD17B7513838B5044611
:1021A0000D460021FFF7B6FF04F13400002100F0D6
:1021B000EDFE04F110000121FFF7ACFF04F1200057
:1021C0002946BDE8384000F0E1BE38B504460D466A
:1021D00010300021FFF79EFF04F12000002100F0E5
:1021E000D5FE20460121FFF795FF04F13400294672
:1021F000BDE8384000F0CABE38B50025044629467F
:10220000343000F0C3FE20460021FFF783FF04F1C5
:102210002000294600F0BAFE04F110000021BDE8BC
:102220003840FFF777BF000010B5DFED1F6A9DED66
:10223000027ADDED037A27EE267A67EEA67A80ED44
:10224000037A9FED1A7A67EE877A9FED197AC7EEC7
:10225000877A044680E80E00C0ED047A049803F003
:1022600061F80DA3D3E9002303F0B0F80CA3D3E980
:10227000002303F0D5F903F06BFB059BA36104F584
:102280008B6200236061A365E36523666366136068
:10229000204610BDAFF300807B14AE47E17A843F47
:1022A00000000040E17A743F0AD7A33B00401C4481
:1022B00000007A437FB5054600F1300400F12006A6
:1022C000A86801A9FFF7A6FE019B44F8043D029B04
:1022D0006361052001F0F6FCB442F1D104B070BD99
:1022E000DFB5044600F12C0300F11C0253F8041D75
:1022F0005960934259699961F8D1A06801A9FFF723
:1023000089FE019803F00EF81BA3D3E9002303F024
:102310005DF80646206A0F4603F004F818A3D3E9D7
:10232000002303F053F802460B463046394602F0CC
:102330009BFE03F00DFBE061029802F0F3FF0EA399
:10234000D3E9002303F042F80646606B0F4602F023
:10235000E9FF0BA3D3E9002303F038F802460B464C
:102360003046394602F080FE03F0F2FA206304B0F2
:10237000D0BD00BFAFF30080CA3E5BC0CB60743FEE
:1023800082497F683ED7EF3F2DE97043044600F154
:10239000580500F14806E06902F0C4FF8046206B52
:1023A000894602F0BFFF02460B464046494602F00E
:1023B000F7F90022124B03F009F80FA3D3E9002329
:1023C00003F02EF903F0C4FA02F0ACFF00220D4B2B
:1023D00002F04AFE00220B4B02F0E4F903F0B8FAD7
:1023E00045F8040D2046FFF77BFF052001F06AFC4D
:1023F000B542D0D1BDE87083F1D4C853FB21094068
:102400000080664000807640D0B5D0ED117AFDEEB8
:10241000E77A044617EE901A1D4804F045FB236D39
:102420006365E36C2365A36CE364636CA36420467B
:10243000FFF756FFE06902F075FF0646206B0F4676
:1024400002F070FF02460B463046394602F0A8F90A
:102450000022104B02F0BAFF0BA3D3E9002303F0D4
:10246000DFF803F075FA02F05DFF00220A4B02F07C
:10247000FBFD0022084B02F095F903F069FA606455
:10248000D0BD00BFAFF30080F1D4C853FB21094099
:10249000527C0008008066400080764070B504469B
:1024A00000F16C0500F15C0694ED127AD4ED117A1E
:1024B00077EEC77A9FED077AC7EE877A204665EDFB
:1024C000017AFFF7A1FF052001F0FCFBB542EBD13B
:1024D00070BD00BF0AD7A33B10B5D0ED167AFDEE54
:1024E000E77A044617EE901A0D4804F0DDFA636EA1
:1024F000A366236E6366E36D2366A36DE3652046E2
:10250000FFF782FF94ED127AD4ED117A77EEC77A55
:102510009FED047AC7EE877AC4ED167A10BD00BF2E
:102520005A7C00080AD7A33B00F16C0300F58A60CF
:10253000002243F8042B8342FAD1704710B50446B9
:10254000FFF7B8FE2046FFF71FFF2046FFF7A6FF64
:102550002046FFF7E9FF0023A365E3652366636672
:1025600004F58B64236010BD10B500F58A63044642
:1025700000F1700253F8041D59609342FAD12046CD
:10258000FFF7AAFF04F2544394ED167AD3ED007AD4
:1025900077EEC77A9FED097AF4EEC77AF1EE10FA7A
:1025A00002DD0023E36610BD9FED057AF4EEC77AE5
:1025B000F1EE10FAF5D4C4ED1B7A10BD00401C46B4
:1025C00000401CC6DFED087A00F16C0300F58A605C
:1025D000F3EC016A9FED057A8342E6EE877AF7D144
:1025E00017EE900A704700BF000000000AD7A33B17
:1025F00090ED1C7AD0ED1D7A77EEC77A9FED057AC3
:10260000C7EE877A9FED047A77EE877A17EE900A05
:10261000704700BF0AD7A33B0000000038B504464E
:102620002DED028BFFF7A0FF2046FFF7CBFF08EE52
:10263000100A2046FFF7DCFFD4ED047A94ED1B7AF4
:1026400028EE278AD4ED037AA7EE878A04F58B65F6
:10265000D4ED057A06EE900AA7EEA68AD4ED067AA6
:10266000DFED2B6A78EE277A95ED008AA7EEA68A31
:10267000F7EE007AB4EEE78AF1EE10FA09DCFFEE2D
:10268000007AB4EE678AF1EE10FA48BFB0EE678ABE
:1026900001E0B0EE678AFDEEC77A1E4817EE901A89
:1026A00004F002FA18EE100A02F03CFE00221A4B67
:1026B00002F08CFE03F024F90146184804F0F4F906
:1026C000B5EEC08AF1EE10FA0DDD154804F07CFA83
:1026D00085ED008A18EE101ABDEC028B2068BDE86B
:1026E0003840FFF75BBD0FD50E4804F06DFA85ED5D
:1026F000008AF0EEC87ABDEC028B206817EE901AC3
:10270000BDE83840FFF761BDBDEC028B38BD00BFAE
:102710000AD7A33B677C000800408F40767C000806
:10272000817C00088A7C000800F2544001607047F8
:1027300000F25C400160704700F25C4393ED007A68
:10274000D0ED117A77EEC77A9FED237AF4EEC77A4F
:10275000F1EE10FAB0EE476A03DB00F254431F4A71
:1027600037E0B9EE047AF4EEC77AF1EE10FADFED55
:102770001C6A08D5F4EEE67AF1EE10FA03DB00F2FB
:102780005443184A25E0F4EEE67AF1EE10FA03D548
:1027900000F25443144A1CE0F1EE046AF4EEE67AC7
:1027A000F1EE10FA08DDF4EEC67AF1EE10FA03D578
:1027B00000F254430D4A0CE0F4EEE67AF1EE10FA22
:1027C00008D8F4EEC77AF1EE10FA03DB00F25443B6
:1027D00000221A60FFF722BF00003443000070415E
:1027E000000034C30000E040000070C10000E0C001
:1027F00070474A680B6812F0010F4FEA620218BF77
:102800008158104418BFCB581847000010B5054B2D
:102810000360044601F094F8204601F0BDF820461C
:1028200010BD00BF507F000810B5034B0360044685
:10283000FFF7ECFF204610BD687F000810B5044686
:1028400001F0ABFF204610BD10B5064B036003F14D
:1028500018024C33044642658365543001F000F899
:10286000204610BDA07E0008A0F15400FFF7ECBF89
:10287000A0F15800FFF7E8BF38B51F481F4901F025
:1028800035F81F4A1368B3FA83F35B0913605BB131
:102890001C4801F055F81C4801F052F81B48002173
:1028A000BDE83840FFF740BF194800F0B9F90446C9
:1028B00000BB1448174B154D8361C462164901F0E3
:1028C00047F82846FFF73AFE28461449FFF730FF3D
:1028D0000D48134BC361134B85610462C36241F21F
:1028E000883101F035F810484FF07A51BDE8384092
:1028F00000F04CBB38BD00BFE8040020937C00080A
:1029000000050020B40900207409002004050020FF
:10291000640900207928000880C3C90100003443FD
:1029200039270008F3270008A803002038B52148FC
:10293000214900F0DBFF214A1368B3FA83F35B09F6
:1029400013605BB11E4800F0FBFF1E4800F0F8FF6B
:102950001D480021BDE83840FFF7E6BE1B4800F0E7
:102960005FF9044620BB1A48FFF78EFB00B31448FA
:10297000184B154D8361C462174900F0E9FF2846E2
:10298000FFF7DCFD28461549FFF7CEFE0D48144B36
:10299000C361144B85610462C36241F2883100F067
:1029A000D7FF11484FF07A51BDE8384000F0EEBA39
:1029B00038BD00BFE8040020937C0008000500201B
:1029C000B4090020740900200405002064090020D7
:1029D000A40900202D290008809698000000B44228
:1029E0001D260008F3270008A803002010B50446A0
:1029F000FFF70CFF204601F0D0FE204610BD00007E
:102A000008B526484FF4612100F0DCFE2448254932
:102A100000F05CFC02212448FFF73CFA2348FFF752
:102A2000EBFB2348234900F065FE2348234900F0CF
:102A300061FE234800F0F4F8224B01221A601D4683
:102A40002B68214CEBB1214A00231370204A1370EC
:102A500094F90030013304D11E481F49342200F09C
:102A6000D5FF6368E26816481B04136000F0B0F9F4
:102A700000F020FD194801F017F9114800F0B8F9ED
:102A8000DEE794F90030013304D1124812493422B0
:102A900000F0BCFFE36862681A60D1E7940400208C
:102AA000A803002017B75138580400201004002054
:102AB000540300202D290008BC03002079280008B9
:102AC000640900200005002044030020E4090020E0
:102AD000B0090020D07B0008E87B0008CDCCCC3DBD
:102AE00010B50446FFF7B0FE204601F056FE204622
:102AF00010BDA0F15400F3E7A0F15800F0E710B5C5
:102B00000446FFF791FE204601F047FE204610BD27
:102B10002DE9F0432A4C2B4D2B4FDFF8E090DFF8E6
:102B2000E08085B0002320460221032200F0FCFD56
:102B30002A4620462549264C01F02AFE384619210E
:102B40001822FFF75EFA2A462249384601F020FE95
:102B50004846FFF7F5FA4046FFF783F949464246F3
:102B60001D4800F04FF80026204600F031FFA66116
:102B7000E6621A4B1A4923602A46204601F008FEF5
:102B80004FF07F530093174B0193174B174C029351
:102B9000002349464246039315483B46FFF744FB52
:102BA000204600F015FF134B1349236020462A46A8
:102BB000A661E66205B0BDE8F04301F0E9BD00BFE3
:102BC0009404002094010020A40900204928000852
:102BD000B4090020851F000864090020687F0008F0
:102BE00029280008CDCC4C3F00409CC67409002029
:102BF00004050020507F00080D2800081004002064
:102C00005804002070B504460E461546212100F0F8
:102C1000F3F8A660E560204670BD000000000000EB
:102C2000F8B505464FF47A7400260027284600F0D0
:102C30003BF902F077FB02460B463046394602F07C
:102C400013FA013C06460F46F0D100225E4B02F01B
:102C5000E7FC53A3D3E9002302F0B8FB02460B467E
:102C600002F002FA50A3D3E9002306460F4602F011
:102C700033FE80B1FA2001F025F84FF07E51534821
:102C800000F084F9322001F01DF85048002100F0D6
:102C90007DF9642010E03046394645A3D3E900238E
:102CA00002F01AFEC0B1304639463FA3D3E90023F3
:102CB00002F0FEFD80B1FA2001F004F84FF07E51E1
:102CC000424800F063F9322000F0FCFF3F48002149
:102CD00000F05CF9642010E03046394636A3D3E9B1
:102CE000002302F0F9FDC0B13046394630A3D3E9E4
:102CF000002302F0DDFD80B1FA2000F0E3FF4FF089
:102D00007E51324800F042F9322000F0DBFF2F48BC
:102D1000002100F03BF9642010E03046394626A33C
:102D2000D3E9002302F0C4FDD8B13046394624A3CC
:102D3000D3E9002302F0D0FD98B1FA2000F0C2FFE1
:102D40004FF07E51214800F021F9322000F0BAFF07
:102D500000211E4800F01AF9642000F0B3FF0020A3
:102D6000F8BD3046394616A3D3E9002302F0A0FD92
:102D700090B1FA2000F0A6FF4FF07E51134800F00A
:102D800005F94B2000F09EFF1048002100F0FEF8EE
:102D9000962000F097FF0120F8BD00BFAFF3008040
:102DA0006666666666660A409A99999999990E4090
:102DB0009A99999999990B409A9999999999084052
:102DC000333333333333074000408F40A8030020B0
:102DD00010B504460021054800F0D8F8A068FFF7B8
:102DE0000BFAE068BDE81040FFF785B8A8030020A3
:102DF000C068FFF773B8000070B50C46054682B096
:102E00002249204600F08AFE2860013037D0204653
:102E10001E4900F09DFE431C06462AD0C6F3C32679
:102E20006E712046194900F045FE194A2C7113684D
:102E3000EBB918492D68486C01241460164A40F417
:102E4000807053604864496C936001F48071019113
:102E50001046019915601361936153629362136385
:102E6000D362D3601462D3615361FDF7D3FC02B027
:102E700070BD0A480A49322200F0C8FDCEE7094871
:102E800007492E2200F0C2FDC1E700BFC48200083E
:102E9000E809002000380240440D0020287D000889
:102EA000BC7C0008A47C000800B5354A0168437961
:102EB000116085B0002201210191029203920F2B33
:102EC00009D8DFE803F02F3235383B3E4144474A0A
:102ED0004D505356590FDFED2B7A17EE900A05B07F
:102EE0005DF804FB0F23009369462548FDF7CAFDF2
:102EF0002348FDF733FD22480A21FDF78BFD00280A
:102F0000E9D11F48FDF7BAFD80B207EE100AF8EECE
:102F1000477A9FED1D7A67EE877A17EE900A05B023
:102F20005DF804FB00230093DEE701230093DBE759
:102F300002230093D8E703230093D5E704230093EB
:102F4000D2E705230093CFE706230093CCE70723BE
:102F50000093C9E708230093C6E709230093C3E75A
:102F60000A230093C0E70B230093BDE70C230093D3
:102F7000BAE70D230093B7E70E230093B4E700BF31
:102F8000440D0020000000000108803930B507EE34
:102F9000901A274A03681360F5EEC07AF1EE10FA32
:102FA00089B004463DD4B7EE007AF4EE477AF1EEEC
:102FB00010FAC8BFF0EE477AD4ED026A227CB8EE70
:102FC000667A002367EE277A6020FCEEE77A013A02
:102FD000C4ED037ACDED027A019003930493059337
:102FE00006930793032A10D8DFE802F011021513A5
:102FF00004250F4801A92A46FEF76EFCA0B9637CA0
:103000000B4829464BB1FEF7D1FC09B030BD002575
:10301000EFE70C25EDE70825EBE7FEF787FB09B0A6
:1030200030BDDFED047AC7E7034800F0FBFCE6E7BC
:10303000EC09002000000000447D0008F0B5826823
:10304000454D03682B6087B004460E46002A57D0D2
:1030500007EE102AF8EE477A90ED037AF8EE476A09
:10306000B7EE007AC6EEA77AF4EEC77AF1EE10FA60
:10307000C8BF17EE107A45DD196A41F211120A40F5
:103080002AB9196A40F244420A40002A3DD001A8F8
:103090006946FEF787FA2368304A934245D039D90A
:1030A0002F4A934207D051D92E4A934203D002F5BA
:1030B0008062934222D1FEF75DFA059A0090731E5A
:1030C000EB60254B002A39D1274AA2FB0010800C67
:1030D00001385860002320482B61AB60FEF7B2FB3B
:1030E00010B1224800F09EFC39462046FFF74EFF03
:1030F0002B68A6601A6842F001021A6007B0F0BDA2
:10310000DFED1B7A17EE907AB6E71A6822F001021B
:103110001A60BCE7A2F50062934206D002F5806215
:10312000934202D0B3F1804FE8D1FEF70BFA049A34
:103130000090731EEB60084B002AC5D00A4A40007D
:10314000A2FB0010800C01385860C3E7A2F5804252
:103150009342B0D0D2E700BFEC090020000C004041
:10316000004001400044014083DE1B43447D0008D1
:103170000000000070B50D46044688B04849284656
:1031800000F0CCFC206001306FD02846444900F0AC
:10319000DFFC431C06466ED02368424AC6F3C321B7
:1031A0009342C6F3C0362174667444D0B3F1804FA5
:1031B00029D03D4A93424AD102F50D32116C41F0BB
:1031C00002011164126C02F002020392039A374A60
:1031D000934209D1364B5A6C42F480225A645B6C9C
:1031E00003F480230793079B28462D4900F062FCD7
:1031F00000232571A360E360204644F62061FFF7B9
:103200001DFF08B070BD2A4A116C41F00101116424
:10321000126C02F001020292029A264A9342D6D11F
:10322000234B5A6C42F400325A645B6C03F4003353
:103230000693069BD8E702F59C32516C41F00101E0
:103240005164526C02F001020192019AE5E71A4AB8
:10325000934216D1164B1A6C42F004021A641B6C8E
:1032600003F004030493049BBEE7144814492D2281
:1032700000F0CCFB89E713481149312200F0C6FB6E
:103280008AE7114A9342C8D1094B5A6C42F4803202
:103290005A645B6C03F480330593059BA4E700BF7D
:1032A000D8800008000001400004004000480140B0
:1032B0000038024000440140000800405C7D0008E6
:1032C000747D0008287D00080040014007EE101AB8
:1032D000DFED047A67EE277AFDEEE77A17EE901AB3
:1032E000FFF7ACBE00247449F8B5134B90F9197080
:1032F00006688568C468016942691E6001374FF03D
:1033000000065D609C60D9601A619E6110D090F9E2
:10331000182001320CBF04220C225A610648FEF725
:1033200037FC00B9F8BD0548BDE8F84000F07ABBAD
:1033300008225A61F2E700BF880D0020DC7D0008FA
:10334000F0B5044685B008460E463C49154600F0E7
:10335000E5FB3B490746284600F0E0FB01463846BE
:1033600000F0CAFB411C206061D0364B984247D028
:1033700003F58063984236D0A3F55043984225D098
:1033800030462E4900F096FB28462D4900F092FB6E
:10339000721C03D03046012101F0ECF86B1C03D005
:1033A0002846012101F0E6F800234FF41652A260EE
:1033B000E36023616361267665762046FFF794FF1C
:1033C000214A2368934228D005B0F0BD1F4B1A6CE8
:1033D00042F400321A641B6C03F40033029301239D
:1033E000029A6360CCE7194B5A6C42F020025A648F
:1033F0005B6C03F020030393039B05236360BFE72B
:10340000124B5A6C42F010025A645B6C03F01003CA
:1034100001930023019A6360B2E70D4B0D482146EA
:103420001C2201241C6002F05AFE05B0F0BD0A48BF
:103430000A49532200F0EAFA206896E77C820008E5
:103440009080000800100140004400400038024015
:10345000280A0020C80D0020F47D0008107E000816
:103460008160FFF741BF00BF10B4044B44680448BB
:10347000196040F824205DF8044B70474C0A002086
:103480002C0A0020026813689B06FCD5024B50688A
:103490001A60C0F308007047880D002002681368A6
:1034A0001B06FCD5024BC1F3080151601A6070473E
:1034B000880D0020084BDA6810B5084C22F0040291
:1034C00023600020DA600121FDF716FD2368DA6829
:1034D00042F00402DA6010BD000C0040500A0020E7
:1034E00038B50023036043600A782F2A044601D0D0
:1034F000204638BD4A78002AFAD0481C20604A7815
:103500002F2A14D0B2B18D1C194600E052B12560AB
:103510002A782F2A2B4601F1010105F10105F5D189
:103520000133236001F0D0F86060204638BD1946B1
:103530000346F5E71146F5E70068704710B5044605
:10354000406828B101F0DEF8012801D1606810BDA3
:10355000002010BD406808B528B101F0D3F8D0F1C3
:10356000010038BF002008BD10B50446406830B1E6
:1035700001F0C8F818B9606808B1043810BD00201F
:1035800010BD00BF4068003018BF0120704700BF69
:1035900010B5064B8360002303604360044600F0CF
:1035A00095FE034B20461C6010BD00BFA0860100A5
:1035B0008C0A002038B5054D2B688342044603D0A1
:1035C000816800F03BFD2C6038BD00BF8C0A0020F4
:1035D0002DE9F04182B01C469DF820500F4616465A
:1035E000804685F00105FFF7E5FF00954046394626
:1035F0003246234600F05AFD201A18BF012002B0BF
:10360000BDE8F0812DE9F04182B01C469DF82050C4
:103610000F461646804685F00105FFF7CBFF009563
:10362000404639463246234600F0B8FD201A18BFFE
:10363000012002B0BDE8F08110B5044A044640F80C
:10364000142B00F097FC204610BD00BF807E0008C0
:1036500010B5054B044640F8143B00F08BFC2046A7
:1036600001F09BF8204610BD807E0008012908B5B6
:1036700003460AD0022907D1026D7AB1C06B10B19E
:1036800003F14001904708BD08BD826B5AB1406A02
:103690000028F8D003F12801904708BDC36B002B28
:1036A000F1D0984708BD436A002BFAD1EBE700BF81
:1036B00038B50E4B03600446002303718360C3607A
:1036C000036103758361C36180F8203043628363C3
:1036D000C36303650D462346054A143000F0A0FB82
:1036E000201D294600F0B0F9204638BD807E000834
:1036F0006D36000839B10023C1630365022114301F
:10370000012200F05BBC0A461430022100F056BCD6
:1037100000F060B8A0F15400FFF7FABF00F05EB807
:10372000A0F15400FFF7FABF38B504461D4600F07B
:1037300025F8294604F1540000F0B6F8054B03F1D2
:10374000080103F12002543321606265A36520461D
:1037500038BD00BF987E000801EB410108B5CB00E1
:103760002033C1184A6922B1C05808B104319047CA
:1037700008BDC358002BFBD0984708BD38B5044698
:103780000E4B0360251D00234FF416502065636027
:103790002846A360E36023616361A36123776377B5
:1037A00023626363A363E364FFF7CAFD28462246EE
:1037B0000349FFF759FE204638BD00BF907E000840
:1037C0005937000838B504460D460430FFF748FE67
:1037D000256538BD0430FFF755BE00BF10B5043075
:1037E0000C46FFF75BFE204610BD00BF002070476F
:1037F000F8B58E18B1420F4605460FD00C4601E0D1
:10380000A64209D02B6814F8011B5B6A284698472A
:103810000130F5D1E01BF8BDF01BF8BD0020F8BD6C
:10382000F8B58E18B1420F4605460FD00C4603E09E
:1038300004F8010BA64207D02B6828469B6A9847DC
:10384000431CF5D1E01BF8BDF01BF8BD0020F8BD0E
:10385000002070470020704700207047002070470C
:1038600010B5074B03F108023C33044680E80C0016
:10387000406902F037F9204600F046FF204610BDAF
:10388000F87E0008A0F10400FFF7EABF10B5044677
:10389000FFF7E6FF204600F080FF204610BD00BF86
:1038A000A0F10400FFF7F2BF10B584B0044600F0A9
:1038B0005BFF0B4B0B4903F1080000223C3384E80B
:1038C0000900626101A8224603F058FA064901A8DE
:1038D00002F0BCFA6061FCF741FF204604B010BD65
:1038E000F87E0008A07B0008407F00080EB430B5C9
:1038F00082B005AB044653F8045B4069019302F0C3
:10390000A7F929466069019A02F0C6FD02B0BDE838
:10391000304003B0704700BF4368416910B50446AA
:10392000194400F069F8E36A2BB1A06910B104F101
:103930001C01984710BDA369002BFBD0984710BD10
:1039400010B5044600F05EF80023A361E36210BDE9
:1039500038B504460D4600F055F86561206900F061
:1039600087F941192046BDE8384000F045B800BF4E
:1039700008B5C36A014623B1806908B11C31984774
:1039800008BD8369002BFBD0984708BD08B50368C4
:103990009B68984708BD00BF10B5044B0360044600
:1039A000211D006900F040F9204610BD807F00080D
:1039B00010B5064B03600446211D006900F034F980
:1039C000204600F0EAFE204610BD00BF807F0008C0
:1039D000074B10B50360002343608360C360044657
:1039E00000F04CF90349206100F0CCF8204610BDEE
:1039F000807F00088D39000803460A460069191DBA
:103A000000F0EEB8011D006900F00EB910B40C46CC
:103A100013460146224602485DF8044B00F002B806
:103A2000907F00080FB400B5064B83B004AA1B6852
:103A300052F8041BD868019202F02EFD012001F01B
:103A4000EBFF00BF0402002038B50D46044600F02D
:103A500057F9013509D02046002100F06BF92046C6
:103A60000021BDE8384000F061B938BD38B50D46D9
:103A7000044600F045F9013511D094F900300133C6
:103A80000ED06268E368120420461A60012100F03B
:103A900051F920460021BDE8384000F047B938BD53
:103AA000024803493422FFF7B1FFEAE7CC7A000865
:103AB000E47A0008431C10B5044619D091F900308F
:103AC000581C04D10FE011F90C3F5A1C0BD09C423A
:103AD000F9D12046896800F01DFD20460021BDE88F
:103AE000104000F047BD0348BDE81040FFF79ABF03
:103AF00010BD00BFC47F0008884208B50AD0431C2F
:103B000007D0013106D00448FFF78CFF4FF0FF309B
:103B100008BD084608BD00BFD87F000808B5431C93
:103B20000DD091F900305A1C04D109E011F90C3F75
:103B30005A1C05D09842F9D14868411C00D008BDF4
:103B40000248FFF76FFF4FF0FF30F8E7EC7F000807
:103B500008B5431C0DD091F900305A1C04D109E07E
:103B600011F90C3F5A1C05D09842F9D18868411CC4
:103B700000D008BD0248FFF755FF4FF0FF30F8E7CF
:103B80000C80000838B5036804461B680D4698474A
:103B900063681D6038BD00BF38B50368DB68044644
:103BA000984763685B6883B122681D6853689847CB
:103BB000281A002862680CDC50681168836853601A
:103BC0000029F0D040688847EBE723689B68984756
:103BD00038BD236852681B691068984738BD00BF1C
:103BE00030B583B072B645680A606C684B608CB1C2
:103BF0002368D31A002B05DA0CE01D68551B002D35
:103C000003DB1C46A368002BF7D1A1608B6062B672
:103C100003B030BD036869601B6901911046984785
:103C200023460199F2E700BF08B572B643685A68A7
:103C30008A4211D04AB193688B4208D02BB19A685E
:103C40008A4205D01346002BF9D162B608BD13464F
:103C50008A689A6062B608BD92685A60036822B1A9
:103C600010681B69984762B608BD9B689847ECE7E7
:103C700008B503685B68984708BD00BF00487047F7
:103C8000408000080148FFF787BF00BF4080000860
:103C900038B5054600F0A8FC044600F0A5FC001B62
:103CA000A842FAD338BD00BF07EE100ADFED047A50
:103CB00067EE277AFDEEE77A17EE900AFFF7E8BF86
:103CC000002474494FF47A7303FB00F0FFF7E0BF60
:103CD000431C10B5044608D02046002100F01AFC11
:103CE00004F00F040120A04010BD0348034927221F
:103CF000FFF78CFEF0E700BF90830008A483000864
:103D000070B505464B1C0C4629700DD0C1F303104D
:103D100000F08AFB06462046FFF7DAFF06F11003A3
:103D200018366860AB60EE6070BD00BF90F90000AF
:103D300000F020BC38B5054690F90000431C0C4645
:103D40000BD0012C04D00021BDE8384000F0E2BBCC
:103D50002146BDE8384000F0DDBB04480449462256
:103D6000FFF754FE95F90000EBE700BFCC7A00089E
:103D7000A4830008194B2DE9F0474FF04C080F467B
:103D800008FB003839B3DFF85890DFF858A04546F3
:103D900000240126D8F8003006FA04F21A4215D0A1
:103DA0006B6BD9F81420E96906FA03F313420DD0BE
:103DB000C9F814306A684AB109690B4210464FF0DD
:103DC0000101DAF8003008BF022198470134BC42F3
:103DD00005F10405DED1BDE8F08700BF980A002098
:103DE000003C0140AC0C002000200121FFF7C2BFC5
:103DF00001200146FFF7BEBF02200121FFF7BABF35
:103E000003200121FFF7B6BF04200121FFF7B2BF55
:103E100005200146FFF7AEBF06200146FFF7AABF07
:103E20002DE9F04F85B09B464B1C0C46054602928F
:103E300000F0888001F00F06731EC1F303100E2BF3
:103E400047D8DFE803F04E57616B0808080808758B
:103E50007575757575003C4A4FF400074FF0000A00
:103E60004FF005094FF01708019200F0DDFA072125
:103E70000390204600F04EFB019A40461146FCF7A5
:103E80001FFA3249324A41F82A704C2101FB09F1EC
:103E9000304F52F8262057F801C02F4B85F800808C
:103EA0000120904007EB01084CEA000C0020C5F807
:103EB00004902C73A86008EB820247F801C00299B5
:103EC0001960039BD361C2F804B0566305B0BDE826
:103ED000F08F4FF0000AD146204A40274FF00608E5
:103EE000C2E71F4A80274FF0000A4FF001094FF048
:103EF0000708B9E71B4A4FF480774FF0000A4FF0EC
:103F000002094FF00808AFE7174A4FF400774FF067
:103F1000000A4FF003094FF00908A5E7134A4FF4D0
:103F200080674FF0000A4FF004094FF00A089BE742
:103F30000F4A4FF480774FF0010A4FF006094FF017
:103F4000280891E70846C1E7113E000800E100E0BB
:103F50000C840008980A0020AC0C0020E93D000801
:103F6000F13D0008F93D0008013E0008093E000847
:103F7000193E0008F8B50546007B6B680D490E4EEA
:103F800000F00F044C2202FB03F251F82430B15828
:103F9000B41801279F4004EB830321EA070700249C
:103FA000B75040B221465C60DC615C6300F0B2FA5D
:103FB000AC60F8BD0C840008980A002072B1012999
:103FC00020D0022919D1836823F00203012B2BD0C2
:103FD0008160072190F90C0000F09CBA01291BD0E8
:103FE00002290AD1836823F00203012B23D08260C7
:103FF0000C2190F90C0000F08DBA0C2190F90C0006
:1040000000F088BA8368023B012B0DD9816006213C
:1040100090F90C0000F07EBA8368023B012BE6D8D1
:10402000022383600721E9E703238360082190F9D5
:104030000C0000F06FBA83600621DFE7F8B5174B7C
:104040004A1E9A420F46064621D8154D34682C6008
:1040500048F2010301E0013B02D0A2699207FAD4C1
:104060000F4C6F6000234FF4804220466B61AB60C1
:10407000EB612B62EB60AB612A61FCF7C7FE7368F2
:1040800023B123681A6842F480621A60F8BD0548BB
:1040900005496722FFF7BAFCD7E700BF7F1A060081
:1040A000E40D00204C8400086884000830B40468E3
:1040B0002B4804606FF480606061206820F44070D9
:1040C00040F48070206082B041F2010001E00138CC
:1040D00002D06569ED07FAD54FF4805001E0013850
:1040E00034D06569ED07FAD501F0FE0121614FF486
:1040F000805101E0013929D060698507FAD56169ED
:104100000191A1690191002B01994FF000050FDD8C
:10411000515D216141F2010104E06069400704D46E
:1041200001390FD060690006F7D501359D42EFD106
:10413000049B83B12368284643F40073236002B0D4
:1041400030BC7047236843F4007323604FF0FF30A6
:1041500002B030BC7047284602B030BC704700BF88
:10416000E40D00200068036871B123F480630360EC
:10417000094A41F20103116801E0013B08D04A6994
:104180005206FAD50069704743F480630360EFE795
:104190004FF0FF30704700BFE40D00202DE9F043E1
:1041A00007466FF480603C68294D606120682C6090
:1041B00020F4407040F4807083B0904699462060AF
:1041C00041F2010501E0013D02D06369D807FAD54B
:1041D0004FF4805501E0013D34D06669F207FAD50D
:1041E00041F00101C9B221614FF4805101E0013970
:1041F00028D063699B07FAD563690193A36901938A
:1042000009F1FF35002D019B4FF0000408DD384611
:104210000021FFF7A7FF08F804000134AC42F6D1F3
:104220000A9B4BB938460121FFF79CFF08F80400B0
:10423000484603B0BDE8F0833B681A6842F4007258
:104240001A60EFE74FF0FF3003B0BDE8F08300BF26
:10425000E40D0020184B196848F2010301E0013B0E
:1042600002D08A699207FAD40368144A934219D09B
:10427000134A93420CD0134A934208D1124B1A6A44
:1042800042F400021A621A6A22F400021A627047AB
:104290000D4B1A6A42F480021A621A6A22F48002F2
:1042A0001A627047084B1A6A42F400121A621A6ABC
:1042B00022F400121A627047E40D002000540040FE
:1042C00000580040005C004000380240F0B5044651
:1042D00085B008460E4648491546FFF71FFC47497A
:1042E00007462846FFF71AFC01463846FFF704FC4C
:1042F000431C206079D00346414A934236D0414A5C
:10430000934211D0404A934203D1404B1A68002A8D
:104310004ED02046FFF79EFF20463D49FFF78EFE18
:104320000023636005B0F0BD3A4B1A68002AF0D153
:10433000394A01211960136C2F4943F48003136437
:10434000136C03F4800302933046029BFFF7B2FB29
:1043500028462A49FFF7AEFB3046032100F00AF950
:104360002846032100F006F92368CBE72B4B1A6897
:10437000002ACED1284A01211960136C1E4943F44A
:1043800000131364136C03F4001301933046019B74
:10439000FFF790FB28461949FFF78CFB30460321B5
:1043A00000F0E8F82846032100F0E4F82368A6E7C7
:1043B000194A01211960136C0F4943F40003136477
:1043C000136C03F4000303933046039BFFF772FB67
:1043D00028460A49FFF76EFB3046032100F0CAF871
:1043E0002846032100F0C6F893E70D480D493A220C
:1043F000FFF70CFB23687FE7488000084082000835
:104400000054004000580040005C0040B40C002004
:10441000A0860100B80C002000380240B00C00203B
:10442000D08400086884000800B587B0072859D8F0
:10443000DFE800F012202E3C4A5858042D4B2E483D
:104440001A6B42F080021A631B6B03F08003059322
:10445000059B07B05DF804FB264B28481A6B42F019
:1044600001021A631B6B03F001030093009B07B06A
:104470005DF804FB1F4B22481A6B42F002021A63DC
:104480001B6B03F002030193019B07B05DF804FB73
:10449000184B1C481A6B42F004021A631B6B03F0A2
:1044A00004030293029B07B05DF804FB114B16480E
:1044B0001A6B42F008021A631B6B03F008030393A4
:1044C000039B07B05DF804FB0A4B10481A6B42F0DF
:1044D00010021A631B6B03F010030493049B07B0D4
:1044E0005DF804FB0A48FFF79DFA002007B05DF86D
:1044F00004FB00BF00380240001C024000000240E4
:104500000004024000080240000C0240001002407B
:104510001C85000830B5431C87B005460C461CD0EE
:10452000C5F30310FFF780FF05F00F0504F00F023D
:1045300001210D4B01FA05F553F8223001950322B4
:10454000C4F3021501A9C4F3C3140293039505949F
:104550000492FCF74FFB07B030BD044804498122A8
:10456000FFF754FADCE700BFE884000890830008F6
:104570004085000838B5431C04460D4618D0C4F3E6
:104580000310FFF751FF04F00F04C268022D4FEA39
:1045900044044FF0030198BFA54001FA04F422EA55
:1045A0000404C460C26888BF00251543C56038BDD7
:1045B00002480349A622FFF729FAE0E790830008A2
:1045C00040850008054B186800B17047044A05494A
:1045D000116001221A60FBF7BFBE00BFF80C00207B
:1045E000BC0C0020000C004008B5044B1B680BB944
:1045F000FFF7E8FF024B586A08BD00BFF80C002027
:10460000000C0040034B1B685863DA6842F002025A
:10461000DA607047BC0C0020034B1B68DA6822F09C
:104620000202DA60704700BFBC0C0020024B1B681E
:104630006FF002021A617047BC0C00208368094ABF
:10464000026053B1084B1A68824201D106E01A4653
:1046500053688342FBD143685360704742681A60D5
:10466000704700BFB0850008FC0C002083680C4A2E
:1046700010B50446026053B10A4B1A68904201D14A
:104680000AE01A4653689C42FBD163685360204697
:1046900000F083F8204610BD42681A60F7E700BFBB
:1046A000B0850008FC0C0020054B027300228160DD
:1046B0000360426019B1034B1A684260186070478A
:1046C000B0850008FC0C00200D4B70B51C68064638
:1046D0000D4614B912E0646884B1A36831462A46D5
:1046E0001846002BF7D002F0EEFB0028F3D1A068AB
:1046F00002F0E1FBA842EED1204670BD002070BD63
:10470000FC0C0020007B704710B5074B044603F1FA
:1047100008023433226040F8043FFFF78FFF204641
:10472000FBF796FE204610BDB8850008A0F10400F6
:10473000FFF7EABF094B10B5044603F10802343312
:10474000226040F8043FFFF779FF2046FBF780FE28
:10475000204600F022F8204610BD00BFB8850008B2
:10476000A0F10400FFF7E6BF10B5074B0446002296
:1047700040F8043BFFF798FF044B03F10802343381
:1047800084E80C00204610BD787B0008B88500083E
:1047900003460846194601F02BB901F089BC000018
:1047A00000F05AB82DE9F047DFF8A8A08AB01F46FC
:1047B00080468946164600F051F99AF900300133D7
:1047C00004460D4604D03046394600F019FC20B9A5
:1047D000204629460AB0BDE8F0874046494600F029
:1047E0000FFC0028F4D0304639460022002301F0A7
:1047F00055F80028ECD0164B9AF80040019301229E
:104800000023CDE90289CDE904670092089394B1B1
:104810000020002102460B4600F002FF022CCDE9E9
:1048200006010AD101F0F2F821230360089B53B975
:10483000DDE90601CEE7CDE90689684600F00CFC0B
:104840000028F3D1EEE701F0E1F8089B0360EFE701
:10485000F8850008A00100202DE9F84F1F465342BB
:10486000134327F0004ADFF8F0C14AEAD3736345E7
:104870001646BE4604460D464AD8C0F1000848EA2E
:10488000000821F0004343EAD878E0458B463FD842
:1048900007F1404C0CF5801C5CEA020C54D04FEA46
:1048A000A77808F0020848EAD17853EA000137D027
:1048B0005AEA020240D0684A924555D0664A93426D
:1048C0003AD0CAEB03031B153C2B49DCBEF1000FA9
:1048D0007ADB32463B462046294600F0A1FE00F036
:1048E0008BFB00F0E9F9B8F1010F69D0B8F1020FC4
:1048F00058D0B8F1000F6CD045A3D3E9002300F0E5
:10490000B1FB45A3D3E9002300F0ACFBBDE8F88F71
:104910003046394622462B4600F0A6FBBDE8F88F0C
:10492000B8F1030FC4D8DFE808F0181802133AA151
:10493000D1E90001BDE8F88FBBF1000F2DDB38A1F4
:10494000D1E90001BDE8F88FBDE8F84F00F0B4B937
:1049500035A1D1E90001BDE8F88F2946BDE8F88FFF
:104960002FA1D1E90001BEE7534534D0B8F1030FC0
:10497000A4D801A252F828F08949000891490008FA
:104980002F4900085149000800200021BDE8F88F98
:1049900000204FF00041BDE8F88F25A1D1E90001CA
:1049A000BDE8F88F1AA3D3E9002300F05BFB0246B1
:1049B0000B4619A1D1E9000100F054FBBDE8F88FC6
:1049C00001F10041BDE8F88F3C3382DA002000217C
:1049D00089E7BDE8F88FB8F1030FADD8DFE808F03C
:1049E00002110C0714A1D1E90001BDE8F88F14A150
:1049F000D1E90001BDE8F88F13A1D1E90001BDE8BC
:104A0000F88F13A1D1E90001BDE8F88FAFF3008062
:104A1000075C143326A6A13C182D4454FB21094001
:104A2000182D4454FB21F93F182D4454FB2109C093
:104A3000182D4454FB21F9BF182D4454FB21E93FA4
:104A4000D221337F7CD902C0D221337F7CD902406E
:104A5000182D4454FB21E9BF0000F07F2DE9F84FE9
:104A6000904623F0004252EA080482468B4699465B
:104A7000184641461FD05D460BF00046864C7540F7
:104A8000A54218DC4C420C43DFF820E242EAD47421
:104A9000744510D89542D4465346474617DC28DB68
:104AA000C24526D313D17D4BF60F03EBC603D3E9E2
:104AB0000001BDE8F88F42464B465046594600F08B
:104AC00085FC02460B4600F0ABFDBDE8F88FB5F55E
:104AD000801F12DA002D40F0A280BCF1000F644666
:104AE000DFF8CC810DDD6400002C08F1FF38FADC22
:104AF00007E050465946BDE8F88F4FEA2558A8F21E
:104B0000FF38B2F5801F0DDA002A40F0A18000299D
:104B10000C46DFF89CE109DD6400002C0EF1FF3E3D
:104B2000FADC03E04FEA225EAEF2FF3E5C4CA045A9
:104B300058DBC5F3130444F48014594DAE455FDBD4
:104B4000C0F3130141F48011CEEB080007E052EAF4
:104B5000050312D0EC0F04EB42046B000138DD1B9F
:104B6000621A90B1BB4238BF02F1FF32002AEEDA7E
:104B7000DA0F02EB44045B00F0E7484BF60F03EB5F
:104B8000C606D6E90001BDE8F88F9F42114688BFEE
:104B900002F1FF310029ACBFDB1B214651EA0302C1
:104BA000EBD04048814208DCDA0F02EB4101814240
:104BB0000EF1FF3E4FEA4303F6DD394A964550DADF
:104BC000374ACEEB0202142A55DC0EF21E4ED340B9
:104BD00001FA0EF0034341FA02F242EA06011846D6
:104BE000BDE8F88F2E4BC8EB03031F2B29DC08F21E
:104BF0001E449D402CFA04F40CFA03F32C439CE76A
:104C00002748CEEB00001F2815DC0EF21E4582401F
:104C100021FA05F501FA00F742EA050194E7EC02F2
:104C2000002CDFF87C807FF76CAF6400002C08F16B
:104C3000FF38FADC65E71C4ACEEB02029140002700
:104C400082E7194BC8EB03030CFA03F4002374E763
:104C5000DFF84CE0D4026400002C0EF1FF3EFADCD9
:104C600064E7A1F580110E430EF2FF3E46EA0E51B5
:104C70001846BDE8F88F1F2A07DC0EF21E4ED340FF
:104C800001FA0EF10B433246A7E7074BCEEB0303C5
:104C900041FA03F33246A0E7FFFFEF7F00860008EA
:104CA00002FCFFFFFFFF0F00E2FBFFFF0000F07FB1
:104CB000EDFBFFFF000000002DE9F84FC44B21F091
:104CC00000469E4204460D468B460EDDC14B9E4279
:104CD00000F3AC8000F0A780BBF1000F40F3E5804B
:104CE0009FA1D1E90001BDE8F88FBB4B9E4200F3C4
:104CF000B580A3F1DE739E4240F3A0804FF0FF3AEF
:104D000022462B462046294600F060FB02460B4611
:104D10008046894600F05AFB93A3D3E90023064658
:104D20000F4600F053FB92A3D3E9002300F09CF957
:104D300032463B4600F04AFB8FA3D3E9002300F044
:104D400093F932463B4600F041FB8DA3D3E90023A3
:104D500000F08AF932463B4600F038FB8AA3D3E9DB
:104D6000002300F081F932463B4600F02FFB88A378
:104D7000D3E9002300F078F942464B4600F026FBC9
:104D800085A3D3E90023804689463046394600F0A2
:104D90001DFB83A3D3E9002300F064F932463B46B0
:104DA00000F014FB80A3D3E9002300F05BF9324646
:104DB0003B4600F00BFB7EA3D3E9002300F052F941
:104DC00032463B4600F002FB7BA3D3E9002300F010
:104DD00049F932463B4600F0F9FABAF1FF3F024684
:104DE0000B466BD04046494600F03EF922462B4622
:104DF00000F0ECFA794E7A4B4FEACA0A56449A44CC
:104E0000DAE9002300F02EF922462B4600F02AF9B9
:104E100002460B46D6E9000100F024F9BBF1000F71
:104E200048DBBDE8F88F00283FF456AF20462946FE
:104E300022462B4600F018F9BDE8F88F60A3D3E9AD
:104E4000002300F011F90022664B00F04FFD00280E
:104E50003FF454AF20462946BDE8F88F00F0CCF867
:104E6000614B9E4204460D4638DCA3F550239E421A
:104E70005DDC02460B4600F0F7F80022594B00F0CB
:104E8000F1F8002206460F46204629464FF080439F
:104E900000F0EAF802460B463046394600F0C0FB07
:104EA0004FF0000A04460D462AE747A1D1E9000168
:104EB000BDE8F88F01F10041BDE8F88F4046494652
:104EC00000F0D2F822462B4600F080FA02460B464C
:104ED0002046294600F0C6F8BDE8F88F434B9E42B5
:104EE0001ADC0022424B00F0BDF8002206460F46B5
:104EF000204629463E4B00F069FA0022394B00F06B
:104F0000B3F802460B463046394600F089FB4FF0B5
:104F1000020A04460D46F3E602460B4600203549D8
:104F200000F07EFB4FF0030A04460D46E8E600223F
:104F30002C4B00F097F8002206460F4620462946E3
:104F4000284B00F091F802460B463046394600F0F7
:104F500067FB4FF0010A04460D46D1E6AFF300802F
:104F6000182D4454FB21F93F11DA22E33AAD903F6A
:104F7000EB0D76244B7BA93F513DD0A0660DB13F90
:104F80006E204CC5CD45B73FFF8300922449C23FF8
:104F90000D5555555555D53F2F6C6A2C44B4A2BFBD
:104FA0009AFDDE522DDEAD3F6D9A74AFF2B0B33F85
:104FB000711623FEC671BC3FC4EB98999999C93FFD
:104FC0009C7500883CE4377E182D4454FB21F9BFC2
:104FD000FFFF0F440000F07FFFFFDB3F308600083B
:104FE000108600080000F03FFFFFF23FFF7F034004
:104FF0000000F83F0000F0BF21F00041704700BF03
:1050000010B431F000440B4608D0114AA1F58011CC
:10501000914208D804205DF8044B704718B902206B
:105020005DF8044B704703F1FF43094A03F5E003C1
:105030009342EFD9B4F5801F01D20320EBE7054B73
:105040009C4201D00020E6E7B0FA80F04009E2E798
:10505000FFFFDF7F0000F07F0020704781F00041FC
:1050600002E000BF83F0004330B54FEA41044FEA4D
:10507000430594EA050F08BF90EA020F1FBF54EAE8
:10508000000C55EA020C7FEA645C7FEA655C00F084
:10509000E2804FEA5454D4EB5555B8BF6D420CDD55
:1050A0002C4480EA020281EA030382EA000083EAD8
:1050B000010180EA020281EA0303362D88BF30BD78
:1050C00011F0004F4FEA01314FF4801C4CEA1131CE
:1050D00002D0404261EB410113F0004F4FEA03332D
:1050E0004CEA133302D0524263EB430394EA050FB8
:1050F00000F0A780A4F10104D5F1200E0DDB02FA27
:105100000EFC22FA05F2801841F1000103FA0EF2BA
:10511000801843FA05F359410EE0A5F120050EF180
:10512000200E012A03FA0EFC28BF4CF0020C43FAB1
:1051300005F3C01851EBE37101F0004507D54FF0BE
:10514000000EDCF1000C7EEB00006EEB0101B1F50E
:10515000801F1BD3B1F5001F0CD349085FEA300054
:105160004FEA3C0C04F101044FEA445212F5800F5F
:1051700080F09A80BCF1004F08BF5FEA500C50F1FC
:10518000000041EB045141EA050130BD5FEA4C0CDF
:10519000404141EB010111F4801FA4F10104E9D168
:1051A00091F0000F04BF01460020B1FA81F308BF5F
:1051B0002033A3F10B03B3F120020CDA0C3208DD2B
:1051C00002F1140CC2F10C0201FA0CF021FA02F106
:1051D0000CE002F11402D8BFC2F1200C01FA02F176
:1051E00020FA0CFCDCBF41EA0C019040E41AA2BF9B
:1051F00001EB0451294330BD6FEA04041F3C1CDA63
:105200000C340EDC04F11404C4F1200220FA04F082
:1052100001FA02F340EA030021FA04F345EA03012C
:1052200030BDC4F10C04C4F1200220FA02F001FAEE
:1052300004F340EA0300294630BD21FA04F0294670
:1052400030BD94F0000F83F4801306BF81F4801109
:105250000134013D4EE77FEA645C18BF7FEA655C7C
:1052600029D094EA050F08BF90EA020F05D054EA4E
:10527000000C04BF1946104630BD91EA030F1EBF53
:105280000021002030BD5FEA545C05D14000494157
:1052900028BF41F0004130BD14F580043CBF01F54A
:1052A000801130BD01F0004545F0FE4141F4700130
:1052B0004FF0000030BD7FEA645C1ABF194610460B
:1052C0007FEA655C1CBF0B46024650EA013406BF0C
:1052D00052EA033591EA030F41F4002130BD00BFCB
:1052E00090F0000F04BF0021704730B54FF4806488
:1052F00004F132044FF000054FF0000150E700BF09
:1053000090F0000F04BF0021704730B54FF4806467
:1053100004F1320410F0004548BF40424FF0000154
:105320003EE700BF42004FEAE2014FEA31014FEA97
:1053300002701FBF12F07F4393F07F4F81F06051E6
:10534000704792F0000F14BF93F07F4F704730B555
:105350004FF4607401F0004521F0004120E700BFE8
:1053600050EA010208BF704730B54FF000050AE06F
:1053700050EA010208BF704730B511F0004502D570
:10538000404261EB41014FF4806404F132045FEA72
:10539000915C3FF4DCAE4FF003025FEADC0C18BF17
:1053A00003325FEADC0C18BF033202EBDC02C2F10D
:1053B000200300FA03FC20FA02F001FA03FE40EA9F
:1053C0000E0021FA02F11444C1E600BF70B54FF09F
:1053D000FF0C4CF4E06C1CEA11541DBF1CEA135581
:1053E00094EA0C0F95EA0C0F00F0DEF82C4481EAE9
:1053F000030621EA4C5123EA4C5350EA013518BF09
:1054000052EA033541F4801143F4801338D0A0FBF5
:1054100002CE4FF00005E1FB02E506F00042E0FBA2
:1054200003E54FF00006E1FB03569CF0000F18BFA8
:105430004EF0010EA4F1FF04B6F5007F64F5407450
:1054400004D25FEA4E0E6D4146EB060642EAC621E3
:1054500041EA55514FEAC52040EA5E504FEACE2E50
:10546000B4F1FD0C88BFBCF5E06F1ED8BEF1004F53
:1054700008BF5FEA500E50F1000041EB045170BDCF
:1054800006F0004646EA010140EA020081EA030113
:10549000B4EB5C04C2BFD4EB0C0541EA045170BD0F
:1054A00041F480114FF0000E013C00F3AB8014F189
:1054B000360FDEBF002001F0004170BDC4F10004D2
:1054C000203C35DA0C341BDC04F11404C4F1200553
:1054D00000FA05F320FA04F001FA05F240EA0200AE
:1054E00001F0004221F0004110EBD37021FA04F6E4
:1054F00042EB06015EEA430E08BF20EAD37070BD9E
:10550000C4F10C04C4F1200500FA04F320FA05F0FC
:1055100001FA04F240EA020001F0004110EBD370FE
:1055200041F100015EEA430E08BF20EAD37070BD6E
:10553000C4F1200500FA05F24EEA020E20FA04F347
:1055400001FA05F243EA020321FA04F001F00041F6
:1055500021FA04F220EA020000EBD3705EEA430E67
:1055600008BF20EAD37070BD94F0000F0FD101F096
:105570000046400041EB010111F4801F08BF013CCF
:10558000F7D041EA060195F0000F18BF704703F00D
:105590000046520043EB030313F4801F08BF013D94
:1055A000F7D043EA0603704794EA0C0F0CEA135550
:1055B00018BF95EA0C0F0CD050EA410618BF52EA0A
:1055C0004306D1D181EA030101F000414FF0000010
:1055D00070BD50EA410606BF1046194652EA43061E
:1055E00019D094EA0C0F02D150EA013613D195EA92
:1055F0000C0F05D152EA03361CBF104619460AD1DA
:1056000081EA030101F0004141F0FE4141F47001E3
:105610004FF0000070BD41F0FE4141F4780170BDD3
:1056200070B54FF0FF0C4CF4E06C1CEA11541DBF38
:105630001CEA135594EA0C0F95EA0C0F00F0A7F83A
:10564000A4EB050481EA030E52EA03354FEA013167
:1056500000F088804FEA03334FF0805545EA13137A
:1056600043EA12634FEA022245EA111545EA106542
:105670004FEA00260EF000419D4208BF964244F1D9
:10568000FD0404F5407402D25B084FEA3202B61AF8
:1056900065EB03055B084FEA32024FF480104FF4CC
:1056A000002CB6EB020E75EB030E22BFB61A754640
:1056B00040EA0C005B084FEA3202B6EB020E75EBD3
:1056C000030E22BFB61A754640EA5C005B084FEA3B
:1056D0003202B6EB020E75EB030E22BFB61A754608
:1056E00040EA9C005B084FEA3202B6EB020E75EB13
:1056F000030E22BFB61A754640EADC0055EA060ED4
:1057000018D04FEA051545EA16754FEA06164FEA16
:10571000C30343EA52734FEAC2025FEA1C1CC0D1C2
:1057200011F4801F0BD141EA00014FF000004FF04F
:10573000004CB6E711F4801F04BF01430020B4F110
:10574000FD0C88BFBCF5E06F3FF6AFAEB5EB030CC8
:1057500004BFB6EB020C5FEA500C50F1000041EBC5
:10576000045170BD0EF0004E4EEA113114EB5C0492
:10577000C2BFD4EB0C0541EA045170BD41F4801165
:105780004FF0000E013C90E645EA060E8DE60CEA6D
:10579000135594EA0C0F08BF95EA0C0F3FF43BAF8A
:1057A00094EA0C0F0AD150EA01347FF434AF95EA41
:1057B0000C0F7FF425AF104619462CE795EA0C0F25
:1057C00006D152EA03353FF4FDAE1046194622E7F2
:1057D00050EA410618BF52EA43067FF4C5AE50EACC
:1057E00041047FF40DAF52EA43057FF4EBAE12E7BC
:1057F0004FF0FF3C06E000BF4FF0010C02E000BF9D
:105800004FF0010C4DF804CD4FEA410C7FEA6C5C7F
:105810004FEA430C18BF7FEA6C5C1BD001B050EA22
:10582000410C0CBF52EA430C91EA030F02BF90EA0D
:10583000020F0020704710F1000F91EA030F58BFCC
:10584000994208BF90422CBFD8176FEAE37040F02E
:10585000010070474FEA410C7FEA6C5C02D150EACC
:10586000013C07D14FEA430C7FEA6C5CD6D152EA87
:10587000033CD3D05DF8040B704700BF844610464C
:1058800062468C461946634600E000BF01B5FFF74B
:10589000B7FF002848BF10F1000F01BD4DF808ED1B
:1058A000FFF7F4FF0CBF012000205DF808FB00BFEC
:1058B0004DF808EDFFF7EAFF34BF012000205DF846
:1058C00008FB00BF4DF808EDFFF7E0FF94BF012093
:1058D00000205DF808FB00BF4DF808EDFFF7CEFF94
:1058E00094BF012000205DF808FB00BF4DF808EDD3
:1058F000FFF7C4FF34BF012000205DF808FB00BFA4
:105900004FEA410212F5001215D211D56FF47873E7
:10591000B3EB625212D94FEAC12343F0004343EA8A
:10592000505311F0004F23FA02F018BF4042704765
:105930004FF00000704750EA013005D111F00040EF
:1059400008BF6FF0004070474FF00000704700BF85
:105950004FEA4102B2F1E04324BFB3F5001CDCF191
:10596000FE5C0DD901F0004C4FEAC0024CEA5070C9
:10597000B2F1004F40EB830008BF20F001007047F8
:1059800011F0804F21D113F13872BCBF01F00040FB
:10599000704741F480114FEA5252C2F11802C2F12D
:1059A000200C10FA0CF320FA02F018BF40F00100AE
:1059B0004FEAC1234FEAD32303FA0CFC40EA0C0060
:1059C00023FA02F34FEA4303CCE77FEA625307D19D
:1059D00050EA01331EBF4FF0FE4040F440007047D4
:1059E00001F0004040F0FE4040F40000704700BF6E
:1059F00038B5054604480C46134620B10220294616
:105A00002246AFF3008038BD00000000014B18684B
:105A1000704700BF0402002008B5074B044613B1CD
:105A20000021AFF30080054B1868836A03B19847E3
:105A30002046FAF781FE00BF00000000B086000893
:105A400070B505460C4609B9002070BD18B18369D0
:105A50000BB900F04FF9204B9C4201D16C6808E073
:105A60001E4B9C4201D1AC6803E01D4B9C4208BF19
:105A7000EC68B4F90C30002BE6D02846214600F043
:105A800039F8236B064633B12846216A9847002827
:105A9000B8BF4FF0FF36A3891B0603D528462169FE
:105AA00000F030FB616B41B104F14403994202D034
:105AB000284600F027FB00236363A16C21B1284630
:105AC00000F020FB0023A36400F07EF90023A381F3
:105AD00000F07BF9304670BD5086000870860008E3
